{
	"data": {
		"bytecode": {
			"linkReferences": {},
			"object": "60806040523480156200001157600080fd5b50620000656040518060400160405280600881526020016725aca1aa37b5b2b760c11b8152506040518060400160405280600881526020016725aca1aa37b5b2b760c11b815250336200006b60201b60201c565b62000259565b82516200008090600890602086019062000176565b5081516200009690600990602085019062000176565b50620000a4600082620000d5565b620000d07f97667070c54ef182b0f5858b034beac1b6f3089aa2d3188bb1e8929f4fa9b92982620000d5565b505050565b6000828152602081815260408083206001600160a01b038516845290915290205460ff1662000172576000828152602081815260408083206001600160a01b03851684529091529020805460ff19166001179055620001313390565b6001600160a01b0316816001600160a01b0316837f2f8788117e7eff1d82e926ec794901d17c78024a50270940304540a733656f0d60405160405180910390a45b5050565b82805462000184906200021c565b90600052602060002090601f016020900481019282620001a85760008555620001f3565b82601f10620001c357805160ff1916838001178555620001f3565b82800160010185558215620001f3579182015b82811115620001f3578251825591602001919060010190620001d6565b506200020192915062000205565b5090565b5b8082111562000201576000815560010162000206565b600181811c908216806200023157607f821691505b602082108114156200025357634e487b7160e01b600052602260045260246000fd5b50919050565b611cbf80620002696000396000f3fe608060405234801561001057600080fd5b50600436106101585760003560e01c80636d70f7ae116100c3578063a217fddf1161007c578063a217fddf146102e1578063bc8dd06a146102e9578063c87b56dd146102fc578063d547741f1461030f578063eb31403f14610322578063f5b541a61461033557600080fd5b80636d70f7ae1461027a57806370a082311461028d57806374a8f103146102a0578063773c02d4146102b357806391d14854146102c657806395d89b41146102d957600080fd5b80632f2ff15d116101155780632f2ff15d146101fb57806330176e131461020e57806336568abe1461022157806344df8e70146102345780636352211e1461023c5780636c60144a1461026757600080fd5b8063011002df1461015d57806301ffc9a71461017257806306fdde031461019a57806318160ddd146101af578063248a9ca3146101c557806324d7806c146101e8575b600080fd5b61017061016b366004611620565b61034a565b005b610185610180366004611695565b6104ac565b60405190151581526020015b60405180910390f35b6101a26104f2565b60405161019191906116eb565b6101b7610580565b604051908152602001610191565b6101b76101d336600461171e565b60009081526020819052604090206001015490565b6101856101f6366004611753565b610591565b61017061020936600461176e565b61059d565b61017061021c36600461179a565b6105c7565b61017061022f36600461176e565b61065c565b6101706106da565b61024f61024a36600461171e565b610789565b6040516001600160a01b039091168152602001610191565b610170610275366004611620565b6107c8565b610185610288366004611753565b610927565b6101b761029b366004611753565b610941565b6101706102ae366004611753565b61096b565b6101b76102c1366004611753565b610a73565b6101856102d436600461176e565b610a9b565b6101a2610ac4565b6101b7600081565b6101b76102f73660046117fa565b610ad1565b6101a261030a36600461171e565b610bf6565b61017061031d36600461176e565b610c54565b6101b7610330366004611753565b610c79565b6101b7600080516020611c4a83398151915281565b80610363600080516020611c4a83398151915233610a9b565b6103885760405162461bcd60e51b815260040161037f90611824565b60405180910390fd5b60648111156103a95760405162461bcd60e51b815260040161037f9061187a565b60005b818160ff1610156104a657600084848360ff168181106103ce576103ce6118bc565b90506020020160208101906103e39190611753565b90506001600160a01b03811615806104035750610401600482610db9565b155b1561040e5750610494565b600061041b600483610dd5565b9050610428600483610dea565b50610434600182610dff565b5060405181906001600160a01b038416907fec9ab91322523c899ede7830ec9bfc992b5981cdcc27b91162fb23de5791117b90600090a360405181906000906001600160a01b03851690600080516020611c6a833981519152908390a450505b8061049e816118e8565b9150506103ac565b50505050565b60006001600160e01b031982166380ac58cd60e01b14806104dd57506001600160e01b03198216635b5e139f60e01b145b806104ec57506104ec82610e0b565b92915050565b600880546104ff90611908565b80601f016020809104026020016040519081016040528092919081815260200182805461052b90611908565b80156105785780601f1061054d57610100808354040283529160200191610578565b820191906000526020600020905b81548152906001019060200180831161055b57829003601f168201915b505050505081565b600061058c6004610e40565b905090565b60006104ec8183610a9b565b6000828152602081905260409020600101546105b881610e4b565b6105c28383610e58565b505050565b6105d2600033610a9b565b6106505760405162461bcd60e51b815260206004820152604360248201527f4f6e6c7920746865206163636f756e7420776974682044454641554c545f414460448201527f4d494e5f524f4c452063616e2073657420746865206261736520746f6b656e2060648201526255524960e81b608482015260a40161037f565b6105c2600a8383611587565b6001600160a01b03811633146106cc5760405162461bcd60e51b815260206004820152602f60248201527f416363657373436f6e74726f6c3a2063616e206f6e6c792072656e6f756e636560448201526e103937b632b9903337b91039b2b63360891b606482015260840161037f565b6106d68282610edc565b5050565b336106e6600482610db9565b6107025760405162461bcd60e51b815260040161037f90611943565b600061070f600483610dd5565b905061071c600483610dea565b50610728600182610dff565b5060405181906001600160a01b038416907fcc16f5dbb4873280815c1ee09dbd06736cffcc184412cf7a71a0fdb75d397ca590600090a360405181906000906001600160a01b03851690600080516020611c6a833981519152908390a45050565b60006104ec826040518060400160405280600f81526020016e125b9d985b1a59081d1bdad95b9259608a1b8152506001610f419092919063ffffffff16565b806107e1600080516020611c4a83398151915233610a9b565b6107fd5760405162461bcd60e51b815260040161037f90611984565b606481111561081e5760405162461bcd60e51b815260040161037f9061187a565b60005b818160ff1610156104a657600084848360ff16818110610843576108436118bc565b90506020020160208101906108589190611753565b90506001600160a01b03811615806108765750610876600482610db9565b156108815750610915565b61088f600780546001019055565b600061089a60075490565b90506108a860048383610f56565b506108b560018284610f6c565b5060405181906001600160a01b038416907fe9274a84b19e9428826de6bae8c48329354f8f0e73f771b97cae2d9dccd45a2790600090a360405181906001600160a01b03841690600090600080516020611c6a833981519152908290a450505b8061091f816118e8565b915050610821565b60006104ec600080516020611c4a83398151915283610a9b565b60008061094f600484610f82565b5090508061095e576000610961565b60015b60ff169392505050565b610983600080516020611c4a83398151915233610a9b565b61099f5760405162461bcd60e51b815260040161037f90611824565b6001600160a01b0381166109c55760405162461bcd60e51b815260040161037f906119da565b6109d0600482610db9565b6109ec5760405162461bcd60e51b815260040161037f90611943565b60006109f9600483610dd5565b9050610a06600483610dea565b50610a12600182610dff565b5060405181906001600160a01b038416907fec9ab91322523c899ede7830ec9bfc992b5981cdcc27b91162fb23de5791117b90600090a360405181906000906001600160a01b03851690600080516020611c6a833981519152908390a45050565b60006104ec82604051806060016040528060238152602001611c276023913960049190610fa9565b6000918252602082815260408084206001600160a01b0393909316845291905290205460ff1690565b600980546104ff90611908565b6000610aeb600080516020611c4a83398151915233610a9b565b610b075760405162461bcd60e51b815260040161037f90611984565b6001600160a01b038316610b2d5760405162461bcd60e51b815260040161037f906119da565b610b38600484610db9565b15610b7a5760405162461bcd60e51b815260206004820152601260248201527153425420616c72656164792065786973747360701b604482015260640161037f565b610b8660048484610f56565b50610b9360018385610f6c565b5060405182906001600160a01b038516907fe9274a84b19e9428826de6bae8c48329354f8f0e73f771b97cae2d9dccd45a2790600090a360405182906001600160a01b03851690600090600080516020611c6a833981519152908290a450919050565b60606000600a8054610c0790611908565b905011610c2357604051806020016040528060008152506104ec565b600a610c2e83610fbf565b604051602001610c3f929190611a20565b60405160208183030381529060405292915050565b600082815260208190526040902060010154610c6f81610e4b565b6105c28383610edc565b6000610c93600080516020611c4a83398151915233610a9b565b610caf5760405162461bcd60e51b815260040161037f90611984565b6001600160a01b038216610cd55760405162461bcd60e51b815260040161037f906119da565b610ce0600483610db9565b15610d225760405162461bcd60e51b815260206004820152601260248201527153425420616c72656164792065786973747360701b604482015260640161037f565b610d30600780546001019055565b6000610d3b60075490565b9050610d4960048483610f56565b50610d5660018285610f6c565b5060405181906001600160a01b038516907fe9274a84b19e9428826de6bae8c48329354f8f0e73f771b97cae2d9dccd45a2790600090a360405181906001600160a01b03851690600090600080516020611c6a833981519152908290a492915050565b6000610dce836001600160a01b0384166110bd565b9392505050565b6000610dce836001600160a01b0384166110c9565b6000610dce836001600160a01b038416611139565b6000610dce8383611139565b60006001600160e01b03198216637965db0b60e01b14806104ec57506301ffc9a760e01b6001600160e01b03198316146104ec565b60006104ec82611156565b610e558133611161565b50565b610e628282610a9b565b6106d6576000828152602081815260408083206001600160a01b03851684529091529020805460ff19166001179055610e983390565b6001600160a01b0316816001600160a01b0316837f2f8788117e7eff1d82e926ec794901d17c78024a50270940304540a733656f0d60405160405180910390a45050565b610ee68282610a9b565b156106d6576000828152602081815260408083206001600160a01b0385168085529252808320805460ff1916905551339285917ff6391f5c32d9c69d2a47ea670b442974b53935d1edc7fd64eb21e047a839171b9190a45050565b6000610f4e8484846111ba565b949350505050565b6000610f4e846001600160a01b03851684611206565b6000610f4e84846001600160a01b038516611206565b6000808080610f9a866001600160a01b038716611223565b909450925050505b9250929050565b6000610f4e846001600160a01b038516846111ba565b606081610fe35750506040805180820190915260018152600360fc1b602082015290565b8160005b811561100d5780610ff781611ac7565b91506110069050600a83611af8565b9150610fe7565b60008167ffffffffffffffff81111561102857611028611b0c565b6040519080825280601f01601f191660200182016040528015611052576020820181803683370190505b5090505b8415610f4e57611067600183611b22565b9150611074600a86611b39565b61107f906030611b4d565b60f81b818381518110611094576110946118bc565b60200101906001600160f81b031916908160001a9053506110b6600a86611af8565b9450611056565b6000610dce838361125d565b6000818152600283016020526040812054801515806110ed57506110ed84846110bd565b610dce5760405162461bcd60e51b815260206004820152601e60248201527f456e756d657261626c654d61703a206e6f6e6578697374656e74206b65790000604482015260640161037f565b60008181526002830160205260408120819055610dce8383611275565b60006104ec82611281565b61116b8282610a9b565b6106d6576111788161128b565b61118383602061129d565b604051602001611194929190611b65565b60408051601f198184030181529082905262461bcd60e51b825261037f916004016116eb565b6000828152600284016020526040812054801515806111de57506111de85856110bd565b83906111fd5760405162461bcd60e51b815260040161037f91906116eb565b50949350505050565b60008281526002840160205260408120829055610f4e8484611439565b60008181526002830160205260408120548190806112525761124585856110bd565b925060009150610fa29050565b600192509050610fa2565b60008181526001830160205260408120541515610dce565b6000610dce8383611445565b60006104ec825490565b60606104ec6001600160a01b03831660145b606060006112ac836002611bda565b6112b7906002611b4d565b67ffffffffffffffff8111156112cf576112cf611b0c565b6040519080825280601f01601f1916602001820160405280156112f9576020820181803683370190505b509050600360fc1b81600081518110611314576113146118bc565b60200101906001600160f81b031916908160001a905350600f60fb1b81600181518110611343576113436118bc565b60200101906001600160f81b031916908160001a9053506000611367846002611bda565b611372906001611b4d565b90505b60018111156113ea576f181899199a1a9b1b9c1cb0b131b232b360811b85600f16601081106113a6576113a66118bc565b1a60f81b8282815181106113bc576113bc6118bc565b60200101906001600160f81b031916908160001a90535060049490941c936113e381611bf9565b9050611375565b508315610dce5760405162461bcd60e51b815260206004820181905260248201527f537472696e67733a20686578206c656e67746820696e73756666696369656e74604482015260640161037f565b6000610dce8383611538565b6000818152600183016020526040812054801561152e576000611469600183611b22565b855490915060009061147d90600190611b22565b90508181146114e257600086600001828154811061149d5761149d6118bc565b90600052602060002001549050808760000184815481106114c0576114c06118bc565b6000918252602080832090910192909255918252600188019052604090208390555b85548690806114f3576114f3611c10565b6001900381819060005260206000200160009055905585600101600086815260200190815260200160002060009055600193505050506104ec565b60009150506104ec565b600081815260018301602052604081205461157f575081546001818101845560008481526020808220909301849055845484825282860190935260409020919091556104ec565b5060006104ec565b82805461159390611908565b90600052602060002090601f0160209004810192826115b557600085556115fb565b82601f106115ce5782800160ff198235161785556115fb565b828001600101855582156115fb579182015b828111156115fb5782358255916020019190600101906115e0565b5061160792915061160b565b5090565b5b80821115611607576000815560010161160c565b6000806020838503121561163357600080fd5b823567ffffffffffffffff8082111561164b57600080fd5b818501915085601f83011261165f57600080fd5b81358181111561166e57600080fd5b8660208260051b850101111561168357600080fd5b60209290920196919550909350505050565b6000602082840312156116a757600080fd5b81356001600160e01b031981168114610dce57600080fd5b60005b838110156116da5781810151838201526020016116c2565b838111156104a65750506000910152565b602081526000825180602084015261170a8160408501602087016116bf565b601f01601f19169190910160400192915050565b60006020828403121561173057600080fd5b5035919050565b80356001600160a01b038116811461174e57600080fd5b919050565b60006020828403121561176557600080fd5b610dce82611737565b6000806040838503121561178157600080fd5b8235915061179160208401611737565b90509250929050565b600080602083850312156117ad57600080fd5b823567ffffffffffffffff808211156117c557600080fd5b818501915085601f8301126117d957600080fd5b8135818111156117e857600080fd5b86602082850101111561168357600080fd5b6000806040838503121561180d57600080fd5b61181683611737565b946020939093013593505050565b60208082526036908201527f4f6e6c7920746865206163636f756e742077697468204f50455241544f525f5260408201527513d3114818d85b881c995d9bdad9481d1a194814d09560521b606082015260800190565b60208082526022908201527f546865206d6178206c656e677468206f66206164647265737365732069732031604082015261030360f41b606082015260800190565b634e487b7160e01b600052603260045260246000fd5b634e487b7160e01b600052601160045260246000fd5b600060ff821660ff8114156118ff576118ff6118d2565b60010192915050565b600181811c9082168061191c57607f821691505b6020821081141561193d57634e487b7160e01b600052602260045260246000fd5b50919050565b60208082526021908201527f546865206163636f756e7420646f6573206e6f74206861766520616e792053426040820152601560fa1b606082015260800190565b60208082526036908201527f4f6e6c7920746865206163636f756e742077697468204f50455241544f525f5260408201527513d3114818d85b88185d1d195cdd081d1a194814d09560521b606082015260800190565b60208082526010908201526f4164647265737320697320656d70747960801b604082015260600190565b60008151611a168185602086016116bf565b9290920192915050565b600080845481600182811c915080831680611a3c57607f831692505b6020808410821415611a5c57634e487b7160e01b86526022600452602486fd5b818015611a705760018114611a8157611aae565b60ff19861689528489019650611aae565b60008b81526020902060005b86811015611aa65781548b820152908501908301611a8d565b505084890196505b505050505050611abe8185611a04565b95945050505050565b6000600019821415611adb57611adb6118d2565b5060010190565b634e487b7160e01b600052601260045260246000fd5b600082611b0757611b07611ae2565b500490565b634e487b7160e01b600052604160045260246000fd5b600082821015611b3457611b346118d2565b500390565b600082611b4857611b48611ae2565b500690565b60008219821115611b6057611b606118d2565b500190565b7f416363657373436f6e74726f6c3a206163636f756e7420000000000000000000815260008351611b9d8160178501602088016116bf565b7001034b99036b4b9b9b4b733903937b6329607d1b6017918401918201528351611bce8160288401602088016116bf565b01602801949350505050565b6000816000190483118215151615611bf457611bf46118d2565b500290565b600081611c0857611c086118d2565b506000190190565b634e487b7160e01b600052603160045260246000fdfe5468652077616c6c657420686173206e6f7420617474657374656420616e792053425497667070c54ef182b0f5858b034beac1b6f3089aa2d3188bb1e8929f4fa9b929ddf252ad1be2c89b69c2b068fc378daa952ba7f163c4a11628f55a4df523b3efa264697066735822122052c2977ea14240fafbdac993288dfecabba0725a9315fdd690ba00a82372a97664736f6c634300080c0033",
			"opcodes": "PUSH1 0x80 PUSH1 0x40 MSTORE CALLVALUE DUP1 ISZERO PUSH3 0x11 JUMPI PUSH1 0x0 DUP1 REVERT JUMPDEST POP PUSH3 0x65 PUSH1 0x40 MLOAD DUP1 PUSH1 0x40 ADD PUSH1 0x40 MSTORE DUP1 PUSH1 0x8 DUP2 MSTORE PUSH1 0x20 ADD PUSH8 0x25ACA1AA37B5B2B7 PUSH1 0xC1 SHL DUP2 MSTORE POP PUSH1 0x40 MLOAD DUP1 PUSH1 0x40 ADD PUSH1 0x40 MSTORE DUP1 PUSH1 0x8 DUP2 MSTORE PUSH1 0x20 ADD PUSH8 0x25ACA1AA37B5B2B7 PUSH1 0xC1 SHL DUP2 MSTORE POP CALLER PUSH3 0x6B PUSH1 0x20 SHL PUSH1 0x20 SHR JUMP JUMPDEST PUSH3 0x259 JUMP JUMPDEST DUP3 MLOAD PUSH3 0x80 SWAP1 PUSH1 0x8 SWAP1 PUSH1 0x20 DUP7 ADD SWAP1 PUSH3 0x176 JUMP JUMPDEST POP DUP2 MLOAD PUSH3 0x96 SWAP1 PUSH1 0x9 SWAP1 PUSH1 0x20 DUP6 ADD SWAP1 PUSH3 0x176 JUMP JUMPDEST POP PUSH3 0xA4 PUSH1 0x0 DUP3 PUSH3 0xD5 JUMP JUMPDEST PUSH3 0xD0 PUSH32 0x97667070C54EF182B0F5858B034BEAC1B6F3089AA2D3188BB1E8929F4FA9B929 DUP3 PUSH3 0xD5 JUMP JUMPDEST POP POP POP JUMP JUMPDEST PUSH1 0x0 DUP3 DUP2 MSTORE PUSH1 0x20 DUP2 DUP2 MSTORE PUSH1 0x40 DUP1 DUP4 KECCAK256 PUSH1 0x1 PUSH1 0x1 PUSH1 0xA0 SHL SUB DUP6 AND DUP5 MSTORE SWAP1 SWAP2 MSTORE SWAP1 KECCAK256 SLOAD PUSH1 0xFF AND PUSH3 0x172 JUMPI PUSH1 0x0 DUP3 DUP2 MSTORE PUSH1 0x20 DUP2 DUP2 MSTORE PUSH1 0x40 DUP1 DUP4 KECCAK256 PUSH1 0x1 PUSH1 0x1 PUSH1 0xA0 SHL SUB DUP6 AND DUP5 MSTORE SWAP1 SWAP2 MSTORE SWAP1 KECCAK256 DUP1 SLOAD PUSH1 0xFF NOT AND PUSH1 0x1 OR SWAP1 SSTORE PUSH3 0x131 CALLER SWAP1 JUMP JUMPDEST PUSH1 0x1 PUSH1 0x1 PUSH1 0xA0 SHL SUB AND DUP2 PUSH1 0x1 PUSH1 0x1 PUSH1 0xA0 SHL SUB AND DUP4 PUSH32 0x2F8788117E7EFF1D82E926EC794901D17C78024A50270940304540A733656F0D PUSH1 0x40 MLOAD PUSH1 0x40 MLOAD DUP1 SWAP2 SUB SWAP1 LOG4 JUMPDEST POP POP JUMP JUMPDEST DUP3 DUP1 SLOAD PUSH3 0x184 SWAP1 PUSH3 0x21C JUMP JUMPDEST SWAP1 PUSH1 0x0 MSTORE PUSH1 0x20 PUSH1 0x0 KECCAK256 SWAP1 PUSH1 0x1F ADD PUSH1 0x20 SWAP1 DIV DUP2 ADD SWAP3 DUP3 PUSH3 0x1A8 JUMPI PUSH1 0x0 DUP6 SSTORE PUSH3 0x1F3 JUMP JUMPDEST DUP3 PUSH1 0x1F LT PUSH3 0x1C3 JUMPI DUP1 MLOAD PUSH1 0xFF NOT AND DUP4 DUP1 ADD OR DUP6 SSTORE PUSH3 0x1F3 JUMP JUMPDEST DUP3 DUP1 ADD PUSH1 0x1 ADD DUP6 SSTORE DUP3 ISZERO PUSH3 0x1F3 JUMPI SWAP2 DUP3 ADD JUMPDEST DUP3 DUP2 GT ISZERO PUSH3 0x1F3 JUMPI DUP3 MLOAD DUP3 SSTORE SWAP2 PUSH1 0x20 ADD SWAP2 SWAP1 PUSH1 0x1 ADD SWAP1 PUSH3 0x1D6 JUMP JUMPDEST POP PUSH3 0x201 SWAP3 SWAP2 POP PUSH3 0x205 JUMP JUMPDEST POP SWAP1 JUMP JUMPDEST JUMPDEST DUP1 DUP3 GT ISZERO PUSH3 0x201 JUMPI PUSH1 0x0 DUP2 SSTORE PUSH1 0x1 ADD PUSH3 0x206 JUMP JUMPDEST PUSH1 0x1 DUP2 DUP2 SHR SWAP1 DUP3 AND DUP1 PUSH3 0x231 JUMPI PUSH1 0x7F DUP3 AND SWAP2 POP JUMPDEST PUSH1 0x20 DUP3 LT DUP2 EQ ISZERO PUSH3 0x253 JUMPI PUSH4 0x4E487B71 PUSH1 0xE0 SHL PUSH1 0x0 MSTORE PUSH1 0x22 PUSH1 0x4 MSTORE PUSH1 0x24 PUSH1 0x0 REVERT JUMPDEST POP SWAP2 SWAP1 POP JUMP JUMPDEST PUSH2 0x1CBF DUP1 PUSH3 0x269 PUSH1 0x0 CODECOPY PUSH1 0x0 RETURN INVALID PUSH1 0x80 PUSH1 0x40 MSTORE CALLVALUE DUP1 ISZERO PUSH2 0x10 JUMPI PUSH1 0x0 DUP1 REVERT JUMPDEST POP PUSH1 0x4 CALLDATASIZE LT PUSH2 0x158 JUMPI PUSH1 0x0 CALLDATALOAD PUSH1 0xE0 SHR DUP1 PUSH4 0x6D70F7AE GT PUSH2 0xC3 JUMPI DUP1 PUSH4 0xA217FDDF GT PUSH2 0x7C JUMPI DUP1 PUSH4 0xA217FDDF EQ PUSH2 0x2E1 JUMPI DUP1 PUSH4 0xBC8DD06A EQ PUSH2 0x2E9 JUMPI DUP1 PUSH4 0xC87B56DD EQ PUSH2 0x2FC JUMPI DUP1 PUSH4 0xD547741F EQ PUSH2 0x30F JUMPI DUP1 PUSH4 0xEB31403F EQ PUSH2 0x322 JUMPI DUP1 PUSH4 0xF5B541A6 EQ PUSH2 0x335 JUMPI PUSH1 0x0 DUP1 REVERT JUMPDEST DUP1 PUSH4 0x6D70F7AE EQ PUSH2 0x27A JUMPI DUP1 PUSH4 0x70A08231 EQ PUSH2 0x28D JUMPI DUP1 PUSH4 0x74A8F103 EQ PUSH2 0x2A0 JUMPI DUP1 PUSH4 0x773C02D4 EQ PUSH2 0x2B3 JUMPI DUP1 PUSH4 0x91D14854 EQ PUSH2 0x2C6 JUMPI DUP1 PUSH4 0x95D89B41 EQ PUSH2 0x2D9 JUMPI PUSH1 0x0 DUP1 REVERT JUMPDEST DUP1 PUSH4 0x2F2FF15D GT PUSH2 0x115 JUMPI DUP1 PUSH4 0x2F2FF15D EQ PUSH2 0x1FB JUMPI DUP1 PUSH4 0x30176E13 EQ PUSH2 0x20E JUMPI DUP1 PUSH4 0x36568ABE EQ PUSH2 0x221 JUMPI DUP1 PUSH4 0x44DF8E70 EQ PUSH2 0x234 JUMPI DUP1 PUSH4 0x6352211E EQ PUSH2 0x23C JUMPI DUP1 PUSH4 0x6C60144A EQ PUSH2 0x267 JUMPI PUSH1 0x0 DUP1 REVERT JUMPDEST DUP1 PUSH4 0x11002DF EQ PUSH2 0x15D JUMPI DUP1 PUSH4 0x1FFC9A7 EQ PUSH2 0x172 JUMPI DUP1 PUSH4 0x6FDDE03 EQ PUSH2 0x19A JUMPI DUP1 PUSH4 0x18160DDD EQ PUSH2 0x1AF JUMPI DUP1 PUSH4 0x248A9CA3 EQ PUSH2 0x1C5 JUMPI DUP1 PUSH4 0x24D7806C EQ PUSH2 0x1E8 JUMPI JUMPDEST PUSH1 0x0 DUP1 REVERT JUMPDEST PUSH2 0x170 PUSH2 0x16B CALLDATASIZE PUSH1 0x4 PUSH2 0x1620 JUMP JUMPDEST PUSH2 0x34A JUMP JUMPDEST STOP JUMPDEST PUSH2 0x185 PUSH2 0x180 CALLDATASIZE PUSH1 0x4 PUSH2 0x1695 JUMP JUMPDEST PUSH2 0x4AC JUMP JUMPDEST PUSH1 0x40 MLOAD SWAP1 ISZERO ISZERO DUP2 MSTORE PUSH1 0x20 ADD JUMPDEST PUSH1 0x40 MLOAD DUP1 SWAP2 SUB SWAP1 RETURN JUMPDEST PUSH2 0x1A2 PUSH2 0x4F2 JUMP JUMPDEST PUSH1 0x40 MLOAD PUSH2 0x191 SWAP2 SWAP1 PUSH2 0x16EB JUMP JUMPDEST PUSH2 0x1B7 PUSH2 0x580 JUMP JUMPDEST PUSH1 0x40 MLOAD SWAP1 DUP2 MSTORE PUSH1 0x20 ADD PUSH2 0x191 JUMP JUMPDEST PUSH2 0x1B7 PUSH2 0x1D3 CALLDATASIZE PUSH1 0x4 PUSH2 0x171E JUMP JUMPDEST PUSH1 0x0 SWAP1 DUP2 MSTORE PUSH1 0x20 DUP2 SWAP1 MSTORE PUSH1 0x40 SWAP1 KECCAK256 PUSH1 0x1 ADD SLOAD SWAP1 JUMP JUMPDEST PUSH2 0x185 PUSH2 0x1F6 CALLDATASIZE PUSH1 0x4 PUSH2 0x1753 JUMP JUMPDEST PUSH2 0x591 JUMP JUMPDEST PUSH2 0x170 PUSH2 0x209 CALLDATASIZE PUSH1 0x4 PUSH2 0x176E JUMP JUMPDEST PUSH2 0x59D JUMP JUMPDEST PUSH2 0x170 PUSH2 0x21C CALLDATASIZE PUSH1 0x4 PUSH2 0x179A JUMP JUMPDEST PUSH2 0x5C7 JUMP JUMPDEST PUSH2 0x170 PUSH2 0x22F CALLDATASIZE PUSH1 0x4 PUSH2 0x176E JUMP JUMPDEST PUSH2 0x65C JUMP JUMPDEST PUSH2 0x170 PUSH2 0x6DA JUMP JUMPDEST PUSH2 0x24F PUSH2 0x24A CALLDATASIZE PUSH1 0x4 PUSH2 0x171E JUMP JUMPDEST PUSH2 0x789 JUMP JUMPDEST PUSH1 0x40 MLOAD PUSH1 0x1 PUSH1 0x1 PUSH1 0xA0 SHL SUB SWAP1 SWAP2 AND DUP2 MSTORE PUSH1 0x20 ADD PUSH2 0x191 JUMP JUMPDEST PUSH2 0x170 PUSH2 0x275 CALLDATASIZE PUSH1 0x4 PUSH2 0x1620 JUMP JUMPDEST PUSH2 0x7C8 JUMP JUMPDEST PUSH2 0x185 PUSH2 0x288 CALLDATASIZE PUSH1 0x4 PUSH2 0x1753 JUMP JUMPDEST PUSH2 0x927 JUMP JUMPDEST PUSH2 0x1B7 PUSH2 0x29B CALLDATASIZE PUSH1 0x4 PUSH2 0x1753 JUMP JUMPDEST PUSH2 0x941 JUMP JUMPDEST PUSH2 0x170 PUSH2 0x2AE CALLDATASIZE PUSH1 0x4 PUSH2 0x1753 JUMP JUMPDEST PUSH2 0x96B JUMP JUMPDEST PUSH2 0x1B7 PUSH2 0x2C1 CALLDATASIZE PUSH1 0x4 PUSH2 0x1753 JUMP JUMPDEST PUSH2 0xA73 JUMP JUMPDEST PUSH2 0x185 PUSH2 0x2D4 CALLDATASIZE PUSH1 0x4 PUSH2 0x176E JUMP JUMPDEST PUSH2 0xA9B JUMP JUMPDEST PUSH2 0x1A2 PUSH2 0xAC4 JUMP JUMPDEST PUSH2 0x1B7 PUSH1 0x0 DUP2 JUMP JUMPDEST PUSH2 0x1B7 PUSH2 0x2F7 CALLDATASIZE PUSH1 0x4 PUSH2 0x17FA JUMP JUMPDEST PUSH2 0xAD1 JUMP JUMPDEST PUSH2 0x1A2 PUSH2 0x30A CALLDATASIZE PUSH1 0x4 PUSH2 0x171E JUMP JUMPDEST PUSH2 0xBF6 JUMP JUMPDEST PUSH2 0x170 PUSH2 0x31D CALLDATASIZE PUSH1 0x4 PUSH2 0x176E JUMP JUMPDEST PUSH2 0xC54 JUMP JUMPDEST PUSH2 0x1B7 PUSH2 0x330 CALLDATASIZE PUSH1 0x4 PUSH2 0x1753 JUMP JUMPDEST PUSH2 0xC79 JUMP JUMPDEST PUSH2 0x1B7 PUSH1 0x0 DUP1 MLOAD PUSH1 0x20 PUSH2 0x1C4A DUP4 CODECOPY DUP2 MLOAD SWAP2 MSTORE DUP2 JUMP JUMPDEST DUP1 PUSH2 0x363 PUSH1 0x0 DUP1 MLOAD PUSH1 0x20 PUSH2 0x1C4A DUP4 CODECOPY DUP2 MLOAD SWAP2 MSTORE CALLER PUSH2 0xA9B JUMP JUMPDEST PUSH2 0x388 JUMPI PUSH1 0x40 MLOAD PUSH3 0x461BCD PUSH1 0xE5 SHL DUP2 MSTORE PUSH1 0x4 ADD PUSH2 0x37F SWAP1 PUSH2 0x1824 JUMP JUMPDEST PUSH1 0x40 MLOAD DUP1 SWAP2 SUB SWAP1 REVERT JUMPDEST PUSH1 0x64 DUP2 GT ISZERO PUSH2 0x3A9 JUMPI PUSH1 0x40 MLOAD PUSH3 0x461BCD PUSH1 0xE5 SHL DUP2 MSTORE PUSH1 0x4 ADD PUSH2 0x37F SWAP1 PUSH2 0x187A JUMP JUMPDEST PUSH1 0x0 JUMPDEST DUP2 DUP2 PUSH1 0xFF AND LT ISZERO PUSH2 0x4A6 JUMPI PUSH1 0x0 DUP5 DUP5 DUP4 PUSH1 0xFF AND DUP2 DUP2 LT PUSH2 0x3CE JUMPI PUSH2 0x3CE PUSH2 0x18BC JUMP JUMPDEST SWAP1 POP PUSH1 0x20 MUL ADD PUSH1 0x20 DUP2 ADD SWAP1 PUSH2 0x3E3 SWAP2 SWAP1 PUSH2 0x1753 JUMP JUMPDEST SWAP1 POP PUSH1 0x1 PUSH1 0x1 PUSH1 0xA0 SHL SUB DUP2 AND ISZERO DUP1 PUSH2 0x403 JUMPI POP PUSH2 0x401 PUSH1 0x4 DUP3 PUSH2 0xDB9 JUMP JUMPDEST ISZERO JUMPDEST ISZERO PUSH2 0x40E JUMPI POP PUSH2 0x494 JUMP JUMPDEST PUSH1 0x0 PUSH2 0x41B PUSH1 0x4 DUP4 PUSH2 0xDD5 JUMP JUMPDEST SWAP1 POP PUSH2 0x428 PUSH1 0x4 DUP4 PUSH2 0xDEA JUMP JUMPDEST POP PUSH2 0x434 PUSH1 0x1 DUP3 PUSH2 0xDFF JUMP JUMPDEST POP PUSH1 0x40 MLOAD DUP2 SWAP1 PUSH1 0x1 PUSH1 0x1 PUSH1 0xA0 SHL SUB DUP5 AND SWAP1 PUSH32 0xEC9AB91322523C899EDE7830EC9BFC992B5981CDCC27B91162FB23DE5791117B SWAP1 PUSH1 0x0 SWAP1 LOG3 PUSH1 0x40 MLOAD DUP2 SWAP1 PUSH1 0x0 SWAP1 PUSH1 0x1 PUSH1 0x1 PUSH1 0xA0 SHL SUB DUP6 AND SWAP1 PUSH1 0x0 DUP1 MLOAD PUSH1 0x20 PUSH2 0x1C6A DUP4 CODECOPY DUP2 MLOAD SWAP2 MSTORE SWAP1 DUP4 SWAP1 LOG4 POP POP JUMPDEST DUP1 PUSH2 0x49E DUP2 PUSH2 0x18E8 JUMP JUMPDEST SWAP2 POP POP PUSH2 0x3AC JUMP JUMPDEST POP POP POP POP JUMP JUMPDEST PUSH1 0x0 PUSH1 0x1 PUSH1 0x1 PUSH1 0xE0 SHL SUB NOT DUP3 AND PUSH4 0x80AC58CD PUSH1 0xE0 SHL EQ DUP1 PUSH2 0x4DD JUMPI POP PUSH1 0x1 PUSH1 0x1 PUSH1 0xE0 SHL SUB NOT DUP3 AND PUSH4 0x5B5E139F PUSH1 0xE0 SHL EQ JUMPDEST DUP1 PUSH2 0x4EC JUMPI POP PUSH2 0x4EC DUP3 PUSH2 0xE0B JUMP JUMPDEST SWAP3 SWAP2 POP POP JUMP JUMPDEST PUSH1 0x8 DUP1 SLOAD PUSH2 0x4FF SWAP1 PUSH2 0x1908 JUMP JUMPDEST DUP1 PUSH1 0x1F ADD PUSH1 0x20 DUP1 SWAP2 DIV MUL PUSH1 0x20 ADD PUSH1 0x40 MLOAD SWAP1 DUP2 ADD PUSH1 0x40 MSTORE DUP1 SWAP3 SWAP2 SWAP1 DUP2 DUP2 MSTORE PUSH1 0x20 ADD DUP3 DUP1 SLOAD PUSH2 0x52B SWAP1 PUSH2 0x1908 JUMP JUMPDEST DUP1 ISZERO PUSH2 0x578 JUMPI DUP1 PUSH1 0x1F LT PUSH2 0x54D JUMPI PUSH2 0x100 DUP1 DUP4 SLOAD DIV MUL DUP4 MSTORE SWAP2 PUSH1 0x20 ADD SWAP2 PUSH2 0x578 JUMP JUMPDEST DUP3 ADD SWAP2 SWAP1 PUSH1 0x0 MSTORE PUSH1 0x20 PUSH1 0x0 KECCAK256 SWAP1 JUMPDEST DUP2 SLOAD DUP2 MSTORE SWAP1 PUSH1 0x1 ADD SWAP1 PUSH1 0x20 ADD DUP1 DUP4 GT PUSH2 0x55B JUMPI DUP3 SWAP1 SUB PUSH1 0x1F AND DUP3 ADD SWAP2 JUMPDEST POP POP POP POP POP DUP2 JUMP JUMPDEST PUSH1 0x0 PUSH2 0x58C PUSH1 0x4 PUSH2 0xE40 JUMP JUMPDEST SWAP1 POP SWAP1 JUMP JUMPDEST PUSH1 0x0 PUSH2 0x4EC DUP2 DUP4 PUSH2 0xA9B JUMP JUMPDEST PUSH1 0x0 DUP3 DUP2 MSTORE PUSH1 0x20 DUP2 SWAP1 MSTORE PUSH1 0x40 SWAP1 KECCAK256 PUSH1 0x1 ADD SLOAD PUSH2 0x5B8 DUP2 PUSH2 0xE4B JUMP JUMPDEST PUSH2 0x5C2 DUP4 DUP4 PUSH2 0xE58 JUMP JUMPDEST POP POP POP JUMP JUMPDEST PUSH2 0x5D2 PUSH1 0x0 CALLER PUSH2 0xA9B JUMP JUMPDEST PUSH2 0x650 JUMPI PUSH1 0x40 MLOAD PUSH3 0x461BCD PUSH1 0xE5 SHL DUP2 MSTORE PUSH1 0x20 PUSH1 0x4 DUP3 ADD MSTORE PUSH1 0x43 PUSH1 0x24 DUP3 ADD MSTORE PUSH32 0x4F6E6C7920746865206163636F756E7420776974682044454641554C545F4144 PUSH1 0x44 DUP3 ADD MSTORE PUSH32 0x4D494E5F524F4C452063616E2073657420746865206261736520746F6B656E20 PUSH1 0x64 DUP3 ADD MSTORE PUSH3 0x555249 PUSH1 0xE8 SHL PUSH1 0x84 DUP3 ADD MSTORE PUSH1 0xA4 ADD PUSH2 0x37F JUMP JUMPDEST PUSH2 0x5C2 PUSH1 0xA DUP4 DUP4 PUSH2 0x1587 JUMP JUMPDEST PUSH1 0x1 PUSH1 0x1 PUSH1 0xA0 SHL SUB DUP2 AND CALLER EQ PUSH2 0x6CC JUMPI PUSH1 0x40 MLOAD PUSH3 0x461BCD PUSH1 0xE5 SHL DUP2 MSTORE PUSH1 0x20 PUSH1 0x4 DUP3 ADD MSTORE PUSH1 0x2F PUSH1 0x24 DUP3 ADD MSTORE PUSH32 0x416363657373436F6E74726F6C3A2063616E206F6E6C792072656E6F756E6365 PUSH1 0x44 DUP3 ADD MSTORE PUSH15 0x103937B632B9903337B91039B2B633 PUSH1 0x89 SHL PUSH1 0x64 DUP3 ADD MSTORE PUSH1 0x84 ADD PUSH2 0x37F JUMP JUMPDEST PUSH2 0x6D6 DUP3 DUP3 PUSH2 0xEDC JUMP JUMPDEST POP POP JUMP JUMPDEST CALLER PUSH2 0x6E6 PUSH1 0x4 DUP3 PUSH2 0xDB9 JUMP JUMPDEST PUSH2 0x702 JUMPI PUSH1 0x40 MLOAD PUSH3 0x461BCD PUSH1 0xE5 SHL DUP2 MSTORE PUSH1 0x4 ADD PUSH2 0x37F SWAP1 PUSH2 0x1943 JUMP JUMPDEST PUSH1 0x0 PUSH2 0x70F PUSH1 0x4 DUP4 PUSH2 0xDD5 JUMP JUMPDEST SWAP1 POP PUSH2 0x71C PUSH1 0x4 DUP4 PUSH2 0xDEA JUMP JUMPDEST POP PUSH2 0x728 PUSH1 0x1 DUP3 PUSH2 0xDFF JUMP JUMPDEST POP PUSH1 0x40 MLOAD DUP2 SWAP1 PUSH1 0x1 PUSH1 0x1 PUSH1 0xA0 SHL SUB DUP5 AND SWAP1 PUSH32 0xCC16F5DBB4873280815C1EE09DBD06736CFFCC184412CF7A71A0FDB75D397CA5 SWAP1 PUSH1 0x0 SWAP1 LOG3 PUSH1 0x40 MLOAD DUP2 SWAP1 PUSH1 0x0 SWAP1 PUSH1 0x1 PUSH1 0x1 PUSH1 0xA0 SHL SUB DUP6 AND SWAP1 PUSH1 0x0 DUP1 MLOAD PUSH1 0x20 PUSH2 0x1C6A DUP4 CODECOPY DUP2 MLOAD SWAP2 MSTORE SWAP1 DUP4 SWAP1 LOG4 POP POP JUMP JUMPDEST PUSH1 0x0 PUSH2 0x4EC DUP3 PUSH1 0x40 MLOAD DUP1 PUSH1 0x40 ADD PUSH1 0x40 MSTORE DUP1 PUSH1 0xF DUP2 MSTORE PUSH1 0x20 ADD PUSH15 0x125B9D985B1A59081D1BDAD95B9259 PUSH1 0x8A SHL DUP2 MSTORE POP PUSH1 0x1 PUSH2 0xF41 SWAP1 SWAP3 SWAP2 SWAP1 PUSH4 0xFFFFFFFF AND JUMP JUMPDEST DUP1 PUSH2 0x7E1 PUSH1 0x0 DUP1 MLOAD PUSH1 0x20 PUSH2 0x1C4A DUP4 CODECOPY DUP2 MLOAD SWAP2 MSTORE CALLER PUSH2 0xA9B JUMP JUMPDEST PUSH2 0x7FD JUMPI PUSH1 0x40 MLOAD PUSH3 0x461BCD PUSH1 0xE5 SHL DUP2 MSTORE PUSH1 0x4 ADD PUSH2 0x37F SWAP1 PUSH2 0x1984 JUMP JUMPDEST PUSH1 0x64 DUP2 GT ISZERO PUSH2 0x81E JUMPI PUSH1 0x40 MLOAD PUSH3 0x461BCD PUSH1 0xE5 SHL DUP2 MSTORE PUSH1 0x4 ADD PUSH2 0x37F SWAP1 PUSH2 0x187A JUMP JUMPDEST PUSH1 0x0 JUMPDEST DUP2 DUP2 PUSH1 0xFF AND LT ISZERO PUSH2 0x4A6 JUMPI PUSH1 0x0 DUP5 DUP5 DUP4 PUSH1 0xFF AND DUP2 DUP2 LT PUSH2 0x843 JUMPI PUSH2 0x843 PUSH2 0x18BC JUMP JUMPDEST SWAP1 POP PUSH1 0x20 MUL ADD PUSH1 0x20 DUP2 ADD SWAP1 PUSH2 0x858 SWAP2 SWAP1 PUSH2 0x1753 JUMP JUMPDEST SWAP1 POP PUSH1 0x1 PUSH1 0x1 PUSH1 0xA0 SHL SUB DUP2 AND ISZERO DUP1 PUSH2 0x876 JUMPI POP PUSH2 0x876 PUSH1 0x4 DUP3 PUSH2 0xDB9 JUMP JUMPDEST ISZERO PUSH2 0x881 JUMPI POP PUSH2 0x915 JUMP JUMPDEST PUSH2 0x88F PUSH1 0x7 DUP1 SLOAD PUSH1 0x1 ADD SWAP1 SSTORE JUMP JUMPDEST PUSH1 0x0 PUSH2 0x89A PUSH1 0x7 SLOAD SWAP1 JUMP JUMPDEST SWAP1 POP PUSH2 0x8A8 PUSH1 0x4 DUP4 DUP4 PUSH2 0xF56 JUMP JUMPDEST POP PUSH2 0x8B5 PUSH1 0x1 DUP3 DUP5 PUSH2 0xF6C JUMP JUMPDEST POP PUSH1 0x40 MLOAD DUP2 SWAP1 PUSH1 0x1 PUSH1 0x1 PUSH1 0xA0 SHL SUB DUP5 AND SWAP1 PUSH32 0xE9274A84B19E9428826DE6BAE8C48329354F8F0E73F771B97CAE2D9DCCD45A27 SWAP1 PUSH1 0x0 SWAP1 LOG3 PUSH1 0x40 MLOAD DUP2 SWAP1 PUSH1 0x1 PUSH1 0x1 PUSH1 0xA0 SHL SUB DUP5 AND SWAP1 PUSH1 0x0 SWAP1 PUSH1 0x0 DUP1 MLOAD PUSH1 0x20 PUSH2 0x1C6A DUP4 CODECOPY DUP2 MLOAD SWAP2 MSTORE SWAP1 DUP3 SWAP1 LOG4 POP POP JUMPDEST DUP1 PUSH2 0x91F DUP2 PUSH2 0x18E8 JUMP JUMPDEST SWAP2 POP POP PUSH2 0x821 JUMP JUMPDEST PUSH1 0x0 PUSH2 0x4EC PUSH1 0x0 DUP1 MLOAD PUSH1 0x20 PUSH2 0x1C4A DUP4 CODECOPY DUP2 MLOAD SWAP2 MSTORE DUP4 PUSH2 0xA9B JUMP JUMPDEST PUSH1 0x0 DUP1 PUSH2 0x94F PUSH1 0x4 DUP5 PUSH2 0xF82 JUMP JUMPDEST POP SWAP1 POP DUP1 PUSH2 0x95E JUMPI PUSH1 0x0 PUSH2 0x961 JUMP JUMPDEST PUSH1 0x1 JUMPDEST PUSH1 0xFF AND SWAP4 SWAP3 POP POP POP JUMP JUMPDEST PUSH2 0x983 PUSH1 0x0 DUP1 MLOAD PUSH1 0x20 PUSH2 0x1C4A DUP4 CODECOPY DUP2 MLOAD SWAP2 MSTORE CALLER PUSH2 0xA9B JUMP JUMPDEST PUSH2 0x99F JUMPI PUSH1 0x40 MLOAD PUSH3 0x461BCD PUSH1 0xE5 SHL DUP2 MSTORE PUSH1 0x4 ADD PUSH2 0x37F SWAP1 PUSH2 0x1824 JUMP JUMPDEST PUSH1 0x1 PUSH1 0x1 PUSH1 0xA0 SHL SUB DUP2 AND PUSH2 0x9C5 JUMPI PUSH1 0x40 MLOAD PUSH3 0x461BCD PUSH1 0xE5 SHL DUP2 MSTORE PUSH1 0x4 ADD PUSH2 0x37F SWAP1 PUSH2 0x19DA JUMP JUMPDEST PUSH2 0x9D0 PUSH1 0x4 DUP3 PUSH2 0xDB9 JUMP JUMPDEST PUSH2 0x9EC JUMPI PUSH1 0x40 MLOAD PUSH3 0x461BCD PUSH1 0xE5 SHL DUP2 MSTORE PUSH1 0x4 ADD PUSH2 0x37F SWAP1 PUSH2 0x1943 JUMP JUMPDEST PUSH1 0x0 PUSH2 0x9F9 PUSH1 0x4 DUP4 PUSH2 0xDD5 JUMP JUMPDEST SWAP1 POP PUSH2 0xA06 PUSH1 0x4 DUP4 PUSH2 0xDEA JUMP JUMPDEST POP PUSH2 0xA12 PUSH1 0x1 DUP3 PUSH2 0xDFF JUMP JUMPDEST POP PUSH1 0x40 MLOAD DUP2 SWAP1 PUSH1 0x1 PUSH1 0x1 PUSH1 0xA0 SHL SUB DUP5 AND SWAP1 PUSH32 0xEC9AB91322523C899EDE7830EC9BFC992B5981CDCC27B91162FB23DE5791117B SWAP1 PUSH1 0x0 SWAP1 LOG3 PUSH1 0x40 MLOAD DUP2 SWAP1 PUSH1 0x0 SWAP1 PUSH1 0x1 PUSH1 0x1 PUSH1 0xA0 SHL SUB DUP6 AND SWAP1 PUSH1 0x0 DUP1 MLOAD PUSH1 0x20 PUSH2 0x1C6A DUP4 CODECOPY DUP2 MLOAD SWAP2 MSTORE SWAP1 DUP4 SWAP1 LOG4 POP POP JUMP JUMPDEST PUSH1 0x0 PUSH2 0x4EC DUP3 PUSH1 0x40 MLOAD DUP1 PUSH1 0x60 ADD PUSH1 0x40 MSTORE DUP1 PUSH1 0x23 DUP2 MSTORE PUSH1 0x20 ADD PUSH2 0x1C27 PUSH1 0x23 SWAP2 CODECOPY PUSH1 0x4 SWAP2 SWAP1 PUSH2 0xFA9 JUMP JUMPDEST PUSH1 0x0 SWAP2 DUP3 MSTORE PUSH1 0x20 DUP3 DUP2 MSTORE PUSH1 0x40 DUP1 DUP5 KECCAK256 PUSH1 0x1 PUSH1 0x1 PUSH1 0xA0 SHL SUB SWAP4 SWAP1 SWAP4 AND DUP5 MSTORE SWAP2 SWAP1 MSTORE SWAP1 KECCAK256 SLOAD PUSH1 0xFF AND SWAP1 JUMP JUMPDEST PUSH1 0x9 DUP1 SLOAD PUSH2 0x4FF SWAP1 PUSH2 0x1908 JUMP JUMPDEST PUSH1 0x0 PUSH2 0xAEB PUSH1 0x0 DUP1 MLOAD PUSH1 0x20 PUSH2 0x1C4A DUP4 CODECOPY DUP2 MLOAD SWAP2 MSTORE CALLER PUSH2 0xA9B JUMP JUMPDEST PUSH2 0xB07 JUMPI PUSH1 0x40 MLOAD PUSH3 0x461BCD PUSH1 0xE5 SHL DUP2 MSTORE PUSH1 0x4 ADD PUSH2 0x37F SWAP1 PUSH2 0x1984 JUMP JUMPDEST PUSH1 0x1 PUSH1 0x1 PUSH1 0xA0 SHL SUB DUP4 AND PUSH2 0xB2D JUMPI PUSH1 0x40 MLOAD PUSH3 0x461BCD PUSH1 0xE5 SHL DUP2 MSTORE PUSH1 0x4 ADD PUSH2 0x37F SWAP1 PUSH2 0x19DA JUMP JUMPDEST PUSH2 0xB38 PUSH1 0x4 DUP5 PUSH2 0xDB9 JUMP JUMPDEST ISZERO PUSH2 0xB7A JUMPI PUSH1 0x40 MLOAD PUSH3 0x461BCD PUSH1 0xE5 SHL DUP2 MSTORE PUSH1 0x20 PUSH1 0x4 DUP3 ADD MSTORE PUSH1 0x12 PUSH1 0x24 DUP3 ADD MSTORE PUSH18 0x53425420616C726561647920657869737473 PUSH1 0x70 SHL PUSH1 0x44 DUP3 ADD MSTORE PUSH1 0x64 ADD PUSH2 0x37F JUMP JUMPDEST PUSH2 0xB86 PUSH1 0x4 DUP5 DUP5 PUSH2 0xF56 JUMP JUMPDEST POP PUSH2 0xB93 PUSH1 0x1 DUP4 DUP6 PUSH2 0xF6C JUMP JUMPDEST POP PUSH1 0x40 MLOAD DUP3 SWAP1 PUSH1 0x1 PUSH1 0x1 PUSH1 0xA0 SHL SUB DUP6 AND SWAP1 PUSH32 0xE9274A84B19E9428826DE6BAE8C48329354F8F0E73F771B97CAE2D9DCCD45A27 SWAP1 PUSH1 0x0 SWAP1 LOG3 PUSH1 0x40 MLOAD DUP3 SWAP1 PUSH1 0x1 PUSH1 0x1 PUSH1 0xA0 SHL SUB DUP6 AND SWAP1 PUSH1 0x0 SWAP1 PUSH1 0x0 DUP1 MLOAD PUSH1 0x20 PUSH2 0x1C6A DUP4 CODECOPY DUP2 MLOAD SWAP2 MSTORE SWAP1 DUP3 SWAP1 LOG4 POP SWAP2 SWAP1 POP JUMP JUMPDEST PUSH1 0x60 PUSH1 0x0 PUSH1 0xA DUP1 SLOAD PUSH2 0xC07 SWAP1 PUSH2 0x1908 JUMP JUMPDEST SWAP1 POP GT PUSH2 0xC23 JUMPI PUSH1 0x40 MLOAD DUP1 PUSH1 0x20 ADD PUSH1 0x40 MSTORE DUP1 PUSH1 0x0 DUP2 MSTORE POP PUSH2 0x4EC JUMP JUMPDEST PUSH1 0xA PUSH2 0xC2E DUP4 PUSH2 0xFBF JUMP JUMPDEST PUSH1 0x40 MLOAD PUSH1 0x20 ADD PUSH2 0xC3F SWAP3 SWAP2 SWAP1 PUSH2 0x1A20 JUMP JUMPDEST PUSH1 0x40 MLOAD PUSH1 0x20 DUP2 DUP4 SUB SUB DUP2 MSTORE SWAP1 PUSH1 0x40 MSTORE SWAP3 SWAP2 POP POP JUMP JUMPDEST PUSH1 0x0 DUP3 DUP2 MSTORE PUSH1 0x20 DUP2 SWAP1 MSTORE PUSH1 0x40 SWAP1 KECCAK256 PUSH1 0x1 ADD SLOAD PUSH2 0xC6F DUP2 PUSH2 0xE4B JUMP JUMPDEST PUSH2 0x5C2 DUP4 DUP4 PUSH2 0xEDC JUMP JUMPDEST PUSH1 0x0 PUSH2 0xC93 PUSH1 0x0 DUP1 MLOAD PUSH1 0x20 PUSH2 0x1C4A DUP4 CODECOPY DUP2 MLOAD SWAP2 MSTORE CALLER PUSH2 0xA9B JUMP JUMPDEST PUSH2 0xCAF JUMPI PUSH1 0x40 MLOAD PUSH3 0x461BCD PUSH1 0xE5 SHL DUP2 MSTORE PUSH1 0x4 ADD PUSH2 0x37F SWAP1 PUSH2 0x1984 JUMP JUMPDEST PUSH1 0x1 PUSH1 0x1 PUSH1 0xA0 SHL SUB DUP3 AND PUSH2 0xCD5 JUMPI PUSH1 0x40 MLOAD PUSH3 0x461BCD PUSH1 0xE5 SHL DUP2 MSTORE PUSH1 0x4 ADD PUSH2 0x37F SWAP1 PUSH2 0x19DA JUMP JUMPDEST PUSH2 0xCE0 PUSH1 0x4 DUP4 PUSH2 0xDB9 JUMP JUMPDEST ISZERO PUSH2 0xD22 JUMPI PUSH1 0x40 MLOAD PUSH3 0x461BCD PUSH1 0xE5 SHL DUP2 MSTORE PUSH1 0x20 PUSH1 0x4 DUP3 ADD MSTORE PUSH1 0x12 PUSH1 0x24 DUP3 ADD MSTORE PUSH18 0x53425420616C726561647920657869737473 PUSH1 0x70 SHL PUSH1 0x44 DUP3 ADD MSTORE PUSH1 0x64 ADD PUSH2 0x37F JUMP JUMPDEST PUSH2 0xD30 PUSH1 0x7 DUP1 SLOAD PUSH1 0x1 ADD SWAP1 SSTORE JUMP JUMPDEST PUSH1 0x0 PUSH2 0xD3B PUSH1 0x7 SLOAD SWAP1 JUMP JUMPDEST SWAP1 POP PUSH2 0xD49 PUSH1 0x4 DUP5 DUP4 PUSH2 0xF56 JUMP JUMPDEST POP PUSH2 0xD56 PUSH1 0x1 DUP3 DUP6 PUSH2 0xF6C JUMP JUMPDEST POP PUSH1 0x40 MLOAD DUP2 SWAP1 PUSH1 0x1 PUSH1 0x1 PUSH1 0xA0 SHL SUB DUP6 AND SWAP1 PUSH32 0xE9274A84B19E9428826DE6BAE8C48329354F8F0E73F771B97CAE2D9DCCD45A27 SWAP1 PUSH1 0x0 SWAP1 LOG3 PUSH1 0x40 MLOAD DUP2 SWAP1 PUSH1 0x1 PUSH1 0x1 PUSH1 0xA0 SHL SUB DUP6 AND SWAP1 PUSH1 0x0 SWAP1 PUSH1 0x0 DUP1 MLOAD PUSH1 0x20 PUSH2 0x1C6A DUP4 CODECOPY DUP2 MLOAD SWAP2 MSTORE SWAP1 DUP3 SWAP1 LOG4 SWAP3 SWAP2 POP POP JUMP JUMPDEST PUSH1 0x0 PUSH2 0xDCE DUP4 PUSH1 0x1 PUSH1 0x1 PUSH1 0xA0 SHL SUB DUP5 AND PUSH2 0x10BD JUMP JUMPDEST SWAP4 SWAP3 POP POP POP JUMP JUMPDEST PUSH1 0x0 PUSH2 0xDCE DUP4 PUSH1 0x1 PUSH1 0x1 PUSH1 0xA0 SHL SUB DUP5 AND PUSH2 0x10C9 JUMP JUMPDEST PUSH1 0x0 PUSH2 0xDCE DUP4 PUSH1 0x1 PUSH1 0x1 PUSH1 0xA0 SHL SUB DUP5 AND PUSH2 0x1139 JUMP JUMPDEST PUSH1 0x0 PUSH2 0xDCE DUP4 DUP4 PUSH2 0x1139 JUMP JUMPDEST PUSH1 0x0 PUSH1 0x1 PUSH1 0x1 PUSH1 0xE0 SHL SUB NOT DUP3 AND PUSH4 0x7965DB0B PUSH1 0xE0 SHL EQ DUP1 PUSH2 0x4EC JUMPI POP PUSH4 0x1FFC9A7 PUSH1 0xE0 SHL PUSH1 0x1 PUSH1 0x1 PUSH1 0xE0 SHL SUB NOT DUP4 AND EQ PUSH2 0x4EC JUMP JUMPDEST PUSH1 0x0 PUSH2 0x4EC DUP3 PUSH2 0x1156 JUMP JUMPDEST PUSH2 0xE55 DUP2 CALLER PUSH2 0x1161 JUMP JUMPDEST POP JUMP JUMPDEST PUSH2 0xE62 DUP3 DUP3 PUSH2 0xA9B JUMP JUMPDEST PUSH2 0x6D6 JUMPI PUSH1 0x0 DUP3 DUP2 MSTORE PUSH1 0x20 DUP2 DUP2 MSTORE PUSH1 0x40 DUP1 DUP4 KECCAK256 PUSH1 0x1 PUSH1 0x1 PUSH1 0xA0 SHL SUB DUP6 AND DUP5 MSTORE SWAP1 SWAP2 MSTORE SWAP1 KECCAK256 DUP1 SLOAD PUSH1 0xFF NOT AND PUSH1 0x1 OR SWAP1 SSTORE PUSH2 0xE98 CALLER SWAP1 JUMP JUMPDEST PUSH1 0x1 PUSH1 0x1 PUSH1 0xA0 SHL SUB AND DUP2 PUSH1 0x1 PUSH1 0x1 PUSH1 0xA0 SHL SUB AND DUP4 PUSH32 0x2F8788117E7EFF1D82E926EC794901D17C78024A50270940304540A733656F0D PUSH1 0x40 MLOAD PUSH1 0x40 MLOAD DUP1 SWAP2 SUB SWAP1 LOG4 POP POP JUMP JUMPDEST PUSH2 0xEE6 DUP3 DUP3 PUSH2 0xA9B JUMP JUMPDEST ISZERO PUSH2 0x6D6 JUMPI PUSH1 0x0 DUP3 DUP2 MSTORE PUSH1 0x20 DUP2 DUP2 MSTORE PUSH1 0x40 DUP1 DUP4 KECCAK256 PUSH1 0x1 PUSH1 0x1 PUSH1 0xA0 SHL SUB DUP6 AND DUP1 DUP6 MSTORE SWAP3 MSTORE DUP1 DUP4 KECCAK256 DUP1 SLOAD PUSH1 0xFF NOT AND SWAP1 SSTORE MLOAD CALLER SWAP3 DUP6 SWAP2 PUSH32 0xF6391F5C32D9C69D2A47EA670B442974B53935D1EDC7FD64EB21E047A839171B SWAP2 SWAP1 LOG4 POP POP JUMP JUMPDEST PUSH1 0x0 PUSH2 0xF4E DUP5 DUP5 DUP5 PUSH2 0x11BA JUMP JUMPDEST SWAP5 SWAP4 POP POP POP POP JUMP JUMPDEST PUSH1 0x0 PUSH2 0xF4E DUP5 PUSH1 0x1 PUSH1 0x1 PUSH1 0xA0 SHL SUB DUP6 AND DUP5 PUSH2 0x1206 JUMP JUMPDEST PUSH1 0x0 PUSH2 0xF4E DUP5 DUP5 PUSH1 0x1 PUSH1 0x1 PUSH1 0xA0 SHL SUB DUP6 AND PUSH2 0x1206 JUMP JUMPDEST PUSH1 0x0 DUP1 DUP1 DUP1 PUSH2 0xF9A DUP7 PUSH1 0x1 PUSH1 0x1 PUSH1 0xA0 SHL SUB DUP8 AND PUSH2 0x1223 JUMP JUMPDEST SWAP1 SWAP5 POP SWAP3 POP POP POP JUMPDEST SWAP3 POP SWAP3 SWAP1 POP JUMP JUMPDEST PUSH1 0x0 PUSH2 0xF4E DUP5 PUSH1 0x1 PUSH1 0x1 PUSH1 0xA0 SHL SUB DUP6 AND DUP5 PUSH2 0x11BA JUMP JUMPDEST PUSH1 0x60 DUP2 PUSH2 0xFE3 JUMPI POP POP PUSH1 0x40 DUP1 MLOAD DUP1 DUP3 ADD SWAP1 SWAP2 MSTORE PUSH1 0x1 DUP2 MSTORE PUSH1 0x3 PUSH1 0xFC SHL PUSH1 0x20 DUP3 ADD MSTORE SWAP1 JUMP JUMPDEST DUP2 PUSH1 0x0 JUMPDEST DUP2 ISZERO PUSH2 0x100D JUMPI DUP1 PUSH2 0xFF7 DUP2 PUSH2 0x1AC7 JUMP JUMPDEST SWAP2 POP PUSH2 0x1006 SWAP1 POP PUSH1 0xA DUP4 PUSH2 0x1AF8 JUMP JUMPDEST SWAP2 POP PUSH2 0xFE7 JUMP JUMPDEST PUSH1 0x0 DUP2 PUSH8 0xFFFFFFFFFFFFFFFF DUP2 GT ISZERO PUSH2 0x1028 JUMPI PUSH2 0x1028 PUSH2 0x1B0C JUMP JUMPDEST PUSH1 0x40 MLOAD SWAP1 DUP1 DUP3 MSTORE DUP1 PUSH1 0x1F ADD PUSH1 0x1F NOT AND PUSH1 0x20 ADD DUP3 ADD PUSH1 0x40 MSTORE DUP1 ISZERO PUSH2 0x1052 JUMPI PUSH1 0x20 DUP3 ADD DUP2 DUP1 CALLDATASIZE DUP4 CALLDATACOPY ADD SWAP1 POP JUMPDEST POP SWAP1 POP JUMPDEST DUP5 ISZERO PUSH2 0xF4E JUMPI PUSH2 0x1067 PUSH1 0x1 DUP4 PUSH2 0x1B22 JUMP JUMPDEST SWAP2 POP PUSH2 0x1074 PUSH1 0xA DUP7 PUSH2 0x1B39 JUMP JUMPDEST PUSH2 0x107F SWAP1 PUSH1 0x30 PUSH2 0x1B4D JUMP JUMPDEST PUSH1 0xF8 SHL DUP2 DUP4 DUP2 MLOAD DUP2 LT PUSH2 0x1094 JUMPI PUSH2 0x1094 PUSH2 0x18BC JUMP JUMPDEST PUSH1 0x20 ADD ADD SWAP1 PUSH1 0x1 PUSH1 0x1 PUSH1 0xF8 SHL SUB NOT AND SWAP1 DUP2 PUSH1 0x0 BYTE SWAP1 MSTORE8 POP PUSH2 0x10B6 PUSH1 0xA DUP7 PUSH2 0x1AF8 JUMP JUMPDEST SWAP5 POP PUSH2 0x1056 JUMP JUMPDEST PUSH1 0x0 PUSH2 0xDCE DUP4 DUP4 PUSH2 0x125D JUMP JUMPDEST PUSH1 0x0 DUP2 DUP2 MSTORE PUSH1 0x2 DUP4 ADD PUSH1 0x20 MSTORE PUSH1 0x40 DUP2 KECCAK256 SLOAD DUP1 ISZERO ISZERO DUP1 PUSH2 0x10ED JUMPI POP PUSH2 0x10ED DUP5 DUP5 PUSH2 0x10BD JUMP JUMPDEST PUSH2 0xDCE JUMPI PUSH1 0x40 MLOAD PUSH3 0x461BCD PUSH1 0xE5 SHL DUP2 MSTORE PUSH1 0x20 PUSH1 0x4 DUP3 ADD MSTORE PUSH1 0x1E PUSH1 0x24 DUP3 ADD MSTORE PUSH32 0x456E756D657261626C654D61703A206E6F6E6578697374656E74206B65790000 PUSH1 0x44 DUP3 ADD MSTORE PUSH1 0x64 ADD PUSH2 0x37F JUMP JUMPDEST PUSH1 0x0 DUP2 DUP2 MSTORE PUSH1 0x2 DUP4 ADD PUSH1 0x20 MSTORE PUSH1 0x40 DUP2 KECCAK256 DUP2 SWAP1 SSTORE PUSH2 0xDCE DUP4 DUP4 PUSH2 0x1275 JUMP JUMPDEST PUSH1 0x0 PUSH2 0x4EC DUP3 PUSH2 0x1281 JUMP JUMPDEST PUSH2 0x116B DUP3 DUP3 PUSH2 0xA9B JUMP JUMPDEST PUSH2 0x6D6 JUMPI PUSH2 0x1178 DUP2 PUSH2 0x128B JUMP JUMPDEST PUSH2 0x1183 DUP4 PUSH1 0x20 PUSH2 0x129D JUMP JUMPDEST PUSH1 0x40 MLOAD PUSH1 0x20 ADD PUSH2 0x1194 SWAP3 SWAP2 SWAP1 PUSH2 0x1B65 JUMP JUMPDEST PUSH1 0x40 DUP1 MLOAD PUSH1 0x1F NOT DUP2 DUP5 SUB ADD DUP2 MSTORE SWAP1 DUP3 SWAP1 MSTORE PUSH3 0x461BCD PUSH1 0xE5 SHL DUP3 MSTORE PUSH2 0x37F SWAP2 PUSH1 0x4 ADD PUSH2 0x16EB JUMP JUMPDEST PUSH1 0x0 DUP3 DUP2 MSTORE PUSH1 0x2 DUP5 ADD PUSH1 0x20 MSTORE PUSH1 0x40 DUP2 KECCAK256 SLOAD DUP1 ISZERO ISZERO DUP1 PUSH2 0x11DE JUMPI POP PUSH2 0x11DE DUP6 DUP6 PUSH2 0x10BD JUMP JUMPDEST DUP4 SWAP1 PUSH2 0x11FD JUMPI PUSH1 0x40 MLOAD PUSH3 0x461BCD PUSH1 0xE5 SHL DUP2 MSTORE PUSH1 0x4 ADD PUSH2 0x37F SWAP2 SWAP1 PUSH2 0x16EB JUMP JUMPDEST POP SWAP5 SWAP4 POP POP POP POP JUMP JUMPDEST PUSH1 0x0 DUP3 DUP2 MSTORE PUSH1 0x2 DUP5 ADD PUSH1 0x20 MSTORE PUSH1 0x40 DUP2 KECCAK256 DUP3 SWAP1 SSTORE PUSH2 0xF4E DUP5 DUP5 PUSH2 0x1439 JUMP JUMPDEST PUSH1 0x0 DUP2 DUP2 MSTORE PUSH1 0x2 DUP4 ADD PUSH1 0x20 MSTORE PUSH1 0x40 DUP2 KECCAK256 SLOAD DUP2 SWAP1 DUP1 PUSH2 0x1252 JUMPI PUSH2 0x1245 DUP6 DUP6 PUSH2 0x10BD JUMP JUMPDEST SWAP3 POP PUSH1 0x0 SWAP2 POP PUSH2 0xFA2 SWAP1 POP JUMP JUMPDEST PUSH1 0x1 SWAP3 POP SWAP1 POP PUSH2 0xFA2 JUMP JUMPDEST PUSH1 0x0 DUP2 DUP2 MSTORE PUSH1 0x1 DUP4 ADD PUSH1 0x20 MSTORE PUSH1 0x40 DUP2 KECCAK256 SLOAD ISZERO ISZERO PUSH2 0xDCE JUMP JUMPDEST PUSH1 0x0 PUSH2 0xDCE DUP4 DUP4 PUSH2 0x1445 JUMP JUMPDEST PUSH1 0x0 PUSH2 0x4EC DUP3 SLOAD SWAP1 JUMP JUMPDEST PUSH1 0x60 PUSH2 0x4EC PUSH1 0x1 PUSH1 0x1 PUSH1 0xA0 SHL SUB DUP4 AND PUSH1 0x14 JUMPDEST PUSH1 0x60 PUSH1 0x0 PUSH2 0x12AC DUP4 PUSH1 0x2 PUSH2 0x1BDA JUMP JUMPDEST PUSH2 0x12B7 SWAP1 PUSH1 0x2 PUSH2 0x1B4D JUMP JUMPDEST PUSH8 0xFFFFFFFFFFFFFFFF DUP2 GT ISZERO PUSH2 0x12CF JUMPI PUSH2 0x12CF PUSH2 0x1B0C JUMP JUMPDEST PUSH1 0x40 MLOAD SWAP1 DUP1 DUP3 MSTORE DUP1 PUSH1 0x1F ADD PUSH1 0x1F NOT AND PUSH1 0x20 ADD DUP3 ADD PUSH1 0x40 MSTORE DUP1 ISZERO PUSH2 0x12F9 JUMPI PUSH1 0x20 DUP3 ADD DUP2 DUP1 CALLDATASIZE DUP4 CALLDATACOPY ADD SWAP1 POP JUMPDEST POP SWAP1 POP PUSH1 0x3 PUSH1 0xFC SHL DUP2 PUSH1 0x0 DUP2 MLOAD DUP2 LT PUSH2 0x1314 JUMPI PUSH2 0x1314 PUSH2 0x18BC JUMP JUMPDEST PUSH1 0x20 ADD ADD SWAP1 PUSH1 0x1 PUSH1 0x1 PUSH1 0xF8 SHL SUB NOT AND SWAP1 DUP2 PUSH1 0x0 BYTE SWAP1 MSTORE8 POP PUSH1 0xF PUSH1 0xFB SHL DUP2 PUSH1 0x1 DUP2 MLOAD DUP2 LT PUSH2 0x1343 JUMPI PUSH2 0x1343 PUSH2 0x18BC JUMP JUMPDEST PUSH1 0x20 ADD ADD SWAP1 PUSH1 0x1 PUSH1 0x1 PUSH1 0xF8 SHL SUB NOT AND SWAP1 DUP2 PUSH1 0x0 BYTE SWAP1 MSTORE8 POP PUSH1 0x0 PUSH2 0x1367 DUP5 PUSH1 0x2 PUSH2 0x1BDA JUMP JUMPDEST PUSH2 0x1372 SWAP1 PUSH1 0x1 PUSH2 0x1B4D JUMP JUMPDEST SWAP1 POP JUMPDEST PUSH1 0x1 DUP2 GT ISZERO PUSH2 0x13EA JUMPI PUSH16 0x181899199A1A9B1B9C1CB0B131B232B3 PUSH1 0x81 SHL DUP6 PUSH1 0xF AND PUSH1 0x10 DUP2 LT PUSH2 0x13A6 JUMPI PUSH2 0x13A6 PUSH2 0x18BC JUMP JUMPDEST BYTE PUSH1 0xF8 SHL DUP3 DUP3 DUP2 MLOAD DUP2 LT PUSH2 0x13BC JUMPI PUSH2 0x13BC PUSH2 0x18BC JUMP JUMPDEST PUSH1 0x20 ADD ADD SWAP1 PUSH1 0x1 PUSH1 0x1 PUSH1 0xF8 SHL SUB NOT AND SWAP1 DUP2 PUSH1 0x0 BYTE SWAP1 MSTORE8 POP PUSH1 0x4 SWAP5 SWAP1 SWAP5 SHR SWAP4 PUSH2 0x13E3 DUP2 PUSH2 0x1BF9 JUMP JUMPDEST SWAP1 POP PUSH2 0x1375 JUMP JUMPDEST POP DUP4 ISZERO PUSH2 0xDCE JUMPI PUSH1 0x40 MLOAD PUSH3 0x461BCD PUSH1 0xE5 SHL DUP2 MSTORE PUSH1 0x20 PUSH1 0x4 DUP3 ADD DUP2 SWAP1 MSTORE PUSH1 0x24 DUP3 ADD MSTORE PUSH32 0x537472696E67733A20686578206C656E67746820696E73756666696369656E74 PUSH1 0x44 DUP3 ADD MSTORE PUSH1 0x64 ADD PUSH2 0x37F JUMP JUMPDEST PUSH1 0x0 PUSH2 0xDCE DUP4 DUP4 PUSH2 0x1538 JUMP JUMPDEST PUSH1 0x0 DUP2 DUP2 MSTORE PUSH1 0x1 DUP4 ADD PUSH1 0x20 MSTORE PUSH1 0x40 DUP2 KECCAK256 SLOAD DUP1 ISZERO PUSH2 0x152E JUMPI PUSH1 0x0 PUSH2 0x1469 PUSH1 0x1 DUP4 PUSH2 0x1B22 JUMP JUMPDEST DUP6 SLOAD SWAP1 SWAP2 POP PUSH1 0x0 SWAP1 PUSH2 0x147D SWAP1 PUSH1 0x1 SWAP1 PUSH2 0x1B22 JUMP JUMPDEST SWAP1 POP DUP2 DUP2 EQ PUSH2 0x14E2 JUMPI PUSH1 0x0 DUP7 PUSH1 0x0 ADD DUP3 DUP2 SLOAD DUP2 LT PUSH2 0x149D JUMPI PUSH2 0x149D PUSH2 0x18BC JUMP JUMPDEST SWAP1 PUSH1 0x0 MSTORE PUSH1 0x20 PUSH1 0x0 KECCAK256 ADD SLOAD SWAP1 POP DUP1 DUP8 PUSH1 0x0 ADD DUP5 DUP2 SLOAD DUP2 LT PUSH2 0x14C0 JUMPI PUSH2 0x14C0 PUSH2 0x18BC JUMP JUMPDEST PUSH1 0x0 SWAP2 DUP3 MSTORE PUSH1 0x20 DUP1 DUP4 KECCAK256 SWAP1 SWAP2 ADD SWAP3 SWAP1 SWAP3 SSTORE SWAP2 DUP3 MSTORE PUSH1 0x1 DUP9 ADD SWAP1 MSTORE PUSH1 0x40 SWAP1 KECCAK256 DUP4 SWAP1 SSTORE JUMPDEST DUP6 SLOAD DUP7 SWAP1 DUP1 PUSH2 0x14F3 JUMPI PUSH2 0x14F3 PUSH2 0x1C10 JUMP JUMPDEST PUSH1 0x1 SWAP1 SUB DUP2 DUP2 SWAP1 PUSH1 0x0 MSTORE PUSH1 0x20 PUSH1 0x0 KECCAK256 ADD PUSH1 0x0 SWAP1 SSTORE SWAP1 SSTORE DUP6 PUSH1 0x1 ADD PUSH1 0x0 DUP7 DUP2 MSTORE PUSH1 0x20 ADD SWAP1 DUP2 MSTORE PUSH1 0x20 ADD PUSH1 0x0 KECCAK256 PUSH1 0x0 SWAP1 SSTORE PUSH1 0x1 SWAP4 POP POP POP POP PUSH2 0x4EC JUMP JUMPDEST PUSH1 0x0 SWAP2 POP POP PUSH2 0x4EC JUMP JUMPDEST PUSH1 0x0 DUP2 DUP2 MSTORE PUSH1 0x1 DUP4 ADD PUSH1 0x20 MSTORE PUSH1 0x40 DUP2 KECCAK256 SLOAD PUSH2 0x157F JUMPI POP DUP2 SLOAD PUSH1 0x1 DUP2 DUP2 ADD DUP5 SSTORE PUSH1 0x0 DUP5 DUP2 MSTORE PUSH1 0x20 DUP1 DUP3 KECCAK256 SWAP1 SWAP4 ADD DUP5 SWAP1 SSTORE DUP5 SLOAD DUP5 DUP3 MSTORE DUP3 DUP7 ADD SWAP1 SWAP4 MSTORE PUSH1 0x40 SWAP1 KECCAK256 SWAP2 SWAP1 SWAP2 SSTORE PUSH2 0x4EC JUMP JUMPDEST POP PUSH1 0x0 PUSH2 0x4EC JUMP JUMPDEST DUP3 DUP1 SLOAD PUSH2 0x1593 SWAP1 PUSH2 0x1908 JUMP JUMPDEST SWAP1 PUSH1 0x0 MSTORE PUSH1 0x20 PUSH1 0x0 KECCAK256 SWAP1 PUSH1 0x1F ADD PUSH1 0x20 SWAP1 DIV DUP2 ADD SWAP3 DUP3 PUSH2 0x15B5 JUMPI PUSH1 0x0 DUP6 SSTORE PUSH2 0x15FB JUMP JUMPDEST DUP3 PUSH1 0x1F LT PUSH2 0x15CE JUMPI DUP3 DUP1 ADD PUSH1 0xFF NOT DUP3 CALLDATALOAD AND OR DUP6 SSTORE PUSH2 0x15FB JUMP JUMPDEST DUP3 DUP1 ADD PUSH1 0x1 ADD DUP6 SSTORE DUP3 ISZERO PUSH2 0x15FB JUMPI SWAP2 DUP3 ADD JUMPDEST DUP3 DUP2 GT ISZERO PUSH2 0x15FB JUMPI DUP3 CALLDATALOAD DUP3 SSTORE SWAP2 PUSH1 0x20 ADD SWAP2 SWAP1 PUSH1 0x1 ADD SWAP1 PUSH2 0x15E0 JUMP JUMPDEST POP PUSH2 0x1607 SWAP3 SWAP2 POP PUSH2 0x160B JUMP JUMPDEST POP SWAP1 JUMP JUMPDEST JUMPDEST DUP1 DUP3 GT ISZERO PUSH2 0x1607 JUMPI PUSH1 0x0 DUP2 SSTORE PUSH1 0x1 ADD PUSH2 0x160C JUMP JUMPDEST PUSH1 0x0 DUP1 PUSH1 0x20 DUP4 DUP6 SUB SLT ISZERO PUSH2 0x1633 JUMPI PUSH1 0x0 DUP1 REVERT JUMPDEST DUP3 CALLDATALOAD PUSH8 0xFFFFFFFFFFFFFFFF DUP1 DUP3 GT ISZERO PUSH2 0x164B JUMPI PUSH1 0x0 DUP1 REVERT JUMPDEST DUP2 DUP6 ADD SWAP2 POP DUP6 PUSH1 0x1F DUP4 ADD SLT PUSH2 0x165F JUMPI PUSH1 0x0 DUP1 REVERT JUMPDEST DUP2 CALLDATALOAD DUP2 DUP2 GT ISZERO PUSH2 0x166E JUMPI PUSH1 0x0 DUP1 REVERT JUMPDEST DUP7 PUSH1 0x20 DUP3 PUSH1 0x5 SHL DUP6 ADD ADD GT ISZERO PUSH2 0x1683 JUMPI PUSH1 0x0 DUP1 REVERT JUMPDEST PUSH1 0x20 SWAP3 SWAP1 SWAP3 ADD SWAP7 SWAP2 SWAP6 POP SWAP1 SWAP4 POP POP POP POP JUMP JUMPDEST PUSH1 0x0 PUSH1 0x20 DUP3 DUP5 SUB SLT ISZERO PUSH2 0x16A7 JUMPI PUSH1 0x0 DUP1 REVERT JUMPDEST DUP2 CALLDATALOAD PUSH1 0x1 PUSH1 0x1 PUSH1 0xE0 SHL SUB NOT DUP2 AND DUP2 EQ PUSH2 0xDCE JUMPI PUSH1 0x0 DUP1 REVERT JUMPDEST PUSH1 0x0 JUMPDEST DUP4 DUP2 LT ISZERO PUSH2 0x16DA JUMPI DUP2 DUP2 ADD MLOAD DUP4 DUP3 ADD MSTORE PUSH1 0x20 ADD PUSH2 0x16C2 JUMP JUMPDEST DUP4 DUP2 GT ISZERO PUSH2 0x4A6 JUMPI POP POP PUSH1 0x0 SWAP2 ADD MSTORE JUMP JUMPDEST PUSH1 0x20 DUP2 MSTORE PUSH1 0x0 DUP3 MLOAD DUP1 PUSH1 0x20 DUP5 ADD MSTORE PUSH2 0x170A DUP2 PUSH1 0x40 DUP6 ADD PUSH1 0x20 DUP8 ADD PUSH2 0x16BF JUMP JUMPDEST PUSH1 0x1F ADD PUSH1 0x1F NOT AND SWAP2 SWAP1 SWAP2 ADD PUSH1 0x40 ADD SWAP3 SWAP2 POP POP JUMP JUMPDEST PUSH1 0x0 PUSH1 0x20 DUP3 DUP5 SUB SLT ISZERO PUSH2 0x1730 JUMPI PUSH1 0x0 DUP1 REVERT JUMPDEST POP CALLDATALOAD SWAP2 SWAP1 POP JUMP JUMPDEST DUP1 CALLDATALOAD PUSH1 0x1 PUSH1 0x1 PUSH1 0xA0 SHL SUB DUP2 AND DUP2 EQ PUSH2 0x174E JUMPI PUSH1 0x0 DUP1 REVERT JUMPDEST SWAP2 SWAP1 POP JUMP JUMPDEST PUSH1 0x0 PUSH1 0x20 DUP3 DUP5 SUB SLT ISZERO PUSH2 0x1765 JUMPI PUSH1 0x0 DUP1 REVERT JUMPDEST PUSH2 0xDCE DUP3 PUSH2 0x1737 JUMP JUMPDEST PUSH1 0x0 DUP1 PUSH1 0x40 DUP4 DUP6 SUB SLT ISZERO PUSH2 0x1781 JUMPI PUSH1 0x0 DUP1 REVERT JUMPDEST DUP3 CALLDATALOAD SWAP2 POP PUSH2 0x1791 PUSH1 0x20 DUP5 ADD PUSH2 0x1737 JUMP JUMPDEST SWAP1 POP SWAP3 POP SWAP3 SWAP1 POP JUMP JUMPDEST PUSH1 0x0 DUP1 PUSH1 0x20 DUP4 DUP6 SUB SLT ISZERO PUSH2 0x17AD JUMPI PUSH1 0x0 DUP1 REVERT JUMPDEST DUP3 CALLDATALOAD PUSH8 0xFFFFFFFFFFFFFFFF DUP1 DUP3 GT ISZERO PUSH2 0x17C5 JUMPI PUSH1 0x0 DUP1 REVERT JUMPDEST DUP2 DUP6 ADD SWAP2 POP DUP6 PUSH1 0x1F DUP4 ADD SLT PUSH2 0x17D9 JUMPI PUSH1 0x0 DUP1 REVERT JUMPDEST DUP2 CALLDATALOAD DUP2 DUP2 GT ISZERO PUSH2 0x17E8 JUMPI PUSH1 0x0 DUP1 REVERT JUMPDEST DUP7 PUSH1 0x20 DUP3 DUP6 ADD ADD GT ISZERO PUSH2 0x1683 JUMPI PUSH1 0x0 DUP1 REVERT JUMPDEST PUSH1 0x0 DUP1 PUSH1 0x40 DUP4 DUP6 SUB SLT ISZERO PUSH2 0x180D JUMPI PUSH1 0x0 DUP1 REVERT JUMPDEST PUSH2 0x1816 DUP4 PUSH2 0x1737 JUMP JUMPDEST SWAP5 PUSH1 0x20 SWAP4 SWAP1 SWAP4 ADD CALLDATALOAD SWAP4 POP POP POP JUMP JUMPDEST PUSH1 0x20 DUP1 DUP3 MSTORE PUSH1 0x36 SWAP1 DUP3 ADD MSTORE PUSH32 0x4F6E6C7920746865206163636F756E742077697468204F50455241544F525F52 PUSH1 0x40 DUP3 ADD MSTORE PUSH22 0x13D3114818D85B881C995D9BDAD9481D1A194814D095 PUSH1 0x52 SHL PUSH1 0x60 DUP3 ADD MSTORE PUSH1 0x80 ADD SWAP1 JUMP JUMPDEST PUSH1 0x20 DUP1 DUP3 MSTORE PUSH1 0x22 SWAP1 DUP3 ADD MSTORE PUSH32 0x546865206D6178206C656E677468206F66206164647265737365732069732031 PUSH1 0x40 DUP3 ADD MSTORE PUSH2 0x303 PUSH1 0xF4 SHL PUSH1 0x60 DUP3 ADD MSTORE PUSH1 0x80 ADD SWAP1 JUMP JUMPDEST PUSH4 0x4E487B71 PUSH1 0xE0 SHL PUSH1 0x0 MSTORE PUSH1 0x32 PUSH1 0x4 MSTORE PUSH1 0x24 PUSH1 0x0 REVERT JUMPDEST PUSH4 0x4E487B71 PUSH1 0xE0 SHL PUSH1 0x0 MSTORE PUSH1 0x11 PUSH1 0x4 MSTORE PUSH1 0x24 PUSH1 0x0 REVERT JUMPDEST PUSH1 0x0 PUSH1 0xFF DUP3 AND PUSH1 0xFF DUP2 EQ ISZERO PUSH2 0x18FF JUMPI PUSH2 0x18FF PUSH2 0x18D2 JUMP JUMPDEST PUSH1 0x1 ADD SWAP3 SWAP2 POP POP JUMP JUMPDEST PUSH1 0x1 DUP2 DUP2 SHR SWAP1 DUP3 AND DUP1 PUSH2 0x191C JUMPI PUSH1 0x7F DUP3 AND SWAP2 POP JUMPDEST PUSH1 0x20 DUP3 LT DUP2 EQ ISZERO PUSH2 0x193D JUMPI PUSH4 0x4E487B71 PUSH1 0xE0 SHL PUSH1 0x0 MSTORE PUSH1 0x22 PUSH1 0x4 MSTORE PUSH1 0x24 PUSH1 0x0 REVERT JUMPDEST POP SWAP2 SWAP1 POP JUMP JUMPDEST PUSH1 0x20 DUP1 DUP3 MSTORE PUSH1 0x21 SWAP1 DUP3 ADD MSTORE PUSH32 0x546865206163636F756E7420646F6573206E6F74206861766520616E79205342 PUSH1 0x40 DUP3 ADD MSTORE PUSH1 0x15 PUSH1 0xFA SHL PUSH1 0x60 DUP3 ADD MSTORE PUSH1 0x80 ADD SWAP1 JUMP JUMPDEST PUSH1 0x20 DUP1 DUP3 MSTORE PUSH1 0x36 SWAP1 DUP3 ADD MSTORE PUSH32 0x4F6E6C7920746865206163636F756E742077697468204F50455241544F525F52 PUSH1 0x40 DUP3 ADD MSTORE PUSH22 0x13D3114818D85B88185D1D195CDD081D1A194814D095 PUSH1 0x52 SHL PUSH1 0x60 DUP3 ADD MSTORE PUSH1 0x80 ADD SWAP1 JUMP JUMPDEST PUSH1 0x20 DUP1 DUP3 MSTORE PUSH1 0x10 SWAP1 DUP3 ADD MSTORE PUSH16 0x4164647265737320697320656D707479 PUSH1 0x80 SHL PUSH1 0x40 DUP3 ADD MSTORE PUSH1 0x60 ADD SWAP1 JUMP JUMPDEST PUSH1 0x0 DUP2 MLOAD PUSH2 0x1A16 DUP2 DUP6 PUSH1 0x20 DUP7 ADD PUSH2 0x16BF JUMP JUMPDEST SWAP3 SWAP1 SWAP3 ADD SWAP3 SWAP2 POP POP JUMP JUMPDEST PUSH1 0x0 DUP1 DUP5 SLOAD DUP2 PUSH1 0x1 DUP3 DUP2 SHR SWAP2 POP DUP1 DUP4 AND DUP1 PUSH2 0x1A3C JUMPI PUSH1 0x7F DUP4 AND SWAP3 POP JUMPDEST PUSH1 0x20 DUP1 DUP5 LT DUP3 EQ ISZERO PUSH2 0x1A5C JUMPI PUSH4 0x4E487B71 PUSH1 0xE0 SHL DUP7 MSTORE PUSH1 0x22 PUSH1 0x4 MSTORE PUSH1 0x24 DUP7 REVERT JUMPDEST DUP2 DUP1 ISZERO PUSH2 0x1A70 JUMPI PUSH1 0x1 DUP2 EQ PUSH2 0x1A81 JUMPI PUSH2 0x1AAE JUMP JUMPDEST PUSH1 0xFF NOT DUP7 AND DUP10 MSTORE DUP5 DUP10 ADD SWAP7 POP PUSH2 0x1AAE JUMP JUMPDEST PUSH1 0x0 DUP12 DUP2 MSTORE PUSH1 0x20 SWAP1 KECCAK256 PUSH1 0x0 JUMPDEST DUP7 DUP2 LT ISZERO PUSH2 0x1AA6 JUMPI DUP2 SLOAD DUP12 DUP3 ADD MSTORE SWAP1 DUP6 ADD SWAP1 DUP4 ADD PUSH2 0x1A8D JUMP JUMPDEST POP POP DUP5 DUP10 ADD SWAP7 POP JUMPDEST POP POP POP POP POP POP PUSH2 0x1ABE DUP2 DUP6 PUSH2 0x1A04 JUMP JUMPDEST SWAP6 SWAP5 POP POP POP POP POP JUMP JUMPDEST PUSH1 0x0 PUSH1 0x0 NOT DUP3 EQ ISZERO PUSH2 0x1ADB JUMPI PUSH2 0x1ADB PUSH2 0x18D2 JUMP JUMPDEST POP PUSH1 0x1 ADD SWAP1 JUMP JUMPDEST PUSH4 0x4E487B71 PUSH1 0xE0 SHL PUSH1 0x0 MSTORE PUSH1 0x12 PUSH1 0x4 MSTORE PUSH1 0x24 PUSH1 0x0 REVERT JUMPDEST PUSH1 0x0 DUP3 PUSH2 0x1B07 JUMPI PUSH2 0x1B07 PUSH2 0x1AE2 JUMP JUMPDEST POP DIV SWAP1 JUMP JUMPDEST PUSH4 0x4E487B71 PUSH1 0xE0 SHL PUSH1 0x0 MSTORE PUSH1 0x41 PUSH1 0x4 MSTORE PUSH1 0x24 PUSH1 0x0 REVERT JUMPDEST PUSH1 0x0 DUP3 DUP3 LT ISZERO PUSH2 0x1B34 JUMPI PUSH2 0x1B34 PUSH2 0x18D2 JUMP JUMPDEST POP SUB SWAP1 JUMP JUMPDEST PUSH1 0x0 DUP3 PUSH2 0x1B48 JUMPI PUSH2 0x1B48 PUSH2 0x1AE2 JUMP JUMPDEST POP MOD SWAP1 JUMP JUMPDEST PUSH1 0x0 DUP3 NOT DUP3 GT ISZERO PUSH2 0x1B60 JUMPI PUSH2 0x1B60 PUSH2 0x18D2 JUMP JUMPDEST POP ADD SWAP1 JUMP JUMPDEST PUSH32 0x416363657373436F6E74726F6C3A206163636F756E7420000000000000000000 DUP2 MSTORE PUSH1 0x0 DUP4 MLOAD PUSH2 0x1B9D DUP2 PUSH1 0x17 DUP6 ADD PUSH1 0x20 DUP9 ADD PUSH2 0x16BF JUMP JUMPDEST PUSH17 0x1034B99036B4B9B9B4B733903937B6329 PUSH1 0x7D SHL PUSH1 0x17 SWAP2 DUP5 ADD SWAP2 DUP3 ADD MSTORE DUP4 MLOAD PUSH2 0x1BCE DUP2 PUSH1 0x28 DUP5 ADD PUSH1 0x20 DUP9 ADD PUSH2 0x16BF JUMP JUMPDEST ADD PUSH1 0x28 ADD SWAP5 SWAP4 POP POP POP POP JUMP JUMPDEST PUSH1 0x0 DUP2 PUSH1 0x0 NOT DIV DUP4 GT DUP3 ISZERO ISZERO AND ISZERO PUSH2 0x1BF4 JUMPI PUSH2 0x1BF4 PUSH2 0x18D2 JUMP JUMPDEST POP MUL SWAP1 JUMP JUMPDEST PUSH1 0x0 DUP2 PUSH2 0x1C08 JUMPI PUSH2 0x1C08 PUSH2 0x18D2 JUMP JUMPDEST POP PUSH1 0x0 NOT ADD SWAP1 JUMP JUMPDEST PUSH4 0x4E487B71 PUSH1 0xE0 SHL PUSH1 0x0 MSTORE PUSH1 0x31 PUSH1 0x4 MSTORE PUSH1 0x24 PUSH1 0x0 REVERT INVALID SLOAD PUSH9 0x652077616C6C657420 PUSH9 0x6173206E6F74206174 PUSH21 0x657374656420616E792053425497667070C54EF182 0xB0 CREATE2 DUP6 DUP12 SUB 0x4B 0xEA 0xC1 0xB6 RETURN ADDMOD SWAP11 LOG2 0xD3 XOR DUP12 0xB1 0xE8 SWAP3 SWAP16 0x4F 0xA9 0xB9 0x29 0xDD CALLCODE MSTORE 0xAD SHL 0xE2 0xC8 SWAP12 PUSH10 0xC2B068FC378DAA952BA7 CALL PUSH4 0xC4A11628 CREATE2 GAS 0x4D CREATE2 0x23 0xB3 0xEF LOG2 PUSH5 0x6970667358 0x22 SLT KECCAK256 MSTORE 0xC2 SWAP8 PUSH31 0xA14240FAFBDAC993288DFECABBA0725A9315FDD690BA00A82372A97664736F PUSH13 0x634300080C0033000000000000 "
		},
		"gasEstimates": {
			"creation": {
				"codeDepositCost": "1471800",
				"executionCost": "infinite",
				"totalCost": "infinite"
			},
			"external": {
				"DEFAULT_ADMIN_ROLE()": "217",
				"OPERATOR_ROLE()": "infinite",
				"attest(address)": "infinite",
				"attestId(address,uint256)": "infinite",
				"balanceOf(address)": "infinite",
				"batchAttest(address[])": "infinite",
				"batchRevoke(address[])": "infinite",
				"burn()": "infinite",
				"getRoleAdmin(bytes32)": "2559",
				"grantRole(bytes32,address)": "infinite",
				"hasRole(bytes32,address)": "2762",
				"isAdmin(address)": "2802",
				"isOperator(address)": "infinite",
				"name()": "infinite",
				"ownerOf(uint256)": "infinite",
				"renounceRole(bytes32,address)": "29062",
				"revoke(address)": "infinite",
				"revokeRole(bytes32,address)": "infinite",
				"setBaseTokenURI(string)": "infinite",
				"supportsInterface(bytes4)": "infinite",
				"symbol()": "infinite",
				"tokenIdOf(address)": "infinite",
				"tokenURI(uint256)": "infinite",
				"totalSupply()": "infinite"
			},
			"internal": {
				"initialize(string memory,string memory,address)": "infinite"
			}
		},
		"methodIdentifiers": {
			"DEFAULT_ADMIN_ROLE()": "a217fddf",
			"OPERATOR_ROLE()": "f5b541a6",
			"attest(address)": "eb31403f",
			"attestId(address,uint256)": "bc8dd06a",
			"balanceOf(address)": "70a08231",
			"batchAttest(address[])": "6c60144a",
			"batchRevoke(address[])": "011002df",
			"burn()": "44df8e70",
			"getRoleAdmin(bytes32)": "248a9ca3",
			"grantRole(bytes32,address)": "2f2ff15d",
			"hasRole(bytes32,address)": "91d14854",
			"isAdmin(address)": "24d7806c",
			"isOperator(address)": "6d70f7ae",
			"name()": "06fdde03",
			"ownerOf(uint256)": "6352211e",
			"renounceRole(bytes32,address)": "36568abe",
			"revoke(address)": "74a8f103",
			"revokeRole(bytes32,address)": "d547741f",
			"setBaseTokenURI(string)": "30176e13",
			"supportsInterface(bytes4)": "01ffc9a7",
			"symbol()": "95d89b41",
			"tokenIdOf(address)": "773c02d4",
			"tokenURI(uint256)": "c87b56dd",
			"totalSupply()": "18160ddd"
		}
	},
	"abi": [
		{
			"inputs": [],
			"stateMutability": "nonpayable",
			"type": "constructor"
		},
		{
			"anonymous": false,
			"inputs": [
				{
					"indexed": true,
					"internalType": "address",
					"name": "to",
					"type": "address"
				},
				{
					"indexed": true,
					"internalType": "uint256",
					"name": "tokenId",
					"type": "uint256"
				}
			],
			"name": "Attest",
			"type": "event"
		},
		{
			"anonymous": false,
			"inputs": [
				{
					"indexed": true,
					"internalType": "address",
					"name": "from",
					"type": "address"
				},
				{
					"indexed": true,
					"internalType": "uint256",
					"name": "tokenId",
					"type": "uint256"
				}
			],
			"name": "Burn",
			"type": "event"
		},
		{
			"anonymous": false,
			"inputs": [
				{
					"indexed": true,
					"internalType": "address",
					"name": "from",
					"type": "address"
				},
				{
					"indexed": true,
					"internalType": "uint256",
					"name": "tokenId",
					"type": "uint256"
				}
			],
			"name": "Revoke",
			"type": "event"
		},
		{
			"anonymous": false,
			"inputs": [
				{
					"indexed": true,
					"internalType": "bytes32",
					"name": "role",
					"type": "bytes32"
				},
				{
					"indexed": true,
					"internalType": "bytes32",
					"name": "previousAdminRole",
					"type": "bytes32"
				},
				{
					"indexed": true,
					"internalType": "bytes32",
					"name": "newAdminRole",
					"type": "bytes32"
				}
			],
			"name": "RoleAdminChanged",
			"type": "event"
		},
		{
			"anonymous": false,
			"inputs": [
				{
					"indexed": true,
					"internalType": "bytes32",
					"name": "role",
					"type": "bytes32"
				},
				{
					"indexed": true,
					"internalType": "address",
					"name": "account",
					"type": "address"
				},
				{
					"indexed": true,
					"internalType": "address",
					"name": "sender",
					"type": "address"
				}
			],
			"name": "RoleGranted",
			"type": "event"
		},
		{
			"anonymous": false,
			"inputs": [
				{
					"indexed": true,
					"internalType": "bytes32",
					"name": "role",
					"type": "bytes32"
				},
				{
					"indexed": true,
					"internalType": "address",
					"name": "account",
					"type": "address"
				},
				{
					"indexed": true,
					"internalType": "address",
					"name": "sender",
					"type": "address"
				}
			],
			"name": "RoleRevoked",
			"type": "event"
		},
		{
			"anonymous": false,
			"inputs": [
				{
					"indexed": true,
					"internalType": "address",
					"name": "from",
					"type": "address"
				},
				{
					"indexed": true,
					"internalType": "address",
					"name": "to",
					"type": "address"
				},
				{
					"indexed": true,
					"internalType": "uint256",
					"name": "tokenId",
					"type": "uint256"
				}
			],
			"name": "Transfer",
			"type": "event"
		},
		{
			"inputs": [],
			"name": "DEFAULT_ADMIN_ROLE",
			"outputs": [
				{
					"internalType": "bytes32",
					"name": "",
					"type": "bytes32"
				}
			],
			"stateMutability": "view",
			"type": "function"
		},
		{
			"inputs": [],
			"name": "OPERATOR_ROLE",
			"outputs": [
				{
					"internalType": "bytes32",
					"name": "",
					"type": "bytes32"
				}
			],
			"stateMutability": "view",
			"type": "function"
		},
		{
			"inputs": [
				{
					"internalType": "address",
					"name": "to",
					"type": "address"
				}
			],
			"name": "attest",
			"outputs": [
				{
					"internalType": "uint256",
					"name": "",
					"type": "uint256"
				}
			],
			"stateMutability": "nonpayable",
			"type": "function"
		},
		{
			"inputs": [
				{
					"internalType": "address",
					"name": "to",
					"type": "address"
				},
				{
					"internalType": "uint256",
					"name": "tokenId",
					"type": "uint256"
				}
			],
			"name": "attestId",
			"outputs": [
				{
					"internalType": "uint256",
					"name": "",
					"type": "uint256"
				}
			],
			"stateMutability": "nonpayable",
			"type": "function"
		},
		{
			"inputs": [
				{
					"internalType": "address",
					"name": "owner",
					"type": "address"
				}
			],
			"name": "balanceOf",
			"outputs": [
				{
					"internalType": "uint256",
					"name": "",
					"type": "uint256"
				}
			],
			"stateMutability": "view",
			"type": "function"
		},
		{
			"inputs": [
				{
					"internalType": "address[]",
					"name": "addrs",
					"type": "address[]"
				}
			],
			"name": "batchAttest",
			"outputs": [],
			"stateMutability": "nonpayable",
			"type": "function"
		},
		{
			"inputs": [
				{
					"internalType": "address[]",
					"name": "addrs",
					"type": "address[]"
				}
			],
			"name": "batchRevoke",
			"outputs": [],
			"stateMutability": "nonpayable",
			"type": "function"
		},
		{
			"inputs": [],
			"name": "burn",
			"outputs": [],
			"stateMutability": "nonpayable",
			"type": "function"
		},
		{
			"inputs": [
				{
					"internalType": "bytes32",
					"name": "role",
					"type": "bytes32"
				}
			],
			"name": "getRoleAdmin",
			"outputs": [
				{
					"internalType": "bytes32",
					"name": "",
					"type": "bytes32"
				}
			],
			"stateMutability": "view",
			"type": "function"
		},
		{
			"inputs": [
				{
					"internalType": "bytes32",
					"name": "role",
					"type": "bytes32"
				},
				{
					"internalType": "address",
					"name": "account",
					"type": "address"
				}
			],
			"name": "grantRole",
			"outputs": [],
			"stateMutability": "nonpayable",
			"type": "function"
		},
		{
			"inputs": [
				{
					"internalType": "bytes32",
					"name": "role",
					"type": "bytes32"
				},
				{
					"internalType": "address",
					"name": "account",
					"type": "address"
				}
			],
			"name": "hasRole",
			"outputs": [
				{
					"internalType": "bool",
					"name": "",
					"type": "bool"
				}
			],
			"stateMutability": "view",
			"type": "function"
		},
		{
			"inputs": [
				{
					"internalType": "address",
					"name": "account",
					"type": "address"
				}
			],
			"name": "isAdmin",
			"outputs": [
				{
					"internalType": "bool",
					"name": "",
					"type": "bool"
				}
			],
			"stateMutability": "view",
			"type": "function"
		},
		{
			"inputs": [
				{
					"internalType": "address",
					"name": "account",
					"type": "address"
				}
			],
			"name": "isOperator",
			"outputs": [
				{
					"internalType": "bool",
					"name": "",
					"type": "bool"
				}
			],
			"stateMutability": "view",
			"type": "function"
		},
		{
			"inputs": [],
			"name": "name",
			"outputs": [
				{
					"internalType": "string",
					"name": "",
					"type": "string"
				}
			],
			"stateMutability": "view",
			"type": "function"
		},
		{
			"inputs": [
				{
					"internalType": "uint256",
					"name": "tokenId",
					"type": "uint256"
				}
			],
			"name": "ownerOf",
			"outputs": [
				{
					"internalType": "address",
					"name": "",
					"type": "address"
				}
			],
			"stateMutability": "view",
			"type": "function"
		},
		{
			"inputs": [
				{
					"internalType": "bytes32",
					"name": "role",
					"type": "bytes32"
				},
				{
					"internalType": "address",
					"name": "account",
					"type": "address"
				}
			],
			"name": "renounceRole",
			"outputs": [],
			"stateMutability": "nonpayable",
			"type": "function"
		},
		{
			"inputs": [
				{
					"internalType": "address",
					"name": "from",
					"type": "address"
				}
			],
			"name": "revoke",
			"outputs": [],
			"stateMutability": "nonpayable",
			"type": "function"
		},
		{
			"inputs": [
				{
					"internalType": "bytes32",
					"name": "role",
					"type": "bytes32"
				},
				{
					"internalType": "address",
					"name": "account",
					"type": "address"
				}
			],
			"name": "revokeRole",
			"outputs": [],
			"stateMutability": "nonpayable",
			"type": "function"
		},
		{
			"inputs": [
				{
					"internalType": "string",
					"name": "uri",
					"type": "string"
				}
			],
			"name": "setBaseTokenURI",
			"outputs": [],
			"stateMutability": "nonpayable",
			"type": "function"
		},
		{
			"inputs": [
				{
					"internalType": "bytes4",
					"name": "interfaceId",
					"type": "bytes4"
				}
			],
			"name": "supportsInterface",
			"outputs": [
				{
					"internalType": "bool",
					"name": "",
					"type": "bool"
				}
			],
			"stateMutability": "view",
			"type": "function"
		},
		{
			"inputs": [],
			"name": "symbol",
			"outputs": [
				{
					"internalType": "string",
					"name": "",
					"type": "string"
				}
			],
			"stateMutability": "view",
			"type": "function"
		},
		{
			"inputs": [
				{
					"internalType": "address",
					"name": "from",
					"type": "address"
				}
			],
			"name": "tokenIdOf",
			"outputs": [
				{
					"internalType": "uint256",
					"name": "",
					"type": "uint256"
				}
			],
			"stateMutability": "view",
			"type": "function"
		},
		{
			"inputs": [
				{
					"internalType": "uint256",
					"name": "tokenId",
					"type": "uint256"
				}
			],
			"name": "tokenURI",
			"outputs": [
				{
					"internalType": "string",
					"name": "",
					"type": "string"
				}
			],
			"stateMutability": "view",
			"type": "function"
		},
		{
			"inputs": [],
			"name": "totalSupply",
			"outputs": [
				{
					"internalType": "uint256",
					"name": "",
					"type": "uint256"
				}
			],
			"stateMutability": "view",
			"type": "function"
		}
	]
}