{
	"source/BinanceBABT/contracts/SBT.sol": {
		"SBT": {
			"abi": [
				{
					"inputs": [],
					"stateMutability": "nonpayable",
					"type": "constructor"
				},
				{
					"anonymous": false,
					"inputs": [
						{
							"indexed": true,
							"internalType": "address",
							"name": "to",
							"type": "address"
						},
						{
							"indexed": true,
							"internalType": "uint256",
							"name": "tokenId",
							"type": "uint256"
						}
					],
					"name": "Attest",
					"type": "event"
				},
				{
					"anonymous": false,
					"inputs": [
						{
							"indexed": true,
							"internalType": "address",
							"name": "from",
							"type": "address"
						},
						{
							"indexed": true,
							"internalType": "uint256",
							"name": "tokenId",
							"type": "uint256"
						}
					],
					"name": "Burn",
					"type": "event"
				},
				{
					"anonymous": false,
					"inputs": [
						{
							"indexed": true,
							"internalType": "address",
							"name": "from",
							"type": "address"
						},
						{
							"indexed": true,
							"internalType": "uint256",
							"name": "tokenId",
							"type": "uint256"
						}
					],
					"name": "Revoke",
					"type": "event"
				},
				{
					"anonymous": false,
					"inputs": [
						{
							"indexed": true,
							"internalType": "bytes32",
							"name": "role",
							"type": "bytes32"
						},
						{
							"indexed": true,
							"internalType": "bytes32",
							"name": "previousAdminRole",
							"type": "bytes32"
						},
						{
							"indexed": true,
							"internalType": "bytes32",
							"name": "newAdminRole",
							"type": "bytes32"
						}
					],
					"name": "RoleAdminChanged",
					"type": "event"
				},
				{
					"anonymous": false,
					"inputs": [
						{
							"indexed": true,
							"internalType": "bytes32",
							"name": "role",
							"type": "bytes32"
						},
						{
							"indexed": true,
							"internalType": "address",
							"name": "account",
							"type": "address"
						},
						{
							"indexed": true,
							"internalType": "address",
							"name": "sender",
							"type": "address"
						}
					],
					"name": "RoleGranted",
					"type": "event"
				},
				{
					"anonymous": false,
					"inputs": [
						{
							"indexed": true,
							"internalType": "bytes32",
							"name": "role",
							"type": "bytes32"
						},
						{
							"indexed": true,
							"internalType": "address",
							"name": "account",
							"type": "address"
						},
						{
							"indexed": true,
							"internalType": "address",
							"name": "sender",
							"type": "address"
						}
					],
					"name": "RoleRevoked",
					"type": "event"
				},
				{
					"anonymous": false,
					"inputs": [
						{
							"indexed": true,
							"internalType": "address",
							"name": "from",
							"type": "address"
						},
						{
							"indexed": true,
							"internalType": "address",
							"name": "to",
							"type": "address"
						},
						{
							"indexed": true,
							"internalType": "uint256",
							"name": "tokenId",
							"type": "uint256"
						}
					],
					"name": "Transfer",
					"type": "event"
				},
				{
					"inputs": [],
					"name": "DEFAULT_ADMIN_ROLE",
					"outputs": [
						{
							"internalType": "bytes32",
							"name": "",
							"type": "bytes32"
						}
					],
					"stateMutability": "view",
					"type": "function"
				},
				{
					"inputs": [],
					"name": "OPERATOR_ROLE",
					"outputs": [
						{
							"internalType": "bytes32",
							"name": "",
							"type": "bytes32"
						}
					],
					"stateMutability": "view",
					"type": "function"
				},
				{
					"inputs": [
						{
							"internalType": "address",
							"name": "to",
							"type": "address"
						}
					],
					"name": "attest",
					"outputs": [
						{
							"internalType": "uint256",
							"name": "",
							"type": "uint256"
						}
					],
					"stateMutability": "nonpayable",
					"type": "function"
				},
				{
					"inputs": [
						{
							"internalType": "address",
							"name": "to",
							"type": "address"
						},
						{
							"internalType": "uint256",
							"name": "tokenId",
							"type": "uint256"
						}
					],
					"name": "attestId",
					"outputs": [
						{
							"internalType": "uint256",
							"name": "",
							"type": "uint256"
						}
					],
					"stateMutability": "nonpayable",
					"type": "function"
				},
				{
					"inputs": [
						{
							"internalType": "address",
							"name": "owner",
							"type": "address"
						}
					],
					"name": "balanceOf",
					"outputs": [
						{
							"internalType": "uint256",
							"name": "",
							"type": "uint256"
						}
					],
					"stateMutability": "view",
					"type": "function"
				},
				{
					"inputs": [
						{
							"internalType": "address[]",
							"name": "addrs",
							"type": "address[]"
						}
					],
					"name": "batchAttest",
					"outputs": [],
					"stateMutability": "nonpayable",
					"type": "function"
				},
				{
					"inputs": [
						{
							"internalType": "address[]",
							"name": "addrs",
							"type": "address[]"
						}
					],
					"name": "batchRevoke",
					"outputs": [],
					"stateMutability": "nonpayable",
					"type": "function"
				},
				{
					"inputs": [],
					"name": "burn",
					"outputs": [],
					"stateMutability": "nonpayable",
					"type": "function"
				},
				{
					"inputs": [
						{
							"internalType": "bytes32",
							"name": "role",
							"type": "bytes32"
						}
					],
					"name": "getRoleAdmin",
					"outputs": [
						{
							"internalType": "bytes32",
							"name": "",
							"type": "bytes32"
						}
					],
					"stateMutability": "view",
					"type": "function"
				},
				{
					"inputs": [
						{
							"internalType": "bytes32",
							"name": "role",
							"type": "bytes32"
						},
						{
							"internalType": "address",
							"name": "account",
							"type": "address"
						}
					],
					"name": "grantRole",
					"outputs": [],
					"stateMutability": "nonpayable",
					"type": "function"
				},
				{
					"inputs": [
						{
							"internalType": "bytes32",
							"name": "role",
							"type": "bytes32"
						},
						{
							"internalType": "address",
							"name": "account",
							"type": "address"
						}
					],
					"name": "hasRole",
					"outputs": [
						{
							"internalType": "bool",
							"name": "",
							"type": "bool"
						}
					],
					"stateMutability": "view",
					"type": "function"
				},
				{
					"inputs": [
						{
							"internalType": "address",
							"name": "account",
							"type": "address"
						}
					],
					"name": "isAdmin",
					"outputs": [
						{
							"internalType": "bool",
							"name": "",
							"type": "bool"
						}
					],
					"stateMutability": "view",
					"type": "function"
				},
				{
					"inputs": [
						{
							"internalType": "address",
							"name": "account",
							"type": "address"
						}
					],
					"name": "isOperator",
					"outputs": [
						{
							"internalType": "bool",
							"name": "",
							"type": "bool"
						}
					],
					"stateMutability": "view",
					"type": "function"
				},
				{
					"inputs": [],
					"name": "name",
					"outputs": [
						{
							"internalType": "string",
							"name": "",
							"type": "string"
						}
					],
					"stateMutability": "view",
					"type": "function"
				},
				{
					"inputs": [
						{
							"internalType": "uint256",
							"name": "tokenId",
							"type": "uint256"
						}
					],
					"name": "ownerOf",
					"outputs": [
						{
							"internalType": "address",
							"name": "",
							"type": "address"
						}
					],
					"stateMutability": "view",
					"type": "function"
				},
				{
					"inputs": [
						{
							"internalType": "bytes32",
							"name": "role",
							"type": "bytes32"
						},
						{
							"internalType": "address",
							"name": "account",
							"type": "address"
						}
					],
					"name": "renounceRole",
					"outputs": [],
					"stateMutability": "nonpayable",
					"type": "function"
				},
				{
					"inputs": [
						{
							"internalType": "address",
							"name": "from",
							"type": "address"
						}
					],
					"name": "revoke",
					"outputs": [],
					"stateMutability": "nonpayable",
					"type": "function"
				},
				{
					"inputs": [
						{
							"internalType": "bytes32",
							"name": "role",
							"type": "bytes32"
						},
						{
							"internalType": "address",
							"name": "account",
							"type": "address"
						}
					],
					"name": "revokeRole",
					"outputs": [],
					"stateMutability": "nonpayable",
					"type": "function"
				},
				{
					"inputs": [
						{
							"internalType": "string",
							"name": "uri",
							"type": "string"
						}
					],
					"name": "setBaseTokenURI",
					"outputs": [],
					"stateMutability": "nonpayable",
					"type": "function"
				},
				{
					"inputs": [
						{
							"internalType": "bytes4",
							"name": "interfaceId",
							"type": "bytes4"
						}
					],
					"name": "supportsInterface",
					"outputs": [
						{
							"internalType": "bool",
							"name": "",
							"type": "bool"
						}
					],
					"stateMutability": "view",
					"type": "function"
				},
				{
					"inputs": [],
					"name": "symbol",
					"outputs": [
						{
							"internalType": "string",
							"name": "",
							"type": "string"
						}
					],
					"stateMutability": "view",
					"type": "function"
				},
				{
					"inputs": [
						{
							"internalType": "address",
							"name": "from",
							"type": "address"
						}
					],
					"name": "tokenIdOf",
					"outputs": [
						{
							"internalType": "uint256",
							"name": "",
							"type": "uint256"
						}
					],
					"stateMutability": "view",
					"type": "function"
				},
				{
					"inputs": [
						{
							"internalType": "uint256",
							"name": "tokenId",
							"type": "uint256"
						}
					],
					"name": "tokenURI",
					"outputs": [
						{
							"internalType": "string",
							"name": "",
							"type": "string"
						}
					],
					"stateMutability": "view",
					"type": "function"
				},
				{
					"inputs": [],
					"name": "totalSupply",
					"outputs": [
						{
							"internalType": "uint256",
							"name": "",
							"type": "uint256"
						}
					],
					"stateMutability": "view",
					"type": "function"
				}
			],
			"devdoc": {
				"kind": "dev",
				"methods": {
					"attest(address)": {
						"details": "Mints SBT Requirements: - `to` must be valid. - `to` must not exist. Emits a {Attest} event. Emits a {Transfer} event.",
						"returns": {
							"_0": "The tokenId of the minted SBT"
						}
					},
					"balanceOf(address)": {
						"details": "SBTs assigned to the zero address is considered invalid, and this function throws for queries about the zero address.",
						"params": {
							"owner": "An address for whom to query the balance"
						},
						"returns": {
							"_0": "The number of SBTs owned by `owner`, possibly zero"
						}
					},
					"getRoleAdmin(bytes32)": {
						"details": "Returns the admin role that controls `role`. See {grantRole} and {revokeRole}. To change a role's admin, use {_setRoleAdmin}."
					},
					"grantRole(bytes32,address)": {
						"details": "Grants `role` to `account`. If `account` had not been already granted `role`, emits a {RoleGranted} event. Requirements: - the caller must have ``role``'s admin role. May emit a {RoleGranted} event."
					},
					"hasRole(bytes32,address)": {
						"details": "Returns `true` if `account` has been granted `role`."
					},
					"ownerOf(uint256)": {
						"details": "SBTs assigned to zero address are considered invalid, and queries  about them do throw.",
						"params": {
							"tokenId": "The identifier for an SBT"
						},
						"returns": {
							"_0": "The address of the owner bound to the SBT"
						}
					},
					"renounceRole(bytes32,address)": {
						"details": "Revokes `role` from the calling account. Roles are often managed via {grantRole} and {revokeRole}: this function's purpose is to provide a mechanism for accounts to lose their privileges if they are compromised (such as when a trusted device is misplaced). If the calling account had been revoked `role`, emits a {RoleRevoked} event. Requirements: - the caller must be `account`. May emit a {RoleRevoked} event."
					},
					"revoke(address)": {
						"details": "Revokes SBT Requirements: - `from` must exist. Emits a {Revoke} event. Emits a {Transfer} event."
					},
					"revokeRole(bytes32,address)": {
						"details": "Revokes `role` from `account`. If `account` had been granted `role`, emits a {RoleRevoked} event. Requirements: - the caller must have ``role``'s admin role. May emit a {RoleRevoked} event."
					},
					"setBaseTokenURI(string)": {
						"details": "Update _baseTokenURI"
					},
					"supportsInterface(bytes4)": {
						"details": "See {IERC165-supportsInterface}."
					},
					"tokenIdOf(address)": {
						"params": {
							"from": "The address of the SBT owner"
						},
						"returns": {
							"_0": "The tokenId of the owner's SBT, and throw an error if there is no SBT belongs to the given address"
						}
					},
					"tokenURI(uint256)": {
						"details": "See {IERC721Metadata-tokenURI}."
					},
					"totalSupply()": {
						"details": "Returns the amount of tokens in existence."
					}
				},
				"stateVariables": {
					"name": {
						"details": "Returns the token collection name."
					},
					"symbol": {
						"details": "Returns the token collection symbol."
					}
				},
				"version": 1
			},
			"evm": {
				"assembly": "    /* \"source/BinanceBABT/contracts/SBT.sol\":628:7283  contract SBT is AccessControl, ISBT721, IERC721Metadata {... */\n  mstore(0x40, 0x80)\n    /* \"source/BinanceBABT/contracts/SBT.sol\":1325:1402  constructor() {... */\n  callvalue\n  dup1\n  iszero\n  tag_1\n  jumpi\n  0x00\n  dup1\n  revert\ntag_1:\n  pop\n    /* \"source/BinanceBABT/contracts/SBT.sol\":1349:1395  initialize(\"KYCToken\", \"KYCToken\", msg.sender) */\n  tag_4\n  mload(0x40)\n  dup1\n  0x40\n  add\n  0x40\n  mstore\n  dup1\n  0x08\n  dup2\n  mstore\n  0x20\n  add\n  shl(0xc1, 0x25aca1aa37b5b2b7)\n  dup2\n  mstore\n  pop\n  mload(0x40)\n  dup1\n  0x40\n  add\n  0x40\n  mstore\n  dup1\n  0x08\n  dup2\n  mstore\n  0x20\n  add\n  shl(0xc1, 0x25aca1aa37b5b2b7)\n  dup2\n  mstore\n  pop\n    /* \"source/BinanceBABT/contracts/SBT.sol\":1384:1394  msg.sender */\n  caller\n    /* \"source/BinanceBABT/contracts/SBT.sol\":1349:1359  initialize */\n  shl(0x20, tag_5)\n    /* \"source/BinanceBABT/contracts/SBT.sol\":1349:1395  initialize(\"KYCToken\", \"KYCToken\", msg.sender) */\n  0x20\n  shr\n  jump\t// in\ntag_4:\n    /* \"source/BinanceBABT/contracts/SBT.sol\":628:7283  contract SBT is AccessControl, ISBT721, IERC721Metadata {... */\n  jump(tag_33)\n    /* \"source/BinanceBABT/contracts/SBT.sol\":1520:1841  function initialize(... */\ntag_5:\n    /* \"source/BinanceBABT/contracts/SBT.sol\":1648:1660  name = name_ */\n  dup3\n  mload\n  tag_8\n  swap1\n    /* \"source/BinanceBABT/contracts/SBT.sol\":1648:1652  name */\n  0x08\n  swap1\n    /* \"source/BinanceBABT/contracts/SBT.sol\":1648:1660  name = name_ */\n  0x20\n  dup7\n  add\n  swap1\n  tag_9\n  jump\t// in\ntag_8:\n  pop\n    /* \"source/BinanceBABT/contracts/SBT.sol\":1670:1686  symbol = symbol_ */\n  dup2\n  mload\n  tag_10\n  swap1\n    /* \"source/BinanceBABT/contracts/SBT.sol\":1670:1676  symbol */\n  0x09\n  swap1\n    /* \"source/BinanceBABT/contracts/SBT.sol\":1670:1686  symbol = symbol_ */\n  0x20\n  dup6\n  add\n  swap1\n  tag_9\n  jump\t// in\ntag_10:\n  pop\n    /* \"source/BinanceBABT/contracts/SBT.sol\":1753:1791  _grantRole(DEFAULT_ADMIN_ROLE, admin_) */\n  tag_11\n    /* \"source/BinanceBABT/contracts/access/AccessControl.sol\":2068:2072  0x00 */\n  0x00\n    /* \"source/BinanceBABT/contracts/SBT.sol\":1784:1790  admin_ */\n  dup3\n    /* \"source/BinanceBABT/contracts/SBT.sol\":1753:1763  _grantRole */\n  tag_12\n    /* \"source/BinanceBABT/contracts/SBT.sol\":1753:1791  _grantRole(DEFAULT_ADMIN_ROLE, admin_) */\n  jump\t// in\ntag_11:\n    /* \"source/BinanceBABT/contracts/SBT.sol\":1801:1834  _grantRole(OPERATOR_ROLE, admin_) */\n  tag_13\n    /* \"source/BinanceBABT/contracts/SBT.sol\":1292:1318  keccak256(\"OPERATOR_ROLE\") */\n  0x97667070c54ef182b0f5858b034beac1b6f3089aa2d3188bb1e8929f4fa9b929\n    /* \"source/BinanceBABT/contracts/SBT.sol\":1827:1833  admin_ */\n  dup3\n    /* \"source/BinanceBABT/contracts/SBT.sol\":1801:1811  _grantRole */\n  tag_12\n    /* \"source/BinanceBABT/contracts/SBT.sol\":1801:1834  _grantRole(OPERATOR_ROLE, admin_) */\n  jump\t// in\ntag_13:\n    /* \"source/BinanceBABT/contracts/SBT.sol\":1520:1841  function initialize(... */\n  pop\n  pop\n  pop\n  jump\t// out\n    /* \"source/BinanceBABT/contracts/access/AccessControl.sol\":7457:7690  function _grantRole(bytes32 role, address account) internal virtual {... */\ntag_12:\n    /* \"source/BinanceBABT/contracts/access/AccessControl.sol\":2977:2981  bool */\n  0x00\n    /* \"source/BinanceBABT/contracts/access/AccessControl.sol\":3000:3012  _roles[role] */\n  dup3\n  dup2\n  mstore\n  0x20\n  dup2\n  dup2\n  mstore\n  0x40\n  dup1\n  dup4\n  keccak256\n  sub(shl(0xa0, 0x01), 0x01)\n    /* \"source/BinanceBABT/contracts/access/AccessControl.sol\":3000:3029  _roles[role].members[account] */\n  dup6\n  and\n  dup5\n  mstore\n  swap1\n  swap2\n  mstore\n  swap1\n  keccak256\n  sload\n  0xff\n  and\n    /* \"source/BinanceBABT/contracts/access/AccessControl.sol\":7535:7684  if (!hasRole(role, account)) {... */\n  tag_17\n  jumpi\n    /* \"source/BinanceBABT/contracts/access/AccessControl.sol\":7578:7584  _roles */\n  0x00\n    /* \"source/BinanceBABT/contracts/access/AccessControl.sol\":7578:7590  _roles[role] */\n  dup3\n  dup2\n  mstore\n  0x20\n  dup2\n  dup2\n  mstore\n  0x40\n  dup1\n  dup4\n  keccak256\n  sub(shl(0xa0, 0x01), 0x01)\n    /* \"source/BinanceBABT/contracts/access/AccessControl.sol\":7578:7607  _roles[role].members[account] */\n  dup6\n  and\n  dup5\n  mstore\n  swap1\n  swap2\n  mstore\n  swap1\n  keccak256\n    /* \"source/BinanceBABT/contracts/access/AccessControl.sol\":7578:7614  _roles[role].members[account] = true */\n  dup1\n  sload\n  not(0xff)\n  and\n    /* \"source/BinanceBABT/contracts/access/AccessControl.sol\":7610:7614  true */\n  0x01\n    /* \"source/BinanceBABT/contracts/access/AccessControl.sol\":7578:7614  _roles[role].members[account] = true */\n  or\n  swap1\n  sstore\n    /* \"source/BinanceBABT/contracts/access/AccessControl.sol\":7660:7672  _msgSender() */\n  tag_18\n    /* \"source/BinanceBABT/contracts/utils/Context.sol\":719:729  msg.sender */\n  caller\n  swap1\n    /* \"source/BinanceBABT/contracts/utils/Context.sol\":640:736  function _msgSender() internal view virtual returns (address) {... */\n  jump\n    /* \"source/BinanceBABT/contracts/access/AccessControl.sol\":7660:7672  _msgSender() */\ntag_18:\n  sub(shl(0xa0, 0x01), 0x01)\n    /* \"source/BinanceBABT/contracts/access/AccessControl.sol\":7633:7673  RoleGranted(role, account, _msgSender()) */\n  and\n    /* \"source/BinanceBABT/contracts/access/AccessControl.sol\":7651:7658  account */\n  dup2\n  sub(shl(0xa0, 0x01), 0x01)\n    /* \"source/BinanceBABT/contracts/access/AccessControl.sol\":7633:7673  RoleGranted(role, account, _msgSender()) */\n  and\n    /* \"source/BinanceBABT/contracts/access/AccessControl.sol\":7645:7649  role */\n  dup4\n    /* \"source/BinanceBABT/contracts/access/AccessControl.sol\":7633:7673  RoleGranted(role, account, _msgSender()) */\n  0x2f8788117e7eff1d82e926ec794901d17c78024a50270940304540a733656f0d\n  mload(0x40)\n  mload(0x40)\n  dup1\n  swap2\n  sub\n  swap1\n  log4\n    /* \"source/BinanceBABT/contracts/access/AccessControl.sol\":7535:7684  if (!hasRole(role, account)) {... */\ntag_17:\n    /* \"source/BinanceBABT/contracts/access/AccessControl.sol\":7457:7690  function _grantRole(bytes32 role, address account) internal virtual {... */\n  pop\n  pop\n  jump\t// out\n    /* \"source/BinanceBABT/contracts/SBT.sol\":628:7283  contract SBT is AccessControl, ISBT721, IERC721Metadata {... */\ntag_9:\n  dup3\n  dup1\n  sload\n  tag_22\n  swap1\n  tag_23\n  jump\t// in\ntag_22:\n  swap1\n  0x00\n  mstore\n  keccak256(0x00, 0x20)\n  swap1\n  0x1f\n  add\n  0x20\n  swap1\n  div\n  dup2\n  add\n  swap3\n  dup3\n  tag_25\n  jumpi\n  0x00\n  dup6\n  sstore\n  jump(tag_28)\ntag_25:\n  dup3\n  0x1f\n  lt\n  tag_26\n  jumpi\n  dup1\n  mload\n  not(0xff)\n  and\n  dup4\n  dup1\n  add\n  or\n  dup6\n  sstore\n  jump(tag_28)\ntag_26:\n  dup3\n  dup1\n  add\n  0x01\n  add\n  dup6\n  sstore\n  dup3\n  iszero\n  tag_28\n  jumpi\n  swap2\n  dup3\n  add\ntag_27:\n  dup3\n  dup2\n  gt\n  iszero\n  tag_28\n  jumpi\n  dup3\n  mload\n  dup3\n  sstore\n  swap2\n  0x20\n  add\n  swap2\n  swap1\n  0x01\n  add\n  swap1\n  jump(tag_27)\ntag_28:\n  pop\n  tag_29\n  swap3\n  swap2\n  pop\n  tag_30\n  jump\t// in\ntag_29:\n  pop\n  swap1\n  jump\t// out\ntag_30:\ntag_31:\n  dup1\n  dup3\n  gt\n  iszero\n  tag_29\n  jumpi\n  0x00\n  dup2\n  sstore\n  0x01\n  add\n  jump(tag_31)\n    /* \"#utility.yul\":14:394   */\ntag_23:\n    /* \"#utility.yul\":93:94   */\n  0x01\n    /* \"#utility.yul\":89:101   */\n  dup2\n  dup2\n  shr\n  swap1\n    /* \"#utility.yul\":136:148   */\n  dup3\n  and\n  dup1\n    /* \"#utility.yul\":157:218   */\n  tag_35\n  jumpi\n    /* \"#utility.yul\":211:215   */\n  0x7f\n    /* \"#utility.yul\":203:209   */\n  dup3\n    /* \"#utility.yul\":199:216   */\n  and\n    /* \"#utility.yul\":189:216   */\n  swap2\n  pop\n    /* \"#utility.yul\":157:218   */\ntag_35:\n    /* \"#utility.yul\":264:266   */\n  0x20\n    /* \"#utility.yul\":256:262   */\n  dup3\n    /* \"#utility.yul\":253:267   */\n  lt\n    /* \"#utility.yul\":233:251   */\n  dup2\n    /* \"#utility.yul\":230:268   */\n  eq\n    /* \"#utility.yul\":227:388   */\n  iszero\n  tag_36\n  jumpi\n    /* \"#utility.yul\":310:320   */\n  0x4e487b71\n    /* \"#utility.yul\":305:308   */\n  0xe0\n    /* \"#utility.yul\":301:321   */\n  shl\n    /* \"#utility.yul\":298:299   */\n  0x00\n    /* \"#utility.yul\":291:322   */\n  mstore\n    /* \"#utility.yul\":345:349   */\n  0x22\n    /* \"#utility.yul\":342:343   */\n  0x04\n    /* \"#utility.yul\":335:350   */\n  mstore\n    /* \"#utility.yul\":373:377   */\n  0x24\n    /* \"#utility.yul\":370:371   */\n  0x00\n    /* \"#utility.yul\":363:378   */\n  revert\n    /* \"#utility.yul\":227:388   */\ntag_36:\n  pop\n    /* \"#utility.yul\":14:394   */\n  swap2\n  swap1\n  pop\n  jump\t// out\ntag_33:\n    /* \"source/BinanceBABT/contracts/SBT.sol\":628:7283  contract SBT is AccessControl, ISBT721, IERC721Metadata {... */\n  dataSize(sub_0)\n  dup1\n  dataOffset(sub_0)\n  0x00\n  codecopy\n  0x00\n  return\nstop\n\nsub_0: assembly {\n        /* \"source/BinanceBABT/contracts/SBT.sol\":628:7283  contract SBT is AccessControl, ISBT721, IERC721Metadata {... */\n      mstore(0x40, 0x80)\n      callvalue\n      dup1\n      iszero\n      tag_1\n      jumpi\n      0x00\n      dup1\n      revert\n    tag_1:\n      pop\n      jumpi(tag_2, lt(calldatasize, 0x04))\n      shr(0xe0, calldataload(0x00))\n      dup1\n      0x6d70f7ae\n      gt\n      tag_27\n      jumpi\n      dup1\n      0xa217fddf\n      gt\n      tag_28\n      jumpi\n      dup1\n      0xa217fddf\n      eq\n      tag_21\n      jumpi\n      dup1\n      0xbc8dd06a\n      eq\n      tag_22\n      jumpi\n      dup1\n      0xc87b56dd\n      eq\n      tag_23\n      jumpi\n      dup1\n      0xd547741f\n      eq\n      tag_24\n      jumpi\n      dup1\n      0xeb31403f\n      eq\n      tag_25\n      jumpi\n      dup1\n      0xf5b541a6\n      eq\n      tag_26\n      jumpi\n      0x00\n      dup1\n      revert\n    tag_28:\n      dup1\n      0x6d70f7ae\n      eq\n      tag_15\n      jumpi\n      dup1\n      0x70a08231\n      eq\n      tag_16\n      jumpi\n      dup1\n      0x74a8f103\n      eq\n      tag_17\n      jumpi\n      dup1\n      0x773c02d4\n      eq\n      tag_18\n      jumpi\n      dup1\n      0x91d14854\n      eq\n      tag_19\n      jumpi\n      dup1\n      0x95d89b41\n      eq\n      tag_20\n      jumpi\n      0x00\n      dup1\n      revert\n    tag_27:\n      dup1\n      0x2f2ff15d\n      gt\n      tag_29\n      jumpi\n      dup1\n      0x2f2ff15d\n      eq\n      tag_9\n      jumpi\n      dup1\n      0x30176e13\n      eq\n      tag_10\n      jumpi\n      dup1\n      0x36568abe\n      eq\n      tag_11\n      jumpi\n      dup1\n      0x44df8e70\n      eq\n      tag_12\n      jumpi\n      dup1\n      0x6352211e\n      eq\n      tag_13\n      jumpi\n      dup1\n      0x6c60144a\n      eq\n      tag_14\n      jumpi\n      0x00\n      dup1\n      revert\n    tag_29:\n      dup1\n      0x011002df\n      eq\n      tag_3\n      jumpi\n      dup1\n      0x01ffc9a7\n      eq\n      tag_4\n      jumpi\n      dup1\n      0x06fdde03\n      eq\n      tag_5\n      jumpi\n      dup1\n      0x18160ddd\n      eq\n      tag_6\n      jumpi\n      dup1\n      0x248a9ca3\n      eq\n      tag_7\n      jumpi\n      dup1\n      0x24d7806c\n      eq\n      tag_8\n      jumpi\n    tag_2:\n      0x00\n      dup1\n      revert\n        /* \"source/BinanceBABT/contracts/SBT.sol\":4301:5057  function batchRevoke(address[] calldata addrs) external {... */\n    tag_3:\n      tag_30\n      tag_31\n      calldatasize\n      0x04\n      tag_32\n      jump\t// in\n    tag_31:\n      tag_33\n      jump\t// in\n    tag_30:\n      stop\n        /* \"source/BinanceBABT/contracts/SBT.sol\":6954:7281  function supportsInterface(bytes4 interfaceId)... */\n    tag_4:\n      tag_34\n      tag_35\n      calldatasize\n      0x04\n      tag_36\n      jump\t// in\n    tag_35:\n      tag_37\n      jump\t// in\n    tag_34:\n      mload(0x40)\n        /* \"#utility.yul\":1090:1104   */\n      swap1\n      iszero\n        /* \"#utility.yul\":1083:1105   */\n      iszero\n        /* \"#utility.yul\":1065:1106   */\n      dup2\n      mstore\n        /* \"#utility.yul\":1053:1055   */\n      0x20\n        /* \"#utility.yul\":1038:1056   */\n      add\n        /* \"source/BinanceBABT/contracts/SBT.sol\":6954:7281  function supportsInterface(bytes4 interfaceId)... */\n    tag_38:\n      mload(0x40)\n      dup1\n      swap2\n      sub\n      swap1\n      return\n        /* \"source/BinanceBABT/contracts/SBT.sol\":1112:1130  string public name */\n    tag_5:\n      tag_40\n      tag_41\n      jump\t// in\n    tag_40:\n      mload(0x40)\n      tag_38\n      swap2\n      swap1\n      tag_43\n      jump\t// in\n        /* \"source/BinanceBABT/contracts/SBT.sol\":6229:6326  function totalSupply() external view returns (uint256) {... */\n    tag_6:\n      tag_44\n      tag_45\n      jump\t// in\n    tag_44:\n      mload(0x40)\n        /* \"#utility.yul\":1914:1939   */\n      swap1\n      dup2\n      mstore\n        /* \"#utility.yul\":1902:1904   */\n      0x20\n        /* \"#utility.yul\":1887:1905   */\n      add\n        /* \"source/BinanceBABT/contracts/SBT.sol\":6229:6326  function totalSupply() external view returns (uint256) {... */\n      tag_38\n        /* \"#utility.yul\":1768:1945   */\n      jump\n        /* \"source/BinanceBABT/contracts/access/AccessControl.sol\":4374:4503  function getRoleAdmin(bytes32 role) public view virtual override returns (bytes32) {... */\n    tag_7:\n      tag_44\n      tag_49\n      calldatasize\n      0x04\n      tag_50\n      jump\t// in\n    tag_49:\n        /* \"source/BinanceBABT/contracts/access/AccessControl.sol\":4448:4455  bytes32 */\n      0x00\n        /* \"source/BinanceBABT/contracts/access/AccessControl.sol\":4474:4486  _roles[role] */\n      swap1\n      dup2\n      mstore\n      0x20\n      dup2\n      swap1\n      mstore\n      0x40\n      swap1\n      keccak256\n        /* \"source/BinanceBABT/contracts/access/AccessControl.sol\":4474:4496  _roles[role].adminRole */\n      0x01\n      add\n      sload\n      swap1\n        /* \"source/BinanceBABT/contracts/access/AccessControl.sol\":4374:4503  function getRoleAdmin(bytes32 role) public view virtual override returns (bytes32) {... */\n      jump\n        /* \"source/BinanceBABT/contracts/SBT.sol\":6459:6582  function isAdmin(address account) external view returns (bool) {... */\n    tag_8:\n      tag_34\n      tag_55\n      calldatasize\n      0x04\n      tag_56\n      jump\t// in\n    tag_55:\n      tag_57\n      jump\t// in\n        /* \"source/BinanceBABT/contracts/access/AccessControl.sol\":4799:4944  function grantRole(bytes32 role, address account) public virtual override onlyRole(getRoleAdmin(role)) {... */\n    tag_9:\n      tag_30\n      tag_60\n      calldatasize\n      0x04\n      tag_61\n      jump\t// in\n    tag_60:\n      tag_62\n      jump\t// in\n        /* \"source/BinanceBABT/contracts/SBT.sol\":5515:5770  function setBaseTokenURI(string calldata uri) public {... */\n    tag_10:\n      tag_30\n      tag_64\n      calldatasize\n      0x04\n      tag_65\n      jump\t// in\n    tag_64:\n      tag_66\n      jump\t// in\n        /* \"source/BinanceBABT/contracts/access/AccessControl.sol\":5908:6122  function renounceRole(bytes32 role, address account) public virtual override {... */\n    tag_11:\n      tag_30\n      tag_68\n      calldatasize\n      0x04\n      tag_61\n      jump\t// in\n    tag_68:\n      tag_69\n      jump\t// in\n        /* \"source/BinanceBABT/contracts/SBT.sol\":5063:5460  function burn() external {... */\n    tag_12:\n      tag_30\n      tag_71\n      jump\t// in\n        /* \"source/BinanceBABT/contracts/SBT.sol\":6092:6223  function ownerOf(uint256 tokenId) external view returns (address) {... */\n    tag_13:\n      tag_72\n      tag_73\n      calldatasize\n      0x04\n      tag_50\n      jump\t// in\n    tag_73:\n      tag_75\n      jump\t// in\n    tag_72:\n      mload(0x40)\n      sub(shl(0xa0, 0x01), 0x01)\n        /* \"#utility.yul\":3891:3923   */\n      swap1\n      swap2\n      and\n        /* \"#utility.yul\":3873:3924   */\n      dup2\n      mstore\n        /* \"#utility.yul\":3861:3863   */\n      0x20\n        /* \"#utility.yul\":3846:3864   */\n      add\n        /* \"source/BinanceBABT/contracts/SBT.sol\":6092:6223  function ownerOf(uint256 tokenId) external view returns (address) {... */\n      tag_38\n        /* \"#utility.yul\":3727:3930   */\n      jump\n        /* \"source/BinanceBABT/contracts/SBT.sol\":2973:3756  function batchAttest(address[] calldata addrs) external {... */\n    tag_14:\n      tag_30\n      tag_79\n      calldatasize\n      0x04\n      tag_32\n      jump\t// in\n    tag_79:\n      tag_80\n      jump\t// in\n        /* \"source/BinanceBABT/contracts/SBT.sol\":6332:6453  function isOperator(address account) external view returns (bool) {... */\n    tag_15:\n      tag_34\n      tag_82\n      calldatasize\n      0x04\n      tag_56\n      jump\t// in\n    tag_82:\n      tag_83\n      jump\t// in\n        /* \"source/BinanceBABT/contracts/SBT.sol\":5776:5933  function balanceOf(address owner) external view returns (uint256) {... */\n    tag_16:\n      tag_44\n      tag_86\n      calldatasize\n      0x04\n      tag_56\n      jump\t// in\n    tag_86:\n      tag_87\n      jump\t// in\n        /* \"source/BinanceBABT/contracts/SBT.sol\":3762:4295  function revoke(address from) external {... */\n    tag_17:\n      tag_30\n      tag_90\n      calldatasize\n      0x04\n      tag_56\n      jump\t// in\n    tag_90:\n      tag_91\n      jump\t// in\n        /* \"source/BinanceBABT/contracts/SBT.sol\":5939:6086  function tokenIdOf(address from) external view returns (uint256) {... */\n    tag_18:\n      tag_44\n      tag_93\n      calldatasize\n      0x04\n      tag_56\n      jump\t// in\n    tag_93:\n      tag_94\n      jump\t// in\n        /* \"source/BinanceBABT/contracts/access/AccessControl.sol\":2891:3036  function hasRole(bytes32 role, address account) public view virtual override returns (bool) {... */\n    tag_19:\n      tag_34\n      tag_97\n      calldatasize\n      0x04\n      tag_61\n      jump\t// in\n    tag_97:\n      tag_98\n      jump\t// in\n        /* \"source/BinanceBABT/contracts/SBT.sol\":1157:1177  string public symbol */\n    tag_20:\n      tag_40\n      tag_101\n      jump\t// in\n        /* \"source/BinanceBABT/contracts/access/AccessControl.sol\":2023:2072  bytes32 public constant DEFAULT_ADMIN_ROLE = 0x00 */\n    tag_21:\n      tag_44\n        /* \"source/BinanceBABT/contracts/access/AccessControl.sol\":2068:2072  0x00 */\n      0x00\n        /* \"source/BinanceBABT/contracts/access/AccessControl.sol\":2023:2072  bytes32 public constant DEFAULT_ADMIN_ROLE = 0x00 */\n      dup2\n      jump\n        /* \"source/BinanceBABT/contracts/SBT.sol\":1847:2375  function attestId(address to, uint256 tokenId) external returns (uint256) {... */\n    tag_22:\n      tag_44\n      tag_107\n      calldatasize\n      0x04\n      tag_108\n      jump\t// in\n    tag_107:\n      tag_109\n      jump\t// in\n        /* \"source/BinanceBABT/contracts/SBT.sol\":6648:6887  function tokenURI(uint256 tokenId) external view returns (string memory) {... */\n    tag_23:\n      tag_40\n      tag_112\n      calldatasize\n      0x04\n      tag_50\n      jump\t// in\n    tag_112:\n      tag_113\n      jump\t// in\n        /* \"source/BinanceBABT/contracts/access/AccessControl.sol\":5224:5371  function revokeRole(bytes32 role, address account) public virtual override onlyRole(getRoleAdmin(role)) {... */\n    tag_24:\n      tag_30\n      tag_116\n      calldatasize\n      0x04\n      tag_61\n      jump\t// in\n    tag_116:\n      tag_117\n      jump\t// in\n        /* \"source/BinanceBABT/contracts/SBT.sol\":2381:2967  function attest(address to) external returns (uint256) {... */\n    tag_25:\n      tag_44\n      tag_119\n      calldatasize\n      0x04\n      tag_56\n      jump\t// in\n    tag_119:\n      tag_120\n      jump\t// in\n        /* \"source/BinanceBABT/contracts/SBT.sol\":1252:1318  bytes32 public constant OPERATOR_ROLE = keccak256(\"OPERATOR_ROLE\") */\n    tag_26:\n      tag_44\n      0x00\n      dup1\n      mload\n      0x20\n      data_9a4fd57166f98e8d7afa26bb80870b0ef0d42c4df4b5a4c9c02a345536d90e3a\n      dup4\n      codecopy\n      dup2\n      mload\n      swap2\n      mstore\n      dup2\n      jump\n        /* \"source/BinanceBABT/contracts/SBT.sol\":4301:5057  function batchRevoke(address[] calldata addrs) external {... */\n    tag_33:\n        /* \"source/BinanceBABT/contracts/SBT.sol\":4388:4393  addrs */\n      dup1\n        /* \"source/BinanceBABT/contracts/SBT.sol\":4432:4468  hasRole(OPERATOR_ROLE, _msgSender()) */\n      tag_126\n      0x00\n      dup1\n      mload\n      0x20\n      data_9a4fd57166f98e8d7afa26bb80870b0ef0d42c4df4b5a4c9c02a345536d90e3a\n      dup4\n      codecopy\n      dup2\n      mload\n      swap2\n      mstore\n        /* \"source/BinanceBABT/contracts/utils/Context.sol\":719:729  msg.sender */\n      caller\n        /* \"source/BinanceBABT/contracts/access/AccessControl.sol\":2891:3036  function hasRole(bytes32 role, address account) public view virtual override returns (bool) {... */\n      tag_98\n      jump\t// in\n        /* \"source/BinanceBABT/contracts/SBT.sol\":4432:4468  hasRole(OPERATOR_ROLE, _msgSender()) */\n    tag_126:\n        /* \"source/BinanceBABT/contracts/SBT.sol\":4411:4548  require(... */\n      tag_129\n      jumpi\n      mload(0x40)\n      shl(0xe5, 0x461bcd)\n      dup2\n      mstore\n      0x04\n      add\n      tag_130\n      swap1\n      tag_131\n      jump\t// in\n    tag_130:\n      mload(0x40)\n      dup1\n      swap2\n      sub\n      swap1\n      revert\n    tag_129:\n        /* \"source/BinanceBABT/contracts/SBT.sol\":4580:4583  100 */\n      0x64\n        /* \"source/BinanceBABT/contracts/SBT.sol\":4566:4576  addrLength */\n      dup2\n        /* \"source/BinanceBABT/contracts/SBT.sol\":4566:4583  addrLength <= 100 */\n      gt\n      iszero\n        /* \"source/BinanceBABT/contracts/SBT.sol\":4558:4622  require(addrLength <= 100, \"The max length of addresses is 100\") */\n      tag_132\n      jumpi\n      mload(0x40)\n      shl(0xe5, 0x461bcd)\n      dup2\n      mstore\n      0x04\n      add\n      tag_130\n      swap1\n      tag_134\n      jump\t// in\n    tag_132:\n        /* \"source/BinanceBABT/contracts/SBT.sol\":4638:4645  uint8 i */\n      0x00\n        /* \"source/BinanceBABT/contracts/SBT.sol\":4633:5051  for (uint8 i = 0; i < addrLength; i++) {... */\n    tag_135:\n        /* \"source/BinanceBABT/contracts/SBT.sol\":4655:4665  addrLength */\n      dup2\n        /* \"source/BinanceBABT/contracts/SBT.sol\":4651:4652  i */\n      dup2\n        /* \"source/BinanceBABT/contracts/SBT.sol\":4651:4665  i < addrLength */\n      0xff\n      and\n      lt\n        /* \"source/BinanceBABT/contracts/SBT.sol\":4633:5051  for (uint8 i = 0; i < addrLength; i++) {... */\n      iszero\n      tag_136\n      jumpi\n        /* \"source/BinanceBABT/contracts/SBT.sol\":4686:4698  address from */\n      0x00\n        /* \"source/BinanceBABT/contracts/SBT.sol\":4701:4706  addrs */\n      dup5\n      dup5\n        /* \"source/BinanceBABT/contracts/SBT.sol\":4707:4708  i */\n      dup4\n        /* \"source/BinanceBABT/contracts/SBT.sol\":4701:4709  addrs[i] */\n      0xff\n      and\n      dup2\n      dup2\n      lt\n      tag_139\n      jumpi\n      tag_139\n      tag_140\n      jump\t// in\n    tag_139:\n      swap1\n      pop\n      0x20\n      mul\n      add\n      0x20\n      dup2\n      add\n      swap1\n      tag_141\n      swap2\n      swap1\n      tag_56\n      jump\t// in\n    tag_141:\n        /* \"source/BinanceBABT/contracts/SBT.sol\":4686:4709  address from = addrs[i] */\n      swap1\n      pop\n      sub(shl(0xa0, 0x01), 0x01)\n        /* \"source/BinanceBABT/contracts/SBT.sol\":4728:4746  from == address(0) */\n      dup2\n      and\n      iszero\n      dup1\n        /* \"source/BinanceBABT/contracts/SBT.sol\":4728:4775  from == address(0) || !_tokenMap.contains(from) */\n      tag_142\n      jumpi\n      pop\n        /* \"source/BinanceBABT/contracts/SBT.sol\":4751:4775  _tokenMap.contains(from) */\n      tag_143\n        /* \"source/BinanceBABT/contracts/SBT.sol\":4751:4760  _tokenMap */\n      0x04\n        /* \"source/BinanceBABT/contracts/SBT.sol\":4770:4774  from */\n      dup3\n        /* \"source/BinanceBABT/contracts/SBT.sol\":4751:4769  _tokenMap.contains */\n      tag_144\n        /* \"source/BinanceBABT/contracts/SBT.sol\":4751:4775  _tokenMap.contains(from) */\n      jump\t// in\n    tag_143:\n        /* \"source/BinanceBABT/contracts/SBT.sol\":4750:4775  !_tokenMap.contains(from) */\n      iszero\n        /* \"source/BinanceBABT/contracts/SBT.sol\":4728:4775  from == address(0) || !_tokenMap.contains(from) */\n    tag_142:\n        /* \"source/BinanceBABT/contracts/SBT.sol\":4724:4818  if (from == address(0) || !_tokenMap.contains(from)) {... */\n      iszero\n      tag_145\n      jumpi\n        /* \"source/BinanceBABT/contracts/SBT.sol\":4795:4803  continue */\n      pop\n      jump(tag_137)\n        /* \"source/BinanceBABT/contracts/SBT.sol\":4724:4818  if (from == address(0) || !_tokenMap.contains(from)) {... */\n    tag_145:\n        /* \"source/BinanceBABT/contracts/SBT.sol\":4832:4847  uint256 tokenId */\n      0x00\n        /* \"source/BinanceBABT/contracts/SBT.sol\":4850:4869  _tokenMap.get(from) */\n      tag_146\n        /* \"source/BinanceBABT/contracts/SBT.sol\":4850:4859  _tokenMap */\n      0x04\n        /* \"source/BinanceBABT/contracts/SBT.sol\":4864:4868  from */\n      dup4\n        /* \"source/BinanceBABT/contracts/SBT.sol\":4850:4863  _tokenMap.get */\n      tag_147\n        /* \"source/BinanceBABT/contracts/SBT.sol\":4850:4869  _tokenMap.get(from) */\n      jump\t// in\n    tag_146:\n        /* \"source/BinanceBABT/contracts/SBT.sol\":4832:4869  uint256 tokenId = _tokenMap.get(from) */\n      swap1\n      pop\n        /* \"source/BinanceBABT/contracts/SBT.sol\":4884:4906  _tokenMap.remove(from) */\n      tag_148\n        /* \"source/BinanceBABT/contracts/SBT.sol\":4884:4893  _tokenMap */\n      0x04\n        /* \"source/BinanceBABT/contracts/SBT.sol\":4901:4905  from */\n      dup4\n        /* \"source/BinanceBABT/contracts/SBT.sol\":4884:4900  _tokenMap.remove */\n      tag_149\n        /* \"source/BinanceBABT/contracts/SBT.sol\":4884:4906  _tokenMap.remove(from) */\n      jump\t// in\n    tag_148:\n      pop\n        /* \"source/BinanceBABT/contracts/SBT.sol\":4920:4945  _ownerMap.remove(tokenId) */\n      tag_150\n        /* \"source/BinanceBABT/contracts/SBT.sol\":4920:4929  _ownerMap */\n      0x01\n        /* \"source/BinanceBABT/contracts/SBT.sol\":4937:4944  tokenId */\n      dup3\n        /* \"source/BinanceBABT/contracts/SBT.sol\":4920:4936  _ownerMap.remove */\n      tag_151\n        /* \"source/BinanceBABT/contracts/SBT.sol\":4920:4945  _ownerMap.remove(tokenId) */\n      jump\t// in\n    tag_150:\n      pop\n        /* \"source/BinanceBABT/contracts/SBT.sol\":4965:4986  Revoke(from, tokenId) */\n      mload(0x40)\n        /* \"source/BinanceBABT/contracts/SBT.sol\":4978:4985  tokenId */\n      dup2\n      swap1\n      sub(shl(0xa0, 0x01), 0x01)\n        /* \"source/BinanceBABT/contracts/SBT.sol\":4965:4986  Revoke(from, tokenId) */\n      dup5\n      and\n      swap1\n      0xec9ab91322523c899ede7830ec9bfc992b5981cdcc27b91162fb23de5791117b\n      swap1\n      0x00\n      swap1\n      log3\n        /* \"source/BinanceBABT/contracts/SBT.sol\":5005:5040  Transfer(from, address(0), tokenId) */\n      mload(0x40)\n        /* \"source/BinanceBABT/contracts/SBT.sol\":5032:5039  tokenId */\n      dup2\n      swap1\n        /* \"source/BinanceBABT/contracts/SBT.sol\":5028:5029  0 */\n      0x00\n      swap1\n      sub(shl(0xa0, 0x01), 0x01)\n        /* \"source/BinanceBABT/contracts/SBT.sol\":5005:5040  Transfer(from, address(0), tokenId) */\n      dup6\n      and\n      swap1\n      0x00\n      dup1\n      mload\n      0x20\n      data_ada389e1fc24a8587c776340efb91b36e675792ab631816100d55df0b5cf3cbc\n      dup4\n      codecopy\n      dup2\n      mload\n      swap2\n      mstore\n      swap1\n        /* \"source/BinanceBABT/contracts/SBT.sol\":5028:5029  0 */\n      dup4\n      swap1\n        /* \"source/BinanceBABT/contracts/SBT.sol\":5005:5040  Transfer(from, address(0), tokenId) */\n      log4\n        /* \"source/BinanceBABT/contracts/SBT.sol\":4672:5051  {... */\n      pop\n      pop\n        /* \"source/BinanceBABT/contracts/SBT.sol\":4633:5051  for (uint8 i = 0; i < addrLength; i++) {... */\n    tag_137:\n        /* \"source/BinanceBABT/contracts/SBT.sol\":4667:4670  i++ */\n      dup1\n      tag_152\n      dup2\n      tag_153\n      jump\t// in\n    tag_152:\n      swap2\n      pop\n      pop\n        /* \"source/BinanceBABT/contracts/SBT.sol\":4633:5051  for (uint8 i = 0; i < addrLength; i++) {... */\n      jump(tag_135)\n    tag_136:\n      pop\n        /* \"source/BinanceBABT/contracts/SBT.sol\":4357:5057  {... */\n      pop\n        /* \"source/BinanceBABT/contracts/SBT.sol\":4301:5057  function batchRevoke(address[] calldata addrs) external {... */\n      pop\n      pop\n      jump\t// out\n        /* \"source/BinanceBABT/contracts/SBT.sol\":6954:7281  function supportsInterface(bytes4 interfaceId)... */\n    tag_37:\n        /* \"source/BinanceBABT/contracts/SBT.sol\":7079:7083  bool */\n      0x00\n      not(sub(shl(0xe0, 0x01), 0x01))\n        /* \"source/BinanceBABT/contracts/SBT.sol\":7118:7158  interfaceId == type(IERC721).interfaceId */\n      dup3\n      and\n      shl(0xe0, 0x80ac58cd)\n      eq\n      dup1\n        /* \"source/BinanceBABT/contracts/SBT.sol\":7118:7222  interfaceId == type(IERC721).interfaceId ||... */\n      tag_155\n      jumpi\n      pop\n      not(sub(shl(0xe0, 0x01), 0x01))\n        /* \"source/BinanceBABT/contracts/SBT.sol\":7174:7222  interfaceId == type(IERC721Metadata).interfaceId */\n      dup3\n      and\n      shl(0xe0, 0x5b5e139f)\n      eq\n        /* \"source/BinanceBABT/contracts/SBT.sol\":7118:7222  interfaceId == type(IERC721).interfaceId ||... */\n    tag_155:\n        /* \"source/BinanceBABT/contracts/SBT.sol\":7118:7274  interfaceId == type(IERC721).interfaceId ||... */\n      dup1\n      tag_157\n      jumpi\n      pop\n        /* \"source/BinanceBABT/contracts/SBT.sol\":7238:7274  super.supportsInterface(interfaceId) */\n      tag_157\n        /* \"source/BinanceBABT/contracts/SBT.sol\":7262:7273  interfaceId */\n      dup3\n        /* \"source/BinanceBABT/contracts/SBT.sol\":7238:7261  super.supportsInterface */\n      tag_158\n        /* \"source/BinanceBABT/contracts/SBT.sol\":7238:7274  super.supportsInterface(interfaceId) */\n      jump\t// in\n    tag_157:\n        /* \"source/BinanceBABT/contracts/SBT.sol\":7099:7274  return... */\n      swap3\n        /* \"source/BinanceBABT/contracts/SBT.sol\":6954:7281  function supportsInterface(bytes4 interfaceId)... */\n      swap2\n      pop\n      pop\n      jump\t// out\n        /* \"source/BinanceBABT/contracts/SBT.sol\":1112:1130  string public name */\n    tag_41:\n      0x08\n      dup1\n      sload\n      tag_159\n      swap1\n      tag_160\n      jump\t// in\n    tag_159:\n      dup1\n      0x1f\n      add\n      0x20\n      dup1\n      swap2\n      div\n      mul\n      0x20\n      add\n      mload(0x40)\n      swap1\n      dup2\n      add\n      0x40\n      mstore\n      dup1\n      swap3\n      swap2\n      swap1\n      dup2\n      dup2\n      mstore\n      0x20\n      add\n      dup3\n      dup1\n      sload\n      tag_161\n      swap1\n      tag_160\n      jump\t// in\n    tag_161:\n      dup1\n      iszero\n      tag_162\n      jumpi\n      dup1\n      0x1f\n      lt\n      tag_163\n      jumpi\n      0x0100\n      dup1\n      dup4\n      sload\n      div\n      mul\n      dup4\n      mstore\n      swap2\n      0x20\n      add\n      swap2\n      jump(tag_162)\n    tag_163:\n      dup3\n      add\n      swap2\n      swap1\n      0x00\n      mstore\n      keccak256(0x00, 0x20)\n      swap1\n    tag_164:\n      dup2\n      sload\n      dup2\n      mstore\n      swap1\n      0x01\n      add\n      swap1\n      0x20\n      add\n      dup1\n      dup4\n      gt\n      tag_164\n      jumpi\n      dup3\n      swap1\n      sub\n      0x1f\n      and\n      dup3\n      add\n      swap2\n    tag_162:\n      pop\n      pop\n      pop\n      pop\n      pop\n      dup2\n      jump\t// out\n        /* \"source/BinanceBABT/contracts/SBT.sol\":6229:6326  function totalSupply() external view returns (uint256) {... */\n    tag_45:\n        /* \"source/BinanceBABT/contracts/SBT.sol\":6275:6282  uint256 */\n      0x00\n        /* \"source/BinanceBABT/contracts/SBT.sol\":6301:6319  _tokenMap.length() */\n      tag_166\n        /* \"source/BinanceBABT/contracts/SBT.sol\":6301:6310  _tokenMap */\n      0x04\n        /* \"source/BinanceBABT/contracts/SBT.sol\":6301:6317  _tokenMap.length */\n      tag_167\n        /* \"source/BinanceBABT/contracts/SBT.sol\":6301:6319  _tokenMap.length() */\n      jump\t// in\n    tag_166:\n        /* \"source/BinanceBABT/contracts/SBT.sol\":6294:6319  return _tokenMap.length() */\n      swap1\n      pop\n        /* \"source/BinanceBABT/contracts/SBT.sol\":6229:6326  function totalSupply() external view returns (uint256) {... */\n      swap1\n      jump\t// out\n        /* \"source/BinanceBABT/contracts/SBT.sol\":6459:6582  function isAdmin(address account) external view returns (bool) {... */\n    tag_57:\n        /* \"source/BinanceBABT/contracts/SBT.sol\":6516:6520  bool */\n      0x00\n        /* \"source/BinanceBABT/contracts/SBT.sol\":6539:6575  hasRole(DEFAULT_ADMIN_ROLE, account) */\n      tag_157\n        /* \"source/BinanceBABT/contracts/SBT.sol\":6516:6520  bool */\n      dup2\n        /* \"source/BinanceBABT/contracts/SBT.sol\":6567:6574  account */\n      dup4\n        /* \"source/BinanceBABT/contracts/SBT.sol\":6539:6546  hasRole */\n      tag_98\n        /* \"source/BinanceBABT/contracts/SBT.sol\":6539:6575  hasRole(DEFAULT_ADMIN_ROLE, account) */\n      jump\t// in\n        /* \"source/BinanceBABT/contracts/access/AccessControl.sol\":4799:4944  function grantRole(bytes32 role, address account) public virtual override onlyRole(getRoleAdmin(role)) {... */\n    tag_62:\n        /* \"source/BinanceBABT/contracts/access/AccessControl.sol\":4448:4455  bytes32 */\n      0x00\n        /* \"source/BinanceBABT/contracts/access/AccessControl.sol\":4474:4486  _roles[role] */\n      dup3\n      dup2\n      mstore\n      0x20\n      dup2\n      swap1\n      mstore\n      0x40\n      swap1\n      keccak256\n        /* \"source/BinanceBABT/contracts/access/AccessControl.sol\":4474:4496  _roles[role].adminRole */\n      0x01\n      add\n      sload\n        /* \"source/BinanceBABT/contracts/access/AccessControl.sol\":2501:2517  _checkRole(role) */\n      tag_173\n        /* \"source/BinanceBABT/contracts/access/AccessControl.sol\":2512:2516  role */\n      dup2\n        /* \"source/BinanceBABT/contracts/access/AccessControl.sol\":2501:2511  _checkRole */\n      tag_174\n        /* \"source/BinanceBABT/contracts/access/AccessControl.sol\":2501:2517  _checkRole(role) */\n      jump\t// in\n    tag_173:\n        /* \"source/BinanceBABT/contracts/access/AccessControl.sol\":4912:4937  _grantRole(role, account) */\n      tag_176\n        /* \"source/BinanceBABT/contracts/access/AccessControl.sol\":4923:4927  role */\n      dup4\n        /* \"source/BinanceBABT/contracts/access/AccessControl.sol\":4929:4936  account */\n      dup4\n        /* \"source/BinanceBABT/contracts/access/AccessControl.sol\":4912:4922  _grantRole */\n      tag_177\n        /* \"source/BinanceBABT/contracts/access/AccessControl.sol\":4912:4937  _grantRole(role, account) */\n      jump\t// in\n    tag_176:\n        /* \"source/BinanceBABT/contracts/access/AccessControl.sol\":4799:4944  function grantRole(bytes32 role, address account) public virtual override onlyRole(getRoleAdmin(role)) {... */\n      pop\n      pop\n      pop\n      jump\t// out\n        /* \"source/BinanceBABT/contracts/SBT.sol\":5515:5770  function setBaseTokenURI(string calldata uri) public {... */\n    tag_66:\n        /* \"source/BinanceBABT/contracts/SBT.sol\":5599:5640  hasRole(DEFAULT_ADMIN_ROLE, _msgSender()) */\n      tag_179\n        /* \"source/BinanceBABT/contracts/access/AccessControl.sol\":2068:2072  0x00 */\n      0x00\n        /* \"source/BinanceBABT/contracts/utils/Context.sol\":719:729  msg.sender */\n      caller\n        /* \"source/BinanceBABT/contracts/access/AccessControl.sol\":2891:3036  function hasRole(bytes32 role, address account) public view virtual override returns (bool) {... */\n      tag_98\n      jump\t// in\n        /* \"source/BinanceBABT/contracts/SBT.sol\":5599:5640  hasRole(DEFAULT_ADMIN_ROLE, _msgSender()) */\n    tag_179:\n        /* \"source/BinanceBABT/contracts/SBT.sol\":5578:5733  require(... */\n      tag_181\n      jumpi\n      mload(0x40)\n      shl(0xe5, 0x461bcd)\n      dup2\n      mstore\n        /* \"#utility.yul\":6051:6053   */\n      0x20\n        /* \"source/BinanceBABT/contracts/SBT.sol\":5578:5733  require(... */\n      0x04\n      dup3\n      add\n        /* \"#utility.yul\":6033:6054   */\n      mstore\n        /* \"#utility.yul\":6090:6092   */\n      0x43\n        /* \"#utility.yul\":6070:6088   */\n      0x24\n      dup3\n      add\n        /* \"#utility.yul\":6063:6093   */\n      mstore\n        /* \"#utility.yul\":6129:6163   */\n      0x4f6e6c7920746865206163636f756e7420776974682044454641554c545f4144\n        /* \"#utility.yul\":6109:6127   */\n      0x44\n      dup3\n      add\n        /* \"#utility.yul\":6102:6164   */\n      mstore\n        /* \"#utility.yul\":6200:6234   */\n      0x4d494e5f524f4c452063616e2073657420746865206261736520746f6b656e20\n        /* \"#utility.yul\":6180:6198   */\n      0x64\n      dup3\n      add\n        /* \"#utility.yul\":6173:6235   */\n      mstore\n      shl(0xe8, 0x555249)\n        /* \"#utility.yul\":6251:6270   */\n      0x84\n      dup3\n      add\n        /* \"#utility.yul\":6244:6278   */\n      mstore\n        /* \"#utility.yul\":6295:6314   */\n      0xa4\n      add\n        /* \"source/BinanceBABT/contracts/SBT.sol\":5578:5733  require(... */\n      tag_130\n        /* \"#utility.yul\":5849:6320   */\n      jump\n        /* \"source/BinanceBABT/contracts/SBT.sol\":5578:5733  require(... */\n    tag_181:\n        /* \"source/BinanceBABT/contracts/SBT.sol\":5744:5763  _baseTokenURI = uri */\n      tag_176\n        /* \"source/BinanceBABT/contracts/SBT.sol\":5744:5757  _baseTokenURI */\n      0x0a\n        /* \"source/BinanceBABT/contracts/SBT.sol\":5760:5763  uri */\n      dup4\n      dup4\n        /* \"source/BinanceBABT/contracts/SBT.sol\":5744:5763  _baseTokenURI = uri */\n      tag_185\n      jump\t// in\n        /* \"source/BinanceBABT/contracts/access/AccessControl.sol\":5908:6122  function renounceRole(bytes32 role, address account) public virtual override {... */\n    tag_69:\n      sub(shl(0xa0, 0x01), 0x01)\n        /* \"source/BinanceBABT/contracts/access/AccessControl.sol\":6003:6026  account == _msgSender() */\n      dup2\n      and\n        /* \"source/BinanceBABT/contracts/utils/Context.sol\":719:729  msg.sender */\n      caller\n        /* \"source/BinanceBABT/contracts/access/AccessControl.sol\":6003:6026  account == _msgSender() */\n      eq\n        /* \"source/BinanceBABT/contracts/access/AccessControl.sol\":5995:6078  require(account == _msgSender(), \"AccessControl: can only renounce roles for self\") */\n      tag_188\n      jumpi\n      mload(0x40)\n      shl(0xe5, 0x461bcd)\n      dup2\n      mstore\n        /* \"#utility.yul\":6527:6529   */\n      0x20\n        /* \"source/BinanceBABT/contracts/access/AccessControl.sol\":5995:6078  require(account == _msgSender(), \"AccessControl: can only renounce roles for self\") */\n      0x04\n      dup3\n      add\n        /* \"#utility.yul\":6509:6530   */\n      mstore\n        /* \"#utility.yul\":6566:6568   */\n      0x2f\n        /* \"#utility.yul\":6546:6564   */\n      0x24\n      dup3\n      add\n        /* \"#utility.yul\":6539:6569   */\n      mstore\n        /* \"#utility.yul\":6605:6639   */\n      0x416363657373436f6e74726f6c3a2063616e206f6e6c792072656e6f756e6365\n        /* \"#utility.yul\":6585:6603   */\n      0x44\n      dup3\n      add\n        /* \"#utility.yul\":6578:6640   */\n      mstore\n      shl(0x89, 0x103937b632b9903337b91039b2b633)\n        /* \"#utility.yul\":6656:6674   */\n      0x64\n      dup3\n      add\n        /* \"#utility.yul\":6649:6694   */\n      mstore\n        /* \"#utility.yul\":6711:6730   */\n      0x84\n      add\n        /* \"source/BinanceBABT/contracts/access/AccessControl.sol\":5995:6078  require(account == _msgSender(), \"AccessControl: can only renounce roles for self\") */\n      tag_130\n        /* \"#utility.yul\":6325:6736   */\n      jump\n        /* \"source/BinanceBABT/contracts/access/AccessControl.sol\":5995:6078  require(account == _msgSender(), \"AccessControl: can only renounce roles for self\") */\n    tag_188:\n        /* \"source/BinanceBABT/contracts/access/AccessControl.sol\":6089:6115  _revokeRole(role, account) */\n      tag_191\n        /* \"source/BinanceBABT/contracts/access/AccessControl.sol\":6101:6105  role */\n      dup3\n        /* \"source/BinanceBABT/contracts/access/AccessControl.sol\":6107:6114  account */\n      dup3\n        /* \"source/BinanceBABT/contracts/access/AccessControl.sol\":6089:6100  _revokeRole */\n      tag_192\n        /* \"source/BinanceBABT/contracts/access/AccessControl.sol\":6089:6115  _revokeRole(role, account) */\n      jump\t// in\n    tag_191:\n        /* \"source/BinanceBABT/contracts/access/AccessControl.sol\":5908:6122  function renounceRole(bytes32 role, address account) public virtual override {... */\n      pop\n      pop\n      jump\t// out\n        /* \"source/BinanceBABT/contracts/SBT.sol\":5063:5460  function burn() external {... */\n    tag_71:\n        /* \"source/BinanceBABT/contracts/utils/Context.sol\":719:729  msg.sender */\n      caller\n        /* \"source/BinanceBABT/contracts/SBT.sol\":5159:5185  _tokenMap.contains(sender) */\n      tag_195\n        /* \"source/BinanceBABT/contracts/SBT.sol\":5159:5168  _tokenMap */\n      0x04\n        /* \"source/BinanceBABT/contracts/utils/Context.sol\":719:729  msg.sender */\n      dup3\n        /* \"source/BinanceBABT/contracts/SBT.sol\":5159:5177  _tokenMap.contains */\n      tag_144\n        /* \"source/BinanceBABT/contracts/SBT.sol\":5159:5185  _tokenMap.contains(sender) */\n      jump\t// in\n    tag_195:\n        /* \"source/BinanceBABT/contracts/SBT.sol\":5138:5244  require(... */\n      tag_196\n      jumpi\n      mload(0x40)\n      shl(0xe5, 0x461bcd)\n      dup2\n      mstore\n      0x04\n      add\n      tag_130\n      swap1\n      tag_198\n      jump\t// in\n    tag_196:\n        /* \"source/BinanceBABT/contracts/SBT.sol\":5255:5270  uint256 tokenId */\n      0x00\n        /* \"source/BinanceBABT/contracts/SBT.sol\":5273:5294  _tokenMap.get(sender) */\n      tag_199\n        /* \"source/BinanceBABT/contracts/SBT.sol\":5273:5282  _tokenMap */\n      0x04\n        /* \"source/BinanceBABT/contracts/SBT.sol\":5287:5293  sender */\n      dup4\n        /* \"source/BinanceBABT/contracts/SBT.sol\":5273:5286  _tokenMap.get */\n      tag_147\n        /* \"source/BinanceBABT/contracts/SBT.sol\":5273:5294  _tokenMap.get(sender) */\n      jump\t// in\n    tag_199:\n        /* \"source/BinanceBABT/contracts/SBT.sol\":5255:5294  uint256 tokenId = _tokenMap.get(sender) */\n      swap1\n      pop\n        /* \"source/BinanceBABT/contracts/SBT.sol\":5305:5329  _tokenMap.remove(sender) */\n      tag_200\n        /* \"source/BinanceBABT/contracts/SBT.sol\":5305:5314  _tokenMap */\n      0x04\n        /* \"source/BinanceBABT/contracts/SBT.sol\":5322:5328  sender */\n      dup4\n        /* \"source/BinanceBABT/contracts/SBT.sol\":5305:5321  _tokenMap.remove */\n      tag_149\n        /* \"source/BinanceBABT/contracts/SBT.sol\":5305:5329  _tokenMap.remove(sender) */\n      jump\t// in\n    tag_200:\n      pop\n        /* \"source/BinanceBABT/contracts/SBT.sol\":5339:5364  _ownerMap.remove(tokenId) */\n      tag_201\n        /* \"source/BinanceBABT/contracts/SBT.sol\":5339:5348  _ownerMap */\n      0x01\n        /* \"source/BinanceBABT/contracts/SBT.sol\":5356:5363  tokenId */\n      dup3\n        /* \"source/BinanceBABT/contracts/SBT.sol\":5339:5355  _ownerMap.remove */\n      tag_151\n        /* \"source/BinanceBABT/contracts/SBT.sol\":5339:5364  _ownerMap.remove(tokenId) */\n      jump\t// in\n    tag_201:\n      pop\n        /* \"source/BinanceBABT/contracts/SBT.sol\":5380:5401  Burn(sender, tokenId) */\n      mload(0x40)\n        /* \"source/BinanceBABT/contracts/SBT.sol\":5393:5400  tokenId */\n      dup2\n      swap1\n      sub(shl(0xa0, 0x01), 0x01)\n        /* \"source/BinanceBABT/contracts/SBT.sol\":5380:5401  Burn(sender, tokenId) */\n      dup5\n      and\n      swap1\n      0xcc16f5dbb4873280815c1ee09dbd06736cffcc184412cf7a71a0fdb75d397ca5\n      swap1\n      0x00\n      swap1\n      log3\n        /* \"source/BinanceBABT/contracts/SBT.sol\":5416:5453  Transfer(sender, address(0), tokenId) */\n      mload(0x40)\n        /* \"source/BinanceBABT/contracts/SBT.sol\":5445:5452  tokenId */\n      dup2\n      swap1\n        /* \"source/BinanceBABT/contracts/SBT.sol\":5441:5442  0 */\n      0x00\n      swap1\n      sub(shl(0xa0, 0x01), 0x01)\n        /* \"source/BinanceBABT/contracts/SBT.sol\":5416:5453  Transfer(sender, address(0), tokenId) */\n      dup6\n      and\n      swap1\n      0x00\n      dup1\n      mload\n      0x20\n      data_ada389e1fc24a8587c776340efb91b36e675792ab631816100d55df0b5cf3cbc\n      dup4\n      codecopy\n      dup2\n      mload\n      swap2\n      mstore\n      swap1\n        /* \"source/BinanceBABT/contracts/SBT.sol\":5441:5442  0 */\n      dup4\n      swap1\n        /* \"source/BinanceBABT/contracts/SBT.sol\":5416:5453  Transfer(sender, address(0), tokenId) */\n      log4\n        /* \"source/BinanceBABT/contracts/SBT.sol\":5088:5460  {... */\n      pop\n      pop\n        /* \"source/BinanceBABT/contracts/SBT.sol\":5063:5460  function burn() external {... */\n      jump\t// out\n        /* \"source/BinanceBABT/contracts/SBT.sol\":6092:6223  function ownerOf(uint256 tokenId) external view returns (address) {... */\n    tag_75:\n        /* \"source/BinanceBABT/contracts/SBT.sol\":6149:6156  address */\n      0x00\n        /* \"source/BinanceBABT/contracts/SBT.sol\":6175:6216  _ownerMap.get(tokenId, \"Invalid tokenId\") */\n      tag_157\n        /* \"source/BinanceBABT/contracts/SBT.sol\":6189:6196  tokenId */\n      dup3\n        /* \"source/BinanceBABT/contracts/SBT.sol\":6175:6216  _ownerMap.get(tokenId, \"Invalid tokenId\") */\n      mload(0x40)\n      dup1\n      0x40\n      add\n      0x40\n      mstore\n      dup1\n      0x0f\n      dup2\n      mstore\n      0x20\n      add\n      shl(0x8a, 0x125b9d985b1a59081d1bdad95b9259)\n      dup2\n      mstore\n      pop\n        /* \"source/BinanceBABT/contracts/SBT.sol\":6175:6184  _ownerMap */\n      0x01\n        /* \"source/BinanceBABT/contracts/SBT.sol\":6175:6188  _ownerMap.get */\n      tag_204\n      swap1\n        /* \"source/BinanceBABT/contracts/SBT.sol\":6175:6216  _ownerMap.get(tokenId, \"Invalid tokenId\") */\n      swap3\n      swap2\n      swap1\n      0xffffffff\n      and\n      jump\t// in\n        /* \"source/BinanceBABT/contracts/SBT.sol\":2973:3756  function batchAttest(address[] calldata addrs) external {... */\n    tag_80:\n        /* \"source/BinanceBABT/contracts/SBT.sol\":3060:3065  addrs */\n      dup1\n        /* \"source/BinanceBABT/contracts/SBT.sol\":3104:3140  hasRole(OPERATOR_ROLE, _msgSender()) */\n      tag_206\n      0x00\n      dup1\n      mload\n      0x20\n      data_9a4fd57166f98e8d7afa26bb80870b0ef0d42c4df4b5a4c9c02a345536d90e3a\n      dup4\n      codecopy\n      dup2\n      mload\n      swap2\n      mstore\n        /* \"source/BinanceBABT/contracts/utils/Context.sol\":719:729  msg.sender */\n      caller\n        /* \"source/BinanceBABT/contracts/access/AccessControl.sol\":2891:3036  function hasRole(bytes32 role, address account) public view virtual override returns (bool) {... */\n      tag_98\n      jump\t// in\n        /* \"source/BinanceBABT/contracts/SBT.sol\":3104:3140  hasRole(OPERATOR_ROLE, _msgSender()) */\n    tag_206:\n        /* \"source/BinanceBABT/contracts/SBT.sol\":3083:3220  require(... */\n      tag_208\n      jumpi\n      mload(0x40)\n      shl(0xe5, 0x461bcd)\n      dup2\n      mstore\n      0x04\n      add\n      tag_130\n      swap1\n      tag_210\n      jump\t// in\n    tag_208:\n        /* \"source/BinanceBABT/contracts/SBT.sol\":3252:3255  100 */\n      0x64\n        /* \"source/BinanceBABT/contracts/SBT.sol\":3238:3248  addrLength */\n      dup2\n        /* \"source/BinanceBABT/contracts/SBT.sol\":3238:3255  addrLength <= 100 */\n      gt\n      iszero\n        /* \"source/BinanceBABT/contracts/SBT.sol\":3230:3294  require(addrLength <= 100, \"The max length of addresses is 100\") */\n      tag_211\n      jumpi\n      mload(0x40)\n      shl(0xe5, 0x461bcd)\n      dup2\n      mstore\n      0x04\n      add\n      tag_130\n      swap1\n      tag_134\n      jump\t// in\n    tag_211:\n        /* \"source/BinanceBABT/contracts/SBT.sol\":3310:3317  uint8 i */\n      0x00\n        /* \"source/BinanceBABT/contracts/SBT.sol\":3305:3750  for (uint8 i = 0; i < addrLength; i++) {... */\n    tag_213:\n        /* \"source/BinanceBABT/contracts/SBT.sol\":3327:3337  addrLength */\n      dup2\n        /* \"source/BinanceBABT/contracts/SBT.sol\":3323:3324  i */\n      dup2\n        /* \"source/BinanceBABT/contracts/SBT.sol\":3323:3337  i < addrLength */\n      0xff\n      and\n      lt\n        /* \"source/BinanceBABT/contracts/SBT.sol\":3305:3750  for (uint8 i = 0; i < addrLength; i++) {... */\n      iszero\n      tag_136\n      jumpi\n        /* \"source/BinanceBABT/contracts/SBT.sol\":3358:3368  address to */\n      0x00\n        /* \"source/BinanceBABT/contracts/SBT.sol\":3371:3376  addrs */\n      dup5\n      dup5\n        /* \"source/BinanceBABT/contracts/SBT.sol\":3377:3378  i */\n      dup4\n        /* \"source/BinanceBABT/contracts/SBT.sol\":3371:3379  addrs[i] */\n      0xff\n      and\n      dup2\n      dup2\n      lt\n      tag_217\n      jumpi\n      tag_217\n      tag_140\n      jump\t// in\n    tag_217:\n      swap1\n      pop\n      0x20\n      mul\n      add\n      0x20\n      dup2\n      add\n      swap1\n      tag_218\n      swap2\n      swap1\n      tag_56\n      jump\t// in\n    tag_218:\n        /* \"source/BinanceBABT/contracts/SBT.sol\":3358:3379  address to = addrs[i] */\n      swap1\n      pop\n      sub(shl(0xa0, 0x01), 0x01)\n        /* \"source/BinanceBABT/contracts/SBT.sol\":3398:3414  to == address(0) */\n      dup2\n      and\n      iszero\n      dup1\n        /* \"source/BinanceBABT/contracts/SBT.sol\":3398:3440  to == address(0) || _tokenMap.contains(to) */\n      tag_220\n      jumpi\n      pop\n        /* \"source/BinanceBABT/contracts/SBT.sol\":3418:3440  _tokenMap.contains(to) */\n      tag_220\n        /* \"source/BinanceBABT/contracts/SBT.sol\":3418:3427  _tokenMap */\n      0x04\n        /* \"source/BinanceBABT/contracts/SBT.sol\":3437:3439  to */\n      dup3\n        /* \"source/BinanceBABT/contracts/SBT.sol\":3418:3436  _tokenMap.contains */\n      tag_144\n        /* \"source/BinanceBABT/contracts/SBT.sol\":3418:3440  _tokenMap.contains(to) */\n      jump\t// in\n    tag_220:\n        /* \"source/BinanceBABT/contracts/SBT.sol\":3394:3483  if (to == address(0) || _tokenMap.contains(to)) {... */\n      iszero\n      tag_221\n      jumpi\n        /* \"source/BinanceBABT/contracts/SBT.sol\":3460:3468  continue */\n      pop\n      jump(tag_215)\n        /* \"source/BinanceBABT/contracts/SBT.sol\":3394:3483  if (to == address(0) || _tokenMap.contains(to)) {... */\n    tag_221:\n        /* \"source/BinanceBABT/contracts/SBT.sol\":3497:3517  _tokenId.increment() */\n      tag_222\n        /* \"source/BinanceBABT/contracts/SBT.sol\":3497:3505  _tokenId */\n      0x07\n        /* \"source/BinanceBABT/contracts/utils/Counters.sol\":1032:1051  counter._value += 1 */\n      dup1\n      sload\n        /* \"source/BinanceBABT/contracts/utils/Counters.sol\":1050:1051  1 */\n      0x01\n        /* \"source/BinanceBABT/contracts/utils/Counters.sol\":1032:1051  counter._value += 1 */\n      add\n      swap1\n      sstore\n        /* \"source/BinanceBABT/contracts/utils/Counters.sol\":945:1068  function increment(Counter storage counter) internal {... */\n      jump\n        /* \"source/BinanceBABT/contracts/SBT.sol\":3497:3517  _tokenId.increment() */\n    tag_222:\n        /* \"source/BinanceBABT/contracts/SBT.sol\":3531:3546  uint256 tokenId */\n      0x00\n        /* \"source/BinanceBABT/contracts/SBT.sol\":3549:3567  _tokenId.current() */\n      tag_224\n        /* \"source/BinanceBABT/contracts/SBT.sol\":3549:3557  _tokenId */\n      0x07\n        /* \"source/BinanceBABT/contracts/utils/Counters.sol\":918:932  counter._value */\n      sload\n      swap1\n        /* \"source/BinanceBABT/contracts/utils/Counters.sol\":827:939  function current(Counter storage counter) internal view returns (uint256) {... */\n      jump\n        /* \"source/BinanceBABT/contracts/SBT.sol\":3549:3567  _tokenId.current() */\n    tag_224:\n        /* \"source/BinanceBABT/contracts/SBT.sol\":3531:3567  uint256 tokenId = _tokenId.current() */\n      swap1\n      pop\n        /* \"source/BinanceBABT/contracts/SBT.sol\":3582:3608  _tokenMap.set(to, tokenId) */\n      tag_226\n        /* \"source/BinanceBABT/contracts/SBT.sol\":3582:3591  _tokenMap */\n      0x04\n        /* \"source/BinanceBABT/contracts/SBT.sol\":3596:3598  to */\n      dup4\n        /* \"source/BinanceBABT/contracts/SBT.sol\":3531:3567  uint256 tokenId = _tokenId.current() */\n      dup4\n        /* \"source/BinanceBABT/contracts/SBT.sol\":3582:3595  _tokenMap.set */\n      tag_227\n        /* \"source/BinanceBABT/contracts/SBT.sol\":3582:3608  _tokenMap.set(to, tokenId) */\n      jump\t// in\n    tag_226:\n      pop\n        /* \"source/BinanceBABT/contracts/SBT.sol\":3622:3648  _ownerMap.set(tokenId, to) */\n      tag_228\n        /* \"source/BinanceBABT/contracts/SBT.sol\":3622:3631  _ownerMap */\n      0x01\n        /* \"source/BinanceBABT/contracts/SBT.sol\":3636:3643  tokenId */\n      dup3\n        /* \"source/BinanceBABT/contracts/SBT.sol\":3645:3647  to */\n      dup5\n        /* \"source/BinanceBABT/contracts/SBT.sol\":3622:3635  _ownerMap.set */\n      tag_229\n        /* \"source/BinanceBABT/contracts/SBT.sol\":3622:3648  _ownerMap.set(tokenId, to) */\n      jump\t// in\n    tag_228:\n      pop\n        /* \"source/BinanceBABT/contracts/SBT.sol\":3668:3687  Attest(to, tokenId) */\n      mload(0x40)\n        /* \"source/BinanceBABT/contracts/SBT.sol\":3679:3686  tokenId */\n      dup2\n      swap1\n      sub(shl(0xa0, 0x01), 0x01)\n        /* \"source/BinanceBABT/contracts/SBT.sol\":3668:3687  Attest(to, tokenId) */\n      dup5\n      and\n      swap1\n      0xe9274a84b19e9428826de6bae8c48329354f8f0e73f771b97cae2d9dccd45a27\n      swap1\n      0x00\n      swap1\n      log3\n        /* \"source/BinanceBABT/contracts/SBT.sol\":3706:3739  Transfer(address(0), to, tokenId) */\n      mload(0x40)\n        /* \"source/BinanceBABT/contracts/SBT.sol\":3731:3738  tokenId */\n      dup2\n      swap1\n      sub(shl(0xa0, 0x01), 0x01)\n        /* \"source/BinanceBABT/contracts/SBT.sol\":3706:3739  Transfer(address(0), to, tokenId) */\n      dup5\n      and\n      swap1\n        /* \"source/BinanceBABT/contracts/SBT.sol\":3723:3724  0 */\n      0x00\n      swap1\n      0x00\n      dup1\n      mload\n      0x20\n      data_ada389e1fc24a8587c776340efb91b36e675792ab631816100d55df0b5cf3cbc\n      dup4\n      codecopy\n      dup2\n      mload\n      swap2\n      mstore\n        /* \"source/BinanceBABT/contracts/SBT.sol\":3706:3739  Transfer(address(0), to, tokenId) */\n      swap1\n        /* \"source/BinanceBABT/contracts/SBT.sol\":3723:3724  0 */\n      dup3\n      swap1\n        /* \"source/BinanceBABT/contracts/SBT.sol\":3706:3739  Transfer(address(0), to, tokenId) */\n      log4\n        /* \"source/BinanceBABT/contracts/SBT.sol\":3344:3750  {... */\n      pop\n      pop\n        /* \"source/BinanceBABT/contracts/SBT.sol\":3305:3750  for (uint8 i = 0; i < addrLength; i++) {... */\n    tag_215:\n        /* \"source/BinanceBABT/contracts/SBT.sol\":3339:3342  i++ */\n      dup1\n      tag_230\n      dup2\n      tag_153\n      jump\t// in\n    tag_230:\n      swap2\n      pop\n      pop\n        /* \"source/BinanceBABT/contracts/SBT.sol\":3305:3750  for (uint8 i = 0; i < addrLength; i++) {... */\n      jump(tag_213)\n        /* \"source/BinanceBABT/contracts/SBT.sol\":6332:6453  function isOperator(address account) external view returns (bool) {... */\n    tag_83:\n        /* \"source/BinanceBABT/contracts/SBT.sol\":6392:6396  bool */\n      0x00\n        /* \"source/BinanceBABT/contracts/SBT.sol\":6415:6446  hasRole(OPERATOR_ROLE, account) */\n      tag_157\n      0x00\n      dup1\n      mload\n      0x20\n      data_9a4fd57166f98e8d7afa26bb80870b0ef0d42c4df4b5a4c9c02a345536d90e3a\n      dup4\n      codecopy\n      dup2\n      mload\n      swap2\n      mstore\n        /* \"source/BinanceBABT/contracts/SBT.sol\":6438:6445  account */\n      dup4\n        /* \"source/BinanceBABT/contracts/SBT.sol\":6415:6422  hasRole */\n      tag_98\n        /* \"source/BinanceBABT/contracts/SBT.sol\":6415:6446  hasRole(OPERATOR_ROLE, account) */\n      jump\t// in\n        /* \"source/BinanceBABT/contracts/SBT.sol\":5776:5933  function balanceOf(address owner) external view returns (uint256) {... */\n    tag_87:\n        /* \"source/BinanceBABT/contracts/SBT.sol\":5833:5840  uint256 */\n      0x00\n      dup1\n        /* \"source/BinanceBABT/contracts/SBT.sol\":5871:5894  _tokenMap.tryGet(owner) */\n      tag_234\n        /* \"source/BinanceBABT/contracts/SBT.sol\":5871:5880  _tokenMap */\n      0x04\n        /* \"source/BinanceBABT/contracts/SBT.sol\":5888:5893  owner */\n      dup5\n        /* \"source/BinanceBABT/contracts/SBT.sol\":5871:5887  _tokenMap.tryGet */\n      tag_235\n        /* \"source/BinanceBABT/contracts/SBT.sol\":5871:5894  _tokenMap.tryGet(owner) */\n      jump\t// in\n    tag_234:\n        /* \"source/BinanceBABT/contracts/SBT.sol\":5852:5894  (bool success, ) = _tokenMap.tryGet(owner) */\n      pop\n      swap1\n      pop\n        /* \"source/BinanceBABT/contracts/SBT.sol\":5911:5918  success */\n      dup1\n        /* \"source/BinanceBABT/contracts/SBT.sol\":5911:5926  success ? 1 : 0 */\n      tag_236\n      jumpi\n        /* \"source/BinanceBABT/contracts/SBT.sol\":5925:5926  0 */\n      0x00\n        /* \"source/BinanceBABT/contracts/SBT.sol\":5911:5926  success ? 1 : 0 */\n      jump(tag_237)\n    tag_236:\n        /* \"source/BinanceBABT/contracts/SBT.sol\":5921:5922  1 */\n      0x01\n        /* \"source/BinanceBABT/contracts/SBT.sol\":5911:5926  success ? 1 : 0 */\n    tag_237:\n        /* \"source/BinanceBABT/contracts/SBT.sol\":5904:5926  return success ? 1 : 0 */\n      0xff\n      and\n      swap4\n        /* \"source/BinanceBABT/contracts/SBT.sol\":5776:5933  function balanceOf(address owner) external view returns (uint256) {... */\n      swap3\n      pop\n      pop\n      pop\n      jump\t// out\n        /* \"source/BinanceBABT/contracts/SBT.sol\":3762:4295  function revoke(address from) external {... */\n    tag_91:\n        /* \"source/BinanceBABT/contracts/SBT.sol\":3832:3868  hasRole(OPERATOR_ROLE, _msgSender()) */\n      tag_239\n      0x00\n      dup1\n      mload\n      0x20\n      data_9a4fd57166f98e8d7afa26bb80870b0ef0d42c4df4b5a4c9c02a345536d90e3a\n      dup4\n      codecopy\n      dup2\n      mload\n      swap2\n      mstore\n        /* \"source/BinanceBABT/contracts/utils/Context.sol\":719:729  msg.sender */\n      caller\n        /* \"source/BinanceBABT/contracts/access/AccessControl.sol\":2891:3036  function hasRole(bytes32 role, address account) public view virtual override returns (bool) {... */\n      tag_98\n      jump\t// in\n        /* \"source/BinanceBABT/contracts/SBT.sol\":3832:3868  hasRole(OPERATOR_ROLE, _msgSender()) */\n    tag_239:\n        /* \"source/BinanceBABT/contracts/SBT.sol\":3811:3948  require(... */\n      tag_241\n      jumpi\n      mload(0x40)\n      shl(0xe5, 0x461bcd)\n      dup2\n      mstore\n      0x04\n      add\n      tag_130\n      swap1\n      tag_131\n      jump\t// in\n    tag_241:\n      sub(shl(0xa0, 0x01), 0x01)\n        /* \"source/BinanceBABT/contracts/SBT.sol\":3966:3984  from != address(0) */\n      dup2\n      and\n        /* \"source/BinanceBABT/contracts/SBT.sol\":3958:4005  require(from != address(0), \"Address is empty\") */\n      tag_243\n      jumpi\n      mload(0x40)\n      shl(0xe5, 0x461bcd)\n      dup2\n      mstore\n      0x04\n      add\n      tag_130\n      swap1\n      tag_245\n      jump\t// in\n    tag_243:\n        /* \"source/BinanceBABT/contracts/SBT.sol\":4023:4047  _tokenMap.contains(from) */\n      tag_246\n        /* \"source/BinanceBABT/contracts/SBT.sol\":4023:4032  _tokenMap */\n      0x04\n        /* \"source/BinanceBABT/contracts/SBT.sol\":4042:4046  from */\n      dup3\n        /* \"source/BinanceBABT/contracts/SBT.sol\":4023:4041  _tokenMap.contains */\n      tag_144\n        /* \"source/BinanceBABT/contracts/SBT.sol\":4023:4047  _tokenMap.contains(from) */\n      jump\t// in\n    tag_246:\n        /* \"source/BinanceBABT/contracts/SBT.sol\":4015:4085  require(_tokenMap.contains(from), \"The account does not have any SBT\") */\n      tag_247\n      jumpi\n      mload(0x40)\n      shl(0xe5, 0x461bcd)\n      dup2\n      mstore\n      0x04\n      add\n      tag_130\n      swap1\n      tag_198\n      jump\t// in\n    tag_247:\n        /* \"source/BinanceBABT/contracts/SBT.sol\":4096:4111  uint256 tokenId */\n      0x00\n        /* \"source/BinanceBABT/contracts/SBT.sol\":4114:4133  _tokenMap.get(from) */\n      tag_249\n        /* \"source/BinanceBABT/contracts/SBT.sol\":4114:4123  _tokenMap */\n      0x04\n        /* \"source/BinanceBABT/contracts/SBT.sol\":4128:4132  from */\n      dup4\n        /* \"source/BinanceBABT/contracts/SBT.sol\":4114:4127  _tokenMap.get */\n      tag_147\n        /* \"source/BinanceBABT/contracts/SBT.sol\":4114:4133  _tokenMap.get(from) */\n      jump\t// in\n    tag_249:\n        /* \"source/BinanceBABT/contracts/SBT.sol\":4096:4133  uint256 tokenId = _tokenMap.get(from) */\n      swap1\n      pop\n        /* \"source/BinanceBABT/contracts/SBT.sol\":4144:4166  _tokenMap.remove(from) */\n      tag_250\n        /* \"source/BinanceBABT/contracts/SBT.sol\":4144:4153  _tokenMap */\n      0x04\n        /* \"source/BinanceBABT/contracts/SBT.sol\":4161:4165  from */\n      dup4\n        /* \"source/BinanceBABT/contracts/SBT.sol\":4144:4160  _tokenMap.remove */\n      tag_149\n        /* \"source/BinanceBABT/contracts/SBT.sol\":4144:4166  _tokenMap.remove(from) */\n      jump\t// in\n    tag_250:\n      pop\n        /* \"source/BinanceBABT/contracts/SBT.sol\":4176:4201  _ownerMap.remove(tokenId) */\n      tag_251\n        /* \"source/BinanceBABT/contracts/SBT.sol\":4176:4185  _ownerMap */\n      0x01\n        /* \"source/BinanceBABT/contracts/SBT.sol\":4193:4200  tokenId */\n      dup3\n        /* \"source/BinanceBABT/contracts/SBT.sol\":4176:4192  _ownerMap.remove */\n      tag_151\n        /* \"source/BinanceBABT/contracts/SBT.sol\":4176:4201  _ownerMap.remove(tokenId) */\n      jump\t// in\n    tag_251:\n      pop\n        /* \"source/BinanceBABT/contracts/SBT.sol\":4217:4238  Revoke(from, tokenId) */\n      mload(0x40)\n        /* \"source/BinanceBABT/contracts/SBT.sol\":4230:4237  tokenId */\n      dup2\n      swap1\n      sub(shl(0xa0, 0x01), 0x01)\n        /* \"source/BinanceBABT/contracts/SBT.sol\":4217:4238  Revoke(from, tokenId) */\n      dup5\n      and\n      swap1\n      0xec9ab91322523c899ede7830ec9bfc992b5981cdcc27b91162fb23de5791117b\n      swap1\n      0x00\n      swap1\n      log3\n        /* \"source/BinanceBABT/contracts/SBT.sol\":4253:4288  Transfer(from, address(0), tokenId) */\n      mload(0x40)\n        /* \"source/BinanceBABT/contracts/SBT.sol\":4280:4287  tokenId */\n      dup2\n      swap1\n        /* \"source/BinanceBABT/contracts/SBT.sol\":4276:4277  0 */\n      0x00\n      swap1\n      sub(shl(0xa0, 0x01), 0x01)\n        /* \"source/BinanceBABT/contracts/SBT.sol\":4253:4288  Transfer(from, address(0), tokenId) */\n      dup6\n      and\n      swap1\n      0x00\n      dup1\n      mload\n      0x20\n      data_ada389e1fc24a8587c776340efb91b36e675792ab631816100d55df0b5cf3cbc\n      dup4\n      codecopy\n      dup2\n      mload\n      swap2\n      mstore\n      swap1\n        /* \"source/BinanceBABT/contracts/SBT.sol\":4276:4277  0 */\n      dup4\n      swap1\n        /* \"source/BinanceBABT/contracts/SBT.sol\":4253:4288  Transfer(from, address(0), tokenId) */\n      log4\n        /* \"source/BinanceBABT/contracts/SBT.sol\":3801:4295  {... */\n      pop\n        /* \"source/BinanceBABT/contracts/SBT.sol\":3762:4295  function revoke(address from) external {... */\n      pop\n      jump\t// out\n        /* \"source/BinanceBABT/contracts/SBT.sol\":5939:6086  function tokenIdOf(address from) external view returns (uint256) {... */\n    tag_94:\n        /* \"source/BinanceBABT/contracts/SBT.sol\":5995:6002  uint256 */\n      0x00\n        /* \"source/BinanceBABT/contracts/SBT.sol\":6021:6079  _tokenMap.get(from, \"The wallet has not attested any SBT\") */\n      tag_157\n        /* \"source/BinanceBABT/contracts/SBT.sol\":6035:6039  from */\n      dup3\n        /* \"source/BinanceBABT/contracts/SBT.sol\":6021:6079  _tokenMap.get(from, \"The wallet has not attested any SBT\") */\n      mload(0x40)\n      dup1\n      0x60\n      add\n      0x40\n      mstore\n      dup1\n      0x23\n      dup2\n      mstore\n      0x20\n      add\n      data_4c0ef6bfa0a398fe3098d6b3c8bc2c4c45d120ec13b77201d29305b0abb24397\n      0x23\n      swap2\n      codecopy\n        /* \"source/BinanceBABT/contracts/SBT.sol\":6021:6030  _tokenMap */\n      0x04\n      swap2\n        /* \"source/BinanceBABT/contracts/SBT.sol\":6021:6079  _tokenMap.get(from, \"The wallet has not attested any SBT\") */\n      swap1\n        /* \"source/BinanceBABT/contracts/SBT.sol\":6021:6034  _tokenMap.get */\n      tag_254\n        /* \"source/BinanceBABT/contracts/SBT.sol\":6021:6079  _tokenMap.get(from, \"The wallet has not attested any SBT\") */\n      jump\t// in\n        /* \"source/BinanceBABT/contracts/access/AccessControl.sol\":2891:3036  function hasRole(bytes32 role, address account) public view virtual override returns (bool) {... */\n    tag_98:\n        /* \"source/BinanceBABT/contracts/access/AccessControl.sol\":2977:2981  bool */\n      0x00\n        /* \"source/BinanceBABT/contracts/access/AccessControl.sol\":3000:3012  _roles[role] */\n      swap2\n      dup3\n      mstore\n      0x20\n      dup3\n      dup2\n      mstore\n      0x40\n      dup1\n      dup5\n      keccak256\n      sub(shl(0xa0, 0x01), 0x01)\n        /* \"source/BinanceBABT/contracts/access/AccessControl.sol\":3000:3029  _roles[role].members[account] */\n      swap4\n      swap1\n      swap4\n      and\n      dup5\n      mstore\n      swap2\n      swap1\n      mstore\n      swap1\n      keccak256\n      sload\n      0xff\n      and\n      swap1\n        /* \"source/BinanceBABT/contracts/access/AccessControl.sol\":2891:3036  function hasRole(bytes32 role, address account) public view virtual override returns (bool) {... */\n      jump\t// out\n        /* \"source/BinanceBABT/contracts/SBT.sol\":1157:1177  string public symbol */\n    tag_101:\n      0x09\n      dup1\n      sload\n      tag_159\n      swap1\n      tag_160\n      jump\t// in\n        /* \"source/BinanceBABT/contracts/SBT.sol\":1847:2375  function attestId(address to, uint256 tokenId) external returns (uint256) {... */\n    tag_109:\n        /* \"source/BinanceBABT/contracts/SBT.sol\":1912:1919  uint256 */\n      0x00\n        /* \"source/BinanceBABT/contracts/SBT.sol\":1952:1988  hasRole(OPERATOR_ROLE, _msgSender()) */\n      tag_262\n      0x00\n      dup1\n      mload\n      0x20\n      data_9a4fd57166f98e8d7afa26bb80870b0ef0d42c4df4b5a4c9c02a345536d90e3a\n      dup4\n      codecopy\n      dup2\n      mload\n      swap2\n      mstore\n        /* \"source/BinanceBABT/contracts/utils/Context.sol\":719:729  msg.sender */\n      caller\n        /* \"source/BinanceBABT/contracts/access/AccessControl.sol\":2891:3036  function hasRole(bytes32 role, address account) public view virtual override returns (bool) {... */\n      tag_98\n      jump\t// in\n        /* \"source/BinanceBABT/contracts/SBT.sol\":1952:1988  hasRole(OPERATOR_ROLE, _msgSender()) */\n    tag_262:\n        /* \"source/BinanceBABT/contracts/SBT.sol\":1931:2068  require(... */\n      tag_264\n      jumpi\n      mload(0x40)\n      shl(0xe5, 0x461bcd)\n      dup2\n      mstore\n      0x04\n      add\n      tag_130\n      swap1\n      tag_210\n      jump\t// in\n    tag_264:\n      sub(shl(0xa0, 0x01), 0x01)\n        /* \"source/BinanceBABT/contracts/SBT.sol\":2086:2102  to != address(0) */\n      dup4\n      and\n        /* \"source/BinanceBABT/contracts/SBT.sol\":2078:2123  require(to != address(0), \"Address is empty\") */\n      tag_266\n      jumpi\n      mload(0x40)\n      shl(0xe5, 0x461bcd)\n      dup2\n      mstore\n      0x04\n      add\n      tag_130\n      swap1\n      tag_245\n      jump\t// in\n    tag_266:\n        /* \"source/BinanceBABT/contracts/SBT.sol\":2142:2164  _tokenMap.contains(to) */\n      tag_268\n        /* \"source/BinanceBABT/contracts/SBT.sol\":2142:2151  _tokenMap */\n      0x04\n        /* \"source/BinanceBABT/contracts/SBT.sol\":2161:2163  to */\n      dup5\n        /* \"source/BinanceBABT/contracts/SBT.sol\":2142:2160  _tokenMap.contains */\n      tag_144\n        /* \"source/BinanceBABT/contracts/SBT.sol\":2142:2164  _tokenMap.contains(to) */\n      jump\t// in\n    tag_268:\n        /* \"source/BinanceBABT/contracts/SBT.sol\":2141:2164  !_tokenMap.contains(to) */\n      iszero\n        /* \"source/BinanceBABT/contracts/SBT.sol\":2133:2187  require(!_tokenMap.contains(to), \"SBT already exists\") */\n      tag_269\n      jumpi\n      mload(0x40)\n      shl(0xe5, 0x461bcd)\n      dup2\n      mstore\n        /* \"#utility.yul\":8113:8115   */\n      0x20\n        /* \"source/BinanceBABT/contracts/SBT.sol\":2133:2187  require(!_tokenMap.contains(to), \"SBT already exists\") */\n      0x04\n      dup3\n      add\n        /* \"#utility.yul\":8095:8116   */\n      mstore\n        /* \"#utility.yul\":8152:8154   */\n      0x12\n        /* \"#utility.yul\":8132:8150   */\n      0x24\n      dup3\n      add\n        /* \"#utility.yul\":8125:8155   */\n      mstore\n      shl(0x70, 0x53425420616c726561647920657869737473)\n        /* \"#utility.yul\":8171:8189   */\n      0x44\n      dup3\n      add\n        /* \"#utility.yul\":8164:8212   */\n      mstore\n        /* \"#utility.yul\":8229:8247   */\n      0x64\n      add\n        /* \"source/BinanceBABT/contracts/SBT.sol\":2133:2187  require(!_tokenMap.contains(to), \"SBT already exists\") */\n      tag_130\n        /* \"#utility.yul\":7911:8253   */\n      jump\n        /* \"source/BinanceBABT/contracts/SBT.sol\":2133:2187  require(!_tokenMap.contains(to), \"SBT already exists\") */\n    tag_269:\n        /* \"source/BinanceBABT/contracts/SBT.sol\":2198:2224  _tokenMap.set(to, tokenId) */\n      tag_272\n        /* \"source/BinanceBABT/contracts/SBT.sol\":2198:2207  _tokenMap */\n      0x04\n        /* \"source/BinanceBABT/contracts/SBT.sol\":2212:2214  to */\n      dup5\n        /* \"source/BinanceBABT/contracts/SBT.sol\":2216:2223  tokenId */\n      dup5\n        /* \"source/BinanceBABT/contracts/SBT.sol\":2198:2211  _tokenMap.set */\n      tag_227\n        /* \"source/BinanceBABT/contracts/SBT.sol\":2198:2224  _tokenMap.set(to, tokenId) */\n      jump\t// in\n    tag_272:\n      pop\n        /* \"source/BinanceBABT/contracts/SBT.sol\":2234:2260  _ownerMap.set(tokenId, to) */\n      tag_273\n        /* \"source/BinanceBABT/contracts/SBT.sol\":2234:2243  _ownerMap */\n      0x01\n        /* \"source/BinanceBABT/contracts/SBT.sol\":2248:2255  tokenId */\n      dup4\n        /* \"source/BinanceBABT/contracts/SBT.sol\":2257:2259  to */\n      dup6\n        /* \"source/BinanceBABT/contracts/SBT.sol\":2234:2247  _ownerMap.set */\n      tag_229\n        /* \"source/BinanceBABT/contracts/SBT.sol\":2234:2260  _ownerMap.set(tokenId, to) */\n      jump\t// in\n    tag_273:\n      pop\n        /* \"source/BinanceBABT/contracts/SBT.sol\":2276:2295  Attest(to, tokenId) */\n      mload(0x40)\n        /* \"source/BinanceBABT/contracts/SBT.sol\":2287:2294  tokenId */\n      dup3\n      swap1\n      sub(shl(0xa0, 0x01), 0x01)\n        /* \"source/BinanceBABT/contracts/SBT.sol\":2276:2295  Attest(to, tokenId) */\n      dup6\n      and\n      swap1\n      0xe9274a84b19e9428826de6bae8c48329354f8f0e73f771b97cae2d9dccd45a27\n      swap1\n      0x00\n      swap1\n      log3\n        /* \"source/BinanceBABT/contracts/SBT.sol\":2310:2343  Transfer(address(0), to, tokenId) */\n      mload(0x40)\n        /* \"source/BinanceBABT/contracts/SBT.sol\":2335:2342  tokenId */\n      dup3\n      swap1\n      sub(shl(0xa0, 0x01), 0x01)\n        /* \"source/BinanceBABT/contracts/SBT.sol\":2310:2343  Transfer(address(0), to, tokenId) */\n      dup6\n      and\n      swap1\n        /* \"source/BinanceBABT/contracts/SBT.sol\":2327:2328  0 */\n      0x00\n      swap1\n      0x00\n      dup1\n      mload\n      0x20\n      data_ada389e1fc24a8587c776340efb91b36e675792ab631816100d55df0b5cf3cbc\n      dup4\n      codecopy\n      dup2\n      mload\n      swap2\n      mstore\n        /* \"source/BinanceBABT/contracts/SBT.sol\":2310:2343  Transfer(address(0), to, tokenId) */\n      swap1\n        /* \"source/BinanceBABT/contracts/SBT.sol\":2327:2328  0 */\n      dup3\n      swap1\n        /* \"source/BinanceBABT/contracts/SBT.sol\":2310:2343  Transfer(address(0), to, tokenId) */\n      log4\n      pop\n        /* \"source/BinanceBABT/contracts/SBT.sol\":2361:2368  tokenId */\n      swap2\n        /* \"source/BinanceBABT/contracts/SBT.sol\":1847:2375  function attestId(address to, uint256 tokenId) external returns (uint256) {... */\n      swap1\n      pop\n      jump\t// out\n        /* \"source/BinanceBABT/contracts/SBT.sol\":6648:6887  function tokenURI(uint256 tokenId) external view returns (string memory) {... */\n    tag_113:\n        /* \"source/BinanceBABT/contracts/SBT.sol\":6706:6719  string memory */\n      0x60\n        /* \"source/BinanceBABT/contracts/SBT.sol\":6780:6781  0 */\n      0x00\n        /* \"source/BinanceBABT/contracts/SBT.sol\":6756:6769  _baseTokenURI */\n      0x0a\n        /* \"source/BinanceBABT/contracts/SBT.sol\":6750:6777  bytes(_baseTokenURI).length */\n      dup1\n      sload\n      tag_275\n      swap1\n      tag_160\n      jump\t// in\n    tag_275:\n      swap1\n      pop\n        /* \"source/BinanceBABT/contracts/SBT.sol\":6750:6781  bytes(_baseTokenURI).length > 0 */\n      gt\n        /* \"source/BinanceBABT/contracts/SBT.sol\":6750:6880  bytes(_baseTokenURI).length > 0... */\n      tag_276\n      jumpi\n      mload(0x40)\n      dup1\n      0x20\n      add\n      0x40\n      mstore\n      dup1\n      0x00\n      dup2\n      mstore\n      pop\n      jump(tag_157)\n    tag_276:\n        /* \"source/BinanceBABT/contracts/SBT.sol\":6824:6837  _baseTokenURI */\n      0x0a\n        /* \"source/BinanceBABT/contracts/SBT.sol\":6839:6857  tokenId.toString() */\n      tag_278\n        /* \"source/BinanceBABT/contracts/SBT.sol\":6839:6846  tokenId */\n      dup4\n        /* \"source/BinanceBABT/contracts/SBT.sol\":6839:6855  tokenId.toString */\n      tag_279\n        /* \"source/BinanceBABT/contracts/SBT.sol\":6839:6857  tokenId.toString() */\n      jump\t// in\n    tag_278:\n        /* \"source/BinanceBABT/contracts/SBT.sol\":6807:6858  abi.encodePacked(_baseTokenURI, tokenId.toString()) */\n      add(0x20, mload(0x40))\n      tag_280\n      swap3\n      swap2\n      swap1\n      tag_281\n      jump\t// in\n    tag_280:\n      mload(0x40)\n      0x20\n      dup2\n      dup4\n      sub\n      sub\n      dup2\n      mstore\n      swap1\n      0x40\n      mstore\n        /* \"source/BinanceBABT/contracts/SBT.sol\":6731:6880  return... */\n      swap3\n        /* \"source/BinanceBABT/contracts/SBT.sol\":6648:6887  function tokenURI(uint256 tokenId) external view returns (string memory) {... */\n      swap2\n      pop\n      pop\n      jump\t// out\n        /* \"source/BinanceBABT/contracts/access/AccessControl.sol\":5224:5371  function revokeRole(bytes32 role, address account) public virtual override onlyRole(getRoleAdmin(role)) {... */\n    tag_117:\n        /* \"source/BinanceBABT/contracts/access/AccessControl.sol\":4448:4455  bytes32 */\n      0x00\n        /* \"source/BinanceBABT/contracts/access/AccessControl.sol\":4474:4486  _roles[role] */\n      dup3\n      dup2\n      mstore\n      0x20\n      dup2\n      swap1\n      mstore\n      0x40\n      swap1\n      keccak256\n        /* \"source/BinanceBABT/contracts/access/AccessControl.sol\":4474:4496  _roles[role].adminRole */\n      0x01\n      add\n      sload\n        /* \"source/BinanceBABT/contracts/access/AccessControl.sol\":2501:2517  _checkRole(role) */\n      tag_284\n        /* \"source/BinanceBABT/contracts/access/AccessControl.sol\":2512:2516  role */\n      dup2\n        /* \"source/BinanceBABT/contracts/access/AccessControl.sol\":2501:2511  _checkRole */\n      tag_174\n        /* \"source/BinanceBABT/contracts/access/AccessControl.sol\":2501:2517  _checkRole(role) */\n      jump\t// in\n    tag_284:\n        /* \"source/BinanceBABT/contracts/access/AccessControl.sol\":5338:5364  _revokeRole(role, account) */\n      tag_176\n        /* \"source/BinanceBABT/contracts/access/AccessControl.sol\":5350:5354  role */\n      dup4\n        /* \"source/BinanceBABT/contracts/access/AccessControl.sol\":5356:5363  account */\n      dup4\n        /* \"source/BinanceBABT/contracts/access/AccessControl.sol\":5338:5349  _revokeRole */\n      tag_192\n        /* \"source/BinanceBABT/contracts/access/AccessControl.sol\":5338:5364  _revokeRole(role, account) */\n      jump\t// in\n        /* \"source/BinanceBABT/contracts/SBT.sol\":2381:2967  function attest(address to) external returns (uint256) {... */\n    tag_120:\n        /* \"source/BinanceBABT/contracts/SBT.sol\":2427:2434  uint256 */\n      0x00\n        /* \"source/BinanceBABT/contracts/SBT.sol\":2467:2503  hasRole(OPERATOR_ROLE, _msgSender()) */\n      tag_288\n      0x00\n      dup1\n      mload\n      0x20\n      data_9a4fd57166f98e8d7afa26bb80870b0ef0d42c4df4b5a4c9c02a345536d90e3a\n      dup4\n      codecopy\n      dup2\n      mload\n      swap2\n      mstore\n        /* \"source/BinanceBABT/contracts/utils/Context.sol\":719:729  msg.sender */\n      caller\n        /* \"source/BinanceBABT/contracts/access/AccessControl.sol\":2891:3036  function hasRole(bytes32 role, address account) public view virtual override returns (bool) {... */\n      tag_98\n      jump\t// in\n        /* \"source/BinanceBABT/contracts/SBT.sol\":2467:2503  hasRole(OPERATOR_ROLE, _msgSender()) */\n    tag_288:\n        /* \"source/BinanceBABT/contracts/SBT.sol\":2446:2583  require(... */\n      tag_290\n      jumpi\n      mload(0x40)\n      shl(0xe5, 0x461bcd)\n      dup2\n      mstore\n      0x04\n      add\n      tag_130\n      swap1\n      tag_210\n      jump\t// in\n    tag_290:\n      sub(shl(0xa0, 0x01), 0x01)\n        /* \"source/BinanceBABT/contracts/SBT.sol\":2601:2617  to != address(0) */\n      dup3\n      and\n        /* \"source/BinanceBABT/contracts/SBT.sol\":2593:2638  require(to != address(0), \"Address is empty\") */\n      tag_292\n      jumpi\n      mload(0x40)\n      shl(0xe5, 0x461bcd)\n      dup2\n      mstore\n      0x04\n      add\n      tag_130\n      swap1\n      tag_245\n      jump\t// in\n    tag_292:\n        /* \"source/BinanceBABT/contracts/SBT.sol\":2657:2679  _tokenMap.contains(to) */\n      tag_294\n        /* \"source/BinanceBABT/contracts/SBT.sol\":2657:2666  _tokenMap */\n      0x04\n        /* \"source/BinanceBABT/contracts/SBT.sol\":2676:2678  to */\n      dup4\n        /* \"source/BinanceBABT/contracts/SBT.sol\":2657:2675  _tokenMap.contains */\n      tag_144\n        /* \"source/BinanceBABT/contracts/SBT.sol\":2657:2679  _tokenMap.contains(to) */\n      jump\t// in\n    tag_294:\n        /* \"source/BinanceBABT/contracts/SBT.sol\":2656:2679  !_tokenMap.contains(to) */\n      iszero\n        /* \"source/BinanceBABT/contracts/SBT.sol\":2648:2702  require(!_tokenMap.contains(to), \"SBT already exists\") */\n      tag_295\n      jumpi\n      mload(0x40)\n      shl(0xe5, 0x461bcd)\n      dup2\n      mstore\n        /* \"#utility.yul\":8113:8115   */\n      0x20\n        /* \"source/BinanceBABT/contracts/SBT.sol\":2648:2702  require(!_tokenMap.contains(to), \"SBT already exists\") */\n      0x04\n      dup3\n      add\n        /* \"#utility.yul\":8095:8116   */\n      mstore\n        /* \"#utility.yul\":8152:8154   */\n      0x12\n        /* \"#utility.yul\":8132:8150   */\n      0x24\n      dup3\n      add\n        /* \"#utility.yul\":8125:8155   */\n      mstore\n      shl(0x70, 0x53425420616c726561647920657869737473)\n        /* \"#utility.yul\":8171:8189   */\n      0x44\n      dup3\n      add\n        /* \"#utility.yul\":8164:8212   */\n      mstore\n        /* \"#utility.yul\":8229:8247   */\n      0x64\n      add\n        /* \"source/BinanceBABT/contracts/SBT.sol\":2648:2702  require(!_tokenMap.contains(to), \"SBT already exists\") */\n      tag_130\n        /* \"#utility.yul\":7911:8253   */\n      jump\n        /* \"source/BinanceBABT/contracts/SBT.sol\":2648:2702  require(!_tokenMap.contains(to), \"SBT already exists\") */\n    tag_295:\n        /* \"source/BinanceBABT/contracts/SBT.sol\":2713:2733  _tokenId.increment() */\n      tag_297\n        /* \"source/BinanceBABT/contracts/SBT.sol\":2713:2721  _tokenId */\n      0x07\n        /* \"source/BinanceBABT/contracts/utils/Counters.sol\":1032:1051  counter._value += 1 */\n      dup1\n      sload\n        /* \"source/BinanceBABT/contracts/utils/Counters.sol\":1050:1051  1 */\n      0x01\n        /* \"source/BinanceBABT/contracts/utils/Counters.sol\":1032:1051  counter._value += 1 */\n      add\n      swap1\n      sstore\n        /* \"source/BinanceBABT/contracts/utils/Counters.sol\":945:1068  function increment(Counter storage counter) internal {... */\n      jump\n        /* \"source/BinanceBABT/contracts/SBT.sol\":2713:2733  _tokenId.increment() */\n    tag_297:\n        /* \"source/BinanceBABT/contracts/SBT.sol\":2743:2758  uint256 tokenId */\n      0x00\n        /* \"source/BinanceBABT/contracts/SBT.sol\":2761:2779  _tokenId.current() */\n      tag_298\n        /* \"source/BinanceBABT/contracts/SBT.sol\":2761:2769  _tokenId */\n      0x07\n        /* \"source/BinanceBABT/contracts/utils/Counters.sol\":918:932  counter._value */\n      sload\n      swap1\n        /* \"source/BinanceBABT/contracts/utils/Counters.sol\":827:939  function current(Counter storage counter) internal view returns (uint256) {... */\n      jump\n        /* \"source/BinanceBABT/contracts/SBT.sol\":2761:2779  _tokenId.current() */\n    tag_298:\n        /* \"source/BinanceBABT/contracts/SBT.sol\":2743:2779  uint256 tokenId = _tokenId.current() */\n      swap1\n      pop\n        /* \"source/BinanceBABT/contracts/SBT.sol\":2790:2816  _tokenMap.set(to, tokenId) */\n      tag_299\n        /* \"source/BinanceBABT/contracts/SBT.sol\":2790:2799  _tokenMap */\n      0x04\n        /* \"source/BinanceBABT/contracts/SBT.sol\":2804:2806  to */\n      dup5\n        /* \"source/BinanceBABT/contracts/SBT.sol\":2743:2779  uint256 tokenId = _tokenId.current() */\n      dup4\n        /* \"source/BinanceBABT/contracts/SBT.sol\":2790:2803  _tokenMap.set */\n      tag_227\n        /* \"source/BinanceBABT/contracts/SBT.sol\":2790:2816  _tokenMap.set(to, tokenId) */\n      jump\t// in\n    tag_299:\n      pop\n        /* \"source/BinanceBABT/contracts/SBT.sol\":2826:2852  _ownerMap.set(tokenId, to) */\n      tag_300\n        /* \"source/BinanceBABT/contracts/SBT.sol\":2826:2835  _ownerMap */\n      0x01\n        /* \"source/BinanceBABT/contracts/SBT.sol\":2840:2847  tokenId */\n      dup3\n        /* \"source/BinanceBABT/contracts/SBT.sol\":2849:2851  to */\n      dup6\n        /* \"source/BinanceBABT/contracts/SBT.sol\":2826:2839  _ownerMap.set */\n      tag_229\n        /* \"source/BinanceBABT/contracts/SBT.sol\":2826:2852  _ownerMap.set(tokenId, to) */\n      jump\t// in\n    tag_300:\n      pop\n        /* \"source/BinanceBABT/contracts/SBT.sol\":2868:2887  Attest(to, tokenId) */\n      mload(0x40)\n        /* \"source/BinanceBABT/contracts/SBT.sol\":2879:2886  tokenId */\n      dup2\n      swap1\n      sub(shl(0xa0, 0x01), 0x01)\n        /* \"source/BinanceBABT/contracts/SBT.sol\":2868:2887  Attest(to, tokenId) */\n      dup6\n      and\n      swap1\n      0xe9274a84b19e9428826de6bae8c48329354f8f0e73f771b97cae2d9dccd45a27\n      swap1\n      0x00\n      swap1\n      log3\n        /* \"source/BinanceBABT/contracts/SBT.sol\":2902:2935  Transfer(address(0), to, tokenId) */\n      mload(0x40)\n        /* \"source/BinanceBABT/contracts/SBT.sol\":2927:2934  tokenId */\n      dup2\n      swap1\n      sub(shl(0xa0, 0x01), 0x01)\n        /* \"source/BinanceBABT/contracts/SBT.sol\":2902:2935  Transfer(address(0), to, tokenId) */\n      dup6\n      and\n      swap1\n        /* \"source/BinanceBABT/contracts/SBT.sol\":2919:2920  0 */\n      0x00\n      swap1\n      0x00\n      dup1\n      mload\n      0x20\n      data_ada389e1fc24a8587c776340efb91b36e675792ab631816100d55df0b5cf3cbc\n      dup4\n      codecopy\n      dup2\n      mload\n      swap2\n      mstore\n        /* \"source/BinanceBABT/contracts/SBT.sol\":2902:2935  Transfer(address(0), to, tokenId) */\n      swap1\n        /* \"source/BinanceBABT/contracts/SBT.sol\":2919:2920  0 */\n      dup3\n      swap1\n        /* \"source/BinanceBABT/contracts/SBT.sol\":2902:2935  Transfer(address(0), to, tokenId) */\n      log4\n        /* \"source/BinanceBABT/contracts/SBT.sol\":2953:2960  tokenId */\n      swap3\n        /* \"source/BinanceBABT/contracts/SBT.sol\":2381:2967  function attest(address to) external returns (uint256) {... */\n      swap2\n      pop\n      pop\n      jump\t// out\n        /* \"source/BinanceBABT/contracts/utils/EnumerableMap.sol\":12315:12481  function contains(AddressToUintMap storage map, address key) internal view returns (bool) {... */\n    tag_144:\n        /* \"source/BinanceBABT/contracts/utils/EnumerableMap.sol\":12399:12403  bool */\n      0x00\n        /* \"source/BinanceBABT/contracts/utils/EnumerableMap.sol\":12422:12474  contains(map._inner, bytes32(uint256(uint160(key)))) */\n      tag_303\n        /* \"source/BinanceBABT/contracts/utils/EnumerableMap.sol\":12431:12434  map */\n      dup4\n      sub(shl(0xa0, 0x01), 0x01)\n        /* \"source/BinanceBABT/contracts/utils/EnumerableMap.sol\":12451:12472  uint256(uint160(key)) */\n      dup5\n      and\n        /* \"source/BinanceBABT/contracts/utils/EnumerableMap.sol\":12422:12430  contains */\n      tag_304\n        /* \"source/BinanceBABT/contracts/utils/EnumerableMap.sol\":12422:12474  contains(map._inner, bytes32(uint256(uint160(key)))) */\n      jump\t// in\n    tag_303:\n        /* \"source/BinanceBABT/contracts/utils/EnumerableMap.sol\":12415:12474  return contains(map._inner, bytes32(uint256(uint160(key)))) */\n      swap4\n        /* \"source/BinanceBABT/contracts/utils/EnumerableMap.sol\":12315:12481  function contains(AddressToUintMap storage map, address key) internal view returns (bool) {... */\n      swap3\n      pop\n      pop\n      pop\n      jump\t// out\n        /* \"source/BinanceBABT/contracts/utils/EnumerableMap.sol\":13785:13953  function get(AddressToUintMap storage map, address key) internal view returns (uint256) {... */\n    tag_147:\n        /* \"source/BinanceBABT/contracts/utils/EnumerableMap.sol\":13864:13871  uint256 */\n      0x00\n        /* \"source/BinanceBABT/contracts/utils/EnumerableMap.sol\":13898:13945  get(map._inner, bytes32(uint256(uint160(key)))) */\n      tag_303\n        /* \"source/BinanceBABT/contracts/utils/EnumerableMap.sol\":13902:13905  map */\n      dup4\n      sub(shl(0xa0, 0x01), 0x01)\n        /* \"source/BinanceBABT/contracts/utils/EnumerableMap.sol\":13922:13943  uint256(uint160(key)) */\n      dup5\n      and\n        /* \"source/BinanceBABT/contracts/utils/EnumerableMap.sol\":13898:13901  get */\n      tag_307\n        /* \"source/BinanceBABT/contracts/utils/EnumerableMap.sol\":13898:13945  get(map._inner, bytes32(uint256(uint160(key)))) */\n      jump\t// in\n        /* \"source/BinanceBABT/contracts/utils/EnumerableMap.sol\":12079:12236  function remove(AddressToUintMap storage map, address key) internal returns (bool) {... */\n    tag_149:\n        /* \"source/BinanceBABT/contracts/utils/EnumerableMap.sol\":12156:12160  bool */\n      0x00\n        /* \"source/BinanceBABT/contracts/utils/EnumerableMap.sol\":12179:12229  remove(map._inner, bytes32(uint256(uint160(key)))) */\n      tag_303\n        /* \"source/BinanceBABT/contracts/utils/EnumerableMap.sol\":12186:12189  map */\n      dup4\n      sub(shl(0xa0, 0x01), 0x01)\n        /* \"source/BinanceBABT/contracts/utils/EnumerableMap.sol\":12206:12227  uint256(uint160(key)) */\n      dup5\n      and\n        /* \"source/BinanceBABT/contracts/utils/EnumerableMap.sol\":12179:12185  remove */\n      tag_310\n        /* \"source/BinanceBABT/contracts/utils/EnumerableMap.sol\":12179:12229  remove(map._inner, bytes32(uint256(uint160(key)))) */\n      jump\t// in\n        /* \"source/BinanceBABT/contracts/utils/EnumerableMap.sol\":8987:9126  function remove(UintToAddressMap storage map, uint256 key) internal returns (bool) {... */\n    tag_151:\n        /* \"source/BinanceBABT/contracts/utils/EnumerableMap.sol\":9064:9068  bool */\n      0x00\n        /* \"source/BinanceBABT/contracts/utils/EnumerableMap.sol\":9087:9119  remove(map._inner, bytes32(key)) */\n      tag_303\n        /* \"source/BinanceBABT/contracts/utils/EnumerableMap.sol\":9094:9097  map */\n      dup4\n        /* \"source/BinanceBABT/contracts/utils/EnumerableMap.sol\":9114:9117  key */\n      dup4\n        /* \"source/BinanceBABT/contracts/utils/EnumerableMap.sol\":9087:9093  remove */\n      tag_310\n        /* \"source/BinanceBABT/contracts/utils/EnumerableMap.sol\":9087:9119  remove(map._inner, bytes32(key)) */\n      jump\t// in\n        /* \"source/BinanceBABT/contracts/access/AccessControl.sol\":2602:2804  function supportsInterface(bytes4 interfaceId) public view virtual override returns (bool) {... */\n    tag_158:\n        /* \"source/BinanceBABT/contracts/access/AccessControl.sol\":2687:2691  bool */\n      0x00\n      not(sub(shl(0xe0, 0x01), 0x01))\n        /* \"source/BinanceBABT/contracts/access/AccessControl.sol\":2710:2757  interfaceId == type(IAccessControl).interfaceId */\n      dup3\n      and\n      shl(0xe0, 0x7965db0b)\n      eq\n      dup1\n        /* \"source/BinanceBABT/contracts/access/AccessControl.sol\":2710:2797  interfaceId == type(IAccessControl).interfaceId || super.supportsInterface(interfaceId) */\n      tag_157\n      jumpi\n      pop\n      shl(0xe0, 0x01ffc9a7)\n      not(sub(shl(0xe0, 0x01), 0x01))\n        /* \"source/BinanceBABT/contracts/erc/ERC165.sol\":949:989  interfaceId == type(IERC165).interfaceId */\n      dup4\n      and\n      eq\n        /* \"source/BinanceBABT/contracts/access/AccessControl.sol\":2761:2797  super.supportsInterface(interfaceId) */\n      tag_157\n        /* \"source/BinanceBABT/contracts/erc/ERC165.sol\":841:996  function supportsInterface(bytes4 interfaceId) public view virtual override returns (bool) {... */\n      jump\n        /* \"source/BinanceBABT/contracts/utils/EnumerableMap.sol\":12564:12684  function length(AddressToUintMap storage map) internal view returns (uint256) {... */\n    tag_167:\n        /* \"source/BinanceBABT/contracts/utils/EnumerableMap.sol\":12633:12640  uint256 */\n      0x00\n        /* \"source/BinanceBABT/contracts/utils/EnumerableMap.sol\":12659:12677  length(map._inner) */\n      tag_157\n        /* \"source/BinanceBABT/contracts/utils/EnumerableMap.sol\":12666:12669  map */\n      dup3\n        /* \"source/BinanceBABT/contracts/utils/EnumerableMap.sol\":12659:12665  length */\n      tag_319\n        /* \"source/BinanceBABT/contracts/utils/EnumerableMap.sol\":12659:12677  length(map._inner) */\n      jump\t// in\n        /* \"source/BinanceBABT/contracts/access/AccessControl.sol\":3330:3433  function _checkRole(bytes32 role) internal view virtual {... */\n    tag_174:\n        /* \"source/BinanceBABT/contracts/access/AccessControl.sol\":3396:3426  _checkRole(role, _msgSender()) */\n      tag_321\n        /* \"source/BinanceBABT/contracts/access/AccessControl.sol\":3407:3411  role */\n      dup2\n        /* \"source/BinanceBABT/contracts/utils/Context.sol\":719:729  msg.sender */\n      caller\n        /* \"source/BinanceBABT/contracts/access/AccessControl.sol\":3396:3406  _checkRole */\n      tag_323\n        /* \"source/BinanceBABT/contracts/access/AccessControl.sol\":3396:3426  _checkRole(role, _msgSender()) */\n      jump\t// in\n    tag_321:\n        /* \"source/BinanceBABT/contracts/access/AccessControl.sol\":3330:3433  function _checkRole(bytes32 role) internal view virtual {... */\n      pop\n      jump\t// out\n        /* \"source/BinanceBABT/contracts/access/AccessControl.sol\":7457:7690  function _grantRole(bytes32 role, address account) internal virtual {... */\n    tag_177:\n        /* \"source/BinanceBABT/contracts/access/AccessControl.sol\":7540:7562  hasRole(role, account) */\n      tag_325\n        /* \"source/BinanceBABT/contracts/access/AccessControl.sol\":7548:7552  role */\n      dup3\n        /* \"source/BinanceBABT/contracts/access/AccessControl.sol\":7554:7561  account */\n      dup3\n        /* \"source/BinanceBABT/contracts/access/AccessControl.sol\":7540:7547  hasRole */\n      tag_98\n        /* \"source/BinanceBABT/contracts/access/AccessControl.sol\":7540:7562  hasRole(role, account) */\n      jump\t// in\n    tag_325:\n        /* \"source/BinanceBABT/contracts/access/AccessControl.sol\":7535:7684  if (!hasRole(role, account)) {... */\n      tag_191\n      jumpi\n        /* \"source/BinanceBABT/contracts/access/AccessControl.sol\":7578:7584  _roles */\n      0x00\n        /* \"source/BinanceBABT/contracts/access/AccessControl.sol\":7578:7590  _roles[role] */\n      dup3\n      dup2\n      mstore\n      0x20\n      dup2\n      dup2\n      mstore\n      0x40\n      dup1\n      dup4\n      keccak256\n      sub(shl(0xa0, 0x01), 0x01)\n        /* \"source/BinanceBABT/contracts/access/AccessControl.sol\":7578:7607  _roles[role].members[account] */\n      dup6\n      and\n      dup5\n      mstore\n      swap1\n      swap2\n      mstore\n      swap1\n      keccak256\n        /* \"source/BinanceBABT/contracts/access/AccessControl.sol\":7578:7614  _roles[role].members[account] = true */\n      dup1\n      sload\n      not(0xff)\n      and\n        /* \"source/BinanceBABT/contracts/access/AccessControl.sol\":7610:7614  true */\n      0x01\n        /* \"source/BinanceBABT/contracts/access/AccessControl.sol\":7578:7614  _roles[role].members[account] = true */\n      or\n      swap1\n      sstore\n        /* \"source/BinanceBABT/contracts/access/AccessControl.sol\":7660:7672  _msgSender() */\n      tag_327\n        /* \"source/BinanceBABT/contracts/utils/Context.sol\":719:729  msg.sender */\n      caller\n      swap1\n        /* \"source/BinanceBABT/contracts/utils/Context.sol\":640:736  function _msgSender() internal view virtual returns (address) {... */\n      jump\n        /* \"source/BinanceBABT/contracts/access/AccessControl.sol\":7660:7672  _msgSender() */\n    tag_327:\n      sub(shl(0xa0, 0x01), 0x01)\n        /* \"source/BinanceBABT/contracts/access/AccessControl.sol\":7633:7673  RoleGranted(role, account, _msgSender()) */\n      and\n        /* \"source/BinanceBABT/contracts/access/AccessControl.sol\":7651:7658  account */\n      dup2\n      sub(shl(0xa0, 0x01), 0x01)\n        /* \"source/BinanceBABT/contracts/access/AccessControl.sol\":7633:7673  RoleGranted(role, account, _msgSender()) */\n      and\n        /* \"source/BinanceBABT/contracts/access/AccessControl.sol\":7645:7649  role */\n      dup4\n        /* \"source/BinanceBABT/contracts/access/AccessControl.sol\":7633:7673  RoleGranted(role, account, _msgSender()) */\n      0x2f8788117e7eff1d82e926ec794901d17c78024a50270940304540a733656f0d\n      mload(0x40)\n      mload(0x40)\n      dup1\n      swap2\n      sub\n      swap1\n      log4\n        /* \"source/BinanceBABT/contracts/access/AccessControl.sol\":7457:7690  function _grantRole(bytes32 role, address account) internal virtual {... */\n      pop\n      pop\n      jump\t// out\n        /* \"source/BinanceBABT/contracts/access/AccessControl.sol\":7861:8095  function _revokeRole(bytes32 role, address account) internal virtual {... */\n    tag_192:\n        /* \"source/BinanceBABT/contracts/access/AccessControl.sol\":7944:7966  hasRole(role, account) */\n      tag_329\n        /* \"source/BinanceBABT/contracts/access/AccessControl.sol\":7952:7956  role */\n      dup3\n        /* \"source/BinanceBABT/contracts/access/AccessControl.sol\":7958:7965  account */\n      dup3\n        /* \"source/BinanceBABT/contracts/access/AccessControl.sol\":7944:7951  hasRole */\n      tag_98\n        /* \"source/BinanceBABT/contracts/access/AccessControl.sol\":7944:7966  hasRole(role, account) */\n      jump\t// in\n    tag_329:\n        /* \"source/BinanceBABT/contracts/access/AccessControl.sol\":7940:8089  if (hasRole(role, account)) {... */\n      iszero\n      tag_191\n      jumpi\n        /* \"source/BinanceBABT/contracts/access/AccessControl.sol\":8014:8019  false */\n      0x00\n        /* \"source/BinanceBABT/contracts/access/AccessControl.sol\":7982:7994  _roles[role] */\n      dup3\n      dup2\n      mstore\n      0x20\n      dup2\n      dup2\n      mstore\n      0x40\n      dup1\n      dup4\n      keccak256\n      sub(shl(0xa0, 0x01), 0x01)\n        /* \"source/BinanceBABT/contracts/access/AccessControl.sol\":7982:8011  _roles[role].members[account] */\n      dup6\n      and\n      dup1\n      dup6\n      mstore\n      swap3\n      mstore\n      dup1\n      dup4\n      keccak256\n        /* \"source/BinanceBABT/contracts/access/AccessControl.sol\":7982:8019  _roles[role].members[account] = false */\n      dup1\n      sload\n      not(0xff)\n      and\n      swap1\n      sstore\n        /* \"source/BinanceBABT/contracts/access/AccessControl.sol\":8038:8078  RoleRevoked(role, account, _msgSender()) */\n      mload\n        /* \"source/BinanceBABT/contracts/utils/Context.sol\":719:729  msg.sender */\n      caller\n      swap3\n        /* \"source/BinanceBABT/contracts/access/AccessControl.sol\":7982:7994  _roles[role] */\n      dup6\n      swap2\n        /* \"source/BinanceBABT/contracts/access/AccessControl.sol\":8038:8078  RoleRevoked(role, account, _msgSender()) */\n      0xf6391f5c32d9c69d2a47ea670b442974b53935d1edc7fd64eb21e047a839171b\n      swap2\n        /* \"source/BinanceBABT/contracts/access/AccessControl.sol\":8014:8019  false */\n      swap1\n        /* \"source/BinanceBABT/contracts/access/AccessControl.sol\":8038:8078  RoleRevoked(role, account, _msgSender()) */\n      log4\n        /* \"source/BinanceBABT/contracts/access/AccessControl.sol\":7861:8095  function _revokeRole(bytes32 role, address account) internal virtual {... */\n      pop\n      pop\n      jump\t// out\n        /* \"source/BinanceBABT/contracts/utils/EnumerableMap.sol\":11143:11383  function get(... */\n    tag_204:\n        /* \"source/BinanceBABT/contracts/utils/EnumerableMap.sol\":11280:11287  address */\n      0x00\n        /* \"source/BinanceBABT/contracts/utils/EnumerableMap.sol\":11330:11373  get(map._inner, bytes32(key), errorMessage) */\n      tag_333\n        /* \"source/BinanceBABT/contracts/utils/EnumerableMap.sol\":11334:11337  map */\n      dup5\n        /* \"source/BinanceBABT/contracts/utils/EnumerableMap.sol\":11354:11357  key */\n      dup5\n        /* \"source/BinanceBABT/contracts/utils/EnumerableMap.sol\":11360:11372  errorMessage */\n      dup5\n        /* \"source/BinanceBABT/contracts/utils/EnumerableMap.sol\":11330:11333  get */\n      tag_334\n        /* \"source/BinanceBABT/contracts/utils/EnumerableMap.sol\":11330:11373  get(map._inner, bytes32(key), errorMessage) */\n      jump\t// in\n    tag_333:\n        /* \"source/BinanceBABT/contracts/utils/EnumerableMap.sol\":11322:11374  uint256(get(map._inner, bytes32(key), errorMessage)) */\n      swap5\n        /* \"source/BinanceBABT/contracts/utils/EnumerableMap.sol\":11143:11383  function get(... */\n      swap4\n      pop\n      pop\n      pop\n      pop\n      jump\t// out\n        /* \"source/BinanceBABT/contracts/utils/EnumerableMap.sol\":11708:11920  function set(... */\n    tag_227:\n        /* \"source/BinanceBABT/contracts/utils/EnumerableMap.sol\":11827:11831  bool */\n      0x00\n        /* \"source/BinanceBABT/contracts/utils/EnumerableMap.sol\":11850:11913  set(map._inner, bytes32(uint256(uint160(key))), bytes32(value)) */\n      tag_333\n        /* \"source/BinanceBABT/contracts/utils/EnumerableMap.sol\":11854:11857  map */\n      dup5\n      sub(shl(0xa0, 0x01), 0x01)\n        /* \"source/BinanceBABT/contracts/utils/EnumerableMap.sol\":11874:11895  uint256(uint160(key)) */\n      dup6\n      and\n        /* \"source/BinanceBABT/contracts/utils/EnumerableMap.sol\":11906:11911  value */\n      dup5\n        /* \"source/BinanceBABT/contracts/utils/EnumerableMap.sol\":11850:11853  set */\n      tag_339\n        /* \"source/BinanceBABT/contracts/utils/EnumerableMap.sol\":11850:11913  set(map._inner, bytes32(uint256(uint160(key))), bytes32(value)) */\n      jump\t// in\n        /* \"source/BinanceBABT/contracts/utils/EnumerableMap.sol\":8616:8828  function set(... */\n    tag_229:\n        /* \"source/BinanceBABT/contracts/utils/EnumerableMap.sol\":8735:8739  bool */\n      0x00\n        /* \"source/BinanceBABT/contracts/utils/EnumerableMap.sol\":8758:8821  set(map._inner, bytes32(key), bytes32(uint256(uint160(value)))) */\n      tag_333\n        /* \"source/BinanceBABT/contracts/utils/EnumerableMap.sol\":8762:8765  map */\n      dup5\n        /* \"source/BinanceBABT/contracts/utils/EnumerableMap.sol\":8782:8785  key */\n      dup5\n      sub(shl(0xa0, 0x01), 0x01)\n        /* \"source/BinanceBABT/contracts/utils/EnumerableMap.sol\":8796:8819  uint256(uint160(value)) */\n      dup6\n      and\n        /* \"source/BinanceBABT/contracts/utils/EnumerableMap.sol\":8758:8761  set */\n      tag_339\n        /* \"source/BinanceBABT/contracts/utils/EnumerableMap.sol\":8758:8821  set(map._inner, bytes32(key), bytes32(uint256(uint160(value)))) */\n      jump\t// in\n        /* \"source/BinanceBABT/contracts/utils/EnumerableMap.sol\":13395:13633  function tryGet(AddressToUintMap storage map, address key) internal view returns (bool, uint256) {... */\n    tag_235:\n        /* \"source/BinanceBABT/contracts/utils/EnumerableMap.sol\":13477:13481  bool */\n      0x00\n      dup1\n      dup1\n      dup1\n        /* \"source/BinanceBABT/contracts/utils/EnumerableMap.sol\":13534:13584  tryGet(map._inner, bytes32(uint256(uint160(key)))) */\n      tag_343\n        /* \"source/BinanceBABT/contracts/utils/EnumerableMap.sol\":13541:13544  map */\n      dup7\n      sub(shl(0xa0, 0x01), 0x01)\n        /* \"source/BinanceBABT/contracts/utils/EnumerableMap.sol\":13561:13582  uint256(uint160(key)) */\n      dup8\n      and\n        /* \"source/BinanceBABT/contracts/utils/EnumerableMap.sol\":13534:13540  tryGet */\n      tag_344\n        /* \"source/BinanceBABT/contracts/utils/EnumerableMap.sol\":13534:13584  tryGet(map._inner, bytes32(uint256(uint160(key)))) */\n      jump\t// in\n    tag_343:\n        /* \"source/BinanceBABT/contracts/utils/EnumerableMap.sol\":13502:13584  (bool success, bytes32 value) = tryGet(map._inner, bytes32(uint256(uint160(key)))) */\n      swap1\n      swap5\n      pop\n      swap3\n      pop\n      pop\n      pop\n        /* \"source/BinanceBABT/contracts/utils/EnumerableMap.sol\":13395:13633  function tryGet(AddressToUintMap storage map, address key) internal view returns (bool, uint256) {... */\n    tag_342:\n      swap3\n      pop\n      swap3\n      swap1\n      pop\n      jump\t// out\n        /* \"source/BinanceBABT/contracts/utils/EnumerableMap.sol\":14233:14473  function get(... */\n    tag_254:\n        /* \"source/BinanceBABT/contracts/utils/EnumerableMap.sol\":14370:14377  uint256 */\n      0x00\n        /* \"source/BinanceBABT/contracts/utils/EnumerableMap.sol\":14404:14465  get(map._inner, bytes32(uint256(uint160(key))), errorMessage) */\n      tag_333\n        /* \"source/BinanceBABT/contracts/utils/EnumerableMap.sol\":14408:14411  map */\n      dup5\n      sub(shl(0xa0, 0x01), 0x01)\n        /* \"source/BinanceBABT/contracts/utils/EnumerableMap.sol\":14428:14449  uint256(uint160(key)) */\n      dup6\n      and\n        /* \"source/BinanceBABT/contracts/utils/EnumerableMap.sol\":14452:14464  errorMessage */\n      dup5\n        /* \"source/BinanceBABT/contracts/utils/EnumerableMap.sol\":14404:14407  get */\n      tag_334\n        /* \"source/BinanceBABT/contracts/utils/EnumerableMap.sol\":14404:14465  get(map._inner, bytes32(uint256(uint160(key))), errorMessage) */\n      jump\t// in\n        /* \"source/BinanceBABT/contracts/utils/Strings.sol\":392:1095  function toString(uint256 value) internal pure returns (string memory) {... */\n    tag_279:\n        /* \"source/BinanceBABT/contracts/utils/Strings.sol\":448:461  string memory */\n      0x60\n        /* \"source/BinanceBABT/contracts/utils/Strings.sol\":665:675  value == 0 */\n      dup2\n        /* \"source/BinanceBABT/contracts/utils/Strings.sol\":661:712  if (value == 0) {... */\n      tag_348\n      jumpi\n      pop\n      pop\n        /* \"source/BinanceBABT/contracts/utils/Strings.sol\":691:701  return \"0\" */\n      0x40\n      dup1\n      mload\n      dup1\n      dup3\n      add\n      swap1\n      swap2\n      mstore\n      0x01\n      dup2\n      mstore\n      shl(0xfc, 0x03)\n      0x20\n      dup3\n      add\n      mstore\n      swap1\n        /* \"source/BinanceBABT/contracts/utils/Strings.sol\":392:1095  function toString(uint256 value) internal pure returns (string memory) {... */\n      jump\t// out\n        /* \"source/BinanceBABT/contracts/utils/Strings.sol\":661:712  if (value == 0) {... */\n    tag_348:\n        /* \"source/BinanceBABT/contracts/utils/Strings.sol\":736:741  value */\n      dup2\n        /* \"source/BinanceBABT/contracts/utils/Strings.sol\":721:733  uint256 temp */\n      0x00\n        /* \"source/BinanceBABT/contracts/utils/Strings.sol\":775:850  while (temp != 0) {... */\n    tag_349:\n        /* \"source/BinanceBABT/contracts/utils/Strings.sol\":782:791  temp != 0 */\n      dup2\n      iszero\n        /* \"source/BinanceBABT/contracts/utils/Strings.sol\":775:850  while (temp != 0) {... */\n      tag_350\n      jumpi\n        /* \"source/BinanceBABT/contracts/utils/Strings.sol\":807:815  digits++ */\n      dup1\n      tag_351\n      dup2\n      tag_352\n      jump\t// in\n    tag_351:\n      swap2\n      pop\n        /* \"source/BinanceBABT/contracts/utils/Strings.sol\":829:839  temp /= 10 */\n      tag_353\n      swap1\n      pop\n        /* \"source/BinanceBABT/contracts/utils/Strings.sol\":837:839  10 */\n      0x0a\n        /* \"source/BinanceBABT/contracts/utils/Strings.sol\":829:839  temp /= 10 */\n      dup4\n      tag_354\n      jump\t// in\n    tag_353:\n      swap2\n      pop\n        /* \"source/BinanceBABT/contracts/utils/Strings.sol\":775:850  while (temp != 0) {... */\n      jump(tag_349)\n    tag_350:\n        /* \"source/BinanceBABT/contracts/utils/Strings.sol\":859:878  bytes memory buffer */\n      0x00\n        /* \"source/BinanceBABT/contracts/utils/Strings.sol\":891:897  digits */\n      dup2\n        /* \"source/BinanceBABT/contracts/utils/Strings.sol\":881:898  new bytes(digits) */\n      0xffffffffffffffff\n      dup2\n      gt\n      iszero\n      tag_356\n      jumpi\n      tag_356\n      tag_357\n      jump\t// in\n    tag_356:\n      mload(0x40)\n      swap1\n      dup1\n      dup3\n      mstore\n      dup1\n      0x1f\n      add\n      not(0x1f)\n      and\n      0x20\n      add\n      dup3\n      add\n      0x40\n      mstore\n      dup1\n      iszero\n      tag_358\n      jumpi\n      0x20\n      dup3\n      add\n      dup2\n      dup1\n      calldatasize\n      dup4\n      calldatacopy\n      add\n      swap1\n      pop\n    tag_358:\n      pop\n        /* \"source/BinanceBABT/contracts/utils/Strings.sol\":859:898  bytes memory buffer = new bytes(digits) */\n      swap1\n      pop\n        /* \"source/BinanceBABT/contracts/utils/Strings.sol\":908:1058  while (value != 0) {... */\n    tag_359:\n        /* \"source/BinanceBABT/contracts/utils/Strings.sol\":915:925  value != 0 */\n      dup5\n      iszero\n        /* \"source/BinanceBABT/contracts/utils/Strings.sol\":908:1058  while (value != 0) {... */\n      tag_333\n      jumpi\n        /* \"source/BinanceBABT/contracts/utils/Strings.sol\":941:952  digits -= 1 */\n      tag_361\n        /* \"source/BinanceBABT/contracts/utils/Strings.sol\":951:952  1 */\n      0x01\n        /* \"source/BinanceBABT/contracts/utils/Strings.sol\":941:952  digits -= 1 */\n      dup4\n      tag_362\n      jump\t// in\n    tag_361:\n      swap2\n      pop\n        /* \"source/BinanceBABT/contracts/utils/Strings.sol\":1009:1019  value % 10 */\n      tag_363\n        /* \"source/BinanceBABT/contracts/utils/Strings.sol\":1017:1019  10 */\n      0x0a\n        /* \"source/BinanceBABT/contracts/utils/Strings.sol\":1009:1014  value */\n      dup7\n        /* \"source/BinanceBABT/contracts/utils/Strings.sol\":1009:1019  value % 10 */\n      tag_364\n      jump\t// in\n    tag_363:\n        /* \"source/BinanceBABT/contracts/utils/Strings.sol\":996:1020  48 + uint256(value % 10) */\n      tag_365\n      swap1\n        /* \"source/BinanceBABT/contracts/utils/Strings.sol\":996:998  48 */\n      0x30\n        /* \"source/BinanceBABT/contracts/utils/Strings.sol\":996:1020  48 + uint256(value % 10) */\n      tag_366\n      jump\t// in\n    tag_365:\n        /* \"source/BinanceBABT/contracts/utils/Strings.sol\":983:1022  bytes1(uint8(48 + uint256(value % 10))) */\n      0xf8\n      shl\n        /* \"source/BinanceBABT/contracts/utils/Strings.sol\":966:972  buffer */\n      dup2\n        /* \"source/BinanceBABT/contracts/utils/Strings.sol\":973:979  digits */\n      dup4\n        /* \"source/BinanceBABT/contracts/utils/Strings.sol\":966:980  buffer[digits] */\n      dup2\n      mload\n      dup2\n      lt\n      tag_368\n      jumpi\n      tag_368\n      tag_140\n      jump\t// in\n    tag_368:\n      0x20\n      add\n      add\n        /* \"source/BinanceBABT/contracts/utils/Strings.sol\":966:1022  buffer[digits] = bytes1(uint8(48 + uint256(value % 10))) */\n      swap1\n      not(sub(shl(0xf8, 0x01), 0x01))\n      and\n      swap1\n      dup2\n      0x00\n      byte\n      swap1\n      mstore8\n      pop\n        /* \"source/BinanceBABT/contracts/utils/Strings.sol\":1036:1047  value /= 10 */\n      tag_369\n        /* \"source/BinanceBABT/contracts/utils/Strings.sol\":1045:1047  10 */\n      0x0a\n        /* \"source/BinanceBABT/contracts/utils/Strings.sol\":1036:1047  value /= 10 */\n      dup7\n      tag_354\n      jump\t// in\n    tag_369:\n      swap5\n      pop\n        /* \"source/BinanceBABT/contracts/utils/Strings.sol\":908:1058  while (value != 0) {... */\n      jump(tag_359)\n        /* \"source/BinanceBABT/contracts/utils/EnumerableMap.sol\":3054:3194  function contains(Bytes32ToBytes32Map storage map, bytes32 key) internal view returns (bool) {... */\n    tag_304:\n        /* \"source/BinanceBABT/contracts/utils/EnumerableMap.sol\":3141:3145  bool */\n      0x00\n        /* \"source/BinanceBABT/contracts/utils/EnumerableMap.sol\":3164:3187  map._keys.contains(key) */\n      tag_303\n        /* \"source/BinanceBABT/contracts/utils/EnumerableMap.sol\":3164:3167  map */\n      dup4\n        /* \"source/BinanceBABT/contracts/utils/EnumerableMap.sol\":3183:3186  key */\n      dup4\n        /* \"source/BinanceBABT/contracts/utils/EnumerableMap.sol\":3164:3182  map._keys.contains */\n      tag_372\n        /* \"source/BinanceBABT/contracts/utils/EnumerableMap.sol\":3164:3187  map._keys.contains(key) */\n      jump\t// in\n        /* \"source/BinanceBABT/contracts/utils/EnumerableMap.sol\":4543:4790  function get(Bytes32ToBytes32Map storage map, bytes32 key) internal view returns (bytes32) {... */\n    tag_307:\n        /* \"source/BinanceBABT/contracts/utils/EnumerableMap.sol\":4625:4632  bytes32 */\n      0x00\n        /* \"source/BinanceBABT/contracts/utils/EnumerableMap.sol\":4660:4676  map._values[key] */\n      dup2\n      dup2\n      mstore\n        /* \"source/BinanceBABT/contracts/utils/EnumerableMap.sol\":4660:4671  map._values */\n      0x02\n      dup4\n      add\n        /* \"source/BinanceBABT/contracts/utils/EnumerableMap.sol\":4660:4676  map._values[key] */\n      0x20\n      mstore\n      0x40\n      dup2\n      keccak256\n      sload\n        /* \"source/BinanceBABT/contracts/utils/EnumerableMap.sol\":4694:4704  value != 0 */\n      dup1\n      iszero\n      iszero\n      dup1\n        /* \"source/BinanceBABT/contracts/utils/EnumerableMap.sol\":4694:4726  value != 0 || contains(map, key) */\n      tag_375\n      jumpi\n      pop\n        /* \"source/BinanceBABT/contracts/utils/EnumerableMap.sol\":4708:4726  contains(map, key) */\n      tag_375\n        /* \"source/BinanceBABT/contracts/utils/EnumerableMap.sol\":4717:4720  map */\n      dup5\n        /* \"source/BinanceBABT/contracts/utils/EnumerableMap.sol\":4722:4725  key */\n      dup5\n        /* \"source/BinanceBABT/contracts/utils/EnumerableMap.sol\":4708:4716  contains */\n      tag_304\n        /* \"source/BinanceBABT/contracts/utils/EnumerableMap.sol\":4708:4726  contains(map, key) */\n      jump\t// in\n    tag_375:\n        /* \"source/BinanceBABT/contracts/utils/EnumerableMap.sol\":4686:4761  require(value != 0 || contains(map, key), \"EnumerableMap: nonexistent key\") */\n      tag_303\n      jumpi\n      mload(0x40)\n      shl(0xe5, 0x461bcd)\n      dup2\n      mstore\n        /* \"#utility.yul\":10864:10866   */\n      0x20\n        /* \"source/BinanceBABT/contracts/utils/EnumerableMap.sol\":4686:4761  require(value != 0 || contains(map, key), \"EnumerableMap: nonexistent key\") */\n      0x04\n      dup3\n      add\n        /* \"#utility.yul\":10846:10867   */\n      mstore\n        /* \"#utility.yul\":10903:10905   */\n      0x1e\n        /* \"#utility.yul\":10883:10901   */\n      0x24\n      dup3\n      add\n        /* \"#utility.yul\":10876:10906   */\n      mstore\n        /* \"#utility.yul\":10942:10974   */\n      0x456e756d657261626c654d61703a206e6f6e6578697374656e74206b65790000\n        /* \"#utility.yul\":10922:10940   */\n      0x44\n      dup3\n      add\n        /* \"#utility.yul\":10915:10975   */\n      mstore\n        /* \"#utility.yul\":10992:11010   */\n      0x64\n      add\n        /* \"source/BinanceBABT/contracts/utils/EnumerableMap.sol\":4686:4761  require(value != 0 || contains(map, key), \"EnumerableMap: nonexistent key\") */\n      tag_130\n        /* \"#utility.yul\":10662:11016   */\n      jump\n        /* \"source/BinanceBABT/contracts/utils/EnumerableMap.sol\":2811:2975  function remove(Bytes32ToBytes32Map storage map, bytes32 key) internal returns (bool) {... */\n    tag_310:\n        /* \"source/BinanceBABT/contracts/utils/EnumerableMap.sol\":2891:2895  bool */\n      0x00\n        /* \"source/BinanceBABT/contracts/utils/EnumerableMap.sol\":2914:2930  map._values[key] */\n      dup2\n      dup2\n      mstore\n        /* \"source/BinanceBABT/contracts/utils/EnumerableMap.sol\":2914:2925  map._values */\n      0x02\n      dup4\n      add\n        /* \"source/BinanceBABT/contracts/utils/EnumerableMap.sol\":2914:2930  map._values[key] */\n      0x20\n      mstore\n      0x40\n      dup2\n      keccak256\n        /* \"source/BinanceBABT/contracts/utils/EnumerableMap.sol\":2907:2930  delete map._values[key] */\n      dup2\n      swap1\n      sstore\n        /* \"source/BinanceBABT/contracts/utils/EnumerableMap.sol\":2947:2968  map._keys.remove(key) */\n      tag_303\n        /* \"source/BinanceBABT/contracts/utils/EnumerableMap.sol\":2914:2917  map */\n      dup4\n        /* \"source/BinanceBABT/contracts/utils/EnumerableMap.sol\":2926:2929  key */\n      dup4\n        /* \"source/BinanceBABT/contracts/utils/EnumerableMap.sol\":2947:2963  map._keys.remove */\n      tag_381\n        /* \"source/BinanceBABT/contracts/utils/EnumerableMap.sol\":2947:2968  map._keys.remove(key) */\n      jump\t// in\n        /* \"source/BinanceBABT/contracts/utils/EnumerableMap.sol\":3284:3407  function length(Bytes32ToBytes32Map storage map) internal view returns (uint256) {... */\n    tag_319:\n        /* \"source/BinanceBABT/contracts/utils/EnumerableMap.sol\":3356:3363  uint256 */\n      0x00\n        /* \"source/BinanceBABT/contracts/utils/EnumerableMap.sol\":3382:3400  map._keys.length() */\n      tag_157\n        /* \"source/BinanceBABT/contracts/utils/EnumerableMap.sol\":3382:3385  map */\n      dup3\n        /* \"source/BinanceBABT/contracts/utils/EnumerableMap.sol\":3382:3398  map._keys.length */\n      tag_385\n        /* \"source/BinanceBABT/contracts/utils/EnumerableMap.sol\":3382:3400  map._keys.length() */\n      jump\t// in\n        /* \"source/BinanceBABT/contracts/access/AccessControl.sol\":3714:4193  function _checkRole(bytes32 role, address account) internal view virtual {... */\n    tag_323:\n        /* \"source/BinanceBABT/contracts/access/AccessControl.sol\":3802:3824  hasRole(role, account) */\n      tag_387\n        /* \"source/BinanceBABT/contracts/access/AccessControl.sol\":3810:3814  role */\n      dup3\n        /* \"source/BinanceBABT/contracts/access/AccessControl.sol\":3816:3823  account */\n      dup3\n        /* \"source/BinanceBABT/contracts/access/AccessControl.sol\":3802:3809  hasRole */\n      tag_98\n        /* \"source/BinanceBABT/contracts/access/AccessControl.sol\":3802:3824  hasRole(role, account) */\n      jump\t// in\n    tag_387:\n        /* \"source/BinanceBABT/contracts/access/AccessControl.sol\":3797:4187  if (!hasRole(role, account)) {... */\n      tag_191\n      jumpi\n        /* \"source/BinanceBABT/contracts/access/AccessControl.sol\":3985:4013  Strings.toHexString(account) */\n      tag_389\n        /* \"source/BinanceBABT/contracts/access/AccessControl.sol\":4005:4012  account */\n      dup2\n        /* \"source/BinanceBABT/contracts/access/AccessControl.sol\":3985:4004  Strings.toHexString */\n      tag_390\n        /* \"source/BinanceBABT/contracts/access/AccessControl.sol\":3985:4013  Strings.toHexString(account) */\n      jump\t// in\n    tag_389:\n        /* \"source/BinanceBABT/contracts/access/AccessControl.sol\":4084:4122  Strings.toHexString(uint256(role), 32) */\n      tag_391\n        /* \"source/BinanceBABT/contracts/access/AccessControl.sol\":4112:4116  role */\n      dup4\n        /* \"source/BinanceBABT/contracts/access/AccessControl.sol\":4119:4121  32 */\n      0x20\n        /* \"source/BinanceBABT/contracts/access/AccessControl.sol\":4084:4103  Strings.toHexString */\n      tag_392\n        /* \"source/BinanceBABT/contracts/access/AccessControl.sol\":4084:4122  Strings.toHexString(uint256(role), 32) */\n      jump\t// in\n    tag_391:\n        /* \"source/BinanceBABT/contracts/access/AccessControl.sol\":3892:4144  abi.encodePacked(... */\n      add(0x20, mload(0x40))\n      tag_393\n      swap3\n      swap2\n      swap1\n      tag_394\n      jump\t// in\n    tag_393:\n      0x40\n      dup1\n      mload\n      not(0x1f)\n      dup2\n      dup5\n      sub\n      add\n      dup2\n      mstore\n      swap1\n      dup3\n      swap1\n      mstore\n      shl(0xe5, 0x461bcd)\n        /* \"source/BinanceBABT/contracts/access/AccessControl.sol\":3840:4176  revert(... */\n      dup3\n      mstore\n      tag_130\n      swap2\n      0x04\n      add\n      tag_43\n      jump\t// in\n        /* \"source/BinanceBABT/contracts/utils/EnumerableMap.sol\":5072:5357  function get(... */\n    tag_334:\n        /* \"source/BinanceBABT/contracts/utils/EnumerableMap.sol\":5212:5219  bytes32 */\n      0x00\n        /* \"source/BinanceBABT/contracts/utils/EnumerableMap.sol\":5247:5263  map._values[key] */\n      dup3\n      dup2\n      mstore\n        /* \"source/BinanceBABT/contracts/utils/EnumerableMap.sol\":5247:5258  map._values */\n      0x02\n      dup5\n      add\n        /* \"source/BinanceBABT/contracts/utils/EnumerableMap.sol\":5247:5263  map._values[key] */\n      0x20\n      mstore\n      0x40\n      dup2\n      keccak256\n      sload\n        /* \"source/BinanceBABT/contracts/utils/EnumerableMap.sol\":5281:5291  value != 0 */\n      dup1\n      iszero\n      iszero\n      dup1\n        /* \"source/BinanceBABT/contracts/utils/EnumerableMap.sol\":5281:5313  value != 0 || contains(map, key) */\n      tag_398\n      jumpi\n      pop\n        /* \"source/BinanceBABT/contracts/utils/EnumerableMap.sol\":5295:5313  contains(map, key) */\n      tag_398\n        /* \"source/BinanceBABT/contracts/utils/EnumerableMap.sol\":5304:5307  map */\n      dup6\n        /* \"source/BinanceBABT/contracts/utils/EnumerableMap.sol\":5309:5312  key */\n      dup6\n        /* \"source/BinanceBABT/contracts/utils/EnumerableMap.sol\":5295:5303  contains */\n      tag_304\n        /* \"source/BinanceBABT/contracts/utils/EnumerableMap.sol\":5295:5313  contains(map, key) */\n      jump\t// in\n    tag_398:\n        /* \"source/BinanceBABT/contracts/utils/EnumerableMap.sol\":5315:5327  errorMessage */\n      dup4\n        /* \"source/BinanceBABT/contracts/utils/EnumerableMap.sol\":5273:5328  require(value != 0 || contains(map, key), errorMessage) */\n      swap1\n      tag_399\n      jumpi\n      mload(0x40)\n      shl(0xe5, 0x461bcd)\n      dup2\n      mstore\n      0x04\n      add\n      tag_130\n      swap2\n      swap1\n      tag_43\n      jump\t// in\n    tag_399:\n      pop\n        /* \"source/BinanceBABT/contracts/utils/EnumerableMap.sol\":5345:5350  value */\n      swap5\n        /* \"source/BinanceBABT/contracts/utils/EnumerableMap.sol\":5072:5357  function get(... */\n      swap4\n      pop\n      pop\n      pop\n      pop\n      jump\t// out\n        /* \"source/BinanceBABT/contracts/utils/EnumerableMap.sol\":2439:2643  function set(... */\n    tag_339:\n        /* \"source/BinanceBABT/contracts/utils/EnumerableMap.sol\":2561:2565  bool */\n      0x00\n        /* \"source/BinanceBABT/contracts/utils/EnumerableMap.sol\":2577:2593  map._values[key] */\n      dup3\n      dup2\n      mstore\n        /* \"source/BinanceBABT/contracts/utils/EnumerableMap.sol\":2577:2588  map._values */\n      0x02\n      dup5\n      add\n        /* \"source/BinanceBABT/contracts/utils/EnumerableMap.sol\":2577:2593  map._values[key] */\n      0x20\n      mstore\n      0x40\n      dup2\n      keccak256\n        /* \"source/BinanceBABT/contracts/utils/EnumerableMap.sol\":2577:2601  map._values[key] = value */\n      dup3\n      swap1\n      sstore\n        /* \"source/BinanceBABT/contracts/utils/EnumerableMap.sol\":2618:2636  map._keys.add(key) */\n      tag_333\n        /* \"source/BinanceBABT/contracts/utils/EnumerableMap.sol\":2577:2580  map */\n      dup5\n        /* \"source/BinanceBABT/contracts/utils/EnumerableMap.sol\":2589:2592  key */\n      dup5\n        /* \"source/BinanceBABT/contracts/utils/EnumerableMap.sol\":2618:2631  map._keys.add */\n      tag_403\n        /* \"source/BinanceBABT/contracts/utils/EnumerableMap.sol\":2618:2636  map._keys.add(key) */\n      jump\t// in\n        /* \"source/BinanceBABT/contracts/utils/EnumerableMap.sol\":4093:4391  function tryGet(Bytes32ToBytes32Map storage map, bytes32 key) internal view returns (bool, bytes32) {... */\n    tag_344:\n        /* \"source/BinanceBABT/contracts/utils/EnumerableMap.sol\":4178:4182  bool */\n      0x00\n        /* \"source/BinanceBABT/contracts/utils/EnumerableMap.sol\":4219:4235  map._values[key] */\n      dup2\n      dup2\n      mstore\n        /* \"source/BinanceBABT/contracts/utils/EnumerableMap.sol\":4219:4230  map._values */\n      0x02\n      dup4\n      add\n        /* \"source/BinanceBABT/contracts/utils/EnumerableMap.sol\":4219:4235  map._values[key] */\n      0x20\n      mstore\n      0x40\n      dup2\n      keccak256\n      sload\n        /* \"source/BinanceBABT/contracts/utils/EnumerableMap.sol\":4178:4182  bool */\n      dup2\n      swap1\n        /* \"source/BinanceBABT/contracts/utils/EnumerableMap.sol\":4249:4268  value == bytes32(0) */\n      dup1\n        /* \"source/BinanceBABT/contracts/utils/EnumerableMap.sol\":4245:4385  if (value == bytes32(0)) {... */\n      tag_405\n      jumpi\n        /* \"source/BinanceBABT/contracts/utils/EnumerableMap.sol\":4292:4310  contains(map, key) */\n      tag_406\n        /* \"source/BinanceBABT/contracts/utils/EnumerableMap.sol\":4301:4304  map */\n      dup6\n        /* \"source/BinanceBABT/contracts/utils/EnumerableMap.sol\":4306:4309  key */\n      dup6\n        /* \"source/BinanceBABT/contracts/utils/EnumerableMap.sol\":4292:4300  contains */\n      tag_304\n        /* \"source/BinanceBABT/contracts/utils/EnumerableMap.sol\":4292:4310  contains(map, key) */\n      jump\t// in\n    tag_406:\n        /* \"source/BinanceBABT/contracts/utils/EnumerableMap.sol\":4284:4323  return (contains(map, key), bytes32(0)) */\n      swap3\n      pop\n        /* \"source/BinanceBABT/contracts/utils/EnumerableMap.sol\":4320:4321  0 */\n      0x00\n      swap2\n      pop\n        /* \"source/BinanceBABT/contracts/utils/EnumerableMap.sol\":4284:4323  return (contains(map, key), bytes32(0)) */\n      tag_342\n      swap1\n      pop\n      jump\n        /* \"source/BinanceBABT/contracts/utils/EnumerableMap.sol\":4245:4385  if (value == bytes32(0)) {... */\n    tag_405:\n        /* \"source/BinanceBABT/contracts/utils/EnumerableMap.sol\":4362:4366  true */\n      0x01\n      swap3\n      pop\n        /* \"source/BinanceBABT/contracts/utils/EnumerableMap.sol\":4368:4373  value */\n      swap1\n      pop\n        /* \"source/BinanceBABT/contracts/utils/EnumerableMap.sol\":4354:4374  return (true, value) */\n      jump(tag_342)\n        /* \"source/BinanceBABT/contracts/utils/EnumerableSet.sol\":6319:6457  function contains(Bytes32Set storage set, bytes32 value) internal view returns (bool) {... */\n    tag_372:\n        /* \"source/BinanceBABT/contracts/utils/EnumerableSet.sol\":6399:6403  bool */\n      0x00\n        /* \"source/BinanceBABT/contracts/utils/EnumerableSet.sol\":4250:4269  set._indexes[value] */\n      dup2\n      dup2\n      mstore\n        /* \"source/BinanceBABT/contracts/utils/EnumerableSet.sol\":4250:4262  set._indexes */\n      0x01\n      dup4\n      add\n        /* \"source/BinanceBABT/contracts/utils/EnumerableSet.sol\":4250:4269  set._indexes[value] */\n      0x20\n      mstore\n      0x40\n      dup2\n      keccak256\n      sload\n        /* \"source/BinanceBABT/contracts/utils/EnumerableSet.sol\":4250:4274  set._indexes[value] != 0 */\n      iszero\n      iszero\n        /* \"source/BinanceBABT/contracts/utils/EnumerableSet.sol\":6422:6450  _contains(set._inner, value) */\n      tag_303\n        /* \"source/BinanceBABT/contracts/utils/EnumerableSet.sol\":4154:4281  function _contains(Set storage set, bytes32 value) private view returns (bool) {... */\n      jump\n        /* \"source/BinanceBABT/contracts/utils/EnumerableSet.sol\":6109:6238  function remove(Bytes32Set storage set, bytes32 value) internal returns (bool) {... */\n    tag_381:\n        /* \"source/BinanceBABT/contracts/utils/EnumerableSet.sol\":6182:6186  bool */\n      0x00\n        /* \"source/BinanceBABT/contracts/utils/EnumerableSet.sol\":6205:6231  _remove(set._inner, value) */\n      tag_303\n        /* \"source/BinanceBABT/contracts/utils/EnumerableSet.sol\":6213:6216  set */\n      dup4\n        /* \"source/BinanceBABT/contracts/utils/EnumerableSet.sol\":6225:6230  value */\n      dup4\n        /* \"source/BinanceBABT/contracts/utils/EnumerableSet.sol\":6205:6212  _remove */\n      tag_413\n        /* \"source/BinanceBABT/contracts/utils/EnumerableSet.sol\":6205:6231  _remove(set._inner, value) */\n      jump\t// in\n        /* \"source/BinanceBABT/contracts/utils/EnumerableSet.sol\":6538:6653  function length(Bytes32Set storage set) internal view returns (uint256) {... */\n    tag_385:\n        /* \"source/BinanceBABT/contracts/utils/EnumerableSet.sol\":6601:6608  uint256 */\n      0x00\n        /* \"source/BinanceBABT/contracts/utils/EnumerableSet.sol\":6627:6646  _length(set._inner) */\n      tag_157\n        /* \"source/BinanceBABT/contracts/utils/EnumerableSet.sol\":6635:6638  set */\n      dup3\n        /* \"source/BinanceBABT/contracts/utils/EnumerableSet.sol\":4444:4462  set._values.length */\n      sload\n      swap1\n        /* \"source/BinanceBABT/contracts/utils/EnumerableSet.sol\":4362:4469  function _length(Set storage set) private view returns (uint256) {... */\n      jump\n        /* \"source/BinanceBABT/contracts/utils/Strings.sol\":2245:2394  function toHexString(address addr) internal pure returns (string memory) {... */\n    tag_390:\n        /* \"source/BinanceBABT/contracts/utils/Strings.sol\":2303:2316  string memory */\n      0x60\n        /* \"source/BinanceBABT/contracts/utils/Strings.sol\":2335:2387  toHexString(uint256(uint160(addr)), _ADDRESS_LENGTH) */\n      tag_157\n      sub(shl(0xa0, 0x01), 0x01)\n        /* \"source/BinanceBABT/contracts/utils/Strings.sol\":2347:2369  uint256(uint160(addr)) */\n      dup4\n      and\n        /* \"source/BinanceBABT/contracts/utils/Strings.sol\":288:290  20 */\n      0x14\n        /* \"source/BinanceBABT/contracts/utils/Strings.sol\":1652:2093  function toHexString(uint256 value, uint256 length) internal pure returns (string memory) {... */\n    tag_392:\n        /* \"source/BinanceBABT/contracts/utils/Strings.sol\":1727:1740  string memory */\n      0x60\n        /* \"source/BinanceBABT/contracts/utils/Strings.sol\":1752:1771  bytes memory buffer */\n      0x00\n        /* \"source/BinanceBABT/contracts/utils/Strings.sol\":1784:1794  2 * length */\n      tag_420\n        /* \"source/BinanceBABT/contracts/utils/Strings.sol\":1788:1794  length */\n      dup4\n        /* \"source/BinanceBABT/contracts/utils/Strings.sol\":1784:1785  2 */\n      0x02\n        /* \"source/BinanceBABT/contracts/utils/Strings.sol\":1784:1794  2 * length */\n      tag_421\n      jump\t// in\n    tag_420:\n        /* \"source/BinanceBABT/contracts/utils/Strings.sol\":1784:1798  2 * length + 2 */\n      tag_422\n      swap1\n        /* \"source/BinanceBABT/contracts/utils/Strings.sol\":1797:1798  2 */\n      0x02\n        /* \"source/BinanceBABT/contracts/utils/Strings.sol\":1784:1798  2 * length + 2 */\n      tag_366\n      jump\t// in\n    tag_422:\n        /* \"source/BinanceBABT/contracts/utils/Strings.sol\":1774:1799  new bytes(2 * length + 2) */\n      0xffffffffffffffff\n      dup2\n      gt\n      iszero\n      tag_424\n      jumpi\n      tag_424\n      tag_357\n      jump\t// in\n    tag_424:\n      mload(0x40)\n      swap1\n      dup1\n      dup3\n      mstore\n      dup1\n      0x1f\n      add\n      not(0x1f)\n      and\n      0x20\n      add\n      dup3\n      add\n      0x40\n      mstore\n      dup1\n      iszero\n      tag_425\n      jumpi\n      0x20\n      dup3\n      add\n      dup2\n      dup1\n      calldatasize\n      dup4\n      calldatacopy\n      add\n      swap1\n      pop\n    tag_425:\n      pop\n        /* \"source/BinanceBABT/contracts/utils/Strings.sol\":1752:1799  bytes memory buffer = new bytes(2 * length + 2) */\n      swap1\n      pop\n      shl(0xfc, 0x03)\n        /* \"source/BinanceBABT/contracts/utils/Strings.sol\":1809:1815  buffer */\n      dup2\n        /* \"source/BinanceBABT/contracts/utils/Strings.sol\":1816:1817  0 */\n      0x00\n        /* \"source/BinanceBABT/contracts/utils/Strings.sol\":1809:1818  buffer[0] */\n      dup2\n      mload\n      dup2\n      lt\n      tag_427\n      jumpi\n      tag_427\n      tag_140\n      jump\t// in\n    tag_427:\n      0x20\n      add\n      add\n        /* \"source/BinanceBABT/contracts/utils/Strings.sol\":1809:1824  buffer[0] = \"0\" */\n      swap1\n      not(sub(shl(0xf8, 0x01), 0x01))\n      and\n      swap1\n      dup2\n      0x00\n      byte\n      swap1\n      mstore8\n      pop\n      shl(0xfb, 0x0f)\n        /* \"source/BinanceBABT/contracts/utils/Strings.sol\":1834:1840  buffer */\n      dup2\n        /* \"source/BinanceBABT/contracts/utils/Strings.sol\":1841:1842  1 */\n      0x01\n        /* \"source/BinanceBABT/contracts/utils/Strings.sol\":1834:1843  buffer[1] */\n      dup2\n      mload\n      dup2\n      lt\n      tag_429\n      jumpi\n      tag_429\n      tag_140\n      jump\t// in\n    tag_429:\n      0x20\n      add\n      add\n        /* \"source/BinanceBABT/contracts/utils/Strings.sol\":1834:1849  buffer[1] = \"x\" */\n      swap1\n      not(sub(shl(0xf8, 0x01), 0x01))\n      and\n      swap1\n      dup2\n      0x00\n      byte\n      swap1\n      mstore8\n      pop\n        /* \"source/BinanceBABT/contracts/utils/Strings.sol\":1864:1873  uint256 i */\n      0x00\n        /* \"source/BinanceBABT/contracts/utils/Strings.sol\":1876:1886  2 * length */\n      tag_433\n        /* \"source/BinanceBABT/contracts/utils/Strings.sol\":1880:1886  length */\n      dup5\n        /* \"source/BinanceBABT/contracts/utils/Strings.sol\":1876:1877  2 */\n      0x02\n        /* \"source/BinanceBABT/contracts/utils/Strings.sol\":1876:1886  2 * length */\n      tag_421\n      jump\t// in\n    tag_433:\n        /* \"source/BinanceBABT/contracts/utils/Strings.sol\":1876:1890  2 * length + 1 */\n      tag_434\n      swap1\n        /* \"source/BinanceBABT/contracts/utils/Strings.sol\":1889:1890  1 */\n      0x01\n        /* \"source/BinanceBABT/contracts/utils/Strings.sol\":1876:1890  2 * length + 1 */\n      tag_366\n      jump\t// in\n    tag_434:\n        /* \"source/BinanceBABT/contracts/utils/Strings.sol\":1864:1890  uint256 i = 2 * length + 1 */\n      swap1\n      pop\n        /* \"source/BinanceBABT/contracts/utils/Strings.sol\":1859:1991  for (uint256 i = 2 * length + 1; i > 1; --i) {... */\n    tag_430:\n        /* \"source/BinanceBABT/contracts/utils/Strings.sol\":1896:1897  1 */\n      0x01\n        /* \"source/BinanceBABT/contracts/utils/Strings.sol\":1892:1893  i */\n      dup2\n        /* \"source/BinanceBABT/contracts/utils/Strings.sol\":1892:1897  i > 1 */\n      gt\n        /* \"source/BinanceBABT/contracts/utils/Strings.sol\":1859:1991  for (uint256 i = 2 * length + 1; i > 1; --i) {... */\n      iszero\n      tag_431\n      jumpi\n      shl(0x81, 0x181899199a1a9b1b9c1cb0b131b232b3)\n        /* \"source/BinanceBABT/contracts/utils/Strings.sol\":1943:1948  value */\n      dup6\n        /* \"source/BinanceBABT/contracts/utils/Strings.sol\":1951:1954  0xf */\n      0x0f\n        /* \"source/BinanceBABT/contracts/utils/Strings.sol\":1943:1954  value & 0xf */\n      and\n        /* \"source/BinanceBABT/contracts/utils/Strings.sol\":1930:1955  _HEX_SYMBOLS[value & 0xf] */\n      0x10\n      dup2\n      lt\n      tag_436\n      jumpi\n      tag_436\n      tag_140\n      jump\t// in\n    tag_436:\n      byte\n      0xf8\n      shl\n        /* \"source/BinanceBABT/contracts/utils/Strings.sol\":1918:1924  buffer */\n      dup3\n        /* \"source/BinanceBABT/contracts/utils/Strings.sol\":1925:1926  i */\n      dup3\n        /* \"source/BinanceBABT/contracts/utils/Strings.sol\":1918:1927  buffer[i] */\n      dup2\n      mload\n      dup2\n      lt\n      tag_438\n      jumpi\n      tag_438\n      tag_140\n      jump\t// in\n    tag_438:\n      0x20\n      add\n      add\n        /* \"source/BinanceBABT/contracts/utils/Strings.sol\":1918:1955  buffer[i] = _HEX_SYMBOLS[value & 0xf] */\n      swap1\n      not(sub(shl(0xf8, 0x01), 0x01))\n      and\n      swap1\n      dup2\n      0x00\n      byte\n      swap1\n      mstore8\n      pop\n        /* \"source/BinanceBABT/contracts/utils/Strings.sol\":1979:1980  4 */\n      0x04\n        /* \"source/BinanceBABT/contracts/utils/Strings.sol\":1969:1980  value >>= 4 */\n      swap5\n      swap1\n      swap5\n      shr\n      swap4\n        /* \"source/BinanceBABT/contracts/utils/Strings.sol\":1899:1902  --i */\n      tag_439\n      dup2\n      tag_440\n      jump\t// in\n    tag_439:\n      swap1\n      pop\n        /* \"source/BinanceBABT/contracts/utils/Strings.sol\":1859:1991  for (uint256 i = 2 * length + 1; i > 1; --i) {... */\n      jump(tag_430)\n    tag_431:\n      pop\n        /* \"source/BinanceBABT/contracts/utils/Strings.sol\":2008:2018  value == 0 */\n      dup4\n      iszero\n        /* \"source/BinanceBABT/contracts/utils/Strings.sol\":2000:2055  require(value == 0, \"Strings: hex length insufficient\") */\n      tag_303\n      jumpi\n      mload(0x40)\n      shl(0xe5, 0x461bcd)\n      dup2\n      mstore\n        /* \"#utility.yul\":12328:12330   */\n      0x20\n        /* \"source/BinanceBABT/contracts/utils/Strings.sol\":2000:2055  require(value == 0, \"Strings: hex length insufficient\") */\n      0x04\n      dup3\n      add\n        /* \"#utility.yul\":12310:12331   */\n      dup2\n      swap1\n      mstore\n        /* \"#utility.yul\":12347:12365   */\n      0x24\n      dup3\n      add\n        /* \"#utility.yul\":12340:12370   */\n      mstore\n        /* \"#utility.yul\":12406:12440   */\n      0x537472696e67733a20686578206c656e67746820696e73756666696369656e74\n        /* \"#utility.yul\":12386:12404   */\n      0x44\n      dup3\n      add\n        /* \"#utility.yul\":12379:12441   */\n      mstore\n        /* \"#utility.yul\":12458:12476   */\n      0x64\n      add\n        /* \"source/BinanceBABT/contracts/utils/Strings.sol\":2000:2055  require(value == 0, \"Strings: hex length insufficient\") */\n      tag_130\n        /* \"#utility.yul\":12126:12482   */\n      jump\n        /* \"source/BinanceBABT/contracts/utils/EnumerableSet.sol\":5818:5941  function add(Bytes32Set storage set, bytes32 value) internal returns (bool) {... */\n    tag_403:\n        /* \"source/BinanceBABT/contracts/utils/EnumerableSet.sol\":5888:5892  bool */\n      0x00\n        /* \"source/BinanceBABT/contracts/utils/EnumerableSet.sol\":5911:5934  _add(set._inner, value) */\n      tag_303\n        /* \"source/BinanceBABT/contracts/utils/EnumerableSet.sol\":5916:5919  set */\n      dup4\n        /* \"source/BinanceBABT/contracts/utils/EnumerableSet.sol\":5928:5933  value */\n      dup4\n        /* \"source/BinanceBABT/contracts/utils/EnumerableSet.sol\":5911:5915  _add */\n      tag_446\n        /* \"source/BinanceBABT/contracts/utils/EnumerableSet.sol\":5911:5934  _add(set._inner, value) */\n      jump\t// in\n        /* \"source/BinanceBABT/contracts/utils/EnumerableSet.sol\":2685:4073  function _remove(Set storage set, bytes32 value) private returns (bool) {... */\n    tag_413:\n        /* \"source/BinanceBABT/contracts/utils/EnumerableSet.sol\":2751:2755  bool */\n      0x00\n        /* \"source/BinanceBABT/contracts/utils/EnumerableSet.sol\":2888:2907  set._indexes[value] */\n      dup2\n      dup2\n      mstore\n        /* \"source/BinanceBABT/contracts/utils/EnumerableSet.sol\":2888:2900  set._indexes */\n      0x01\n      dup4\n      add\n        /* \"source/BinanceBABT/contracts/utils/EnumerableSet.sol\":2888:2907  set._indexes[value] */\n      0x20\n      mstore\n      0x40\n      dup2\n      keccak256\n      sload\n        /* \"source/BinanceBABT/contracts/utils/EnumerableSet.sol\":2922:2937  valueIndex != 0 */\n      dup1\n      iszero\n        /* \"source/BinanceBABT/contracts/utils/EnumerableSet.sol\":2918:4067  if (valueIndex != 0) {... */\n      tag_449\n      jumpi\n        /* \"source/BinanceBABT/contracts/utils/EnumerableSet.sol\":3291:3312  uint256 toDeleteIndex */\n      0x00\n        /* \"source/BinanceBABT/contracts/utils/EnumerableSet.sol\":3315:3329  valueIndex - 1 */\n      tag_450\n        /* \"source/BinanceBABT/contracts/utils/EnumerableSet.sol\":3328:3329  1 */\n      0x01\n        /* \"source/BinanceBABT/contracts/utils/EnumerableSet.sol\":3315:3325  valueIndex */\n      dup4\n        /* \"source/BinanceBABT/contracts/utils/EnumerableSet.sol\":3315:3329  valueIndex - 1 */\n      tag_362\n      jump\t// in\n    tag_450:\n        /* \"source/BinanceBABT/contracts/utils/EnumerableSet.sol\":3363:3381  set._values.length */\n      dup6\n      sload\n        /* \"source/BinanceBABT/contracts/utils/EnumerableSet.sol\":3291:3329  uint256 toDeleteIndex = valueIndex - 1 */\n      swap1\n      swap2\n      pop\n        /* \"source/BinanceBABT/contracts/utils/EnumerableSet.sol\":3343:3360  uint256 lastIndex */\n      0x00\n      swap1\n        /* \"source/BinanceBABT/contracts/utils/EnumerableSet.sol\":3363:3385  set._values.length - 1 */\n      tag_451\n      swap1\n        /* \"source/BinanceBABT/contracts/utils/EnumerableSet.sol\":3384:3385  1 */\n      0x01\n      swap1\n        /* \"source/BinanceBABT/contracts/utils/EnumerableSet.sol\":3363:3385  set._values.length - 1 */\n      tag_362\n      jump\t// in\n    tag_451:\n        /* \"source/BinanceBABT/contracts/utils/EnumerableSet.sol\":3343:3385  uint256 lastIndex = set._values.length - 1 */\n      swap1\n      pop\n        /* \"source/BinanceBABT/contracts/utils/EnumerableSet.sol\":3417:3430  toDeleteIndex */\n      dup2\n        /* \"source/BinanceBABT/contracts/utils/EnumerableSet.sol\":3404:3413  lastIndex */\n      dup2\n        /* \"source/BinanceBABT/contracts/utils/EnumerableSet.sol\":3404:3430  lastIndex != toDeleteIndex */\n      eq\n        /* \"source/BinanceBABT/contracts/utils/EnumerableSet.sol\":3400:3798  if (lastIndex != toDeleteIndex) {... */\n      tag_452\n      jumpi\n        /* \"source/BinanceBABT/contracts/utils/EnumerableSet.sol\":3450:3467  bytes32 lastValue */\n      0x00\n        /* \"source/BinanceBABT/contracts/utils/EnumerableSet.sol\":3470:3473  set */\n      dup7\n        /* \"source/BinanceBABT/contracts/utils/EnumerableSet.sol\":3470:3481  set._values */\n      0x00\n      add\n        /* \"source/BinanceBABT/contracts/utils/EnumerableSet.sol\":3482:3491  lastIndex */\n      dup3\n        /* \"source/BinanceBABT/contracts/utils/EnumerableSet.sol\":3470:3492  set._values[lastIndex] */\n      dup2\n      sload\n      dup2\n      lt\n      tag_454\n      jumpi\n      tag_454\n      tag_140\n      jump\t// in\n    tag_454:\n      swap1\n      0x00\n      mstore\n      keccak256(0x00, 0x20)\n      add\n      sload\n        /* \"source/BinanceBABT/contracts/utils/EnumerableSet.sol\":3450:3492  bytes32 lastValue = set._values[lastIndex] */\n      swap1\n      pop\n        /* \"source/BinanceBABT/contracts/utils/EnumerableSet.sol\":3621:3630  lastValue */\n      dup1\n        /* \"source/BinanceBABT/contracts/utils/EnumerableSet.sol\":3592:3595  set */\n      dup8\n        /* \"source/BinanceBABT/contracts/utils/EnumerableSet.sol\":3592:3603  set._values */\n      0x00\n      add\n        /* \"source/BinanceBABT/contracts/utils/EnumerableSet.sol\":3604:3617  toDeleteIndex */\n      dup5\n        /* \"source/BinanceBABT/contracts/utils/EnumerableSet.sol\":3592:3618  set._values[toDeleteIndex] */\n      dup2\n      sload\n      dup2\n      lt\n      tag_457\n      jumpi\n      tag_457\n      tag_140\n      jump\t// in\n    tag_457:\n      0x00\n      swap2\n      dup3\n      mstore\n      0x20\n      dup1\n      dup4\n      keccak256\n      swap1\n      swap2\n      add\n        /* \"source/BinanceBABT/contracts/utils/EnumerableSet.sol\":3592:3630  set._values[toDeleteIndex] = lastValue */\n      swap3\n      swap1\n      swap3\n      sstore\n        /* \"source/BinanceBABT/contracts/utils/EnumerableSet.sol\":3704:3727  set._indexes[lastValue] */\n      swap2\n      dup3\n      mstore\n        /* \"source/BinanceBABT/contracts/utils/EnumerableSet.sol\":3704:3716  set._indexes */\n      0x01\n      dup9\n      add\n        /* \"source/BinanceBABT/contracts/utils/EnumerableSet.sol\":3704:3727  set._indexes[lastValue] */\n      swap1\n      mstore\n      0x40\n      swap1\n      keccak256\n        /* \"source/BinanceBABT/contracts/utils/EnumerableSet.sol\":3704:3740  set._indexes[lastValue] = valueIndex */\n      dup4\n      swap1\n      sstore\n        /* \"source/BinanceBABT/contracts/utils/EnumerableSet.sol\":3400:3798  if (lastIndex != toDeleteIndex) {... */\n    tag_452:\n        /* \"source/BinanceBABT/contracts/utils/EnumerableSet.sol\":3876:3893  set._values.pop() */\n      dup6\n      sload\n        /* \"source/BinanceBABT/contracts/utils/EnumerableSet.sol\":3876:3879  set */\n      dup7\n      swap1\n        /* \"source/BinanceBABT/contracts/utils/EnumerableSet.sol\":3876:3893  set._values.pop() */\n      dup1\n      tag_460\n      jumpi\n      tag_460\n      tag_461\n      jump\t// in\n    tag_460:\n      0x01\n      swap1\n      sub\n      dup2\n      dup2\n      swap1\n      0x00\n      mstore\n      keccak256(0x00, 0x20)\n      add\n      0x00\n      swap1\n      sstore\n      swap1\n      sstore\n        /* \"source/BinanceBABT/contracts/utils/EnumerableSet.sol\":3968:3971  set */\n      dup6\n        /* \"source/BinanceBABT/contracts/utils/EnumerableSet.sol\":3968:3980  set._indexes */\n      0x01\n      add\n        /* \"source/BinanceBABT/contracts/utils/EnumerableSet.sol\":3968:3987  set._indexes[value] */\n      0x00\n        /* \"source/BinanceBABT/contracts/utils/EnumerableSet.sol\":3981:3986  value */\n      dup7\n        /* \"source/BinanceBABT/contracts/utils/EnumerableSet.sol\":3968:3987  set._indexes[value] */\n      dup2\n      mstore\n      0x20\n      add\n      swap1\n      dup2\n      mstore\n      0x20\n      add\n      0x00\n      keccak256\n        /* \"source/BinanceBABT/contracts/utils/EnumerableSet.sol\":3961:3987  delete set._indexes[value] */\n      0x00\n      swap1\n      sstore\n        /* \"source/BinanceBABT/contracts/utils/EnumerableSet.sol\":4009:4013  true */\n      0x01\n        /* \"source/BinanceBABT/contracts/utils/EnumerableSet.sol\":4002:4013  return true */\n      swap4\n      pop\n      pop\n      pop\n      pop\n      jump(tag_157)\n        /* \"source/BinanceBABT/contracts/utils/EnumerableSet.sol\":2918:4067  if (valueIndex != 0) {... */\n    tag_449:\n        /* \"source/BinanceBABT/contracts/utils/EnumerableSet.sol\":4051:4056  false */\n      0x00\n        /* \"source/BinanceBABT/contracts/utils/EnumerableSet.sol\":4044:4056  return false */\n      swap2\n      pop\n      pop\n      jump(tag_157)\n        /* \"source/BinanceBABT/contracts/utils/EnumerableSet.sol\":2113:2517  function _add(Set storage set, bytes32 value) private returns (bool) {... */\n    tag_446:\n        /* \"source/BinanceBABT/contracts/utils/EnumerableSet.sol\":2176:2180  bool */\n      0x00\n        /* \"source/BinanceBABT/contracts/utils/EnumerableSet.sol\":4250:4269  set._indexes[value] */\n      dup2\n      dup2\n      mstore\n        /* \"source/BinanceBABT/contracts/utils/EnumerableSet.sol\":4250:4262  set._indexes */\n      0x01\n      dup4\n      add\n        /* \"source/BinanceBABT/contracts/utils/EnumerableSet.sol\":4250:4269  set._indexes[value] */\n      0x20\n      mstore\n      0x40\n      dup2\n      keccak256\n      sload\n        /* \"source/BinanceBABT/contracts/utils/EnumerableSet.sol\":2192:2511  if (!_contains(set, value)) {... */\n      tag_467\n      jumpi\n      pop\n        /* \"source/BinanceBABT/contracts/utils/EnumerableSet.sol\":2234:2257  set._values.push(value) */\n      dup2\n      sload\n      0x01\n      dup2\n      dup2\n      add\n      dup5\n      sstore\n        /* \"source/BinanceBABT/contracts/utils/EnumerableSet.sol\":2234:2245  set._values */\n      0x00\n        /* \"source/BinanceBABT/contracts/utils/EnumerableSet.sol\":2234:2257  set._values.push(value) */\n      dup5\n      dup2\n      mstore\n      0x20\n      dup1\n      dup3\n      keccak256\n      swap1\n      swap4\n      add\n      dup5\n      swap1\n      sstore\n        /* \"source/BinanceBABT/contracts/utils/EnumerableSet.sol\":2414:2432  set._values.length */\n      dup5\n      sload\n        /* \"source/BinanceBABT/contracts/utils/EnumerableSet.sol\":2392:2411  set._indexes[value] */\n      dup5\n      dup3\n      mstore\n        /* \"source/BinanceBABT/contracts/utils/EnumerableSet.sol\":2392:2404  set._indexes */\n      dup3\n      dup7\n      add\n        /* \"source/BinanceBABT/contracts/utils/EnumerableSet.sol\":2392:2411  set._indexes[value] */\n      swap1\n      swap4\n      mstore\n      0x40\n      swap1\n      keccak256\n        /* \"source/BinanceBABT/contracts/utils/EnumerableSet.sol\":2392:2432  set._indexes[value] = set._values.length */\n      swap2\n      swap1\n      swap2\n      sstore\n        /* \"source/BinanceBABT/contracts/utils/EnumerableSet.sol\":2446:2457  return true */\n      jump(tag_157)\n        /* \"source/BinanceBABT/contracts/utils/EnumerableSet.sol\":2192:2511  if (!_contains(set, value)) {... */\n    tag_467:\n      pop\n        /* \"source/BinanceBABT/contracts/utils/EnumerableSet.sol\":2495:2500  false */\n      0x00\n        /* \"source/BinanceBABT/contracts/utils/EnumerableSet.sol\":2488:2500  return false */\n      jump(tag_157)\n    tag_185:\n      dup3\n      dup1\n      sload\n      tag_470\n      swap1\n      tag_160\n      jump\t// in\n    tag_470:\n      swap1\n      0x00\n      mstore\n      keccak256(0x00, 0x20)\n      swap1\n      0x1f\n      add\n      0x20\n      swap1\n      div\n      dup2\n      add\n      swap3\n      dup3\n      tag_472\n      jumpi\n      0x00\n      dup6\n      sstore\n      jump(tag_475)\n    tag_472:\n      dup3\n      0x1f\n      lt\n      tag_473\n      jumpi\n      dup3\n      dup1\n      add\n      not(0xff)\n      dup3\n      calldataload\n      and\n      or\n      dup6\n      sstore\n      jump(tag_475)\n    tag_473:\n      dup3\n      dup1\n      add\n      0x01\n      add\n      dup6\n      sstore\n      dup3\n      iszero\n      tag_475\n      jumpi\n      swap2\n      dup3\n      add\n    tag_474:\n      dup3\n      dup2\n      gt\n      iszero\n      tag_475\n      jumpi\n      dup3\n      calldataload\n      dup3\n      sstore\n      swap2\n      0x20\n      add\n      swap2\n      swap1\n      0x01\n      add\n      swap1\n      jump(tag_474)\n    tag_475:\n      pop\n      tag_476\n      swap3\n      swap2\n      pop\n      tag_477\n      jump\t// in\n    tag_476:\n      pop\n      swap1\n      jump\t// out\n    tag_477:\n    tag_478:\n      dup1\n      dup3\n      gt\n      iszero\n      tag_476\n      jumpi\n      0x00\n      dup2\n      sstore\n      0x01\n      add\n      jump(tag_478)\n        /* \"#utility.yul\":14:629   */\n    tag_32:\n        /* \"#utility.yul\":100:106   */\n      0x00\n        /* \"#utility.yul\":108:114   */\n      dup1\n        /* \"#utility.yul\":161:163   */\n      0x20\n        /* \"#utility.yul\":149:158   */\n      dup4\n        /* \"#utility.yul\":140:147   */\n      dup6\n        /* \"#utility.yul\":136:159   */\n      sub\n        /* \"#utility.yul\":132:164   */\n      slt\n        /* \"#utility.yul\":129:181   */\n      iszero\n      tag_488\n      jumpi\n        /* \"#utility.yul\":177:178   */\n      0x00\n        /* \"#utility.yul\":174:175   */\n      dup1\n        /* \"#utility.yul\":167:179   */\n      revert\n        /* \"#utility.yul\":129:181   */\n    tag_488:\n        /* \"#utility.yul\":217:226   */\n      dup3\n        /* \"#utility.yul\":204:227   */\n      calldataload\n        /* \"#utility.yul\":246:264   */\n      0xffffffffffffffff\n        /* \"#utility.yul\":287:289   */\n      dup1\n        /* \"#utility.yul\":279:285   */\n      dup3\n        /* \"#utility.yul\":276:290   */\n      gt\n        /* \"#utility.yul\":273:307   */\n      iszero\n      tag_489\n      jumpi\n        /* \"#utility.yul\":303:304   */\n      0x00\n        /* \"#utility.yul\":300:301   */\n      dup1\n        /* \"#utility.yul\":293:305   */\n      revert\n        /* \"#utility.yul\":273:307   */\n    tag_489:\n        /* \"#utility.yul\":341:347   */\n      dup2\n        /* \"#utility.yul\":330:339   */\n      dup6\n        /* \"#utility.yul\":326:348   */\n      add\n        /* \"#utility.yul\":316:348   */\n      swap2\n      pop\n        /* \"#utility.yul\":386:393   */\n      dup6\n        /* \"#utility.yul\":379:383   */\n      0x1f\n        /* \"#utility.yul\":375:377   */\n      dup4\n        /* \"#utility.yul\":371:384   */\n      add\n        /* \"#utility.yul\":367:394   */\n      slt\n        /* \"#utility.yul\":357:412   */\n      tag_490\n      jumpi\n        /* \"#utility.yul\":408:409   */\n      0x00\n        /* \"#utility.yul\":405:406   */\n      dup1\n        /* \"#utility.yul\":398:410   */\n      revert\n        /* \"#utility.yul\":357:412   */\n    tag_490:\n        /* \"#utility.yul\":448:450   */\n      dup2\n        /* \"#utility.yul\":435:451   */\n      calldataload\n        /* \"#utility.yul\":474:476   */\n      dup2\n        /* \"#utility.yul\":466:472   */\n      dup2\n        /* \"#utility.yul\":463:477   */\n      gt\n        /* \"#utility.yul\":460:494   */\n      iszero\n      tag_491\n      jumpi\n        /* \"#utility.yul\":490:491   */\n      0x00\n        /* \"#utility.yul\":487:488   */\n      dup1\n        /* \"#utility.yul\":480:492   */\n      revert\n        /* \"#utility.yul\":460:494   */\n    tag_491:\n        /* \"#utility.yul\":543:550   */\n      dup7\n        /* \"#utility.yul\":538:540   */\n      0x20\n        /* \"#utility.yul\":528:534   */\n      dup3\n        /* \"#utility.yul\":525:526   */\n      0x05\n        /* \"#utility.yul\":521:535   */\n      shl\n        /* \"#utility.yul\":517:519   */\n      dup6\n        /* \"#utility.yul\":513:536   */\n      add\n        /* \"#utility.yul\":509:541   */\n      add\n        /* \"#utility.yul\":506:551   */\n      gt\n        /* \"#utility.yul\":503:568   */\n      iszero\n      tag_492\n      jumpi\n        /* \"#utility.yul\":564:565   */\n      0x00\n        /* \"#utility.yul\":561:562   */\n      dup1\n        /* \"#utility.yul\":554:566   */\n      revert\n        /* \"#utility.yul\":503:568   */\n    tag_492:\n        /* \"#utility.yul\":595:597   */\n      0x20\n        /* \"#utility.yul\":587:598   */\n      swap3\n      swap1\n      swap3\n      add\n      swap7\n        /* \"#utility.yul\":617:623   */\n      swap2\n      swap6\n      pop\n        /* \"#utility.yul\":14:629   */\n      swap1\n      swap4\n      pop\n      pop\n      pop\n      pop\n      jump\t// out\n        /* \"#utility.yul\":634:920   */\n    tag_36:\n        /* \"#utility.yul\":692:698   */\n      0x00\n        /* \"#utility.yul\":745:747   */\n      0x20\n        /* \"#utility.yul\":733:742   */\n      dup3\n        /* \"#utility.yul\":724:731   */\n      dup5\n        /* \"#utility.yul\":720:743   */\n      sub\n        /* \"#utility.yul\":716:748   */\n      slt\n        /* \"#utility.yul\":713:765   */\n      iszero\n      tag_494\n      jumpi\n        /* \"#utility.yul\":761:762   */\n      0x00\n        /* \"#utility.yul\":758:759   */\n      dup1\n        /* \"#utility.yul\":751:763   */\n      revert\n        /* \"#utility.yul\":713:765   */\n    tag_494:\n        /* \"#utility.yul\":787:810   */\n      dup2\n      calldataload\n      not(sub(shl(0xe0, 0x01), 0x01))\n        /* \"#utility.yul\":839:871   */\n      dup2\n      and\n        /* \"#utility.yul\":829:872   */\n      dup2\n      eq\n        /* \"#utility.yul\":819:890   */\n      tag_303\n      jumpi\n        /* \"#utility.yul\":886:887   */\n      0x00\n        /* \"#utility.yul\":883:884   */\n      dup1\n        /* \"#utility.yul\":876:888   */\n      revert\n        /* \"#utility.yul\":1117:1375   */\n    tag_480:\n        /* \"#utility.yul\":1189:1190   */\n      0x00\n        /* \"#utility.yul\":1199:1312   */\n    tag_498:\n        /* \"#utility.yul\":1213:1219   */\n      dup4\n        /* \"#utility.yul\":1210:1211   */\n      dup2\n        /* \"#utility.yul\":1207:1220   */\n      lt\n        /* \"#utility.yul\":1199:1312   */\n      iszero\n      tag_500\n      jumpi\n        /* \"#utility.yul\":1289:1300   */\n      dup2\n      dup2\n      add\n        /* \"#utility.yul\":1283:1301   */\n      mload\n        /* \"#utility.yul\":1270:1281   */\n      dup4\n      dup3\n      add\n        /* \"#utility.yul\":1263:1302   */\n      mstore\n        /* \"#utility.yul\":1235:1237   */\n      0x20\n        /* \"#utility.yul\":1228:1238   */\n      add\n        /* \"#utility.yul\":1199:1312   */\n      jump(tag_498)\n    tag_500:\n        /* \"#utility.yul\":1330:1336   */\n      dup4\n        /* \"#utility.yul\":1327:1328   */\n      dup2\n        /* \"#utility.yul\":1324:1337   */\n      gt\n        /* \"#utility.yul\":1321:1369   */\n      iszero\n      tag_136\n      jumpi\n      pop\n      pop\n        /* \"#utility.yul\":1365:1366   */\n      0x00\n        /* \"#utility.yul\":1347:1363   */\n      swap2\n      add\n        /* \"#utility.yul\":1340:1367   */\n      mstore\n        /* \"#utility.yul\":1117:1375   */\n      jump\t// out\n        /* \"#utility.yul\":1380:1763   */\n    tag_43:\n        /* \"#utility.yul\":1529:1531   */\n      0x20\n        /* \"#utility.yul\":1518:1527   */\n      dup2\n        /* \"#utility.yul\":1511:1532   */\n      mstore\n        /* \"#utility.yul\":1492:1496   */\n      0x00\n        /* \"#utility.yul\":1561:1567   */\n      dup3\n        /* \"#utility.yul\":1555:1568   */\n      mload\n        /* \"#utility.yul\":1604:1610   */\n      dup1\n        /* \"#utility.yul\":1599:1601   */\n      0x20\n        /* \"#utility.yul\":1588:1597   */\n      dup5\n        /* \"#utility.yul\":1584:1602   */\n      add\n        /* \"#utility.yul\":1577:1611   */\n      mstore\n        /* \"#utility.yul\":1620:1686   */\n      tag_503\n        /* \"#utility.yul\":1679:1685   */\n      dup2\n        /* \"#utility.yul\":1674:1676   */\n      0x40\n        /* \"#utility.yul\":1663:1672   */\n      dup6\n        /* \"#utility.yul\":1659:1677   */\n      add\n        /* \"#utility.yul\":1654:1656   */\n      0x20\n        /* \"#utility.yul\":1646:1652   */\n      dup8\n        /* \"#utility.yul\":1642:1657   */\n      add\n        /* \"#utility.yul\":1620:1686   */\n      tag_480\n      jump\t// in\n    tag_503:\n        /* \"#utility.yul\":1747:1749   */\n      0x1f\n        /* \"#utility.yul\":1726:1741   */\n      add\n      not(0x1f)\n        /* \"#utility.yul\":1722:1751   */\n      and\n        /* \"#utility.yul\":1707:1752   */\n      swap2\n      swap1\n      swap2\n      add\n        /* \"#utility.yul\":1754:1756   */\n      0x40\n        /* \"#utility.yul\":1703:1757   */\n      add\n      swap3\n        /* \"#utility.yul\":1380:1763   */\n      swap2\n      pop\n      pop\n      jump\t// out\n        /* \"#utility.yul\":1950:2130   */\n    tag_50:\n        /* \"#utility.yul\":2009:2015   */\n      0x00\n        /* \"#utility.yul\":2062:2064   */\n      0x20\n        /* \"#utility.yul\":2050:2059   */\n      dup3\n        /* \"#utility.yul\":2041:2048   */\n      dup5\n        /* \"#utility.yul\":2037:2060   */\n      sub\n        /* \"#utility.yul\":2033:2065   */\n      slt\n        /* \"#utility.yul\":2030:2082   */\n      iszero\n      tag_506\n      jumpi\n        /* \"#utility.yul\":2078:2079   */\n      0x00\n        /* \"#utility.yul\":2075:2076   */\n      dup1\n        /* \"#utility.yul\":2068:2080   */\n      revert\n        /* \"#utility.yul\":2030:2082   */\n    tag_506:\n      pop\n        /* \"#utility.yul\":2101:2124   */\n      calldataload\n      swap2\n        /* \"#utility.yul\":1950:2130   */\n      swap1\n      pop\n      jump\t// out\n        /* \"#utility.yul\":2317:2490   */\n    tag_481:\n        /* \"#utility.yul\":2385:2405   */\n      dup1\n      calldataload\n      sub(shl(0xa0, 0x01), 0x01)\n        /* \"#utility.yul\":2434:2465   */\n      dup2\n      and\n        /* \"#utility.yul\":2424:2466   */\n      dup2\n      eq\n        /* \"#utility.yul\":2414:2484   */\n      tag_509\n      jumpi\n        /* \"#utility.yul\":2480:2481   */\n      0x00\n        /* \"#utility.yul\":2477:2478   */\n      dup1\n        /* \"#utility.yul\":2470:2482   */\n      revert\n        /* \"#utility.yul\":2414:2484   */\n    tag_509:\n        /* \"#utility.yul\":2317:2490   */\n      swap2\n      swap1\n      pop\n      jump\t// out\n        /* \"#utility.yul\":2495:2681   */\n    tag_56:\n        /* \"#utility.yul\":2554:2560   */\n      0x00\n        /* \"#utility.yul\":2607:2609   */\n      0x20\n        /* \"#utility.yul\":2595:2604   */\n      dup3\n        /* \"#utility.yul\":2586:2593   */\n      dup5\n        /* \"#utility.yul\":2582:2605   */\n      sub\n        /* \"#utility.yul\":2578:2610   */\n      slt\n        /* \"#utility.yul\":2575:2627   */\n      iszero\n      tag_511\n      jumpi\n        /* \"#utility.yul\":2623:2624   */\n      0x00\n        /* \"#utility.yul\":2620:2621   */\n      dup1\n        /* \"#utility.yul\":2613:2625   */\n      revert\n        /* \"#utility.yul\":2575:2627   */\n    tag_511:\n        /* \"#utility.yul\":2646:2675   */\n      tag_303\n        /* \"#utility.yul\":2665:2674   */\n      dup3\n        /* \"#utility.yul\":2646:2675   */\n      tag_481\n      jump\t// in\n        /* \"#utility.yul\":2686:2940   */\n    tag_61:\n        /* \"#utility.yul\":2754:2760   */\n      0x00\n        /* \"#utility.yul\":2762:2768   */\n      dup1\n        /* \"#utility.yul\":2815:2817   */\n      0x40\n        /* \"#utility.yul\":2803:2812   */\n      dup4\n        /* \"#utility.yul\":2794:2801   */\n      dup6\n        /* \"#utility.yul\":2790:2813   */\n      sub\n        /* \"#utility.yul\":2786:2818   */\n      slt\n        /* \"#utility.yul\":2783:2835   */\n      iszero\n      tag_514\n      jumpi\n        /* \"#utility.yul\":2831:2832   */\n      0x00\n        /* \"#utility.yul\":2828:2829   */\n      dup1\n        /* \"#utility.yul\":2821:2833   */\n      revert\n        /* \"#utility.yul\":2783:2835   */\n    tag_514:\n        /* \"#utility.yul\":2867:2876   */\n      dup3\n        /* \"#utility.yul\":2854:2877   */\n      calldataload\n        /* \"#utility.yul\":2844:2877   */\n      swap2\n      pop\n        /* \"#utility.yul\":2896:2934   */\n      tag_515\n        /* \"#utility.yul\":2930:2932   */\n      0x20\n        /* \"#utility.yul\":2919:2928   */\n      dup5\n        /* \"#utility.yul\":2915:2933   */\n      add\n        /* \"#utility.yul\":2896:2934   */\n      tag_481\n      jump\t// in\n    tag_515:\n        /* \"#utility.yul\":2886:2934   */\n      swap1\n      pop\n        /* \"#utility.yul\":2686:2940   */\n      swap3\n      pop\n      swap3\n      swap1\n      pop\n      jump\t// out\n        /* \"#utility.yul\":2945:3537   */\n    tag_65:\n        /* \"#utility.yul\":3016:3022   */\n      0x00\n        /* \"#utility.yul\":3024:3030   */\n      dup1\n        /* \"#utility.yul\":3077:3079   */\n      0x20\n        /* \"#utility.yul\":3065:3074   */\n      dup4\n        /* \"#utility.yul\":3056:3063   */\n      dup6\n        /* \"#utility.yul\":3052:3075   */\n      sub\n        /* \"#utility.yul\":3048:3080   */\n      slt\n        /* \"#utility.yul\":3045:3097   */\n      iszero\n      tag_517\n      jumpi\n        /* \"#utility.yul\":3093:3094   */\n      0x00\n        /* \"#utility.yul\":3090:3091   */\n      dup1\n        /* \"#utility.yul\":3083:3095   */\n      revert\n        /* \"#utility.yul\":3045:3097   */\n    tag_517:\n        /* \"#utility.yul\":3133:3142   */\n      dup3\n        /* \"#utility.yul\":3120:3143   */\n      calldataload\n        /* \"#utility.yul\":3162:3180   */\n      0xffffffffffffffff\n        /* \"#utility.yul\":3203:3205   */\n      dup1\n        /* \"#utility.yul\":3195:3201   */\n      dup3\n        /* \"#utility.yul\":3192:3206   */\n      gt\n        /* \"#utility.yul\":3189:3223   */\n      iszero\n      tag_518\n      jumpi\n        /* \"#utility.yul\":3219:3220   */\n      0x00\n        /* \"#utility.yul\":3216:3217   */\n      dup1\n        /* \"#utility.yul\":3209:3221   */\n      revert\n        /* \"#utility.yul\":3189:3223   */\n    tag_518:\n        /* \"#utility.yul\":3257:3263   */\n      dup2\n        /* \"#utility.yul\":3246:3255   */\n      dup6\n        /* \"#utility.yul\":3242:3264   */\n      add\n        /* \"#utility.yul\":3232:3264   */\n      swap2\n      pop\n        /* \"#utility.yul\":3302:3309   */\n      dup6\n        /* \"#utility.yul\":3295:3299   */\n      0x1f\n        /* \"#utility.yul\":3291:3293   */\n      dup4\n        /* \"#utility.yul\":3287:3300   */\n      add\n        /* \"#utility.yul\":3283:3310   */\n      slt\n        /* \"#utility.yul\":3273:3328   */\n      tag_519\n      jumpi\n        /* \"#utility.yul\":3324:3325   */\n      0x00\n        /* \"#utility.yul\":3321:3322   */\n      dup1\n        /* \"#utility.yul\":3314:3326   */\n      revert\n        /* \"#utility.yul\":3273:3328   */\n    tag_519:\n        /* \"#utility.yul\":3364:3366   */\n      dup2\n        /* \"#utility.yul\":3351:3367   */\n      calldataload\n        /* \"#utility.yul\":3390:3392   */\n      dup2\n        /* \"#utility.yul\":3382:3388   */\n      dup2\n        /* \"#utility.yul\":3379:3393   */\n      gt\n        /* \"#utility.yul\":3376:3410   */\n      iszero\n      tag_520\n      jumpi\n        /* \"#utility.yul\":3406:3407   */\n      0x00\n        /* \"#utility.yul\":3403:3404   */\n      dup1\n        /* \"#utility.yul\":3396:3408   */\n      revert\n        /* \"#utility.yul\":3376:3410   */\n    tag_520:\n        /* \"#utility.yul\":3451:3458   */\n      dup7\n        /* \"#utility.yul\":3446:3448   */\n      0x20\n        /* \"#utility.yul\":3437:3443   */\n      dup3\n        /* \"#utility.yul\":3433:3435   */\n      dup6\n        /* \"#utility.yul\":3429:3444   */\n      add\n        /* \"#utility.yul\":3425:3449   */\n      add\n        /* \"#utility.yul\":3422:3459   */\n      gt\n        /* \"#utility.yul\":3419:3476   */\n      iszero\n      tag_492\n      jumpi\n        /* \"#utility.yul\":3472:3473   */\n      0x00\n        /* \"#utility.yul\":3469:3470   */\n      dup1\n        /* \"#utility.yul\":3462:3474   */\n      revert\n        /* \"#utility.yul\":3935:4189   */\n    tag_108:\n        /* \"#utility.yul\":4003:4009   */\n      0x00\n        /* \"#utility.yul\":4011:4017   */\n      dup1\n        /* \"#utility.yul\":4064:4066   */\n      0x40\n        /* \"#utility.yul\":4052:4061   */\n      dup4\n        /* \"#utility.yul\":4043:4050   */\n      dup6\n        /* \"#utility.yul\":4039:4062   */\n      sub\n        /* \"#utility.yul\":4035:4067   */\n      slt\n        /* \"#utility.yul\":4032:4084   */\n      iszero\n      tag_526\n      jumpi\n        /* \"#utility.yul\":4080:4081   */\n      0x00\n        /* \"#utility.yul\":4077:4078   */\n      dup1\n        /* \"#utility.yul\":4070:4082   */\n      revert\n        /* \"#utility.yul\":4032:4084   */\n    tag_526:\n        /* \"#utility.yul\":4103:4132   */\n      tag_527\n        /* \"#utility.yul\":4122:4131   */\n      dup4\n        /* \"#utility.yul\":4103:4132   */\n      tag_481\n      jump\t// in\n    tag_527:\n        /* \"#utility.yul\":4093:4132   */\n      swap5\n        /* \"#utility.yul\":4179:4181   */\n      0x20\n        /* \"#utility.yul\":4164:4182   */\n      swap4\n      swap1\n      swap4\n      add\n        /* \"#utility.yul\":4151:4183   */\n      calldataload\n      swap4\n      pop\n      pop\n      pop\n        /* \"#utility.yul\":3935:4189   */\n      jump\t// out\n        /* \"#utility.yul\":4194:4612   */\n    tag_131:\n        /* \"#utility.yul\":4396:4398   */\n      0x20\n        /* \"#utility.yul\":4378:4399   */\n      dup1\n      dup3\n      mstore\n        /* \"#utility.yul\":4435:4437   */\n      0x36\n        /* \"#utility.yul\":4415:4433   */\n      swap1\n      dup3\n      add\n        /* \"#utility.yul\":4408:4438   */\n      mstore\n        /* \"#utility.yul\":4474:4508   */\n      0x4f6e6c7920746865206163636f756e742077697468204f50455241544f525f52\n        /* \"#utility.yul\":4469:4471   */\n      0x40\n        /* \"#utility.yul\":4454:4472   */\n      dup3\n      add\n        /* \"#utility.yul\":4447:4509   */\n      mstore\n      shl(0x52, 0x13d3114818d85b881c995d9bdad9481d1a194814d095)\n        /* \"#utility.yul\":4540:4542   */\n      0x60\n        /* \"#utility.yul\":4525:4543   */\n      dup3\n      add\n        /* \"#utility.yul\":4518:4570   */\n      mstore\n        /* \"#utility.yul\":4602:4605   */\n      0x80\n        /* \"#utility.yul\":4587:4606   */\n      add\n      swap1\n        /* \"#utility.yul\":4194:4612   */\n      jump\t// out\n        /* \"#utility.yul\":4617:5015   */\n    tag_134:\n        /* \"#utility.yul\":4819:4821   */\n      0x20\n        /* \"#utility.yul\":4801:4822   */\n      dup1\n      dup3\n      mstore\n        /* \"#utility.yul\":4858:4860   */\n      0x22\n        /* \"#utility.yul\":4838:4856   */\n      swap1\n      dup3\n      add\n        /* \"#utility.yul\":4831:4861   */\n      mstore\n        /* \"#utility.yul\":4897:4931   */\n      0x546865206d6178206c656e677468206f66206164647265737365732069732031\n        /* \"#utility.yul\":4892:4894   */\n      0x40\n        /* \"#utility.yul\":4877:4895   */\n      dup3\n      add\n        /* \"#utility.yul\":4870:4932   */\n      mstore\n      shl(0xf4, 0x0303)\n        /* \"#utility.yul\":4963:4965   */\n      0x60\n        /* \"#utility.yul\":4948:4966   */\n      dup3\n      add\n        /* \"#utility.yul\":4941:4973   */\n      mstore\n        /* \"#utility.yul\":5005:5008   */\n      0x80\n        /* \"#utility.yul\":4990:5009   */\n      add\n      swap1\n        /* \"#utility.yul\":4617:5015   */\n      jump\t// out\n        /* \"#utility.yul\":5020:5147   */\n    tag_140:\n        /* \"#utility.yul\":5081:5091   */\n      0x4e487b71\n        /* \"#utility.yul\":5076:5079   */\n      0xe0\n        /* \"#utility.yul\":5072:5092   */\n      shl\n        /* \"#utility.yul\":5069:5070   */\n      0x00\n        /* \"#utility.yul\":5062:5093   */\n      mstore\n        /* \"#utility.yul\":5112:5116   */\n      0x32\n        /* \"#utility.yul\":5109:5110   */\n      0x04\n        /* \"#utility.yul\":5102:5117   */\n      mstore\n        /* \"#utility.yul\":5136:5140   */\n      0x24\n        /* \"#utility.yul\":5133:5134   */\n      0x00\n        /* \"#utility.yul\":5126:5141   */\n      revert\n        /* \"#utility.yul\":5152:5279   */\n    tag_482:\n        /* \"#utility.yul\":5213:5223   */\n      0x4e487b71\n        /* \"#utility.yul\":5208:5211   */\n      0xe0\n        /* \"#utility.yul\":5204:5224   */\n      shl\n        /* \"#utility.yul\":5201:5202   */\n      0x00\n        /* \"#utility.yul\":5194:5225   */\n      mstore\n        /* \"#utility.yul\":5244:5248   */\n      0x11\n        /* \"#utility.yul\":5241:5242   */\n      0x04\n        /* \"#utility.yul\":5234:5249   */\n      mstore\n        /* \"#utility.yul\":5268:5272   */\n      0x24\n        /* \"#utility.yul\":5265:5266   */\n      0x00\n        /* \"#utility.yul\":5258:5273   */\n      revert\n        /* \"#utility.yul\":5284:5459   */\n    tag_153:\n        /* \"#utility.yul\":5321:5324   */\n      0x00\n        /* \"#utility.yul\":5365:5369   */\n      0xff\n        /* \"#utility.yul\":5358:5363   */\n      dup3\n        /* \"#utility.yul\":5354:5370   */\n      and\n        /* \"#utility.yul\":5394:5398   */\n      0xff\n        /* \"#utility.yul\":5385:5392   */\n      dup2\n        /* \"#utility.yul\":5382:5399   */\n      eq\n        /* \"#utility.yul\":5379:5422   */\n      iszero\n      tag_534\n      jumpi\n        /* \"#utility.yul\":5402:5420   */\n      tag_534\n      tag_482\n      jump\t// in\n    tag_534:\n        /* \"#utility.yul\":5451:5452   */\n      0x01\n        /* \"#utility.yul\":5438:5453   */\n      add\n      swap3\n        /* \"#utility.yul\":5284:5459   */\n      swap2\n      pop\n      pop\n      jump\t// out\n        /* \"#utility.yul\":5464:5844   */\n    tag_160:\n        /* \"#utility.yul\":5543:5544   */\n      0x01\n        /* \"#utility.yul\":5539:5551   */\n      dup2\n      dup2\n      shr\n      swap1\n        /* \"#utility.yul\":5586:5598   */\n      dup3\n      and\n      dup1\n        /* \"#utility.yul\":5607:5668   */\n      tag_536\n      jumpi\n        /* \"#utility.yul\":5661:5665   */\n      0x7f\n        /* \"#utility.yul\":5653:5659   */\n      dup3\n        /* \"#utility.yul\":5649:5666   */\n      and\n        /* \"#utility.yul\":5639:5666   */\n      swap2\n      pop\n        /* \"#utility.yul\":5607:5668   */\n    tag_536:\n        /* \"#utility.yul\":5714:5716   */\n      0x20\n        /* \"#utility.yul\":5706:5712   */\n      dup3\n        /* \"#utility.yul\":5703:5717   */\n      lt\n        /* \"#utility.yul\":5683:5701   */\n      dup2\n        /* \"#utility.yul\":5680:5718   */\n      eq\n        /* \"#utility.yul\":5677:5838   */\n      iszero\n      tag_537\n      jumpi\n        /* \"#utility.yul\":5760:5770   */\n      0x4e487b71\n        /* \"#utility.yul\":5755:5758   */\n      0xe0\n        /* \"#utility.yul\":5751:5771   */\n      shl\n        /* \"#utility.yul\":5748:5749   */\n      0x00\n        /* \"#utility.yul\":5741:5772   */\n      mstore\n        /* \"#utility.yul\":5795:5799   */\n      0x22\n        /* \"#utility.yul\":5792:5793   */\n      0x04\n        /* \"#utility.yul\":5785:5800   */\n      mstore\n        /* \"#utility.yul\":5823:5827   */\n      0x24\n        /* \"#utility.yul\":5820:5821   */\n      0x00\n        /* \"#utility.yul\":5813:5828   */\n      revert\n        /* \"#utility.yul\":5677:5838   */\n    tag_537:\n      pop\n        /* \"#utility.yul\":5464:5844   */\n      swap2\n      swap1\n      pop\n      jump\t// out\n        /* \"#utility.yul\":6741:7138   */\n    tag_198:\n        /* \"#utility.yul\":6943:6945   */\n      0x20\n        /* \"#utility.yul\":6925:6946   */\n      dup1\n      dup3\n      mstore\n        /* \"#utility.yul\":6982:6984   */\n      0x21\n        /* \"#utility.yul\":6962:6980   */\n      swap1\n      dup3\n      add\n        /* \"#utility.yul\":6955:6985   */\n      mstore\n        /* \"#utility.yul\":7021:7055   */\n      0x546865206163636f756e7420646f6573206e6f74206861766520616e79205342\n        /* \"#utility.yul\":7016:7018   */\n      0x40\n        /* \"#utility.yul\":7001:7019   */\n      dup3\n      add\n        /* \"#utility.yul\":6994:7056   */\n      mstore\n      shl(0xfa, 0x15)\n        /* \"#utility.yul\":7087:7089   */\n      0x60\n        /* \"#utility.yul\":7072:7090   */\n      dup3\n      add\n        /* \"#utility.yul\":7065:7096   */\n      mstore\n        /* \"#utility.yul\":7128:7131   */\n      0x80\n        /* \"#utility.yul\":7113:7132   */\n      add\n      swap1\n        /* \"#utility.yul\":6741:7138   */\n      jump\t// out\n        /* \"#utility.yul\":7143:7561   */\n    tag_210:\n        /* \"#utility.yul\":7345:7347   */\n      0x20\n        /* \"#utility.yul\":7327:7348   */\n      dup1\n      dup3\n      mstore\n        /* \"#utility.yul\":7384:7386   */\n      0x36\n        /* \"#utility.yul\":7364:7382   */\n      swap1\n      dup3\n      add\n        /* \"#utility.yul\":7357:7387   */\n      mstore\n        /* \"#utility.yul\":7423:7457   */\n      0x4f6e6c7920746865206163636f756e742077697468204f50455241544f525f52\n        /* \"#utility.yul\":7418:7420   */\n      0x40\n        /* \"#utility.yul\":7403:7421   */\n      dup3\n      add\n        /* \"#utility.yul\":7396:7458   */\n      mstore\n      shl(0x52, 0x13d3114818d85b88185d1d195cdd081d1a194814d095)\n        /* \"#utility.yul\":7489:7491   */\n      0x60\n        /* \"#utility.yul\":7474:7492   */\n      dup3\n      add\n        /* \"#utility.yul\":7467:7519   */\n      mstore\n        /* \"#utility.yul\":7551:7554   */\n      0x80\n        /* \"#utility.yul\":7536:7555   */\n      add\n      swap1\n        /* \"#utility.yul\":7143:7561   */\n      jump\t// out\n        /* \"#utility.yul\":7566:7906   */\n    tag_245:\n        /* \"#utility.yul\":7768:7770   */\n      0x20\n        /* \"#utility.yul\":7750:7771   */\n      dup1\n      dup3\n      mstore\n        /* \"#utility.yul\":7807:7809   */\n      0x10\n        /* \"#utility.yul\":7787:7805   */\n      swap1\n      dup3\n      add\n        /* \"#utility.yul\":7780:7810   */\n      mstore\n      shl(0x80, 0x4164647265737320697320656d707479)\n        /* \"#utility.yul\":7841:7843   */\n      0x40\n        /* \"#utility.yul\":7826:7844   */\n      dup3\n      add\n        /* \"#utility.yul\":7819:7865   */\n      mstore\n        /* \"#utility.yul\":7897:7899   */\n      0x60\n        /* \"#utility.yul\":7882:7900   */\n      add\n      swap1\n        /* \"#utility.yul\":7566:7906   */\n      jump\t// out\n        /* \"#utility.yul\":8384:8569   */\n    tag_484:\n        /* \"#utility.yul\":8426:8429   */\n      0x00\n        /* \"#utility.yul\":8464:8469   */\n      dup2\n        /* \"#utility.yul\":8458:8470   */\n      mload\n        /* \"#utility.yul\":8479:8531   */\n      tag_546\n        /* \"#utility.yul\":8524:8530   */\n      dup2\n        /* \"#utility.yul\":8519:8522   */\n      dup6\n        /* \"#utility.yul\":8512:8516   */\n      0x20\n        /* \"#utility.yul\":8505:8510   */\n      dup7\n        /* \"#utility.yul\":8501:8517   */\n      add\n        /* \"#utility.yul\":8479:8531   */\n      tag_480\n      jump\t// in\n    tag_546:\n        /* \"#utility.yul\":8547:8563   */\n      swap3\n      swap1\n      swap3\n      add\n      swap3\n        /* \"#utility.yul\":8384:8569   */\n      swap2\n      pop\n      pop\n      jump\t// out\n        /* \"#utility.yul\":8574:9748   */\n    tag_281:\n        /* \"#utility.yul\":8750:8753   */\n      0x00\n        /* \"#utility.yul\":8779:8780   */\n      dup1\n        /* \"#utility.yul\":8812:8818   */\n      dup5\n        /* \"#utility.yul\":8806:8819   */\n      sload\n        /* \"#utility.yul\":8842:8845   */\n      dup2\n        /* \"#utility.yul\":8864:8865   */\n      0x01\n        /* \"#utility.yul\":8892:8901   */\n      dup3\n        /* \"#utility.yul\":8888:8890   */\n      dup2\n        /* \"#utility.yul\":8884:8902   */\n      shr\n        /* \"#utility.yul\":8874:8902   */\n      swap2\n      pop\n        /* \"#utility.yul\":8952:8954   */\n      dup1\n        /* \"#utility.yul\":8941:8950   */\n      dup4\n        /* \"#utility.yul\":8937:8955   */\n      and\n        /* \"#utility.yul\":8974:8992   */\n      dup1\n        /* \"#utility.yul\":8964:9025   */\n      tag_548\n      jumpi\n        /* \"#utility.yul\":9018:9022   */\n      0x7f\n        /* \"#utility.yul\":9010:9016   */\n      dup4\n        /* \"#utility.yul\":9006:9023   */\n      and\n        /* \"#utility.yul\":8996:9023   */\n      swap3\n      pop\n        /* \"#utility.yul\":8964:9025   */\n    tag_548:\n        /* \"#utility.yul\":9044:9046   */\n      0x20\n        /* \"#utility.yul\":9092:9094   */\n      dup1\n        /* \"#utility.yul\":9084:9090   */\n      dup5\n        /* \"#utility.yul\":9081:9095   */\n      lt\n        /* \"#utility.yul\":9061:9079   */\n      dup3\n        /* \"#utility.yul\":9058:9096   */\n      eq\n        /* \"#utility.yul\":9055:9220   */\n      iszero\n      tag_549\n      jumpi\n      shl(0xe0, 0x4e487b71)\n        /* \"#utility.yul\":9119:9152   */\n      dup7\n      mstore\n        /* \"#utility.yul\":9175:9179   */\n      0x22\n        /* \"#utility.yul\":9172:9173   */\n      0x04\n        /* \"#utility.yul\":9165:9180   */\n      mstore\n        /* \"#utility.yul\":9205:9209   */\n      0x24\n        /* \"#utility.yul\":9126:9129   */\n      dup7\n        /* \"#utility.yul\":9193:9210   */\n      revert\n        /* \"#utility.yul\":9055:9220   */\n    tag_549:\n        /* \"#utility.yul\":9236:9254   */\n      dup2\n        /* \"#utility.yul\":9263:9367   */\n      dup1\n      iszero\n      tag_551\n      jumpi\n        /* \"#utility.yul\":9381:9382   */\n      0x01\n        /* \"#utility.yul\":9376:9696   */\n      dup2\n      eq\n      tag_552\n      jumpi\n        /* \"#utility.yul\":9229:9696   */\n      jump(tag_550)\n        /* \"#utility.yul\":9263:9367   */\n    tag_551:\n      not(0xff)\n        /* \"#utility.yul\":9296:9320   */\n      dup7\n      and\n        /* \"#utility.yul\":9284:9321   */\n      dup10\n      mstore\n        /* \"#utility.yul\":9341:9357   */\n      dup5\n      dup10\n      add\n      swap7\n      pop\n        /* \"#utility.yul\":9263:9367   */\n      jump(tag_550)\n        /* \"#utility.yul\":9376:9696   */\n    tag_552:\n        /* \"#utility.yul\":8331:8332   */\n      0x00\n        /* \"#utility.yul\":8324:8338   */\n      dup12\n      dup2\n      mstore\n        /* \"#utility.yul\":8368:8372   */\n      0x20\n        /* \"#utility.yul\":8355:8373   */\n      swap1\n      keccak256\n        /* \"#utility.yul\":9471:9472   */\n      0x00\n        /* \"#utility.yul\":9485:9650   */\n    tag_554:\n        /* \"#utility.yul\":9499:9505   */\n      dup7\n        /* \"#utility.yul\":9496:9497   */\n      dup2\n        /* \"#utility.yul\":9493:9506   */\n      lt\n        /* \"#utility.yul\":9485:9650   */\n      iszero\n      tag_556\n      jumpi\n        /* \"#utility.yul\":9577:9591   */\n      dup2\n      sload\n        /* \"#utility.yul\":9564:9575   */\n      dup12\n      dup3\n      add\n        /* \"#utility.yul\":9557:9592   */\n      mstore\n        /* \"#utility.yul\":9620:9636   */\n      swap1\n      dup6\n      add\n      swap1\n        /* \"#utility.yul\":9514:9524   */\n      dup4\n      add\n        /* \"#utility.yul\":9485:9650   */\n      jump(tag_554)\n    tag_556:\n        /* \"#utility.yul\":9489:9492   */\n      pop\n      pop\n        /* \"#utility.yul\":9679:9685   */\n      dup5\n        /* \"#utility.yul\":9674:9677   */\n      dup10\n        /* \"#utility.yul\":9670:9686   */\n      add\n        /* \"#utility.yul\":9663:9686   */\n      swap7\n      pop\n        /* \"#utility.yul\":9229:9696   */\n    tag_550:\n      pop\n      pop\n      pop\n      pop\n      pop\n      pop\n        /* \"#utility.yul\":9712:9742   */\n      tag_557\n        /* \"#utility.yul\":9738:9741   */\n      dup2\n        /* \"#utility.yul\":9730:9736   */\n      dup6\n        /* \"#utility.yul\":9712:9742   */\n      tag_484\n      jump\t// in\n    tag_557:\n        /* \"#utility.yul\":9705:9742   */\n      swap6\n        /* \"#utility.yul\":8574:9748   */\n      swap5\n      pop\n      pop\n      pop\n      pop\n      pop\n      jump\t// out\n        /* \"#utility.yul\":9753:9888   */\n    tag_352:\n        /* \"#utility.yul\":9792:9795   */\n      0x00\n      not(0x00)\n        /* \"#utility.yul\":9813:9830   */\n      dup3\n      eq\n        /* \"#utility.yul\":9810:9853   */\n      iszero\n      tag_560\n      jumpi\n        /* \"#utility.yul\":9833:9851   */\n      tag_560\n      tag_482\n      jump\t// in\n    tag_560:\n      pop\n        /* \"#utility.yul\":9880:9881   */\n      0x01\n        /* \"#utility.yul\":9869:9882   */\n      add\n      swap1\n        /* \"#utility.yul\":9753:9888   */\n      jump\t// out\n        /* \"#utility.yul\":9893:10020   */\n    tag_485:\n        /* \"#utility.yul\":9954:9964   */\n      0x4e487b71\n        /* \"#utility.yul\":9949:9952   */\n      0xe0\n        /* \"#utility.yul\":9945:9965   */\n      shl\n        /* \"#utility.yul\":9942:9943   */\n      0x00\n        /* \"#utility.yul\":9935:9966   */\n      mstore\n        /* \"#utility.yul\":9985:9989   */\n      0x12\n        /* \"#utility.yul\":9982:9983   */\n      0x04\n        /* \"#utility.yul\":9975:9990   */\n      mstore\n        /* \"#utility.yul\":10009:10013   */\n      0x24\n        /* \"#utility.yul\":10006:10007   */\n      0x00\n        /* \"#utility.yul\":9999:10014   */\n      revert\n        /* \"#utility.yul\":10025:10145   */\n    tag_354:\n        /* \"#utility.yul\":10065:10066   */\n      0x00\n        /* \"#utility.yul\":10091:10092   */\n      dup3\n        /* \"#utility.yul\":10081:10116   */\n      tag_564\n      jumpi\n        /* \"#utility.yul\":10096:10114   */\n      tag_564\n      tag_485\n      jump\t// in\n    tag_564:\n      pop\n        /* \"#utility.yul\":10130:10139   */\n      div\n      swap1\n        /* \"#utility.yul\":10025:10145   */\n      jump\t// out\n        /* \"#utility.yul\":10150:10277   */\n    tag_357:\n        /* \"#utility.yul\":10211:10221   */\n      0x4e487b71\n        /* \"#utility.yul\":10206:10209   */\n      0xe0\n        /* \"#utility.yul\":10202:10222   */\n      shl\n        /* \"#utility.yul\":10199:10200   */\n      0x00\n        /* \"#utility.yul\":10192:10223   */\n      mstore\n        /* \"#utility.yul\":10242:10246   */\n      0x41\n        /* \"#utility.yul\":10239:10240   */\n      0x04\n        /* \"#utility.yul\":10232:10247   */\n      mstore\n        /* \"#utility.yul\":10266:10270   */\n      0x24\n        /* \"#utility.yul\":10263:10264   */\n      0x00\n        /* \"#utility.yul\":10256:10271   */\n      revert\n        /* \"#utility.yul\":10282:10407   */\n    tag_362:\n        /* \"#utility.yul\":10322:10326   */\n      0x00\n        /* \"#utility.yul\":10350:10351   */\n      dup3\n        /* \"#utility.yul\":10347:10348   */\n      dup3\n        /* \"#utility.yul\":10344:10352   */\n      lt\n        /* \"#utility.yul\":10341:10375   */\n      iszero\n      tag_568\n      jumpi\n        /* \"#utility.yul\":10355:10373   */\n      tag_568\n      tag_482\n      jump\t// in\n    tag_568:\n      pop\n        /* \"#utility.yul\":10392:10401   */\n      sub\n      swap1\n        /* \"#utility.yul\":10282:10407   */\n      jump\t// out\n        /* \"#utility.yul\":10412:10524   */\n    tag_364:\n        /* \"#utility.yul\":10444:10445   */\n      0x00\n        /* \"#utility.yul\":10470:10471   */\n      dup3\n        /* \"#utility.yul\":10460:10495   */\n      tag_571\n      jumpi\n        /* \"#utility.yul\":10475:10493   */\n      tag_571\n      tag_485\n      jump\t// in\n    tag_571:\n      pop\n        /* \"#utility.yul\":10509:10518   */\n      mod\n      swap1\n        /* \"#utility.yul\":10412:10524   */\n      jump\t// out\n        /* \"#utility.yul\":10529:10657   */\n    tag_366:\n        /* \"#utility.yul\":10569:10572   */\n      0x00\n        /* \"#utility.yul\":10600:10601   */\n      dup3\n        /* \"#utility.yul\":10596:10602   */\n      not\n        /* \"#utility.yul\":10593:10594   */\n      dup3\n        /* \"#utility.yul\":10590:10603   */\n      gt\n        /* \"#utility.yul\":10587:10626   */\n      iszero\n      tag_574\n      jumpi\n        /* \"#utility.yul\":10606:10624   */\n      tag_574\n      tag_482\n      jump\t// in\n    tag_574:\n      pop\n        /* \"#utility.yul\":10642:10651   */\n      add\n      swap1\n        /* \"#utility.yul\":10529:10657   */\n      jump\t// out\n        /* \"#utility.yul\":11021:11807   */\n    tag_394:\n        /* \"#utility.yul\":11432:11457   */\n      0x416363657373436f6e74726f6c3a206163636f756e7420000000000000000000\n        /* \"#utility.yul\":11427:11430   */\n      dup2\n        /* \"#utility.yul\":11420:11458   */\n      mstore\n        /* \"#utility.yul\":11402:11405   */\n      0x00\n        /* \"#utility.yul\":11487:11493   */\n      dup4\n        /* \"#utility.yul\":11481:11494   */\n      mload\n        /* \"#utility.yul\":11503:11565   */\n      tag_577\n        /* \"#utility.yul\":11558:11564   */\n      dup2\n        /* \"#utility.yul\":11553:11555   */\n      0x17\n        /* \"#utility.yul\":11548:11551   */\n      dup6\n        /* \"#utility.yul\":11544:11556   */\n      add\n        /* \"#utility.yul\":11537:11541   */\n      0x20\n        /* \"#utility.yul\":11529:11535   */\n      dup9\n        /* \"#utility.yul\":11525:11542   */\n      add\n        /* \"#utility.yul\":11503:11565   */\n      tag_480\n      jump\t// in\n    tag_577:\n      shl(0x7d, 0x01034b99036b4b9b9b4b733903937b6329)\n        /* \"#utility.yul\":11624:11626   */\n      0x17\n        /* \"#utility.yul\":11584:11600   */\n      swap2\n      dup5\n      add\n        /* \"#utility.yul\":11616:11627   */\n      swap2\n      dup3\n      add\n        /* \"#utility.yul\":11609:11649   */\n      mstore\n        /* \"#utility.yul\":11674:11687   */\n      dup4\n      mload\n        /* \"#utility.yul\":11696:11759   */\n      tag_578\n        /* \"#utility.yul\":11674:11687   */\n      dup2\n        /* \"#utility.yul\":11745:11747   */\n      0x28\n        /* \"#utility.yul\":11737:11748   */\n      dup5\n      add\n        /* \"#utility.yul\":11730:11734   */\n      0x20\n        /* \"#utility.yul\":11718:11735   */\n      dup9\n      add\n        /* \"#utility.yul\":11696:11759   */\n      tag_480\n      jump\t// in\n    tag_578:\n        /* \"#utility.yul\":11779:11796   */\n      add\n        /* \"#utility.yul\":11798:11800   */\n      0x28\n        /* \"#utility.yul\":11775:11801   */\n      add\n      swap5\n        /* \"#utility.yul\":11021:11807   */\n      swap4\n      pop\n      pop\n      pop\n      pop\n      jump\t// out\n        /* \"#utility.yul\":11812:11980   */\n    tag_421:\n        /* \"#utility.yul\":11852:11859   */\n      0x00\n        /* \"#utility.yul\":11918:11919   */\n      dup2\n        /* \"#utility.yul\":11914:11915   */\n      0x00\n        /* \"#utility.yul\":11910:11916   */\n      not\n        /* \"#utility.yul\":11906:11920   */\n      div\n        /* \"#utility.yul\":11903:11904   */\n      dup4\n        /* \"#utility.yul\":11900:11921   */\n      gt\n        /* \"#utility.yul\":11895:11896   */\n      dup3\n        /* \"#utility.yul\":11888:11897   */\n      iszero\n        /* \"#utility.yul\":11881:11898   */\n      iszero\n        /* \"#utility.yul\":11877:11922   */\n      and\n        /* \"#utility.yul\":11874:11945   */\n      iszero\n      tag_581\n      jumpi\n        /* \"#utility.yul\":11925:11943   */\n      tag_581\n      tag_482\n      jump\t// in\n    tag_581:\n      pop\n        /* \"#utility.yul\":11965:11974   */\n      mul\n      swap1\n        /* \"#utility.yul\":11812:11980   */\n      jump\t// out\n        /* \"#utility.yul\":11985:12121   */\n    tag_440:\n        /* \"#utility.yul\":12024:12027   */\n      0x00\n        /* \"#utility.yul\":12052:12057   */\n      dup2\n        /* \"#utility.yul\":12042:12081   */\n      tag_584\n      jumpi\n        /* \"#utility.yul\":12061:12079   */\n      tag_584\n      tag_482\n      jump\t// in\n    tag_584:\n      pop\n      not(0x00)\n        /* \"#utility.yul\":12097:12115   */\n      add\n      swap1\n        /* \"#utility.yul\":11985:12121   */\n      jump\t// out\n        /* \"#utility.yul\":12487:12614   */\n    tag_461:\n        /* \"#utility.yul\":12548:12558   */\n      0x4e487b71\n        /* \"#utility.yul\":12543:12546   */\n      0xe0\n        /* \"#utility.yul\":12539:12559   */\n      shl\n        /* \"#utility.yul\":12536:12537   */\n      0x00\n        /* \"#utility.yul\":12529:12560   */\n      mstore\n        /* \"#utility.yul\":12579:12583   */\n      0x31\n        /* \"#utility.yul\":12576:12577   */\n      0x04\n        /* \"#utility.yul\":12569:12584   */\n      mstore\n        /* \"#utility.yul\":12603:12607   */\n      0x24\n        /* \"#utility.yul\":12600:12601   */\n      0x00\n        /* \"#utility.yul\":12593:12608   */\n      revert\n    stop\n    data_4c0ef6bfa0a398fe3098d6b3c8bc2c4c45d120ec13b77201d29305b0abb24397 5468652077616c6c657420686173206e6f7420617474657374656420616e7920534254\n    data_9a4fd57166f98e8d7afa26bb80870b0ef0d42c4df4b5a4c9c02a345536d90e3a 97667070c54ef182b0f5858b034beac1b6f3089aa2d3188bb1e8929f4fa9b929\n    data_ada389e1fc24a8587c776340efb91b36e675792ab631816100d55df0b5cf3cbc ddf252ad1be2c89b69c2b068fc378daa952ba7f163c4a11628f55a4df523b3ef\n\n    auxdata: 0xa264697066735822122052c2977ea14240fafbdac993288dfecabba0725a9315fdd690ba00a82372a97664736f6c634300080c0033\n}\n",
				"bytecode": {
					"linkReferences": {},
					"object": "60806040523480156200001157600080fd5b50620000656040518060400160405280600881526020016725aca1aa37b5b2b760c11b8152506040518060400160405280600881526020016725aca1aa37b5b2b760c11b815250336200006b60201b60201c565b62000259565b82516200008090600890602086019062000176565b5081516200009690600990602085019062000176565b50620000a4600082620000d5565b620000d07f97667070c54ef182b0f5858b034beac1b6f3089aa2d3188bb1e8929f4fa9b92982620000d5565b505050565b6000828152602081815260408083206001600160a01b038516845290915290205460ff1662000172576000828152602081815260408083206001600160a01b03851684529091529020805460ff19166001179055620001313390565b6001600160a01b0316816001600160a01b0316837f2f8788117e7eff1d82e926ec794901d17c78024a50270940304540a733656f0d60405160405180910390a45b5050565b82805462000184906200021c565b90600052602060002090601f016020900481019282620001a85760008555620001f3565b82601f10620001c357805160ff1916838001178555620001f3565b82800160010185558215620001f3579182015b82811115620001f3578251825591602001919060010190620001d6565b506200020192915062000205565b5090565b5b8082111562000201576000815560010162000206565b600181811c908216806200023157607f821691505b602082108114156200025357634e487b7160e01b600052602260045260246000fd5b50919050565b611cbf80620002696000396000f3fe608060405234801561001057600080fd5b50600436106101585760003560e01c80636d70f7ae116100c3578063a217fddf1161007c578063a217fddf146102e1578063bc8dd06a146102e9578063c87b56dd146102fc578063d547741f1461030f578063eb31403f14610322578063f5b541a61461033557600080fd5b80636d70f7ae1461027a57806370a082311461028d57806374a8f103146102a0578063773c02d4146102b357806391d14854146102c657806395d89b41146102d957600080fd5b80632f2ff15d116101155780632f2ff15d146101fb57806330176e131461020e57806336568abe1461022157806344df8e70146102345780636352211e1461023c5780636c60144a1461026757600080fd5b8063011002df1461015d57806301ffc9a71461017257806306fdde031461019a57806318160ddd146101af578063248a9ca3146101c557806324d7806c146101e8575b600080fd5b61017061016b366004611620565b61034a565b005b610185610180366004611695565b6104ac565b60405190151581526020015b60405180910390f35b6101a26104f2565b60405161019191906116eb565b6101b7610580565b604051908152602001610191565b6101b76101d336600461171e565b60009081526020819052604090206001015490565b6101856101f6366004611753565b610591565b61017061020936600461176e565b61059d565b61017061021c36600461179a565b6105c7565b61017061022f36600461176e565b61065c565b6101706106da565b61024f61024a36600461171e565b610789565b6040516001600160a01b039091168152602001610191565b610170610275366004611620565b6107c8565b610185610288366004611753565b610927565b6101b761029b366004611753565b610941565b6101706102ae366004611753565b61096b565b6101b76102c1366004611753565b610a73565b6101856102d436600461176e565b610a9b565b6101a2610ac4565b6101b7600081565b6101b76102f73660046117fa565b610ad1565b6101a261030a36600461171e565b610bf6565b61017061031d36600461176e565b610c54565b6101b7610330366004611753565b610c79565b6101b7600080516020611c4a83398151915281565b80610363600080516020611c4a83398151915233610a9b565b6103885760405162461bcd60e51b815260040161037f90611824565b60405180910390fd5b60648111156103a95760405162461bcd60e51b815260040161037f9061187a565b60005b818160ff1610156104a657600084848360ff168181106103ce576103ce6118bc565b90506020020160208101906103e39190611753565b90506001600160a01b03811615806104035750610401600482610db9565b155b1561040e5750610494565b600061041b600483610dd5565b9050610428600483610dea565b50610434600182610dff565b5060405181906001600160a01b038416907fec9ab91322523c899ede7830ec9bfc992b5981cdcc27b91162fb23de5791117b90600090a360405181906000906001600160a01b03851690600080516020611c6a833981519152908390a450505b8061049e816118e8565b9150506103ac565b50505050565b60006001600160e01b031982166380ac58cd60e01b14806104dd57506001600160e01b03198216635b5e139f60e01b145b806104ec57506104ec82610e0b565b92915050565b600880546104ff90611908565b80601f016020809104026020016040519081016040528092919081815260200182805461052b90611908565b80156105785780601f1061054d57610100808354040283529160200191610578565b820191906000526020600020905b81548152906001019060200180831161055b57829003601f168201915b505050505081565b600061058c6004610e40565b905090565b60006104ec8183610a9b565b6000828152602081905260409020600101546105b881610e4b565b6105c28383610e58565b505050565b6105d2600033610a9b565b6106505760405162461bcd60e51b815260206004820152604360248201527f4f6e6c7920746865206163636f756e7420776974682044454641554c545f414460448201527f4d494e5f524f4c452063616e2073657420746865206261736520746f6b656e2060648201526255524960e81b608482015260a40161037f565b6105c2600a8383611587565b6001600160a01b03811633146106cc5760405162461bcd60e51b815260206004820152602f60248201527f416363657373436f6e74726f6c3a2063616e206f6e6c792072656e6f756e636560448201526e103937b632b9903337b91039b2b63360891b606482015260840161037f565b6106d68282610edc565b5050565b336106e6600482610db9565b6107025760405162461bcd60e51b815260040161037f90611943565b600061070f600483610dd5565b905061071c600483610dea565b50610728600182610dff565b5060405181906001600160a01b038416907fcc16f5dbb4873280815c1ee09dbd06736cffcc184412cf7a71a0fdb75d397ca590600090a360405181906000906001600160a01b03851690600080516020611c6a833981519152908390a45050565b60006104ec826040518060400160405280600f81526020016e125b9d985b1a59081d1bdad95b9259608a1b8152506001610f419092919063ffffffff16565b806107e1600080516020611c4a83398151915233610a9b565b6107fd5760405162461bcd60e51b815260040161037f90611984565b606481111561081e5760405162461bcd60e51b815260040161037f9061187a565b60005b818160ff1610156104a657600084848360ff16818110610843576108436118bc565b90506020020160208101906108589190611753565b90506001600160a01b03811615806108765750610876600482610db9565b156108815750610915565b61088f600780546001019055565b600061089a60075490565b90506108a860048383610f56565b506108b560018284610f6c565b5060405181906001600160a01b038416907fe9274a84b19e9428826de6bae8c48329354f8f0e73f771b97cae2d9dccd45a2790600090a360405181906001600160a01b03841690600090600080516020611c6a833981519152908290a450505b8061091f816118e8565b915050610821565b60006104ec600080516020611c4a83398151915283610a9b565b60008061094f600484610f82565b5090508061095e576000610961565b60015b60ff169392505050565b610983600080516020611c4a83398151915233610a9b565b61099f5760405162461bcd60e51b815260040161037f90611824565b6001600160a01b0381166109c55760405162461bcd60e51b815260040161037f906119da565b6109d0600482610db9565b6109ec5760405162461bcd60e51b815260040161037f90611943565b60006109f9600483610dd5565b9050610a06600483610dea565b50610a12600182610dff565b5060405181906001600160a01b038416907fec9ab91322523c899ede7830ec9bfc992b5981cdcc27b91162fb23de5791117b90600090a360405181906000906001600160a01b03851690600080516020611c6a833981519152908390a45050565b60006104ec82604051806060016040528060238152602001611c276023913960049190610fa9565b6000918252602082815260408084206001600160a01b0393909316845291905290205460ff1690565b600980546104ff90611908565b6000610aeb600080516020611c4a83398151915233610a9b565b610b075760405162461bcd60e51b815260040161037f90611984565b6001600160a01b038316610b2d5760405162461bcd60e51b815260040161037f906119da565b610b38600484610db9565b15610b7a5760405162461bcd60e51b815260206004820152601260248201527153425420616c72656164792065786973747360701b604482015260640161037f565b610b8660048484610f56565b50610b9360018385610f6c565b5060405182906001600160a01b038516907fe9274a84b19e9428826de6bae8c48329354f8f0e73f771b97cae2d9dccd45a2790600090a360405182906001600160a01b03851690600090600080516020611c6a833981519152908290a450919050565b60606000600a8054610c0790611908565b905011610c2357604051806020016040528060008152506104ec565b600a610c2e83610fbf565b604051602001610c3f929190611a20565b60405160208183030381529060405292915050565b600082815260208190526040902060010154610c6f81610e4b565b6105c28383610edc565b6000610c93600080516020611c4a83398151915233610a9b565b610caf5760405162461bcd60e51b815260040161037f90611984565b6001600160a01b038216610cd55760405162461bcd60e51b815260040161037f906119da565b610ce0600483610db9565b15610d225760405162461bcd60e51b815260206004820152601260248201527153425420616c72656164792065786973747360701b604482015260640161037f565b610d30600780546001019055565b6000610d3b60075490565b9050610d4960048483610f56565b50610d5660018285610f6c565b5060405181906001600160a01b038516907fe9274a84b19e9428826de6bae8c48329354f8f0e73f771b97cae2d9dccd45a2790600090a360405181906001600160a01b03851690600090600080516020611c6a833981519152908290a492915050565b6000610dce836001600160a01b0384166110bd565b9392505050565b6000610dce836001600160a01b0384166110c9565b6000610dce836001600160a01b038416611139565b6000610dce8383611139565b60006001600160e01b03198216637965db0b60e01b14806104ec57506301ffc9a760e01b6001600160e01b03198316146104ec565b60006104ec82611156565b610e558133611161565b50565b610e628282610a9b565b6106d6576000828152602081815260408083206001600160a01b03851684529091529020805460ff19166001179055610e983390565b6001600160a01b0316816001600160a01b0316837f2f8788117e7eff1d82e926ec794901d17c78024a50270940304540a733656f0d60405160405180910390a45050565b610ee68282610a9b565b156106d6576000828152602081815260408083206001600160a01b0385168085529252808320805460ff1916905551339285917ff6391f5c32d9c69d2a47ea670b442974b53935d1edc7fd64eb21e047a839171b9190a45050565b6000610f4e8484846111ba565b949350505050565b6000610f4e846001600160a01b03851684611206565b6000610f4e84846001600160a01b038516611206565b6000808080610f9a866001600160a01b038716611223565b909450925050505b9250929050565b6000610f4e846001600160a01b038516846111ba565b606081610fe35750506040805180820190915260018152600360fc1b602082015290565b8160005b811561100d5780610ff781611ac7565b91506110069050600a83611af8565b9150610fe7565b60008167ffffffffffffffff81111561102857611028611b0c565b6040519080825280601f01601f191660200182016040528015611052576020820181803683370190505b5090505b8415610f4e57611067600183611b22565b9150611074600a86611b39565b61107f906030611b4d565b60f81b818381518110611094576110946118bc565b60200101906001600160f81b031916908160001a9053506110b6600a86611af8565b9450611056565b6000610dce838361125d565b6000818152600283016020526040812054801515806110ed57506110ed84846110bd565b610dce5760405162461bcd60e51b815260206004820152601e60248201527f456e756d657261626c654d61703a206e6f6e6578697374656e74206b65790000604482015260640161037f565b60008181526002830160205260408120819055610dce8383611275565b60006104ec82611281565b61116b8282610a9b565b6106d6576111788161128b565b61118383602061129d565b604051602001611194929190611b65565b60408051601f198184030181529082905262461bcd60e51b825261037f916004016116eb565b6000828152600284016020526040812054801515806111de57506111de85856110bd565b83906111fd5760405162461bcd60e51b815260040161037f91906116eb565b50949350505050565b60008281526002840160205260408120829055610f4e8484611439565b60008181526002830160205260408120548190806112525761124585856110bd565b925060009150610fa29050565b600192509050610fa2565b60008181526001830160205260408120541515610dce565b6000610dce8383611445565b60006104ec825490565b60606104ec6001600160a01b03831660145b606060006112ac836002611bda565b6112b7906002611b4d565b67ffffffffffffffff8111156112cf576112cf611b0c565b6040519080825280601f01601f1916602001820160405280156112f9576020820181803683370190505b509050600360fc1b81600081518110611314576113146118bc565b60200101906001600160f81b031916908160001a905350600f60fb1b81600181518110611343576113436118bc565b60200101906001600160f81b031916908160001a9053506000611367846002611bda565b611372906001611b4d565b90505b60018111156113ea576f181899199a1a9b1b9c1cb0b131b232b360811b85600f16601081106113a6576113a66118bc565b1a60f81b8282815181106113bc576113bc6118bc565b60200101906001600160f81b031916908160001a90535060049490941c936113e381611bf9565b9050611375565b508315610dce5760405162461bcd60e51b815260206004820181905260248201527f537472696e67733a20686578206c656e67746820696e73756666696369656e74604482015260640161037f565b6000610dce8383611538565b6000818152600183016020526040812054801561152e576000611469600183611b22565b855490915060009061147d90600190611b22565b90508181146114e257600086600001828154811061149d5761149d6118bc565b90600052602060002001549050808760000184815481106114c0576114c06118bc565b6000918252602080832090910192909255918252600188019052604090208390555b85548690806114f3576114f3611c10565b6001900381819060005260206000200160009055905585600101600086815260200190815260200160002060009055600193505050506104ec565b60009150506104ec565b600081815260018301602052604081205461157f575081546001818101845560008481526020808220909301849055845484825282860190935260409020919091556104ec565b5060006104ec565b82805461159390611908565b90600052602060002090601f0160209004810192826115b557600085556115fb565b82601f106115ce5782800160ff198235161785556115fb565b828001600101855582156115fb579182015b828111156115fb5782358255916020019190600101906115e0565b5061160792915061160b565b5090565b5b80821115611607576000815560010161160c565b6000806020838503121561163357600080fd5b823567ffffffffffffffff8082111561164b57600080fd5b818501915085601f83011261165f57600080fd5b81358181111561166e57600080fd5b8660208260051b850101111561168357600080fd5b60209290920196919550909350505050565b6000602082840312156116a757600080fd5b81356001600160e01b031981168114610dce57600080fd5b60005b838110156116da5781810151838201526020016116c2565b838111156104a65750506000910152565b602081526000825180602084015261170a8160408501602087016116bf565b601f01601f19169190910160400192915050565b60006020828403121561173057600080fd5b5035919050565b80356001600160a01b038116811461174e57600080fd5b919050565b60006020828403121561176557600080fd5b610dce82611737565b6000806040838503121561178157600080fd5b8235915061179160208401611737565b90509250929050565b600080602083850312156117ad57600080fd5b823567ffffffffffffffff808211156117c557600080fd5b818501915085601f8301126117d957600080fd5b8135818111156117e857600080fd5b86602082850101111561168357600080fd5b6000806040838503121561180d57600080fd5b61181683611737565b946020939093013593505050565b60208082526036908201527f4f6e6c7920746865206163636f756e742077697468204f50455241544f525f5260408201527513d3114818d85b881c995d9bdad9481d1a194814d09560521b606082015260800190565b60208082526022908201527f546865206d6178206c656e677468206f66206164647265737365732069732031604082015261030360f41b606082015260800190565b634e487b7160e01b600052603260045260246000fd5b634e487b7160e01b600052601160045260246000fd5b600060ff821660ff8114156118ff576118ff6118d2565b60010192915050565b600181811c9082168061191c57607f821691505b6020821081141561193d57634e487b7160e01b600052602260045260246000fd5b50919050565b60208082526021908201527f546865206163636f756e7420646f6573206e6f74206861766520616e792053426040820152601560fa1b606082015260800190565b60208082526036908201527f4f6e6c7920746865206163636f756e742077697468204f50455241544f525f5260408201527513d3114818d85b88185d1d195cdd081d1a194814d09560521b606082015260800190565b60208082526010908201526f4164647265737320697320656d70747960801b604082015260600190565b60008151611a168185602086016116bf565b9290920192915050565b600080845481600182811c915080831680611a3c57607f831692505b6020808410821415611a5c57634e487b7160e01b86526022600452602486fd5b818015611a705760018114611a8157611aae565b60ff19861689528489019650611aae565b60008b81526020902060005b86811015611aa65781548b820152908501908301611a8d565b505084890196505b505050505050611abe8185611a04565b95945050505050565b6000600019821415611adb57611adb6118d2565b5060010190565b634e487b7160e01b600052601260045260246000fd5b600082611b0757611b07611ae2565b500490565b634e487b7160e01b600052604160045260246000fd5b600082821015611b3457611b346118d2565b500390565b600082611b4857611b48611ae2565b500690565b60008219821115611b6057611b606118d2565b500190565b7f416363657373436f6e74726f6c3a206163636f756e7420000000000000000000815260008351611b9d8160178501602088016116bf565b7001034b99036b4b9b9b4b733903937b6329607d1b6017918401918201528351611bce8160288401602088016116bf565b01602801949350505050565b6000816000190483118215151615611bf457611bf46118d2565b500290565b600081611c0857611c086118d2565b506000190190565b634e487b7160e01b600052603160045260246000fdfe5468652077616c6c657420686173206e6f7420617474657374656420616e792053425497667070c54ef182b0f5858b034beac1b6f3089aa2d3188bb1e8929f4fa9b929ddf252ad1be2c89b69c2b068fc378daa952ba7f163c4a11628f55a4df523b3efa264697066735822122052c2977ea14240fafbdac993288dfecabba0725a9315fdd690ba00a82372a97664736f6c634300080c0033",
					"opcodes": "PUSH1 0x80 PUSH1 0x40 MSTORE CALLVALUE DUP1 ISZERO PUSH3 0x11 JUMPI PUSH1 0x0 DUP1 REVERT JUMPDEST POP PUSH3 0x65 PUSH1 0x40 MLOAD DUP1 PUSH1 0x40 ADD PUSH1 0x40 MSTORE DUP1 PUSH1 0x8 DUP2 MSTORE PUSH1 0x20 ADD PUSH8 0x25ACA1AA37B5B2B7 PUSH1 0xC1 SHL DUP2 MSTORE POP PUSH1 0x40 MLOAD DUP1 PUSH1 0x40 ADD PUSH1 0x40 MSTORE DUP1 PUSH1 0x8 DUP2 MSTORE PUSH1 0x20 ADD PUSH8 0x25ACA1AA37B5B2B7 PUSH1 0xC1 SHL DUP2 MSTORE POP CALLER PUSH3 0x6B PUSH1 0x20 SHL PUSH1 0x20 SHR JUMP JUMPDEST PUSH3 0x259 JUMP JUMPDEST DUP3 MLOAD PUSH3 0x80 SWAP1 PUSH1 0x8 SWAP1 PUSH1 0x20 DUP7 ADD SWAP1 PUSH3 0x176 JUMP JUMPDEST POP DUP2 MLOAD PUSH3 0x96 SWAP1 PUSH1 0x9 SWAP1 PUSH1 0x20 DUP6 ADD SWAP1 PUSH3 0x176 JUMP JUMPDEST POP PUSH3 0xA4 PUSH1 0x0 DUP3 PUSH3 0xD5 JUMP JUMPDEST PUSH3 0xD0 PUSH32 0x97667070C54EF182B0F5858B034BEAC1B6F3089AA2D3188BB1E8929F4FA9B929 DUP3 PUSH3 0xD5 JUMP JUMPDEST POP POP POP JUMP JUMPDEST PUSH1 0x0 DUP3 DUP2 MSTORE PUSH1 0x20 DUP2 DUP2 MSTORE PUSH1 0x40 DUP1 DUP4 KECCAK256 PUSH1 0x1 PUSH1 0x1 PUSH1 0xA0 SHL SUB DUP6 AND DUP5 MSTORE SWAP1 SWAP2 MSTORE SWAP1 KECCAK256 SLOAD PUSH1 0xFF AND PUSH3 0x172 JUMPI PUSH1 0x0 DUP3 DUP2 MSTORE PUSH1 0x20 DUP2 DUP2 MSTORE PUSH1 0x40 DUP1 DUP4 KECCAK256 PUSH1 0x1 PUSH1 0x1 PUSH1 0xA0 SHL SUB DUP6 AND DUP5 MSTORE SWAP1 SWAP2 MSTORE SWAP1 KECCAK256 DUP1 SLOAD PUSH1 0xFF NOT AND PUSH1 0x1 OR SWAP1 SSTORE PUSH3 0x131 CALLER SWAP1 JUMP JUMPDEST PUSH1 0x1 PUSH1 0x1 PUSH1 0xA0 SHL SUB AND DUP2 PUSH1 0x1 PUSH1 0x1 PUSH1 0xA0 SHL SUB AND DUP4 PUSH32 0x2F8788117E7EFF1D82E926EC794901D17C78024A50270940304540A733656F0D PUSH1 0x40 MLOAD PUSH1 0x40 MLOAD DUP1 SWAP2 SUB SWAP1 LOG4 JUMPDEST POP POP JUMP JUMPDEST DUP3 DUP1 SLOAD PUSH3 0x184 SWAP1 PUSH3 0x21C JUMP JUMPDEST SWAP1 PUSH1 0x0 MSTORE PUSH1 0x20 PUSH1 0x0 KECCAK256 SWAP1 PUSH1 0x1F ADD PUSH1 0x20 SWAP1 DIV DUP2 ADD SWAP3 DUP3 PUSH3 0x1A8 JUMPI PUSH1 0x0 DUP6 SSTORE PUSH3 0x1F3 JUMP JUMPDEST DUP3 PUSH1 0x1F LT PUSH3 0x1C3 JUMPI DUP1 MLOAD PUSH1 0xFF NOT AND DUP4 DUP1 ADD OR DUP6 SSTORE PUSH3 0x1F3 JUMP JUMPDEST DUP3 DUP1 ADD PUSH1 0x1 ADD DUP6 SSTORE DUP3 ISZERO PUSH3 0x1F3 JUMPI SWAP2 DUP3 ADD JUMPDEST DUP3 DUP2 GT ISZERO PUSH3 0x1F3 JUMPI DUP3 MLOAD DUP3 SSTORE SWAP2 PUSH1 0x20 ADD SWAP2 SWAP1 PUSH1 0x1 ADD SWAP1 PUSH3 0x1D6 JUMP JUMPDEST POP PUSH3 0x201 SWAP3 SWAP2 POP PUSH3 0x205 JUMP JUMPDEST POP SWAP1 JUMP JUMPDEST JUMPDEST DUP1 DUP3 GT ISZERO PUSH3 0x201 JUMPI PUSH1 0x0 DUP2 SSTORE PUSH1 0x1 ADD PUSH3 0x206 JUMP JUMPDEST PUSH1 0x1 DUP2 DUP2 SHR SWAP1 DUP3 AND DUP1 PUSH3 0x231 JUMPI PUSH1 0x7F DUP3 AND SWAP2 POP JUMPDEST PUSH1 0x20 DUP3 LT DUP2 EQ ISZERO PUSH3 0x253 JUMPI PUSH4 0x4E487B71 PUSH1 0xE0 SHL PUSH1 0x0 MSTORE PUSH1 0x22 PUSH1 0x4 MSTORE PUSH1 0x24 PUSH1 0x0 REVERT JUMPDEST POP SWAP2 SWAP1 POP JUMP JUMPDEST PUSH2 0x1CBF DUP1 PUSH3 0x269 PUSH1 0x0 CODECOPY PUSH1 0x0 RETURN INVALID PUSH1 0x80 PUSH1 0x40 MSTORE CALLVALUE DUP1 ISZERO PUSH2 0x10 JUMPI PUSH1 0x0 DUP1 REVERT JUMPDEST POP PUSH1 0x4 CALLDATASIZE LT PUSH2 0x158 JUMPI PUSH1 0x0 CALLDATALOAD PUSH1 0xE0 SHR DUP1 PUSH4 0x6D70F7AE GT PUSH2 0xC3 JUMPI DUP1 PUSH4 0xA217FDDF GT PUSH2 0x7C JUMPI DUP1 PUSH4 0xA217FDDF EQ PUSH2 0x2E1 JUMPI DUP1 PUSH4 0xBC8DD06A EQ PUSH2 0x2E9 JUMPI DUP1 PUSH4 0xC87B56DD EQ PUSH2 0x2FC JUMPI DUP1 PUSH4 0xD547741F EQ PUSH2 0x30F JUMPI DUP1 PUSH4 0xEB31403F EQ PUSH2 0x322 JUMPI DUP1 PUSH4 0xF5B541A6 EQ PUSH2 0x335 JUMPI PUSH1 0x0 DUP1 REVERT JUMPDEST DUP1 PUSH4 0x6D70F7AE EQ PUSH2 0x27A JUMPI DUP1 PUSH4 0x70A08231 EQ PUSH2 0x28D JUMPI DUP1 PUSH4 0x74A8F103 EQ PUSH2 0x2A0 JUMPI DUP1 PUSH4 0x773C02D4 EQ PUSH2 0x2B3 JUMPI DUP1 PUSH4 0x91D14854 EQ PUSH2 0x2C6 JUMPI DUP1 PUSH4 0x95D89B41 EQ PUSH2 0x2D9 JUMPI PUSH1 0x0 DUP1 REVERT JUMPDEST DUP1 PUSH4 0x2F2FF15D GT PUSH2 0x115 JUMPI DUP1 PUSH4 0x2F2FF15D EQ PUSH2 0x1FB JUMPI DUP1 PUSH4 0x30176E13 EQ PUSH2 0x20E JUMPI DUP1 PUSH4 0x36568ABE EQ PUSH2 0x221 JUMPI DUP1 PUSH4 0x44DF8E70 EQ PUSH2 0x234 JUMPI DUP1 PUSH4 0x6352211E EQ PUSH2 0x23C JUMPI DUP1 PUSH4 0x6C60144A EQ PUSH2 0x267 JUMPI PUSH1 0x0 DUP1 REVERT JUMPDEST DUP1 PUSH4 0x11002DF EQ PUSH2 0x15D JUMPI DUP1 PUSH4 0x1FFC9A7 EQ PUSH2 0x172 JUMPI DUP1 PUSH4 0x6FDDE03 EQ PUSH2 0x19A JUMPI DUP1 PUSH4 0x18160DDD EQ PUSH2 0x1AF JUMPI DUP1 PUSH4 0x248A9CA3 EQ PUSH2 0x1C5 JUMPI DUP1 PUSH4 0x24D7806C EQ PUSH2 0x1E8 JUMPI JUMPDEST PUSH1 0x0 DUP1 REVERT JUMPDEST PUSH2 0x170 PUSH2 0x16B CALLDATASIZE PUSH1 0x4 PUSH2 0x1620 JUMP JUMPDEST PUSH2 0x34A JUMP JUMPDEST STOP JUMPDEST PUSH2 0x185 PUSH2 0x180 CALLDATASIZE PUSH1 0x4 PUSH2 0x1695 JUMP JUMPDEST PUSH2 0x4AC JUMP JUMPDEST PUSH1 0x40 MLOAD SWAP1 ISZERO ISZERO DUP2 MSTORE PUSH1 0x20 ADD JUMPDEST PUSH1 0x40 MLOAD DUP1 SWAP2 SUB SWAP1 RETURN JUMPDEST PUSH2 0x1A2 PUSH2 0x4F2 JUMP JUMPDEST PUSH1 0x40 MLOAD PUSH2 0x191 SWAP2 SWAP1 PUSH2 0x16EB JUMP JUMPDEST PUSH2 0x1B7 PUSH2 0x580 JUMP JUMPDEST PUSH1 0x40 MLOAD SWAP1 DUP2 MSTORE PUSH1 0x20 ADD PUSH2 0x191 JUMP JUMPDEST PUSH2 0x1B7 PUSH2 0x1D3 CALLDATASIZE PUSH1 0x4 PUSH2 0x171E JUMP JUMPDEST PUSH1 0x0 SWAP1 DUP2 MSTORE PUSH1 0x20 DUP2 SWAP1 MSTORE PUSH1 0x40 SWAP1 KECCAK256 PUSH1 0x1 ADD SLOAD SWAP1 JUMP JUMPDEST PUSH2 0x185 PUSH2 0x1F6 CALLDATASIZE PUSH1 0x4 PUSH2 0x1753 JUMP JUMPDEST PUSH2 0x591 JUMP JUMPDEST PUSH2 0x170 PUSH2 0x209 CALLDATASIZE PUSH1 0x4 PUSH2 0x176E JUMP JUMPDEST PUSH2 0x59D JUMP JUMPDEST PUSH2 0x170 PUSH2 0x21C CALLDATASIZE PUSH1 0x4 PUSH2 0x179A JUMP JUMPDEST PUSH2 0x5C7 JUMP JUMPDEST PUSH2 0x170 PUSH2 0x22F CALLDATASIZE PUSH1 0x4 PUSH2 0x176E JUMP JUMPDEST PUSH2 0x65C JUMP JUMPDEST PUSH2 0x170 PUSH2 0x6DA JUMP JUMPDEST PUSH2 0x24F PUSH2 0x24A CALLDATASIZE PUSH1 0x4 PUSH2 0x171E JUMP JUMPDEST PUSH2 0x789 JUMP JUMPDEST PUSH1 0x40 MLOAD PUSH1 0x1 PUSH1 0x1 PUSH1 0xA0 SHL SUB SWAP1 SWAP2 AND DUP2 MSTORE PUSH1 0x20 ADD PUSH2 0x191 JUMP JUMPDEST PUSH2 0x170 PUSH2 0x275 CALLDATASIZE PUSH1 0x4 PUSH2 0x1620 JUMP JUMPDEST PUSH2 0x7C8 JUMP JUMPDEST PUSH2 0x185 PUSH2 0x288 CALLDATASIZE PUSH1 0x4 PUSH2 0x1753 JUMP JUMPDEST PUSH2 0x927 JUMP JUMPDEST PUSH2 0x1B7 PUSH2 0x29B CALLDATASIZE PUSH1 0x4 PUSH2 0x1753 JUMP JUMPDEST PUSH2 0x941 JUMP JUMPDEST PUSH2 0x170 PUSH2 0x2AE CALLDATASIZE PUSH1 0x4 PUSH2 0x1753 JUMP JUMPDEST PUSH2 0x96B JUMP JUMPDEST PUSH2 0x1B7 PUSH2 0x2C1 CALLDATASIZE PUSH1 0x4 PUSH2 0x1753 JUMP JUMPDEST PUSH2 0xA73 JUMP JUMPDEST PUSH2 0x185 PUSH2 0x2D4 CALLDATASIZE PUSH1 0x4 PUSH2 0x176E JUMP JUMPDEST PUSH2 0xA9B JUMP JUMPDEST PUSH2 0x1A2 PUSH2 0xAC4 JUMP JUMPDEST PUSH2 0x1B7 PUSH1 0x0 DUP2 JUMP JUMPDEST PUSH2 0x1B7 PUSH2 0x2F7 CALLDATASIZE PUSH1 0x4 PUSH2 0x17FA JUMP JUMPDEST PUSH2 0xAD1 JUMP JUMPDEST PUSH2 0x1A2 PUSH2 0x30A CALLDATASIZE PUSH1 0x4 PUSH2 0x171E JUMP JUMPDEST PUSH2 0xBF6 JUMP JUMPDEST PUSH2 0x170 PUSH2 0x31D CALLDATASIZE PUSH1 0x4 PUSH2 0x176E JUMP JUMPDEST PUSH2 0xC54 JUMP JUMPDEST PUSH2 0x1B7 PUSH2 0x330 CALLDATASIZE PUSH1 0x4 PUSH2 0x1753 JUMP JUMPDEST PUSH2 0xC79 JUMP JUMPDEST PUSH2 0x1B7 PUSH1 0x0 DUP1 MLOAD PUSH1 0x20 PUSH2 0x1C4A DUP4 CODECOPY DUP2 MLOAD SWAP2 MSTORE DUP2 JUMP JUMPDEST DUP1 PUSH2 0x363 PUSH1 0x0 DUP1 MLOAD PUSH1 0x20 PUSH2 0x1C4A DUP4 CODECOPY DUP2 MLOAD SWAP2 MSTORE CALLER PUSH2 0xA9B JUMP JUMPDEST PUSH2 0x388 JUMPI PUSH1 0x40 MLOAD PUSH3 0x461BCD PUSH1 0xE5 SHL DUP2 MSTORE PUSH1 0x4 ADD PUSH2 0x37F SWAP1 PUSH2 0x1824 JUMP JUMPDEST PUSH1 0x40 MLOAD DUP1 SWAP2 SUB SWAP1 REVERT JUMPDEST PUSH1 0x64 DUP2 GT ISZERO PUSH2 0x3A9 JUMPI PUSH1 0x40 MLOAD PUSH3 0x461BCD PUSH1 0xE5 SHL DUP2 MSTORE PUSH1 0x4 ADD PUSH2 0x37F SWAP1 PUSH2 0x187A JUMP JUMPDEST PUSH1 0x0 JUMPDEST DUP2 DUP2 PUSH1 0xFF AND LT ISZERO PUSH2 0x4A6 JUMPI PUSH1 0x0 DUP5 DUP5 DUP4 PUSH1 0xFF AND DUP2 DUP2 LT PUSH2 0x3CE JUMPI PUSH2 0x3CE PUSH2 0x18BC JUMP JUMPDEST SWAP1 POP PUSH1 0x20 MUL ADD PUSH1 0x20 DUP2 ADD SWAP1 PUSH2 0x3E3 SWAP2 SWAP1 PUSH2 0x1753 JUMP JUMPDEST SWAP1 POP PUSH1 0x1 PUSH1 0x1 PUSH1 0xA0 SHL SUB DUP2 AND ISZERO DUP1 PUSH2 0x403 JUMPI POP PUSH2 0x401 PUSH1 0x4 DUP3 PUSH2 0xDB9 JUMP JUMPDEST ISZERO JUMPDEST ISZERO PUSH2 0x40E JUMPI POP PUSH2 0x494 JUMP JUMPDEST PUSH1 0x0 PUSH2 0x41B PUSH1 0x4 DUP4 PUSH2 0xDD5 JUMP JUMPDEST SWAP1 POP PUSH2 0x428 PUSH1 0x4 DUP4 PUSH2 0xDEA JUMP JUMPDEST POP PUSH2 0x434 PUSH1 0x1 DUP3 PUSH2 0xDFF JUMP JUMPDEST POP PUSH1 0x40 MLOAD DUP2 SWAP1 PUSH1 0x1 PUSH1 0x1 PUSH1 0xA0 SHL SUB DUP5 AND SWAP1 PUSH32 0xEC9AB91322523C899EDE7830EC9BFC992B5981CDCC27B91162FB23DE5791117B SWAP1 PUSH1 0x0 SWAP1 LOG3 PUSH1 0x40 MLOAD DUP2 SWAP1 PUSH1 0x0 SWAP1 PUSH1 0x1 PUSH1 0x1 PUSH1 0xA0 SHL SUB DUP6 AND SWAP1 PUSH1 0x0 DUP1 MLOAD PUSH1 0x20 PUSH2 0x1C6A DUP4 CODECOPY DUP2 MLOAD SWAP2 MSTORE SWAP1 DUP4 SWAP1 LOG4 POP POP JUMPDEST DUP1 PUSH2 0x49E DUP2 PUSH2 0x18E8 JUMP JUMPDEST SWAP2 POP POP PUSH2 0x3AC JUMP JUMPDEST POP POP POP POP JUMP JUMPDEST PUSH1 0x0 PUSH1 0x1 PUSH1 0x1 PUSH1 0xE0 SHL SUB NOT DUP3 AND PUSH4 0x80AC58CD PUSH1 0xE0 SHL EQ DUP1 PUSH2 0x4DD JUMPI POP PUSH1 0x1 PUSH1 0x1 PUSH1 0xE0 SHL SUB NOT DUP3 AND PUSH4 0x5B5E139F PUSH1 0xE0 SHL EQ JUMPDEST DUP1 PUSH2 0x4EC JUMPI POP PUSH2 0x4EC DUP3 PUSH2 0xE0B JUMP JUMPDEST SWAP3 SWAP2 POP POP JUMP JUMPDEST PUSH1 0x8 DUP1 SLOAD PUSH2 0x4FF SWAP1 PUSH2 0x1908 JUMP JUMPDEST DUP1 PUSH1 0x1F ADD PUSH1 0x20 DUP1 SWAP2 DIV MUL PUSH1 0x20 ADD PUSH1 0x40 MLOAD SWAP1 DUP2 ADD PUSH1 0x40 MSTORE DUP1 SWAP3 SWAP2 SWAP1 DUP2 DUP2 MSTORE PUSH1 0x20 ADD DUP3 DUP1 SLOAD PUSH2 0x52B SWAP1 PUSH2 0x1908 JUMP JUMPDEST DUP1 ISZERO PUSH2 0x578 JUMPI DUP1 PUSH1 0x1F LT PUSH2 0x54D JUMPI PUSH2 0x100 DUP1 DUP4 SLOAD DIV MUL DUP4 MSTORE SWAP2 PUSH1 0x20 ADD SWAP2 PUSH2 0x578 JUMP JUMPDEST DUP3 ADD SWAP2 SWAP1 PUSH1 0x0 MSTORE PUSH1 0x20 PUSH1 0x0 KECCAK256 SWAP1 JUMPDEST DUP2 SLOAD DUP2 MSTORE SWAP1 PUSH1 0x1 ADD SWAP1 PUSH1 0x20 ADD DUP1 DUP4 GT PUSH2 0x55B JUMPI DUP3 SWAP1 SUB PUSH1 0x1F AND DUP3 ADD SWAP2 JUMPDEST POP POP POP POP POP DUP2 JUMP JUMPDEST PUSH1 0x0 PUSH2 0x58C PUSH1 0x4 PUSH2 0xE40 JUMP JUMPDEST SWAP1 POP SWAP1 JUMP JUMPDEST PUSH1 0x0 PUSH2 0x4EC DUP2 DUP4 PUSH2 0xA9B JUMP JUMPDEST PUSH1 0x0 DUP3 DUP2 MSTORE PUSH1 0x20 DUP2 SWAP1 MSTORE PUSH1 0x40 SWAP1 KECCAK256 PUSH1 0x1 ADD SLOAD PUSH2 0x5B8 DUP2 PUSH2 0xE4B JUMP JUMPDEST PUSH2 0x5C2 DUP4 DUP4 PUSH2 0xE58 JUMP JUMPDEST POP POP POP JUMP JUMPDEST PUSH2 0x5D2 PUSH1 0x0 CALLER PUSH2 0xA9B JUMP JUMPDEST PUSH2 0x650 JUMPI PUSH1 0x40 MLOAD PUSH3 0x461BCD PUSH1 0xE5 SHL DUP2 MSTORE PUSH1 0x20 PUSH1 0x4 DUP3 ADD MSTORE PUSH1 0x43 PUSH1 0x24 DUP3 ADD MSTORE PUSH32 0x4F6E6C7920746865206163636F756E7420776974682044454641554C545F4144 PUSH1 0x44 DUP3 ADD MSTORE PUSH32 0x4D494E5F524F4C452063616E2073657420746865206261736520746F6B656E20 PUSH1 0x64 DUP3 ADD MSTORE PUSH3 0x555249 PUSH1 0xE8 SHL PUSH1 0x84 DUP3 ADD MSTORE PUSH1 0xA4 ADD PUSH2 0x37F JUMP JUMPDEST PUSH2 0x5C2 PUSH1 0xA DUP4 DUP4 PUSH2 0x1587 JUMP JUMPDEST PUSH1 0x1 PUSH1 0x1 PUSH1 0xA0 SHL SUB DUP2 AND CALLER EQ PUSH2 0x6CC JUMPI PUSH1 0x40 MLOAD PUSH3 0x461BCD PUSH1 0xE5 SHL DUP2 MSTORE PUSH1 0x20 PUSH1 0x4 DUP3 ADD MSTORE PUSH1 0x2F PUSH1 0x24 DUP3 ADD MSTORE PUSH32 0x416363657373436F6E74726F6C3A2063616E206F6E6C792072656E6F756E6365 PUSH1 0x44 DUP3 ADD MSTORE PUSH15 0x103937B632B9903337B91039B2B633 PUSH1 0x89 SHL PUSH1 0x64 DUP3 ADD MSTORE PUSH1 0x84 ADD PUSH2 0x37F JUMP JUMPDEST PUSH2 0x6D6 DUP3 DUP3 PUSH2 0xEDC JUMP JUMPDEST POP POP JUMP JUMPDEST CALLER PUSH2 0x6E6 PUSH1 0x4 DUP3 PUSH2 0xDB9 JUMP JUMPDEST PUSH2 0x702 JUMPI PUSH1 0x40 MLOAD PUSH3 0x461BCD PUSH1 0xE5 SHL DUP2 MSTORE PUSH1 0x4 ADD PUSH2 0x37F SWAP1 PUSH2 0x1943 JUMP JUMPDEST PUSH1 0x0 PUSH2 0x70F PUSH1 0x4 DUP4 PUSH2 0xDD5 JUMP JUMPDEST SWAP1 POP PUSH2 0x71C PUSH1 0x4 DUP4 PUSH2 0xDEA JUMP JUMPDEST POP PUSH2 0x728 PUSH1 0x1 DUP3 PUSH2 0xDFF JUMP JUMPDEST POP PUSH1 0x40 MLOAD DUP2 SWAP1 PUSH1 0x1 PUSH1 0x1 PUSH1 0xA0 SHL SUB DUP5 AND SWAP1 PUSH32 0xCC16F5DBB4873280815C1EE09DBD06736CFFCC184412CF7A71A0FDB75D397CA5 SWAP1 PUSH1 0x0 SWAP1 LOG3 PUSH1 0x40 MLOAD DUP2 SWAP1 PUSH1 0x0 SWAP1 PUSH1 0x1 PUSH1 0x1 PUSH1 0xA0 SHL SUB DUP6 AND SWAP1 PUSH1 0x0 DUP1 MLOAD PUSH1 0x20 PUSH2 0x1C6A DUP4 CODECOPY DUP2 MLOAD SWAP2 MSTORE SWAP1 DUP4 SWAP1 LOG4 POP POP JUMP JUMPDEST PUSH1 0x0 PUSH2 0x4EC DUP3 PUSH1 0x40 MLOAD DUP1 PUSH1 0x40 ADD PUSH1 0x40 MSTORE DUP1 PUSH1 0xF DUP2 MSTORE PUSH1 0x20 ADD PUSH15 0x125B9D985B1A59081D1BDAD95B9259 PUSH1 0x8A SHL DUP2 MSTORE POP PUSH1 0x1 PUSH2 0xF41 SWAP1 SWAP3 SWAP2 SWAP1 PUSH4 0xFFFFFFFF AND JUMP JUMPDEST DUP1 PUSH2 0x7E1 PUSH1 0x0 DUP1 MLOAD PUSH1 0x20 PUSH2 0x1C4A DUP4 CODECOPY DUP2 MLOAD SWAP2 MSTORE CALLER PUSH2 0xA9B JUMP JUMPDEST PUSH2 0x7FD JUMPI PUSH1 0x40 MLOAD PUSH3 0x461BCD PUSH1 0xE5 SHL DUP2 MSTORE PUSH1 0x4 ADD PUSH2 0x37F SWAP1 PUSH2 0x1984 JUMP JUMPDEST PUSH1 0x64 DUP2 GT ISZERO PUSH2 0x81E JUMPI PUSH1 0x40 MLOAD PUSH3 0x461BCD PUSH1 0xE5 SHL DUP2 MSTORE PUSH1 0x4 ADD PUSH2 0x37F SWAP1 PUSH2 0x187A JUMP JUMPDEST PUSH1 0x0 JUMPDEST DUP2 DUP2 PUSH1 0xFF AND LT ISZERO PUSH2 0x4A6 JUMPI PUSH1 0x0 DUP5 DUP5 DUP4 PUSH1 0xFF AND DUP2 DUP2 LT PUSH2 0x843 JUMPI PUSH2 0x843 PUSH2 0x18BC JUMP JUMPDEST SWAP1 POP PUSH1 0x20 MUL ADD PUSH1 0x20 DUP2 ADD SWAP1 PUSH2 0x858 SWAP2 SWAP1 PUSH2 0x1753 JUMP JUMPDEST SWAP1 POP PUSH1 0x1 PUSH1 0x1 PUSH1 0xA0 SHL SUB DUP2 AND ISZERO DUP1 PUSH2 0x876 JUMPI POP PUSH2 0x876 PUSH1 0x4 DUP3 PUSH2 0xDB9 JUMP JUMPDEST ISZERO PUSH2 0x881 JUMPI POP PUSH2 0x915 JUMP JUMPDEST PUSH2 0x88F PUSH1 0x7 DUP1 SLOAD PUSH1 0x1 ADD SWAP1 SSTORE JUMP JUMPDEST PUSH1 0x0 PUSH2 0x89A PUSH1 0x7 SLOAD SWAP1 JUMP JUMPDEST SWAP1 POP PUSH2 0x8A8 PUSH1 0x4 DUP4 DUP4 PUSH2 0xF56 JUMP JUMPDEST POP PUSH2 0x8B5 PUSH1 0x1 DUP3 DUP5 PUSH2 0xF6C JUMP JUMPDEST POP PUSH1 0x40 MLOAD DUP2 SWAP1 PUSH1 0x1 PUSH1 0x1 PUSH1 0xA0 SHL SUB DUP5 AND SWAP1 PUSH32 0xE9274A84B19E9428826DE6BAE8C48329354F8F0E73F771B97CAE2D9DCCD45A27 SWAP1 PUSH1 0x0 SWAP1 LOG3 PUSH1 0x40 MLOAD DUP2 SWAP1 PUSH1 0x1 PUSH1 0x1 PUSH1 0xA0 SHL SUB DUP5 AND SWAP1 PUSH1 0x0 SWAP1 PUSH1 0x0 DUP1 MLOAD PUSH1 0x20 PUSH2 0x1C6A DUP4 CODECOPY DUP2 MLOAD SWAP2 MSTORE SWAP1 DUP3 SWAP1 LOG4 POP POP JUMPDEST DUP1 PUSH2 0x91F DUP2 PUSH2 0x18E8 JUMP JUMPDEST SWAP2 POP POP PUSH2 0x821 JUMP JUMPDEST PUSH1 0x0 PUSH2 0x4EC PUSH1 0x0 DUP1 MLOAD PUSH1 0x20 PUSH2 0x1C4A DUP4 CODECOPY DUP2 MLOAD SWAP2 MSTORE DUP4 PUSH2 0xA9B JUMP JUMPDEST PUSH1 0x0 DUP1 PUSH2 0x94F PUSH1 0x4 DUP5 PUSH2 0xF82 JUMP JUMPDEST POP SWAP1 POP DUP1 PUSH2 0x95E JUMPI PUSH1 0x0 PUSH2 0x961 JUMP JUMPDEST PUSH1 0x1 JUMPDEST PUSH1 0xFF AND SWAP4 SWAP3 POP POP POP JUMP JUMPDEST PUSH2 0x983 PUSH1 0x0 DUP1 MLOAD PUSH1 0x20 PUSH2 0x1C4A DUP4 CODECOPY DUP2 MLOAD SWAP2 MSTORE CALLER PUSH2 0xA9B JUMP JUMPDEST PUSH2 0x99F JUMPI PUSH1 0x40 MLOAD PUSH3 0x461BCD PUSH1 0xE5 SHL DUP2 MSTORE PUSH1 0x4 ADD PUSH2 0x37F SWAP1 PUSH2 0x1824 JUMP JUMPDEST PUSH1 0x1 PUSH1 0x1 PUSH1 0xA0 SHL SUB DUP2 AND PUSH2 0x9C5 JUMPI PUSH1 0x40 MLOAD PUSH3 0x461BCD PUSH1 0xE5 SHL DUP2 MSTORE PUSH1 0x4 ADD PUSH2 0x37F SWAP1 PUSH2 0x19DA JUMP JUMPDEST PUSH2 0x9D0 PUSH1 0x4 DUP3 PUSH2 0xDB9 JUMP JUMPDEST PUSH2 0x9EC JUMPI PUSH1 0x40 MLOAD PUSH3 0x461BCD PUSH1 0xE5 SHL DUP2 MSTORE PUSH1 0x4 ADD PUSH2 0x37F SWAP1 PUSH2 0x1943 JUMP JUMPDEST PUSH1 0x0 PUSH2 0x9F9 PUSH1 0x4 DUP4 PUSH2 0xDD5 JUMP JUMPDEST SWAP1 POP PUSH2 0xA06 PUSH1 0x4 DUP4 PUSH2 0xDEA JUMP JUMPDEST POP PUSH2 0xA12 PUSH1 0x1 DUP3 PUSH2 0xDFF JUMP JUMPDEST POP PUSH1 0x40 MLOAD DUP2 SWAP1 PUSH1 0x1 PUSH1 0x1 PUSH1 0xA0 SHL SUB DUP5 AND SWAP1 PUSH32 0xEC9AB91322523C899EDE7830EC9BFC992B5981CDCC27B91162FB23DE5791117B SWAP1 PUSH1 0x0 SWAP1 LOG3 PUSH1 0x40 MLOAD DUP2 SWAP1 PUSH1 0x0 SWAP1 PUSH1 0x1 PUSH1 0x1 PUSH1 0xA0 SHL SUB DUP6 AND SWAP1 PUSH1 0x0 DUP1 MLOAD PUSH1 0x20 PUSH2 0x1C6A DUP4 CODECOPY DUP2 MLOAD SWAP2 MSTORE SWAP1 DUP4 SWAP1 LOG4 POP POP JUMP JUMPDEST PUSH1 0x0 PUSH2 0x4EC DUP3 PUSH1 0x40 MLOAD DUP1 PUSH1 0x60 ADD PUSH1 0x40 MSTORE DUP1 PUSH1 0x23 DUP2 MSTORE PUSH1 0x20 ADD PUSH2 0x1C27 PUSH1 0x23 SWAP2 CODECOPY PUSH1 0x4 SWAP2 SWAP1 PUSH2 0xFA9 JUMP JUMPDEST PUSH1 0x0 SWAP2 DUP3 MSTORE PUSH1 0x20 DUP3 DUP2 MSTORE PUSH1 0x40 DUP1 DUP5 KECCAK256 PUSH1 0x1 PUSH1 0x1 PUSH1 0xA0 SHL SUB SWAP4 SWAP1 SWAP4 AND DUP5 MSTORE SWAP2 SWAP1 MSTORE SWAP1 KECCAK256 SLOAD PUSH1 0xFF AND SWAP1 JUMP JUMPDEST PUSH1 0x9 DUP1 SLOAD PUSH2 0x4FF SWAP1 PUSH2 0x1908 JUMP JUMPDEST PUSH1 0x0 PUSH2 0xAEB PUSH1 0x0 DUP1 MLOAD PUSH1 0x20 PUSH2 0x1C4A DUP4 CODECOPY DUP2 MLOAD SWAP2 MSTORE CALLER PUSH2 0xA9B JUMP JUMPDEST PUSH2 0xB07 JUMPI PUSH1 0x40 MLOAD PUSH3 0x461BCD PUSH1 0xE5 SHL DUP2 MSTORE PUSH1 0x4 ADD PUSH2 0x37F SWAP1 PUSH2 0x1984 JUMP JUMPDEST PUSH1 0x1 PUSH1 0x1 PUSH1 0xA0 SHL SUB DUP4 AND PUSH2 0xB2D JUMPI PUSH1 0x40 MLOAD PUSH3 0x461BCD PUSH1 0xE5 SHL DUP2 MSTORE PUSH1 0x4 ADD PUSH2 0x37F SWAP1 PUSH2 0x19DA JUMP JUMPDEST PUSH2 0xB38 PUSH1 0x4 DUP5 PUSH2 0xDB9 JUMP JUMPDEST ISZERO PUSH2 0xB7A JUMPI PUSH1 0x40 MLOAD PUSH3 0x461BCD PUSH1 0xE5 SHL DUP2 MSTORE PUSH1 0x20 PUSH1 0x4 DUP3 ADD MSTORE PUSH1 0x12 PUSH1 0x24 DUP3 ADD MSTORE PUSH18 0x53425420616C726561647920657869737473 PUSH1 0x70 SHL PUSH1 0x44 DUP3 ADD MSTORE PUSH1 0x64 ADD PUSH2 0x37F JUMP JUMPDEST PUSH2 0xB86 PUSH1 0x4 DUP5 DUP5 PUSH2 0xF56 JUMP JUMPDEST POP PUSH2 0xB93 PUSH1 0x1 DUP4 DUP6 PUSH2 0xF6C JUMP JUMPDEST POP PUSH1 0x40 MLOAD DUP3 SWAP1 PUSH1 0x1 PUSH1 0x1 PUSH1 0xA0 SHL SUB DUP6 AND SWAP1 PUSH32 0xE9274A84B19E9428826DE6BAE8C48329354F8F0E73F771B97CAE2D9DCCD45A27 SWAP1 PUSH1 0x0 SWAP1 LOG3 PUSH1 0x40 MLOAD DUP3 SWAP1 PUSH1 0x1 PUSH1 0x1 PUSH1 0xA0 SHL SUB DUP6 AND SWAP1 PUSH1 0x0 SWAP1 PUSH1 0x0 DUP1 MLOAD PUSH1 0x20 PUSH2 0x1C6A DUP4 CODECOPY DUP2 MLOAD SWAP2 MSTORE SWAP1 DUP3 SWAP1 LOG4 POP SWAP2 SWAP1 POP JUMP JUMPDEST PUSH1 0x60 PUSH1 0x0 PUSH1 0xA DUP1 SLOAD PUSH2 0xC07 SWAP1 PUSH2 0x1908 JUMP JUMPDEST SWAP1 POP GT PUSH2 0xC23 JUMPI PUSH1 0x40 MLOAD DUP1 PUSH1 0x20 ADD PUSH1 0x40 MSTORE DUP1 PUSH1 0x0 DUP2 MSTORE POP PUSH2 0x4EC JUMP JUMPDEST PUSH1 0xA PUSH2 0xC2E DUP4 PUSH2 0xFBF JUMP JUMPDEST PUSH1 0x40 MLOAD PUSH1 0x20 ADD PUSH2 0xC3F SWAP3 SWAP2 SWAP1 PUSH2 0x1A20 JUMP JUMPDEST PUSH1 0x40 MLOAD PUSH1 0x20 DUP2 DUP4 SUB SUB DUP2 MSTORE SWAP1 PUSH1 0x40 MSTORE SWAP3 SWAP2 POP POP JUMP JUMPDEST PUSH1 0x0 DUP3 DUP2 MSTORE PUSH1 0x20 DUP2 SWAP1 MSTORE PUSH1 0x40 SWAP1 KECCAK256 PUSH1 0x1 ADD SLOAD PUSH2 0xC6F DUP2 PUSH2 0xE4B JUMP JUMPDEST PUSH2 0x5C2 DUP4 DUP4 PUSH2 0xEDC JUMP JUMPDEST PUSH1 0x0 PUSH2 0xC93 PUSH1 0x0 DUP1 MLOAD PUSH1 0x20 PUSH2 0x1C4A DUP4 CODECOPY DUP2 MLOAD SWAP2 MSTORE CALLER PUSH2 0xA9B JUMP JUMPDEST PUSH2 0xCAF JUMPI PUSH1 0x40 MLOAD PUSH3 0x461BCD PUSH1 0xE5 SHL DUP2 MSTORE PUSH1 0x4 ADD PUSH2 0x37F SWAP1 PUSH2 0x1984 JUMP JUMPDEST PUSH1 0x1 PUSH1 0x1 PUSH1 0xA0 SHL SUB DUP3 AND PUSH2 0xCD5 JUMPI PUSH1 0x40 MLOAD PUSH3 0x461BCD PUSH1 0xE5 SHL DUP2 MSTORE PUSH1 0x4 ADD PUSH2 0x37F SWAP1 PUSH2 0x19DA JUMP JUMPDEST PUSH2 0xCE0 PUSH1 0x4 DUP4 PUSH2 0xDB9 JUMP JUMPDEST ISZERO PUSH2 0xD22 JUMPI PUSH1 0x40 MLOAD PUSH3 0x461BCD PUSH1 0xE5 SHL DUP2 MSTORE PUSH1 0x20 PUSH1 0x4 DUP3 ADD MSTORE PUSH1 0x12 PUSH1 0x24 DUP3 ADD MSTORE PUSH18 0x53425420616C726561647920657869737473 PUSH1 0x70 SHL PUSH1 0x44 DUP3 ADD MSTORE PUSH1 0x64 ADD PUSH2 0x37F JUMP JUMPDEST PUSH2 0xD30 PUSH1 0x7 DUP1 SLOAD PUSH1 0x1 ADD SWAP1 SSTORE JUMP JUMPDEST PUSH1 0x0 PUSH2 0xD3B PUSH1 0x7 SLOAD SWAP1 JUMP JUMPDEST SWAP1 POP PUSH2 0xD49 PUSH1 0x4 DUP5 DUP4 PUSH2 0xF56 JUMP JUMPDEST POP PUSH2 0xD56 PUSH1 0x1 DUP3 DUP6 PUSH2 0xF6C JUMP JUMPDEST POP PUSH1 0x40 MLOAD DUP2 SWAP1 PUSH1 0x1 PUSH1 0x1 PUSH1 0xA0 SHL SUB DUP6 AND SWAP1 PUSH32 0xE9274A84B19E9428826DE6BAE8C48329354F8F0E73F771B97CAE2D9DCCD45A27 SWAP1 PUSH1 0x0 SWAP1 LOG3 PUSH1 0x40 MLOAD DUP2 SWAP1 PUSH1 0x1 PUSH1 0x1 PUSH1 0xA0 SHL SUB DUP6 AND SWAP1 PUSH1 0x0 SWAP1 PUSH1 0x0 DUP1 MLOAD PUSH1 0x20 PUSH2 0x1C6A DUP4 CODECOPY DUP2 MLOAD SWAP2 MSTORE SWAP1 DUP3 SWAP1 LOG4 SWAP3 SWAP2 POP POP JUMP JUMPDEST PUSH1 0x0 PUSH2 0xDCE DUP4 PUSH1 0x1 PUSH1 0x1 PUSH1 0xA0 SHL SUB DUP5 AND PUSH2 0x10BD JUMP JUMPDEST SWAP4 SWAP3 POP POP POP JUMP JUMPDEST PUSH1 0x0 PUSH2 0xDCE DUP4 PUSH1 0x1 PUSH1 0x1 PUSH1 0xA0 SHL SUB DUP5 AND PUSH2 0x10C9 JUMP JUMPDEST PUSH1 0x0 PUSH2 0xDCE DUP4 PUSH1 0x1 PUSH1 0x1 PUSH1 0xA0 SHL SUB DUP5 AND PUSH2 0x1139 JUMP JUMPDEST PUSH1 0x0 PUSH2 0xDCE DUP4 DUP4 PUSH2 0x1139 JUMP JUMPDEST PUSH1 0x0 PUSH1 0x1 PUSH1 0x1 PUSH1 0xE0 SHL SUB NOT DUP3 AND PUSH4 0x7965DB0B PUSH1 0xE0 SHL EQ DUP1 PUSH2 0x4EC JUMPI POP PUSH4 0x1FFC9A7 PUSH1 0xE0 SHL PUSH1 0x1 PUSH1 0x1 PUSH1 0xE0 SHL SUB NOT DUP4 AND EQ PUSH2 0x4EC JUMP JUMPDEST PUSH1 0x0 PUSH2 0x4EC DUP3 PUSH2 0x1156 JUMP JUMPDEST PUSH2 0xE55 DUP2 CALLER PUSH2 0x1161 JUMP JUMPDEST POP JUMP JUMPDEST PUSH2 0xE62 DUP3 DUP3 PUSH2 0xA9B JUMP JUMPDEST PUSH2 0x6D6 JUMPI PUSH1 0x0 DUP3 DUP2 MSTORE PUSH1 0x20 DUP2 DUP2 MSTORE PUSH1 0x40 DUP1 DUP4 KECCAK256 PUSH1 0x1 PUSH1 0x1 PUSH1 0xA0 SHL SUB DUP6 AND DUP5 MSTORE SWAP1 SWAP2 MSTORE SWAP1 KECCAK256 DUP1 SLOAD PUSH1 0xFF NOT AND PUSH1 0x1 OR SWAP1 SSTORE PUSH2 0xE98 CALLER SWAP1 JUMP JUMPDEST PUSH1 0x1 PUSH1 0x1 PUSH1 0xA0 SHL SUB AND DUP2 PUSH1 0x1 PUSH1 0x1 PUSH1 0xA0 SHL SUB AND DUP4 PUSH32 0x2F8788117E7EFF1D82E926EC794901D17C78024A50270940304540A733656F0D PUSH1 0x40 MLOAD PUSH1 0x40 MLOAD DUP1 SWAP2 SUB SWAP1 LOG4 POP POP JUMP JUMPDEST PUSH2 0xEE6 DUP3 DUP3 PUSH2 0xA9B JUMP JUMPDEST ISZERO PUSH2 0x6D6 JUMPI PUSH1 0x0 DUP3 DUP2 MSTORE PUSH1 0x20 DUP2 DUP2 MSTORE PUSH1 0x40 DUP1 DUP4 KECCAK256 PUSH1 0x1 PUSH1 0x1 PUSH1 0xA0 SHL SUB DUP6 AND DUP1 DUP6 MSTORE SWAP3 MSTORE DUP1 DUP4 KECCAK256 DUP1 SLOAD PUSH1 0xFF NOT AND SWAP1 SSTORE MLOAD CALLER SWAP3 DUP6 SWAP2 PUSH32 0xF6391F5C32D9C69D2A47EA670B442974B53935D1EDC7FD64EB21E047A839171B SWAP2 SWAP1 LOG4 POP POP JUMP JUMPDEST PUSH1 0x0 PUSH2 0xF4E DUP5 DUP5 DUP5 PUSH2 0x11BA JUMP JUMPDEST SWAP5 SWAP4 POP POP POP POP JUMP JUMPDEST PUSH1 0x0 PUSH2 0xF4E DUP5 PUSH1 0x1 PUSH1 0x1 PUSH1 0xA0 SHL SUB DUP6 AND DUP5 PUSH2 0x1206 JUMP JUMPDEST PUSH1 0x0 PUSH2 0xF4E DUP5 DUP5 PUSH1 0x1 PUSH1 0x1 PUSH1 0xA0 SHL SUB DUP6 AND PUSH2 0x1206 JUMP JUMPDEST PUSH1 0x0 DUP1 DUP1 DUP1 PUSH2 0xF9A DUP7 PUSH1 0x1 PUSH1 0x1 PUSH1 0xA0 SHL SUB DUP8 AND PUSH2 0x1223 JUMP JUMPDEST SWAP1 SWAP5 POP SWAP3 POP POP POP JUMPDEST SWAP3 POP SWAP3 SWAP1 POP JUMP JUMPDEST PUSH1 0x0 PUSH2 0xF4E DUP5 PUSH1 0x1 PUSH1 0x1 PUSH1 0xA0 SHL SUB DUP6 AND DUP5 PUSH2 0x11BA JUMP JUMPDEST PUSH1 0x60 DUP2 PUSH2 0xFE3 JUMPI POP POP PUSH1 0x40 DUP1 MLOAD DUP1 DUP3 ADD SWAP1 SWAP2 MSTORE PUSH1 0x1 DUP2 MSTORE PUSH1 0x3 PUSH1 0xFC SHL PUSH1 0x20 DUP3 ADD MSTORE SWAP1 JUMP JUMPDEST DUP2 PUSH1 0x0 JUMPDEST DUP2 ISZERO PUSH2 0x100D JUMPI DUP1 PUSH2 0xFF7 DUP2 PUSH2 0x1AC7 JUMP JUMPDEST SWAP2 POP PUSH2 0x1006 SWAP1 POP PUSH1 0xA DUP4 PUSH2 0x1AF8 JUMP JUMPDEST SWAP2 POP PUSH2 0xFE7 JUMP JUMPDEST PUSH1 0x0 DUP2 PUSH8 0xFFFFFFFFFFFFFFFF DUP2 GT ISZERO PUSH2 0x1028 JUMPI PUSH2 0x1028 PUSH2 0x1B0C JUMP JUMPDEST PUSH1 0x40 MLOAD SWAP1 DUP1 DUP3 MSTORE DUP1 PUSH1 0x1F ADD PUSH1 0x1F NOT AND PUSH1 0x20 ADD DUP3 ADD PUSH1 0x40 MSTORE DUP1 ISZERO PUSH2 0x1052 JUMPI PUSH1 0x20 DUP3 ADD DUP2 DUP1 CALLDATASIZE DUP4 CALLDATACOPY ADD SWAP1 POP JUMPDEST POP SWAP1 POP JUMPDEST DUP5 ISZERO PUSH2 0xF4E JUMPI PUSH2 0x1067 PUSH1 0x1 DUP4 PUSH2 0x1B22 JUMP JUMPDEST SWAP2 POP PUSH2 0x1074 PUSH1 0xA DUP7 PUSH2 0x1B39 JUMP JUMPDEST PUSH2 0x107F SWAP1 PUSH1 0x30 PUSH2 0x1B4D JUMP JUMPDEST PUSH1 0xF8 SHL DUP2 DUP4 DUP2 MLOAD DUP2 LT PUSH2 0x1094 JUMPI PUSH2 0x1094 PUSH2 0x18BC JUMP JUMPDEST PUSH1 0x20 ADD ADD SWAP1 PUSH1 0x1 PUSH1 0x1 PUSH1 0xF8 SHL SUB NOT AND SWAP1 DUP2 PUSH1 0x0 BYTE SWAP1 MSTORE8 POP PUSH2 0x10B6 PUSH1 0xA DUP7 PUSH2 0x1AF8 JUMP JUMPDEST SWAP5 POP PUSH2 0x1056 JUMP JUMPDEST PUSH1 0x0 PUSH2 0xDCE DUP4 DUP4 PUSH2 0x125D JUMP JUMPDEST PUSH1 0x0 DUP2 DUP2 MSTORE PUSH1 0x2 DUP4 ADD PUSH1 0x20 MSTORE PUSH1 0x40 DUP2 KECCAK256 SLOAD DUP1 ISZERO ISZERO DUP1 PUSH2 0x10ED JUMPI POP PUSH2 0x10ED DUP5 DUP5 PUSH2 0x10BD JUMP JUMPDEST PUSH2 0xDCE JUMPI PUSH1 0x40 MLOAD PUSH3 0x461BCD PUSH1 0xE5 SHL DUP2 MSTORE PUSH1 0x20 PUSH1 0x4 DUP3 ADD MSTORE PUSH1 0x1E PUSH1 0x24 DUP3 ADD MSTORE PUSH32 0x456E756D657261626C654D61703A206E6F6E6578697374656E74206B65790000 PUSH1 0x44 DUP3 ADD MSTORE PUSH1 0x64 ADD PUSH2 0x37F JUMP JUMPDEST PUSH1 0x0 DUP2 DUP2 MSTORE PUSH1 0x2 DUP4 ADD PUSH1 0x20 MSTORE PUSH1 0x40 DUP2 KECCAK256 DUP2 SWAP1 SSTORE PUSH2 0xDCE DUP4 DUP4 PUSH2 0x1275 JUMP JUMPDEST PUSH1 0x0 PUSH2 0x4EC DUP3 PUSH2 0x1281 JUMP JUMPDEST PUSH2 0x116B DUP3 DUP3 PUSH2 0xA9B JUMP JUMPDEST PUSH2 0x6D6 JUMPI PUSH2 0x1178 DUP2 PUSH2 0x128B JUMP JUMPDEST PUSH2 0x1183 DUP4 PUSH1 0x20 PUSH2 0x129D JUMP JUMPDEST PUSH1 0x40 MLOAD PUSH1 0x20 ADD PUSH2 0x1194 SWAP3 SWAP2 SWAP1 PUSH2 0x1B65 JUMP JUMPDEST PUSH1 0x40 DUP1 MLOAD PUSH1 0x1F NOT DUP2 DUP5 SUB ADD DUP2 MSTORE SWAP1 DUP3 SWAP1 MSTORE PUSH3 0x461BCD PUSH1 0xE5 SHL DUP3 MSTORE PUSH2 0x37F SWAP2 PUSH1 0x4 ADD PUSH2 0x16EB JUMP JUMPDEST PUSH1 0x0 DUP3 DUP2 MSTORE PUSH1 0x2 DUP5 ADD PUSH1 0x20 MSTORE PUSH1 0x40 DUP2 KECCAK256 SLOAD DUP1 ISZERO ISZERO DUP1 PUSH2 0x11DE JUMPI POP PUSH2 0x11DE DUP6 DUP6 PUSH2 0x10BD JUMP JUMPDEST DUP4 SWAP1 PUSH2 0x11FD JUMPI PUSH1 0x40 MLOAD PUSH3 0x461BCD PUSH1 0xE5 SHL DUP2 MSTORE PUSH1 0x4 ADD PUSH2 0x37F SWAP2 SWAP1 PUSH2 0x16EB JUMP JUMPDEST POP SWAP5 SWAP4 POP POP POP POP JUMP JUMPDEST PUSH1 0x0 DUP3 DUP2 MSTORE PUSH1 0x2 DUP5 ADD PUSH1 0x20 MSTORE PUSH1 0x40 DUP2 KECCAK256 DUP3 SWAP1 SSTORE PUSH2 0xF4E DUP5 DUP5 PUSH2 0x1439 JUMP JUMPDEST PUSH1 0x0 DUP2 DUP2 MSTORE PUSH1 0x2 DUP4 ADD PUSH1 0x20 MSTORE PUSH1 0x40 DUP2 KECCAK256 SLOAD DUP2 SWAP1 DUP1 PUSH2 0x1252 JUMPI PUSH2 0x1245 DUP6 DUP6 PUSH2 0x10BD JUMP JUMPDEST SWAP3 POP PUSH1 0x0 SWAP2 POP PUSH2 0xFA2 SWAP1 POP JUMP JUMPDEST PUSH1 0x1 SWAP3 POP SWAP1 POP PUSH2 0xFA2 JUMP JUMPDEST PUSH1 0x0 DUP2 DUP2 MSTORE PUSH1 0x1 DUP4 ADD PUSH1 0x20 MSTORE PUSH1 0x40 DUP2 KECCAK256 SLOAD ISZERO ISZERO PUSH2 0xDCE JUMP JUMPDEST PUSH1 0x0 PUSH2 0xDCE DUP4 DUP4 PUSH2 0x1445 JUMP JUMPDEST PUSH1 0x0 PUSH2 0x4EC DUP3 SLOAD SWAP1 JUMP JUMPDEST PUSH1 0x60 PUSH2 0x4EC PUSH1 0x1 PUSH1 0x1 PUSH1 0xA0 SHL SUB DUP4 AND PUSH1 0x14 JUMPDEST PUSH1 0x60 PUSH1 0x0 PUSH2 0x12AC DUP4 PUSH1 0x2 PUSH2 0x1BDA JUMP JUMPDEST PUSH2 0x12B7 SWAP1 PUSH1 0x2 PUSH2 0x1B4D JUMP JUMPDEST PUSH8 0xFFFFFFFFFFFFFFFF DUP2 GT ISZERO PUSH2 0x12CF JUMPI PUSH2 0x12CF PUSH2 0x1B0C JUMP JUMPDEST PUSH1 0x40 MLOAD SWAP1 DUP1 DUP3 MSTORE DUP1 PUSH1 0x1F ADD PUSH1 0x1F NOT AND PUSH1 0x20 ADD DUP3 ADD PUSH1 0x40 MSTORE DUP1 ISZERO PUSH2 0x12F9 JUMPI PUSH1 0x20 DUP3 ADD DUP2 DUP1 CALLDATASIZE DUP4 CALLDATACOPY ADD SWAP1 POP JUMPDEST POP SWAP1 POP PUSH1 0x3 PUSH1 0xFC SHL DUP2 PUSH1 0x0 DUP2 MLOAD DUP2 LT PUSH2 0x1314 JUMPI PUSH2 0x1314 PUSH2 0x18BC JUMP JUMPDEST PUSH1 0x20 ADD ADD SWAP1 PUSH1 0x1 PUSH1 0x1 PUSH1 0xF8 SHL SUB NOT AND SWAP1 DUP2 PUSH1 0x0 BYTE SWAP1 MSTORE8 POP PUSH1 0xF PUSH1 0xFB SHL DUP2 PUSH1 0x1 DUP2 MLOAD DUP2 LT PUSH2 0x1343 JUMPI PUSH2 0x1343 PUSH2 0x18BC JUMP JUMPDEST PUSH1 0x20 ADD ADD SWAP1 PUSH1 0x1 PUSH1 0x1 PUSH1 0xF8 SHL SUB NOT AND SWAP1 DUP2 PUSH1 0x0 BYTE SWAP1 MSTORE8 POP PUSH1 0x0 PUSH2 0x1367 DUP5 PUSH1 0x2 PUSH2 0x1BDA JUMP JUMPDEST PUSH2 0x1372 SWAP1 PUSH1 0x1 PUSH2 0x1B4D JUMP JUMPDEST SWAP1 POP JUMPDEST PUSH1 0x1 DUP2 GT ISZERO PUSH2 0x13EA JUMPI PUSH16 0x181899199A1A9B1B9C1CB0B131B232B3 PUSH1 0x81 SHL DUP6 PUSH1 0xF AND PUSH1 0x10 DUP2 LT PUSH2 0x13A6 JUMPI PUSH2 0x13A6 PUSH2 0x18BC JUMP JUMPDEST BYTE PUSH1 0xF8 SHL DUP3 DUP3 DUP2 MLOAD DUP2 LT PUSH2 0x13BC JUMPI PUSH2 0x13BC PUSH2 0x18BC JUMP JUMPDEST PUSH1 0x20 ADD ADD SWAP1 PUSH1 0x1 PUSH1 0x1 PUSH1 0xF8 SHL SUB NOT AND SWAP1 DUP2 PUSH1 0x0 BYTE SWAP1 MSTORE8 POP PUSH1 0x4 SWAP5 SWAP1 SWAP5 SHR SWAP4 PUSH2 0x13E3 DUP2 PUSH2 0x1BF9 JUMP JUMPDEST SWAP1 POP PUSH2 0x1375 JUMP JUMPDEST POP DUP4 ISZERO PUSH2 0xDCE JUMPI PUSH1 0x40 MLOAD PUSH3 0x461BCD PUSH1 0xE5 SHL DUP2 MSTORE PUSH1 0x20 PUSH1 0x4 DUP3 ADD DUP2 SWAP1 MSTORE PUSH1 0x24 DUP3 ADD MSTORE PUSH32 0x537472696E67733A20686578206C656E67746820696E73756666696369656E74 PUSH1 0x44 DUP3 ADD MSTORE PUSH1 0x64 ADD PUSH2 0x37F JUMP JUMPDEST PUSH1 0x0 PUSH2 0xDCE DUP4 DUP4 PUSH2 0x1538 JUMP JUMPDEST PUSH1 0x0 DUP2 DUP2 MSTORE PUSH1 0x1 DUP4 ADD PUSH1 0x20 MSTORE PUSH1 0x40 DUP2 KECCAK256 SLOAD DUP1 ISZERO PUSH2 0x152E JUMPI PUSH1 0x0 PUSH2 0x1469 PUSH1 0x1 DUP4 PUSH2 0x1B22 JUMP JUMPDEST DUP6 SLOAD SWAP1 SWAP2 POP PUSH1 0x0 SWAP1 PUSH2 0x147D SWAP1 PUSH1 0x1 SWAP1 PUSH2 0x1B22 JUMP JUMPDEST SWAP1 POP DUP2 DUP2 EQ PUSH2 0x14E2 JUMPI PUSH1 0x0 DUP7 PUSH1 0x0 ADD DUP3 DUP2 SLOAD DUP2 LT PUSH2 0x149D JUMPI PUSH2 0x149D PUSH2 0x18BC JUMP JUMPDEST SWAP1 PUSH1 0x0 MSTORE PUSH1 0x20 PUSH1 0x0 KECCAK256 ADD SLOAD SWAP1 POP DUP1 DUP8 PUSH1 0x0 ADD DUP5 DUP2 SLOAD DUP2 LT PUSH2 0x14C0 JUMPI PUSH2 0x14C0 PUSH2 0x18BC JUMP JUMPDEST PUSH1 0x0 SWAP2 DUP3 MSTORE PUSH1 0x20 DUP1 DUP4 KECCAK256 SWAP1 SWAP2 ADD SWAP3 SWAP1 SWAP3 SSTORE SWAP2 DUP3 MSTORE PUSH1 0x1 DUP9 ADD SWAP1 MSTORE PUSH1 0x40 SWAP1 KECCAK256 DUP4 SWAP1 SSTORE JUMPDEST DUP6 SLOAD DUP7 SWAP1 DUP1 PUSH2 0x14F3 JUMPI PUSH2 0x14F3 PUSH2 0x1C10 JUMP JUMPDEST PUSH1 0x1 SWAP1 SUB DUP2 DUP2 SWAP1 PUSH1 0x0 MSTORE PUSH1 0x20 PUSH1 0x0 KECCAK256 ADD PUSH1 0x0 SWAP1 SSTORE SWAP1 SSTORE DUP6 PUSH1 0x1 ADD PUSH1 0x0 DUP7 DUP2 MSTORE PUSH1 0x20 ADD SWAP1 DUP2 MSTORE PUSH1 0x20 ADD PUSH1 0x0 KECCAK256 PUSH1 0x0 SWAP1 SSTORE PUSH1 0x1 SWAP4 POP POP POP POP PUSH2 0x4EC JUMP JUMPDEST PUSH1 0x0 SWAP2 POP POP PUSH2 0x4EC JUMP JUMPDEST PUSH1 0x0 DUP2 DUP2 MSTORE PUSH1 0x1 DUP4 ADD PUSH1 0x20 MSTORE PUSH1 0x40 DUP2 KECCAK256 SLOAD PUSH2 0x157F JUMPI POP DUP2 SLOAD PUSH1 0x1 DUP2 DUP2 ADD DUP5 SSTORE PUSH1 0x0 DUP5 DUP2 MSTORE PUSH1 0x20 DUP1 DUP3 KECCAK256 SWAP1 SWAP4 ADD DUP5 SWAP1 SSTORE DUP5 SLOAD DUP5 DUP3 MSTORE DUP3 DUP7 ADD SWAP1 SWAP4 MSTORE PUSH1 0x40 SWAP1 KECCAK256 SWAP2 SWAP1 SWAP2 SSTORE PUSH2 0x4EC JUMP JUMPDEST POP PUSH1 0x0 PUSH2 0x4EC JUMP JUMPDEST DUP3 DUP1 SLOAD PUSH2 0x1593 SWAP1 PUSH2 0x1908 JUMP JUMPDEST SWAP1 PUSH1 0x0 MSTORE PUSH1 0x20 PUSH1 0x0 KECCAK256 SWAP1 PUSH1 0x1F ADD PUSH1 0x20 SWAP1 DIV DUP2 ADD SWAP3 DUP3 PUSH2 0x15B5 JUMPI PUSH1 0x0 DUP6 SSTORE PUSH2 0x15FB JUMP JUMPDEST DUP3 PUSH1 0x1F LT PUSH2 0x15CE JUMPI DUP3 DUP1 ADD PUSH1 0xFF NOT DUP3 CALLDATALOAD AND OR DUP6 SSTORE PUSH2 0x15FB JUMP JUMPDEST DUP3 DUP1 ADD PUSH1 0x1 ADD DUP6 SSTORE DUP3 ISZERO PUSH2 0x15FB JUMPI SWAP2 DUP3 ADD JUMPDEST DUP3 DUP2 GT ISZERO PUSH2 0x15FB JUMPI DUP3 CALLDATALOAD DUP3 SSTORE SWAP2 PUSH1 0x20 ADD SWAP2 SWAP1 PUSH1 0x1 ADD SWAP1 PUSH2 0x15E0 JUMP JUMPDEST POP PUSH2 0x1607 SWAP3 SWAP2 POP PUSH2 0x160B JUMP JUMPDEST POP SWAP1 JUMP JUMPDEST JUMPDEST DUP1 DUP3 GT ISZERO PUSH2 0x1607 JUMPI PUSH1 0x0 DUP2 SSTORE PUSH1 0x1 ADD PUSH2 0x160C JUMP JUMPDEST PUSH1 0x0 DUP1 PUSH1 0x20 DUP4 DUP6 SUB SLT ISZERO PUSH2 0x1633 JUMPI PUSH1 0x0 DUP1 REVERT JUMPDEST DUP3 CALLDATALOAD PUSH8 0xFFFFFFFFFFFFFFFF DUP1 DUP3 GT ISZERO PUSH2 0x164B JUMPI PUSH1 0x0 DUP1 REVERT JUMPDEST DUP2 DUP6 ADD SWAP2 POP DUP6 PUSH1 0x1F DUP4 ADD SLT PUSH2 0x165F JUMPI PUSH1 0x0 DUP1 REVERT JUMPDEST DUP2 CALLDATALOAD DUP2 DUP2 GT ISZERO PUSH2 0x166E JUMPI PUSH1 0x0 DUP1 REVERT JUMPDEST DUP7 PUSH1 0x20 DUP3 PUSH1 0x5 SHL DUP6 ADD ADD GT ISZERO PUSH2 0x1683 JUMPI PUSH1 0x0 DUP1 REVERT JUMPDEST PUSH1 0x20 SWAP3 SWAP1 SWAP3 ADD SWAP7 SWAP2 SWAP6 POP SWAP1 SWAP4 POP POP POP POP JUMP JUMPDEST PUSH1 0x0 PUSH1 0x20 DUP3 DUP5 SUB SLT ISZERO PUSH2 0x16A7 JUMPI PUSH1 0x0 DUP1 REVERT JUMPDEST DUP2 CALLDATALOAD PUSH1 0x1 PUSH1 0x1 PUSH1 0xE0 SHL SUB NOT DUP2 AND DUP2 EQ PUSH2 0xDCE JUMPI PUSH1 0x0 DUP1 REVERT JUMPDEST PUSH1 0x0 JUMPDEST DUP4 DUP2 LT ISZERO PUSH2 0x16DA JUMPI DUP2 DUP2 ADD MLOAD DUP4 DUP3 ADD MSTORE PUSH1 0x20 ADD PUSH2 0x16C2 JUMP JUMPDEST DUP4 DUP2 GT ISZERO PUSH2 0x4A6 JUMPI POP POP PUSH1 0x0 SWAP2 ADD MSTORE JUMP JUMPDEST PUSH1 0x20 DUP2 MSTORE PUSH1 0x0 DUP3 MLOAD DUP1 PUSH1 0x20 DUP5 ADD MSTORE PUSH2 0x170A DUP2 PUSH1 0x40 DUP6 ADD PUSH1 0x20 DUP8 ADD PUSH2 0x16BF JUMP JUMPDEST PUSH1 0x1F ADD PUSH1 0x1F NOT AND SWAP2 SWAP1 SWAP2 ADD PUSH1 0x40 ADD SWAP3 SWAP2 POP POP JUMP JUMPDEST PUSH1 0x0 PUSH1 0x20 DUP3 DUP5 SUB SLT ISZERO PUSH2 0x1730 JUMPI PUSH1 0x0 DUP1 REVERT JUMPDEST POP CALLDATALOAD SWAP2 SWAP1 POP JUMP JUMPDEST DUP1 CALLDATALOAD PUSH1 0x1 PUSH1 0x1 PUSH1 0xA0 SHL SUB DUP2 AND DUP2 EQ PUSH2 0x174E JUMPI PUSH1 0x0 DUP1 REVERT JUMPDEST SWAP2 SWAP1 POP JUMP JUMPDEST PUSH1 0x0 PUSH1 0x20 DUP3 DUP5 SUB SLT ISZERO PUSH2 0x1765 JUMPI PUSH1 0x0 DUP1 REVERT JUMPDEST PUSH2 0xDCE DUP3 PUSH2 0x1737 JUMP JUMPDEST PUSH1 0x0 DUP1 PUSH1 0x40 DUP4 DUP6 SUB SLT ISZERO PUSH2 0x1781 JUMPI PUSH1 0x0 DUP1 REVERT JUMPDEST DUP3 CALLDATALOAD SWAP2 POP PUSH2 0x1791 PUSH1 0x20 DUP5 ADD PUSH2 0x1737 JUMP JUMPDEST SWAP1 POP SWAP3 POP SWAP3 SWAP1 POP JUMP JUMPDEST PUSH1 0x0 DUP1 PUSH1 0x20 DUP4 DUP6 SUB SLT ISZERO PUSH2 0x17AD JUMPI PUSH1 0x0 DUP1 REVERT JUMPDEST DUP3 CALLDATALOAD PUSH8 0xFFFFFFFFFFFFFFFF DUP1 DUP3 GT ISZERO PUSH2 0x17C5 JUMPI PUSH1 0x0 DUP1 REVERT JUMPDEST DUP2 DUP6 ADD SWAP2 POP DUP6 PUSH1 0x1F DUP4 ADD SLT PUSH2 0x17D9 JUMPI PUSH1 0x0 DUP1 REVERT JUMPDEST DUP2 CALLDATALOAD DUP2 DUP2 GT ISZERO PUSH2 0x17E8 JUMPI PUSH1 0x0 DUP1 REVERT JUMPDEST DUP7 PUSH1 0x20 DUP3 DUP6 ADD ADD GT ISZERO PUSH2 0x1683 JUMPI PUSH1 0x0 DUP1 REVERT JUMPDEST PUSH1 0x0 DUP1 PUSH1 0x40 DUP4 DUP6 SUB SLT ISZERO PUSH2 0x180D JUMPI PUSH1 0x0 DUP1 REVERT JUMPDEST PUSH2 0x1816 DUP4 PUSH2 0x1737 JUMP JUMPDEST SWAP5 PUSH1 0x20 SWAP4 SWAP1 SWAP4 ADD CALLDATALOAD SWAP4 POP POP POP JUMP JUMPDEST PUSH1 0x20 DUP1 DUP3 MSTORE PUSH1 0x36 SWAP1 DUP3 ADD MSTORE PUSH32 0x4F6E6C7920746865206163636F756E742077697468204F50455241544F525F52 PUSH1 0x40 DUP3 ADD MSTORE PUSH22 0x13D3114818D85B881C995D9BDAD9481D1A194814D095 PUSH1 0x52 SHL PUSH1 0x60 DUP3 ADD MSTORE PUSH1 0x80 ADD SWAP1 JUMP JUMPDEST PUSH1 0x20 DUP1 DUP3 MSTORE PUSH1 0x22 SWAP1 DUP3 ADD MSTORE PUSH32 0x546865206D6178206C656E677468206F66206164647265737365732069732031 PUSH1 0x40 DUP3 ADD MSTORE PUSH2 0x303 PUSH1 0xF4 SHL PUSH1 0x60 DUP3 ADD MSTORE PUSH1 0x80 ADD SWAP1 JUMP JUMPDEST PUSH4 0x4E487B71 PUSH1 0xE0 SHL PUSH1 0x0 MSTORE PUSH1 0x32 PUSH1 0x4 MSTORE PUSH1 0x24 PUSH1 0x0 REVERT JUMPDEST PUSH4 0x4E487B71 PUSH1 0xE0 SHL PUSH1 0x0 MSTORE PUSH1 0x11 PUSH1 0x4 MSTORE PUSH1 0x24 PUSH1 0x0 REVERT JUMPDEST PUSH1 0x0 PUSH1 0xFF DUP3 AND PUSH1 0xFF DUP2 EQ ISZERO PUSH2 0x18FF JUMPI PUSH2 0x18FF PUSH2 0x18D2 JUMP JUMPDEST PUSH1 0x1 ADD SWAP3 SWAP2 POP POP JUMP JUMPDEST PUSH1 0x1 DUP2 DUP2 SHR SWAP1 DUP3 AND DUP1 PUSH2 0x191C JUMPI PUSH1 0x7F DUP3 AND SWAP2 POP JUMPDEST PUSH1 0x20 DUP3 LT DUP2 EQ ISZERO PUSH2 0x193D JUMPI PUSH4 0x4E487B71 PUSH1 0xE0 SHL PUSH1 0x0 MSTORE PUSH1 0x22 PUSH1 0x4 MSTORE PUSH1 0x24 PUSH1 0x0 REVERT JUMPDEST POP SWAP2 SWAP1 POP JUMP JUMPDEST PUSH1 0x20 DUP1 DUP3 MSTORE PUSH1 0x21 SWAP1 DUP3 ADD MSTORE PUSH32 0x546865206163636F756E7420646F6573206E6F74206861766520616E79205342 PUSH1 0x40 DUP3 ADD MSTORE PUSH1 0x15 PUSH1 0xFA SHL PUSH1 0x60 DUP3 ADD MSTORE PUSH1 0x80 ADD SWAP1 JUMP JUMPDEST PUSH1 0x20 DUP1 DUP3 MSTORE PUSH1 0x36 SWAP1 DUP3 ADD MSTORE PUSH32 0x4F6E6C7920746865206163636F756E742077697468204F50455241544F525F52 PUSH1 0x40 DUP3 ADD MSTORE PUSH22 0x13D3114818D85B88185D1D195CDD081D1A194814D095 PUSH1 0x52 SHL PUSH1 0x60 DUP3 ADD MSTORE PUSH1 0x80 ADD SWAP1 JUMP JUMPDEST PUSH1 0x20 DUP1 DUP3 MSTORE PUSH1 0x10 SWAP1 DUP3 ADD MSTORE PUSH16 0x4164647265737320697320656D707479 PUSH1 0x80 SHL PUSH1 0x40 DUP3 ADD MSTORE PUSH1 0x60 ADD SWAP1 JUMP JUMPDEST PUSH1 0x0 DUP2 MLOAD PUSH2 0x1A16 DUP2 DUP6 PUSH1 0x20 DUP7 ADD PUSH2 0x16BF JUMP JUMPDEST SWAP3 SWAP1 SWAP3 ADD SWAP3 SWAP2 POP POP JUMP JUMPDEST PUSH1 0x0 DUP1 DUP5 SLOAD DUP2 PUSH1 0x1 DUP3 DUP2 SHR SWAP2 POP DUP1 DUP4 AND DUP1 PUSH2 0x1A3C JUMPI PUSH1 0x7F DUP4 AND SWAP3 POP JUMPDEST PUSH1 0x20 DUP1 DUP5 LT DUP3 EQ ISZERO PUSH2 0x1A5C JUMPI PUSH4 0x4E487B71 PUSH1 0xE0 SHL DUP7 MSTORE PUSH1 0x22 PUSH1 0x4 MSTORE PUSH1 0x24 DUP7 REVERT JUMPDEST DUP2 DUP1 ISZERO PUSH2 0x1A70 JUMPI PUSH1 0x1 DUP2 EQ PUSH2 0x1A81 JUMPI PUSH2 0x1AAE JUMP JUMPDEST PUSH1 0xFF NOT DUP7 AND DUP10 MSTORE DUP5 DUP10 ADD SWAP7 POP PUSH2 0x1AAE JUMP JUMPDEST PUSH1 0x0 DUP12 DUP2 MSTORE PUSH1 0x20 SWAP1 KECCAK256 PUSH1 0x0 JUMPDEST DUP7 DUP2 LT ISZERO PUSH2 0x1AA6 JUMPI DUP2 SLOAD DUP12 DUP3 ADD MSTORE SWAP1 DUP6 ADD SWAP1 DUP4 ADD PUSH2 0x1A8D JUMP JUMPDEST POP POP DUP5 DUP10 ADD SWAP7 POP JUMPDEST POP POP POP POP POP POP PUSH2 0x1ABE DUP2 DUP6 PUSH2 0x1A04 JUMP JUMPDEST SWAP6 SWAP5 POP POP POP POP POP JUMP JUMPDEST PUSH1 0x0 PUSH1 0x0 NOT DUP3 EQ ISZERO PUSH2 0x1ADB JUMPI PUSH2 0x1ADB PUSH2 0x18D2 JUMP JUMPDEST POP PUSH1 0x1 ADD SWAP1 JUMP JUMPDEST PUSH4 0x4E487B71 PUSH1 0xE0 SHL PUSH1 0x0 MSTORE PUSH1 0x12 PUSH1 0x4 MSTORE PUSH1 0x24 PUSH1 0x0 REVERT JUMPDEST PUSH1 0x0 DUP3 PUSH2 0x1B07 JUMPI PUSH2 0x1B07 PUSH2 0x1AE2 JUMP JUMPDEST POP DIV SWAP1 JUMP JUMPDEST PUSH4 0x4E487B71 PUSH1 0xE0 SHL PUSH1 0x0 MSTORE PUSH1 0x41 PUSH1 0x4 MSTORE PUSH1 0x24 PUSH1 0x0 REVERT JUMPDEST PUSH1 0x0 DUP3 DUP3 LT ISZERO PUSH2 0x1B34 JUMPI PUSH2 0x1B34 PUSH2 0x18D2 JUMP JUMPDEST POP SUB SWAP1 JUMP JUMPDEST PUSH1 0x0 DUP3 PUSH2 0x1B48 JUMPI PUSH2 0x1B48 PUSH2 0x1AE2 JUMP JUMPDEST POP MOD SWAP1 JUMP JUMPDEST PUSH1 0x0 DUP3 NOT DUP3 GT ISZERO PUSH2 0x1B60 JUMPI PUSH2 0x1B60 PUSH2 0x18D2 JUMP JUMPDEST POP ADD SWAP1 JUMP JUMPDEST PUSH32 0x416363657373436F6E74726F6C3A206163636F756E7420000000000000000000 DUP2 MSTORE PUSH1 0x0 DUP4 MLOAD PUSH2 0x1B9D DUP2 PUSH1 0x17 DUP6 ADD PUSH1 0x20 DUP9 ADD PUSH2 0x16BF JUMP JUMPDEST PUSH17 0x1034B99036B4B9B9B4B733903937B6329 PUSH1 0x7D SHL PUSH1 0x17 SWAP2 DUP5 ADD SWAP2 DUP3 ADD MSTORE DUP4 MLOAD PUSH2 0x1BCE DUP2 PUSH1 0x28 DUP5 ADD PUSH1 0x20 DUP9 ADD PUSH2 0x16BF JUMP JUMPDEST ADD PUSH1 0x28 ADD SWAP5 SWAP4 POP POP POP POP JUMP JUMPDEST PUSH1 0x0 DUP2 PUSH1 0x0 NOT DIV DUP4 GT DUP3 ISZERO ISZERO AND ISZERO PUSH2 0x1BF4 JUMPI PUSH2 0x1BF4 PUSH2 0x18D2 JUMP JUMPDEST POP MUL SWAP1 JUMP JUMPDEST PUSH1 0x0 DUP2 PUSH2 0x1C08 JUMPI PUSH2 0x1C08 PUSH2 0x18D2 JUMP JUMPDEST POP PUSH1 0x0 NOT ADD SWAP1 JUMP JUMPDEST PUSH4 0x4E487B71 PUSH1 0xE0 SHL PUSH1 0x0 MSTORE PUSH1 0x31 PUSH1 0x4 MSTORE PUSH1 0x24 PUSH1 0x0 REVERT INVALID SLOAD PUSH9 0x652077616C6C657420 PUSH9 0x6173206E6F74206174 PUSH21 0x657374656420616E792053425497667070C54EF182 0xB0 CREATE2 DUP6 DUP12 SUB 0x4B 0xEA 0xC1 0xB6 RETURN ADDMOD SWAP11 LOG2 0xD3 XOR DUP12 0xB1 0xE8 SWAP3 SWAP16 0x4F 0xA9 0xB9 0x29 0xDD CALLCODE MSTORE 0xAD SHL 0xE2 0xC8 SWAP12 PUSH10 0xC2B068FC378DAA952BA7 CALL PUSH4 0xC4A11628 CREATE2 GAS 0x4D CREATE2 0x23 0xB3 0xEF LOG2 PUSH5 0x6970667358 0x22 SLT KECCAK256 MSTORE 0xC2 SWAP8 PUSH31 0xA14240FAFBDAC993288DFECABBA0725A9315FDD690BA00A82372A97664736F PUSH13 0x634300080C0033000000000000 "
				},
				"gasEstimates": {
					"creation": {
						"codeDepositCost": "1471800",
						"executionCost": "infinite",
						"totalCost": "infinite"
					},
					"external": {
						"DEFAULT_ADMIN_ROLE()": "217",
						"OPERATOR_ROLE()": "infinite",
						"attest(address)": "infinite",
						"attestId(address,uint256)": "infinite",
						"balanceOf(address)": "infinite",
						"batchAttest(address[])": "infinite",
						"batchRevoke(address[])": "infinite",
						"burn()": "infinite",
						"getRoleAdmin(bytes32)": "2559",
						"grantRole(bytes32,address)": "infinite",
						"hasRole(bytes32,address)": "2762",
						"isAdmin(address)": "2802",
						"isOperator(address)": "infinite",
						"name()": "infinite",
						"ownerOf(uint256)": "infinite",
						"renounceRole(bytes32,address)": "29062",
						"revoke(address)": "infinite",
						"revokeRole(bytes32,address)": "infinite",
						"setBaseTokenURI(string)": "infinite",
						"supportsInterface(bytes4)": "infinite",
						"symbol()": "infinite",
						"tokenIdOf(address)": "infinite",
						"tokenURI(uint256)": "infinite",
						"totalSupply()": "infinite"
					},
					"internal": {
						"initialize(string memory,string memory,address)": "infinite"
					}
				},
				"methodIdentifiers": {
					"DEFAULT_ADMIN_ROLE()": "a217fddf",
					"OPERATOR_ROLE()": "f5b541a6",
					"attest(address)": "eb31403f",
					"attestId(address,uint256)": "bc8dd06a",
					"balanceOf(address)": "70a08231",
					"batchAttest(address[])": "6c60144a",
					"batchRevoke(address[])": "011002df",
					"burn()": "44df8e70",
					"getRoleAdmin(bytes32)": "248a9ca3",
					"grantRole(bytes32,address)": "2f2ff15d",
					"hasRole(bytes32,address)": "91d14854",
					"isAdmin(address)": "24d7806c",
					"isOperator(address)": "6d70f7ae",
					"name()": "06fdde03",
					"ownerOf(uint256)": "6352211e",
					"renounceRole(bytes32,address)": "36568abe",
					"revoke(address)": "74a8f103",
					"revokeRole(bytes32,address)": "d547741f",
					"setBaseTokenURI(string)": "30176e13",
					"supportsInterface(bytes4)": "01ffc9a7",
					"symbol()": "95d89b41",
					"tokenIdOf(address)": "773c02d4",
					"tokenURI(uint256)": "c87b56dd",
					"totalSupply()": "18160ddd"
				}
			},
			"storageLayout": {
				"storage": [
					{
						"astId": 735,
						"contract": "source/BinanceBABT/contracts/SBT.sol:SBT",
						"label": "_roles",
						"offset": 0,
						"slot": "0",
						"type": "t_mapping(t_bytes32,t_struct(RoleData)730_storage)"
					},
					{
						"astId": 36,
						"contract": "source/BinanceBABT/contracts/SBT.sol:SBT",
						"label": "_ownerMap",
						"offset": 0,
						"slot": "1",
						"type": "t_struct(UintToAddressMap)2238_storage"
					},
					{
						"astId": 39,
						"contract": "source/BinanceBABT/contracts/SBT.sol:SBT",
						"label": "_tokenMap",
						"offset": 0,
						"slot": "4",
						"type": "t_struct(AddressToUintMap)2475_storage"
					},
					{
						"astId": 42,
						"contract": "source/BinanceBABT/contracts/SBT.sol:SBT",
						"label": "_tokenId",
						"offset": 0,
						"slot": "7",
						"type": "t_struct(Counter)1717_storage"
					},
					{
						"astId": 44,
						"contract": "source/BinanceBABT/contracts/SBT.sol:SBT",
						"label": "name",
						"offset": 0,
						"slot": "8",
						"type": "t_string_storage"
					},
					{
						"astId": 46,
						"contract": "source/BinanceBABT/contracts/SBT.sol:SBT",
						"label": "symbol",
						"offset": 0,
						"slot": "9",
						"type": "t_string_storage"
					},
					{
						"astId": 48,
						"contract": "source/BinanceBABT/contracts/SBT.sol:SBT",
						"label": "_baseTokenURI",
						"offset": 0,
						"slot": "10",
						"type": "t_string_storage"
					}
				],
				"types": {
					"t_address": {
						"encoding": "inplace",
						"label": "address",
						"numberOfBytes": "20"
					},
					"t_array(t_bytes32)dyn_storage": {
						"base": "t_bytes32",
						"encoding": "dynamic_array",
						"label": "bytes32[]",
						"numberOfBytes": "32"
					},
					"t_bool": {
						"encoding": "inplace",
						"label": "bool",
						"numberOfBytes": "1"
					},
					"t_bytes32": {
						"encoding": "inplace",
						"label": "bytes32",
						"numberOfBytes": "32"
					},
					"t_mapping(t_address,t_bool)": {
						"encoding": "mapping",
						"key": "t_address",
						"label": "mapping(address => bool)",
						"numberOfBytes": "32",
						"value": "t_bool"
					},
					"t_mapping(t_bytes32,t_bytes32)": {
						"encoding": "mapping",
						"key": "t_bytes32",
						"label": "mapping(bytes32 => bytes32)",
						"numberOfBytes": "32",
						"value": "t_bytes32"
					},
					"t_mapping(t_bytes32,t_struct(RoleData)730_storage)": {
						"encoding": "mapping",
						"key": "t_bytes32",
						"label": "mapping(bytes32 => struct AccessControl.RoleData)",
						"numberOfBytes": "32",
						"value": "t_struct(RoleData)730_storage"
					},
					"t_mapping(t_bytes32,t_uint256)": {
						"encoding": "mapping",
						"key": "t_bytes32",
						"label": "mapping(bytes32 => uint256)",
						"numberOfBytes": "32",
						"value": "t_uint256"
					},
					"t_string_storage": {
						"encoding": "bytes",
						"label": "string",
						"numberOfBytes": "32"
					},
					"t_struct(AddressToUintMap)2475_storage": {
						"encoding": "inplace",
						"label": "struct EnumerableMap.AddressToUintMap",
						"members": [
							{
								"astId": 2474,
								"contract": "source/BinanceBABT/contracts/SBT.sol:SBT",
								"label": "_inner",
								"offset": 0,
								"slot": "0",
								"type": "t_struct(Bytes32ToBytes32Map)1801_storage"
							}
						],
						"numberOfBytes": "96"
					},
					"t_struct(Bytes32Set)3112_storage": {
						"encoding": "inplace",
						"label": "struct EnumerableSet.Bytes32Set",
						"members": [
							{
								"astId": 3111,
								"contract": "source/BinanceBABT/contracts/SBT.sol:SBT",
								"label": "_inner",
								"offset": 0,
								"slot": "0",
								"type": "t_struct(Set)2918_storage"
							}
						],
						"numberOfBytes": "64"
					},
					"t_struct(Bytes32ToBytes32Map)1801_storage": {
						"encoding": "inplace",
						"label": "struct EnumerableMap.Bytes32ToBytes32Map",
						"members": [
							{
								"astId": 1796,
								"contract": "source/BinanceBABT/contracts/SBT.sol:SBT",
								"label": "_keys",
								"offset": 0,
								"slot": "0",
								"type": "t_struct(Bytes32Set)3112_storage"
							},
							{
								"astId": 1800,
								"contract": "source/BinanceBABT/contracts/SBT.sol:SBT",
								"label": "_values",
								"offset": 0,
								"slot": "2",
								"type": "t_mapping(t_bytes32,t_bytes32)"
							}
						],
						"numberOfBytes": "96"
					},
					"t_struct(Counter)1717_storage": {
						"encoding": "inplace",
						"label": "struct Counters.Counter",
						"members": [
							{
								"astId": 1716,
								"contract": "source/BinanceBABT/contracts/SBT.sol:SBT",
								"label": "_value",
								"offset": 0,
								"slot": "0",
								"type": "t_uint256"
							}
						],
						"numberOfBytes": "32"
					},
					"t_struct(RoleData)730_storage": {
						"encoding": "inplace",
						"label": "struct AccessControl.RoleData",
						"members": [
							{
								"astId": 727,
								"contract": "source/BinanceBABT/contracts/SBT.sol:SBT",
								"label": "members",
								"offset": 0,
								"slot": "0",
								"type": "t_mapping(t_address,t_bool)"
							},
							{
								"astId": 729,
								"contract": "source/BinanceBABT/contracts/SBT.sol:SBT",
								"label": "adminRole",
								"offset": 0,
								"slot": "1",
								"type": "t_bytes32"
							}
						],
						"numberOfBytes": "64"
					},
					"t_struct(Set)2918_storage": {
						"encoding": "inplace",
						"label": "struct EnumerableSet.Set",
						"members": [
							{
								"astId": 2913,
								"contract": "source/BinanceBABT/contracts/SBT.sol:SBT",
								"label": "_values",
								"offset": 0,
								"slot": "0",
								"type": "t_array(t_bytes32)dyn_storage"
							},
							{
								"astId": 2917,
								"contract": "source/BinanceBABT/contracts/SBT.sol:SBT",
								"label": "_indexes",
								"offset": 0,
								"slot": "1",
								"type": "t_mapping(t_bytes32,t_uint256)"
							}
						],
						"numberOfBytes": "64"
					},
					"t_struct(UintToAddressMap)2238_storage": {
						"encoding": "inplace",
						"label": "struct EnumerableMap.UintToAddressMap",
						"members": [
							{
								"astId": 2237,
								"contract": "source/BinanceBABT/contracts/SBT.sol:SBT",
								"label": "_inner",
								"offset": 0,
								"slot": "0",
								"type": "t_struct(Bytes32ToBytes32Map)1801_storage"
							}
						],
						"numberOfBytes": "96"
					},
					"t_uint256": {
						"encoding": "inplace",
						"label": "uint256",
						"numberOfBytes": "32"
					}
				}
			},
			"userdoc": {
				"kind": "user",
				"methods": {
					"balanceOf(address)": {
						"notice": "Count all SBTs assigned to an owner"
					},
					"burn()": {
						"notice": "At any time, an SBT receiver must be able to  disassociate themselves from an SBT publicly through calling this  function. Emits a {Burn} event. Emits a {Transfer} event."
					},
					"ownerOf(uint256)": {
						"notice": "Find the address bound to a SBT"
					}
				},
				"notice": "An experiment in Soul Bound Tokens (SBT's) following Vitalik's co-authored whitepaper at: https://papers.ssrn.com/sol3/papers.cfm?abstract_id=4105763 I propose for a rename to Non-Transferable Tokens NTT's",
				"version": 1
			}
		}
	}
}